{
	"scripts/Counter.sol": {
		"Counter": {
			"abi": [
				{
					"inputs": [],
					"name": "dec",
					"outputs": [],
					"stateMutability": "nonpayable",
					"type": "function"
				},
				{
					"inputs": [],
					"name": "get",
					"outputs": [
						{
							"internalType": "int256",
							"name": "",
							"type": "int256"
						}
					],
					"stateMutability": "view",
					"type": "function"
				},
				{
					"inputs": [],
					"name": "inc",
					"outputs": [],
					"stateMutability": "nonpayable",
					"type": "function"
				}
			],
			"devdoc": {
				"kind": "dev",
				"methods": {},
				"version": 1
			},
			"evm": {
				"assembly": "    /* \"scripts/Counter.sol\":58:472  contract Counter {... */\n  mstore(0x40, 0x80)\n  callvalue\n  dup1\n  iszero\n  tag_1\n  jumpi\n  0x00\n  dup1\n  revert\ntag_1:\n  pop\n  dataSize(sub_0)\n  dup1\n  dataOffset(sub_0)\n  0x00\n  codecopy\n  0x00\n  return\nstop\n\nsub_0: assembly {\n        /* \"scripts/Counter.sol\":58:472  contract Counter {... */\n      mstore(0x40, 0x80)\n      callvalue\n      dup1\n      iszero\n      tag_1\n      jumpi\n      0x00\n      dup1\n      revert\n    tag_1:\n      pop\n      jumpi(tag_2, lt(calldatasize, 0x04))\n      shr(0xe0, calldataload(0x00))\n      dup1\n      0x371303c0\n      eq\n      tag_3\n      jumpi\n      dup1\n      0x6d4ce63c\n      eq\n      tag_4\n      jumpi\n      dup1\n      0xb3bcfa82\n      eq\n      tag_5\n      jumpi\n    tag_2:\n      0x00\n      dup1\n      revert\n        /* \"scripts/Counter.sol\":189:238  function inc() public {... */\n    tag_3:\n      tag_6\n      tag_7\n      jump\t// in\n    tag_6:\n      stop\n        /* \"scripts/Counter.sol\":397:470  function get() public view returns (int256) {... */\n    tag_4:\n      tag_8\n      tag_9\n      jump\t// in\n    tag_8:\n      mload(0x40)\n      tag_10\n      swap2\n      swap1\n      tag_11\n      jump\t// in\n    tag_10:\n      mload(0x40)\n      dup1\n      swap2\n      sub\n      swap1\n      return\n        /* \"scripts/Counter.sol\":291:340  function dec() public {... */\n    tag_5:\n      tag_12\n      tag_13\n      jump\t// in\n    tag_12:\n      stop\n        /* \"scripts/Counter.sol\":189:238  function inc() public {... */\n    tag_7:\n        /* \"scripts/Counter.sol\":230:231  1 */\n      0x01\n        /* \"scripts/Counter.sol\":221:226  count */\n      0x00\n      dup1\n        /* \"scripts/Counter.sol\":221:231  count += 1 */\n      dup3\n      dup3\n      sload\n      tag_15\n      swap2\n      swap1\n      tag_16\n      jump\t// in\n    tag_15:\n      swap3\n      pop\n      pop\n      dup2\n      swap1\n      sstore\n      pop\n        /* \"scripts/Counter.sol\":189:238  function inc() public {... */\n      jump\t// out\n        /* \"scripts/Counter.sol\":397:470  function get() public view returns (int256) {... */\n    tag_9:\n        /* \"scripts/Counter.sol\":433:439  int256 */\n      0x00\n        /* \"scripts/Counter.sol\":458:463  count */\n      dup1\n      sload\n        /* \"scripts/Counter.sol\":451:463  return count */\n      swap1\n      pop\n        /* \"scripts/Counter.sol\":397:470  function get() public view returns (int256) {... */\n      swap1\n      jump\t// out\n        /* \"scripts/Counter.sol\":291:340  function dec() public {... */\n    tag_13:\n        /* \"scripts/Counter.sol\":332:333  1 */\n      0x01\n        /* \"scripts/Counter.sol\":323:328  count */\n      0x00\n      dup1\n        /* \"scripts/Counter.sol\":323:333  count -= 1 */\n      dup3\n      dup3\n      sload\n      tag_19\n      swap2\n      swap1\n      tag_20\n      jump\t// in\n    tag_19:\n      swap3\n      pop\n      pop\n      dup2\n      swap1\n      sstore\n      pop\n        /* \"scripts/Counter.sol\":291:340  function dec() public {... */\n      jump\t// out\n        /* \"#utility.yul\":7:83   */\n    tag_21:\n        /* \"#utility.yul\":43:50   */\n      0x00\n        /* \"#utility.yul\":72:77   */\n      dup2\n        /* \"#utility.yul\":61:77   */\n      swap1\n      pop\n        /* \"#utility.yul\":7:83   */\n      swap2\n      swap1\n      pop\n      jump\t// out\n        /* \"#utility.yul\":89:204   */\n    tag_22:\n        /* \"#utility.yul\":174:197   */\n      tag_27\n        /* \"#utility.yul\":191:196   */\n      dup2\n        /* \"#utility.yul\":174:197   */\n      tag_21\n      jump\t// in\n    tag_27:\n        /* \"#utility.yul\":169:172   */\n      dup3\n        /* \"#utility.yul\":162:198   */\n      mstore\n        /* \"#utility.yul\":89:204   */\n      pop\n      pop\n      jump\t// out\n        /* \"#utility.yul\":210:428   */\n    tag_11:\n        /* \"#utility.yul\":301:305   */\n      0x00\n        /* \"#utility.yul\":339:341   */\n      0x20\n        /* \"#utility.yul\":328:337   */\n      dup3\n        /* \"#utility.yul\":324:342   */\n      add\n        /* \"#utility.yul\":316:342   */\n      swap1\n      pop\n        /* \"#utility.yul\":352:421   */\n      tag_29\n        /* \"#utility.yul\":418:419   */\n      0x00\n        /* \"#utility.yul\":407:416   */\n      dup4\n        /* \"#utility.yul\":403:420   */\n      add\n        /* \"#utility.yul\":394:400   */\n      dup5\n        /* \"#utility.yul\":352:421   */\n      tag_22\n      jump\t// in\n    tag_29:\n        /* \"#utility.yul\":210:428   */\n      swap3\n      swap2\n      pop\n      pop\n      jump\t// out\n        /* \"#utility.yul\":434:614   */\n    tag_23:\n        /* \"#utility.yul\":482:559   */\n      0x4e487b7100000000000000000000000000000000000000000000000000000000\n        /* \"#utility.yul\":479:480   */\n      0x00\n        /* \"#utility.yul\":472:560   */\n      mstore\n        /* \"#utility.yul\":579:583   */\n      0x11\n        /* \"#utility.yul\":576:577   */\n      0x04\n        /* \"#utility.yul\":569:584   */\n      mstore\n        /* \"#utility.yul\":603:607   */\n      0x24\n        /* \"#utility.yul\":600:601   */\n      0x00\n        /* \"#utility.yul\":593:608   */\n      revert\n        /* \"#utility.yul\":620:995   */\n    tag_16:\n        /* \"#utility.yul\":659:662   */\n      0x00\n        /* \"#utility.yul\":678:697   */\n      tag_32\n        /* \"#utility.yul\":695:696   */\n      dup3\n        /* \"#utility.yul\":678:697   */\n      tag_21\n      jump\t// in\n    tag_32:\n        /* \"#utility.yul\":673:697   */\n      swap2\n      pop\n        /* \"#utility.yul\":711:730   */\n      tag_33\n        /* \"#utility.yul\":728:729   */\n      dup4\n        /* \"#utility.yul\":711:730   */\n      tag_21\n      jump\t// in\n    tag_33:\n        /* \"#utility.yul\":706:730   */\n      swap3\n      pop\n        /* \"#utility.yul\":753:754   */\n      dup3\n        /* \"#utility.yul\":750:751   */\n      dup3\n        /* \"#utility.yul\":746:755   */\n      add\n        /* \"#utility.yul\":739:755   */\n      swap1\n      pop\n        /* \"#utility.yul\":951:952   */\n      dup3\n        /* \"#utility.yul\":946:949   */\n      dup2\n        /* \"#utility.yul\":942:953   */\n      slt\n        /* \"#utility.yul\":935:954   */\n      iszero\n        /* \"#utility.yul\":931:932   */\n      0x00\n        /* \"#utility.yul\":928:929   */\n      dup4\n        /* \"#utility.yul\":924:933   */\n      slt\n        /* \"#utility.yul\":920:955   */\n      and\n        /* \"#utility.yul\":903:904   */\n      dup4\n        /* \"#utility.yul\":898:901   */\n      dup3\n        /* \"#utility.yul\":894:905   */\n      slt\n        /* \"#utility.yul\":889:890   */\n      0x00\n        /* \"#utility.yul\":886:887   */\n      dup5\n        /* \"#utility.yul\":882:891   */\n      slt\n        /* \"#utility.yul\":875:892   */\n      iszero\n        /* \"#utility.yul\":871:906   */\n      and\n        /* \"#utility.yul\":855:965   */\n      or\n        /* \"#utility.yul\":852:988   */\n      iszero\n      tag_34\n      jumpi\n        /* \"#utility.yul\":968:986   */\n      tag_35\n      tag_23\n      jump\t// in\n    tag_35:\n        /* \"#utility.yul\":852:988   */\n    tag_34:\n        /* \"#utility.yul\":620:995   */\n      swap3\n      swap2\n      pop\n      pop\n      jump\t// out\n        /* \"#utility.yul\":1001:1373   */\n    tag_20:\n        /* \"#utility.yul\":1040:1044   */\n      0x00\n        /* \"#utility.yul\":1060:1079   */\n      tag_37\n        /* \"#utility.yul\":1077:1078   */\n      dup3\n        /* \"#utility.yul\":1060:1079   */\n      tag_21\n      jump\t// in\n    tag_37:\n        /* \"#utility.yul\":1055:1079   */\n      swap2\n      pop\n        /* \"#utility.yul\":1093:1112   */\n      tag_38\n        /* \"#utility.yul\":1110:1111   */\n      dup4\n        /* \"#utility.yul\":1093:1112   */\n      tag_21\n      jump\t// in\n    tag_38:\n        /* \"#utility.yul\":1088:1112   */\n      swap3\n      pop\n        /* \"#utility.yul\":1136:1137   */\n      dup3\n        /* \"#utility.yul\":1133:1134   */\n      dup3\n        /* \"#utility.yul\":1129:1138   */\n      sub\n        /* \"#utility.yul\":1121:1138   */\n      swap1\n      pop\n        /* \"#utility.yul\":1330:1331   */\n      dup2\n        /* \"#utility.yul\":1324:1328   */\n      dup2\n        /* \"#utility.yul\":1320:1332   */\n      slt\n        /* \"#utility.yul\":1316:1317   */\n      0x00\n        /* \"#utility.yul\":1313:1314   */\n      dup5\n        /* \"#utility.yul\":1309:1318   */\n      slt\n        /* \"#utility.yul\":1305:1333   */\n      and\n        /* \"#utility.yul\":1288:1289   */\n      dup3\n        /* \"#utility.yul\":1282:1286   */\n      dup3\n        /* \"#utility.yul\":1278:1290   */\n      sgt\n        /* \"#utility.yul\":1273:1274   */\n      0x00\n        /* \"#utility.yul\":1270:1271   */\n      dup6\n        /* \"#utility.yul\":1266:1275   */\n      slt\n        /* \"#utility.yul\":1259:1276   */\n      iszero\n        /* \"#utility.yul\":1255:1291   */\n      and\n        /* \"#utility.yul\":1239:1343   */\n      or\n        /* \"#utility.yul\":1236:1366   */\n      iszero\n      tag_39\n      jumpi\n        /* \"#utility.yul\":1346:1364   */\n      tag_40\n      tag_23\n      jump\t// in\n    tag_40:\n        /* \"#utility.yul\":1236:1366   */\n    tag_39:\n        /* \"#utility.yul\":1001:1373   */\n      swap3\n      swap2\n      pop\n      pop\n      jump\t// out\n\n    auxdata: 0xa26469706673582212204545a5a64deb185af51c8a7aa1fcfb43b924b07d67b024ef7a8311c25c8799cf64736f6c634300081a0033\n}\n",
				"bytecode": {
					"linkReferences": {},
					"object": "6080604052348015600e575f80fd5b506101c68061001c5f395ff3fe608060405234801561000f575f80fd5b506004361061003f575f3560e01c8063371303c0146100435780636d4ce63c1461004d578063b3bcfa821461006b575b5f80fd5b61004b610075565b005b61005561008f565b60405161006291906100c9565b60405180910390f35b610073610097565b005b60015f80828254610086919061010f565b92505081905550565b5f8054905090565b60015f808282546100a89190610150565b92505081905550565b5f819050919050565b6100c3816100b1565b82525050565b5f6020820190506100dc5f8301846100ba565b92915050565b7f4e487b71000000000000000000000000000000000000000000000000000000005f52601160045260245ffd5b5f610119826100b1565b9150610124836100b1565b92508282019050828112155f8312168382125f84121516171561014a576101496100e2565b5b92915050565b5f61015a826100b1565b9150610165836100b1565b925082820390508181125f8412168282135f85121516171561018a576101896100e2565b5b9291505056fea26469706673582212204545a5a64deb185af51c8a7aa1fcfb43b924b07d67b024ef7a8311c25c8799cf64736f6c634300081a0033",
					"opcodes": "PUSH1 0x80 PUSH1 0x40 MSTORE CALLVALUE DUP1 ISZERO PUSH1 0xE JUMPI PUSH0 DUP1 REVERT JUMPDEST POP PUSH2 0x1C6 DUP1 PUSH2 0x1C PUSH0 CODECOPY PUSH0 RETURN INVALID PUSH1 0x80 PUSH1 0x40 MSTORE CALLVALUE DUP1 ISZERO PUSH2 0xF JUMPI PUSH0 DUP1 REVERT JUMPDEST POP PUSH1 0x4 CALLDATASIZE LT PUSH2 0x3F JUMPI PUSH0 CALLDATALOAD PUSH1 0xE0 SHR DUP1 PUSH4 0x371303C0 EQ PUSH2 0x43 JUMPI DUP1 PUSH4 0x6D4CE63C EQ PUSH2 0x4D JUMPI DUP1 PUSH4 0xB3BCFA82 EQ PUSH2 0x6B JUMPI JUMPDEST PUSH0 DUP1 REVERT JUMPDEST PUSH2 0x4B PUSH2 0x75 JUMP JUMPDEST STOP JUMPDEST PUSH2 0x55 PUSH2 0x8F JUMP JUMPDEST PUSH1 0x40 MLOAD PUSH2 0x62 SWAP2 SWAP1 PUSH2 0xC9 JUMP JUMPDEST PUSH1 0x40 MLOAD DUP1 SWAP2 SUB SWAP1 RETURN JUMPDEST PUSH2 0x73 PUSH2 0x97 JUMP JUMPDEST STOP JUMPDEST PUSH1 0x1 PUSH0 DUP1 DUP3 DUP3 SLOAD PUSH2 0x86 SWAP2 SWAP1 PUSH2 0x10F JUMP JUMPDEST SWAP3 POP POP DUP2 SWAP1 SSTORE POP JUMP JUMPDEST PUSH0 DUP1 SLOAD SWAP1 POP SWAP1 JUMP JUMPDEST PUSH1 0x1 PUSH0 DUP1 DUP3 DUP3 SLOAD PUSH2 0xA8 SWAP2 SWAP1 PUSH2 0x150 JUMP JUMPDEST SWAP3 POP POP DUP2 SWAP1 SSTORE POP JUMP JUMPDEST PUSH0 DUP2 SWAP1 POP SWAP2 SWAP1 POP JUMP JUMPDEST PUSH2 0xC3 DUP2 PUSH2 0xB1 JUMP JUMPDEST DUP3 MSTORE POP POP JUMP JUMPDEST PUSH0 PUSH1 0x20 DUP3 ADD SWAP1 POP PUSH2 0xDC PUSH0 DUP4 ADD DUP5 PUSH2 0xBA JUMP JUMPDEST SWAP3 SWAP2 POP POP JUMP JUMPDEST PUSH32 0x4E487B7100000000000000000000000000000000000000000000000000000000 PUSH0 MSTORE PUSH1 0x11 PUSH1 0x4 MSTORE PUSH1 0x24 PUSH0 REVERT JUMPDEST PUSH0 PUSH2 0x119 DUP3 PUSH2 0xB1 JUMP JUMPDEST SWAP2 POP PUSH2 0x124 DUP4 PUSH2 0xB1 JUMP JUMPDEST SWAP3 POP DUP3 DUP3 ADD SWAP1 POP DUP3 DUP2 SLT ISZERO PUSH0 DUP4 SLT AND DUP4 DUP3 SLT PUSH0 DUP5 SLT ISZERO AND OR ISZERO PUSH2 0x14A JUMPI PUSH2 0x149 PUSH2 0xE2 JUMP JUMPDEST JUMPDEST SWAP3 SWAP2 POP POP JUMP JUMPDEST PUSH0 PUSH2 0x15A DUP3 PUSH2 0xB1 JUMP JUMPDEST SWAP2 POP PUSH2 0x165 DUP4 PUSH2 0xB1 JUMP JUMPDEST SWAP3 POP DUP3 DUP3 SUB SWAP1 POP DUP2 DUP2 SLT PUSH0 DUP5 SLT AND DUP3 DUP3 SGT PUSH0 DUP6 SLT ISZERO AND OR ISZERO PUSH2 0x18A JUMPI PUSH2 0x189 PUSH2 0xE2 JUMP JUMPDEST JUMPDEST SWAP3 SWAP2 POP POP JUMP INVALID LOG2 PUSH5 0x6970667358 0x22 SLT KECCAK256 GASLIMIT GASLIMIT 0xA5 0xA6 0x4D 0xEB XOR GAS CREATE2 SHR DUP11 PUSH27 0xA1FCFB43B924B07D67B024EF7A8311C25C8799CF64736F6C634300 ADDMOD BYTE STOP CALLER "
				},
				"gasEstimates": {
					"creation": {
						"codeDepositCost": "90800",
						"executionCost": "139",
						"totalCost": "90939"
					},
					"external": {
						"dec()": "infinite",
						"get()": "2432",
						"inc()": "infinite"
					}
				},
				"methodIdentifiers": {
					"dec()": "b3bcfa82",
					"get()": "6d4ce63c",
					"inc()": "371303c0"
				}
			},
			"storageLayout": {
				"storage": [
					{
						"astId": 3,
						"contract": "scripts/Counter.sol:Counter",
						"label": "count",
						"offset": 0,
						"slot": "0",
						"type": "t_int256"
					}
				],
				"types": {
					"t_int256": {
						"encoding": "inplace",
						"label": "int256",
						"numberOfBytes": "32"
					}
				}
			},
			"userdoc": {
				"kind": "user",
				"methods": {},
				"version": 1
			}
		}
	}
}