{
	"scripts/CloudFunding.sol": {
		"CloudFunding": {
			"abi": [
				{
					"inputs": [
						{
							"internalType": "uint256",
							"name": "_duration",
							"type": "uint256"
						},
						{
							"internalType": "uint256",
							"name": "_goalAmount",
							"type": "uint256"
						}
					],
					"stateMutability": "nonpayable",
					"type": "constructor"
				},
				{
					"inputs": [],
					"name": "checkGoalReached",
					"outputs": [],
					"stateMutability": "nonpayable",
					"type": "function"
				},
				{
					"inputs": [],
					"name": "deadline",
					"outputs": [
						{
							"internalType": "uint256",
							"name": "",
							"type": "uint256"
						}
					],
					"stateMutability": "view",
					"type": "function"
				},
				{
					"inputs": [],
					"name": "ended",
					"outputs": [
						{
							"internalType": "bool",
							"name": "",
							"type": "bool"
						}
					],
					"stateMutability": "view",
					"type": "function"
				},
				{
					"inputs": [],
					"name": "fund",
					"outputs": [],
					"stateMutability": "payable",
					"type": "function"
				},
				{
					"inputs": [],
					"name": "goalAmount",
					"outputs": [
						{
							"internalType": "uint256",
							"name": "",
							"type": "uint256"
						}
					],
					"stateMutability": "view",
					"type": "function"
				},
				{
					"inputs": [
						{
							"internalType": "uint256",
							"name": "",
							"type": "uint256"
						}
					],
					"name": "investors",
					"outputs": [
						{
							"internalType": "address",
							"name": "addr",
							"type": "address"
						},
						{
							"internalType": "uint256",
							"name": "amount",
							"type": "uint256"
						}
					],
					"stateMutability": "view",
					"type": "function"
				},
				{
					"inputs": [],
					"name": "numInvestors",
					"outputs": [
						{
							"internalType": "uint256",
							"name": "",
							"type": "uint256"
						}
					],
					"stateMutability": "view",
					"type": "function"
				},
				{
					"inputs": [],
					"name": "owner",
					"outputs": [
						{
							"internalType": "address",
							"name": "",
							"type": "address"
						}
					],
					"stateMutability": "view",
					"type": "function"
				},
				{
					"inputs": [],
					"name": "status",
					"outputs": [
						{
							"internalType": "string",
							"name": "",
							"type": "string"
						}
					],
					"stateMutability": "view",
					"type": "function"
				},
				{
					"inputs": [],
					"name": "totalAmount",
					"outputs": [
						{
							"internalType": "uint256",
							"name": "",
							"type": "uint256"
						}
					],
					"stateMutability": "view",
					"type": "function"
				}
			],
			"devdoc": {
				"kind": "dev",
				"methods": {},
				"version": 1
			},
			"evm": {
				"assembly": "    /* \"scripts/CloudFunding.sol\":58:2146  contract CloudFunding {... */\n  mstore(0x40, 0x80)\n    /* \"scripts/CloudFunding.sol\":901:1178  constructor(uint _duration, uint _goalAmount) {... */\n  callvalue\n  dup1\n  iszero\n  tag_1\n  jumpi\n  0x00\n  dup1\n  revert\ntag_1:\n  pop\n  mload(0x40)\n  sub(codesize, bytecodeSize)\n  dup1\n  bytecodeSize\n  dup4\n  codecopy\n  dup2\n  dup2\n  add\n  0x40\n  mstore\n  dup2\n  add\n  swap1\n  tag_2\n  swap2\n  swap1\n  tag_3\n  jump\t// in\ntag_2:\n    /* \"scripts/CloudFunding.sol\":965:975  msg.sender */\n  caller\n    /* \"scripts/CloudFunding.sol\":957:962  owner */\n  0x01\n  0x00\n    /* \"scripts/CloudFunding.sol\":957:975  owner = msg.sender */\n  0x0100\n  exp\n  dup2\n  sload\n  dup2\n  0xffffffffffffffffffffffffffffffffffffffff\n  mul\n  not\n  and\n  swap1\n  dup4\n  0xffffffffffffffffffffffffffffffffffffffff\n  and\n  mul\n  or\n  swap1\n  sstore\n  pop\n    /* \"scripts/CloudFunding.sol\":1015:1024  _duration */\n  dup2\n    /* \"scripts/CloudFunding.sol\":997:1012  block.timestamp */\n  timestamp\n    /* \"scripts/CloudFunding.sol\":997:1024  block.timestamp + _duration */\n  tag_6\n  swap2\n  swap1\n  tag_7\n  jump\t// in\ntag_6:\n    /* \"scripts/CloudFunding.sol\":986:994  deadline */\n  0x03\n    /* \"scripts/CloudFunding.sol\":986:1024  deadline = block.timestamp + _duration */\n  dup2\n  swap1\n  sstore\n  pop\n    /* \"scripts/CloudFunding.sol\":1061:1068  1 ether */\n  0x0de0b6b3a7640000\n    /* \"scripts/CloudFunding.sol\":1047:1058  _goalAmount */\n  dup2\n    /* \"scripts/CloudFunding.sol\":1047:1068  _goalAmount * 1 ether */\n  tag_8\n  swap2\n  swap1\n  tag_9\n  jump\t// in\ntag_8:\n    /* \"scripts/CloudFunding.sol\":1034:1044  goalAmount */\n  0x06\n    /* \"scripts/CloudFunding.sol\":1034:1068  goalAmount = _goalAmount * 1 ether */\n  dup2\n  swap1\n  sstore\n  pop\n    /* \"scripts/CloudFunding.sol\":1078:1096  status = \"Funding\" */\n  mload(0x40)\n  dup1\n  0x40\n  add\n  0x40\n  mstore\n  dup1\n  0x07\n  dup2\n  mstore\n  0x20\n  add\n  0x46756e64696e6700000000000000000000000000000000000000000000000000\n  dup2\n  mstore\n  pop\n    /* \"scripts/CloudFunding.sol\":1078:1084  status */\n  0x04\n    /* \"scripts/CloudFunding.sol\":1078:1096  status = \"Funding\" */\n  swap1\n  dup2\n  tag_10\n  swap2\n  swap1\n  tag_11\n  jump\t// in\ntag_10:\n  pop\n    /* \"scripts/CloudFunding.sol\":1114:1119  false */\n  0x00\n    /* \"scripts/CloudFunding.sol\":1106:1111  ended */\n  0x05\n  0x00\n    /* \"scripts/CloudFunding.sol\":1106:1119  ended = false */\n  0x0100\n  exp\n  dup2\n  sload\n  dup2\n  0xff\n  mul\n  not\n  and\n  swap1\n  dup4\n  iszero\n  iszero\n  mul\n  or\n  swap1\n  sstore\n  pop\n    /* \"scripts/CloudFunding.sol\":1145:1146  0 */\n  0x00\n    /* \"scripts/CloudFunding.sol\":1130:1142  numInvestors */\n  0x02\n    /* \"scripts/CloudFunding.sol\":1130:1146  numInvestors = 0 */\n  dup2\n  swap1\n  sstore\n  pop\n    /* \"scripts/CloudFunding.sol\":1170:1171  0 */\n  0x00\n    /* \"scripts/CloudFunding.sol\":1156:1167  totalAmount */\n  0x07\n    /* \"scripts/CloudFunding.sol\":1156:1171  totalAmount = 0 */\n  dup2\n  swap1\n  sstore\n  pop\n    /* \"scripts/CloudFunding.sol\":901:1178  constructor(uint _duration, uint _goalAmount) {... */\n  pop\n  pop\n    /* \"scripts/CloudFunding.sol\":58:2146  contract CloudFunding {... */\n  jump(tag_12)\n    /* \"#utility.yul\":88:205   */\ntag_14:\n    /* \"#utility.yul\":197:198   */\n  0x00\n    /* \"#utility.yul\":194:195   */\n  dup1\n    /* \"#utility.yul\":187:199   */\n  revert\n    /* \"#utility.yul\":334:411   */\ntag_16:\n    /* \"#utility.yul\":371:378   */\n  0x00\n    /* \"#utility.yul\":400:405   */\n  dup2\n    /* \"#utility.yul\":389:405   */\n  swap1\n  pop\n    /* \"#utility.yul\":334:411   */\n  swap2\n  swap1\n  pop\n  jump\t// out\n    /* \"#utility.yul\":417:539   */\ntag_17:\n    /* \"#utility.yul\":490:514   */\n  tag_45\n    /* \"#utility.yul\":508:513   */\n  dup2\n    /* \"#utility.yul\":490:514   */\n  tag_16\n  jump\t// in\ntag_45:\n    /* \"#utility.yul\":483:488   */\n  dup2\n    /* \"#utility.yul\":480:515   */\n  eq\n    /* \"#utility.yul\":470:533   */\n  tag_46\n  jumpi\n    /* \"#utility.yul\":529:530   */\n  0x00\n    /* \"#utility.yul\":526:527   */\n  dup1\n    /* \"#utility.yul\":519:531   */\n  revert\n    /* \"#utility.yul\":470:533   */\ntag_46:\n    /* \"#utility.yul\":417:539   */\n  pop\n  jump\t// out\n    /* \"#utility.yul\":545:688   */\ntag_18:\n    /* \"#utility.yul\":602:607   */\n  0x00\n    /* \"#utility.yul\":633:639   */\n  dup2\n    /* \"#utility.yul\":627:640   */\n  mload\n    /* \"#utility.yul\":618:640   */\n  swap1\n  pop\n    /* \"#utility.yul\":649:682   */\n  tag_48\n    /* \"#utility.yul\":676:681   */\n  dup2\n    /* \"#utility.yul\":649:682   */\n  tag_17\n  jump\t// in\ntag_48:\n    /* \"#utility.yul\":545:688   */\n  swap3\n  swap2\n  pop\n  pop\n  jump\t// out\n    /* \"#utility.yul\":694:1201   */\ntag_3:\n    /* \"#utility.yul\":773:779   */\n  0x00\n    /* \"#utility.yul\":781:787   */\n  dup1\n    /* \"#utility.yul\":830:832   */\n  0x40\n    /* \"#utility.yul\":818:827   */\n  dup4\n    /* \"#utility.yul\":809:816   */\n  dup6\n    /* \"#utility.yul\":805:828   */\n  sub\n    /* \"#utility.yul\":801:833   */\n  slt\n    /* \"#utility.yul\":798:917   */\n  iszero\n  tag_50\n  jumpi\n    /* \"#utility.yul\":836:915   */\n  tag_51\n  tag_14\n  jump\t// in\ntag_51:\n    /* \"#utility.yul\":798:917   */\ntag_50:\n    /* \"#utility.yul\":956:957   */\n  0x00\n    /* \"#utility.yul\":981:1045   */\n  tag_52\n    /* \"#utility.yul\":1037:1044   */\n  dup6\n    /* \"#utility.yul\":1028:1034   */\n  dup3\n    /* \"#utility.yul\":1017:1026   */\n  dup7\n    /* \"#utility.yul\":1013:1035   */\n  add\n    /* \"#utility.yul\":981:1045   */\n  tag_18\n  jump\t// in\ntag_52:\n    /* \"#utility.yul\":971:1045   */\n  swap3\n  pop\n    /* \"#utility.yul\":927:1055   */\n  pop\n    /* \"#utility.yul\":1094:1096   */\n  0x20\n    /* \"#utility.yul\":1120:1184   */\n  tag_53\n    /* \"#utility.yul\":1176:1183   */\n  dup6\n    /* \"#utility.yul\":1167:1173   */\n  dup3\n    /* \"#utility.yul\":1156:1165   */\n  dup7\n    /* \"#utility.yul\":1152:1174   */\n  add\n    /* \"#utility.yul\":1120:1184   */\n  tag_18\n  jump\t// in\ntag_53:\n    /* \"#utility.yul\":1110:1184   */\n  swap2\n  pop\n    /* \"#utility.yul\":1065:1194   */\n  pop\n    /* \"#utility.yul\":694:1201   */\n  swap3\n  pop\n  swap3\n  swap1\n  pop\n  jump\t// out\n    /* \"#utility.yul\":1207:1387   */\ntag_19:\n    /* \"#utility.yul\":1255:1332   */\n  0x4e487b7100000000000000000000000000000000000000000000000000000000\n    /* \"#utility.yul\":1252:1253   */\n  0x00\n    /* \"#utility.yul\":1245:1333   */\n  mstore\n    /* \"#utility.yul\":1352:1356   */\n  0x11\n    /* \"#utility.yul\":1349:1350   */\n  0x04\n    /* \"#utility.yul\":1342:1357   */\n  mstore\n    /* \"#utility.yul\":1376:1380   */\n  0x24\n    /* \"#utility.yul\":1373:1374   */\n  0x00\n    /* \"#utility.yul\":1366:1381   */\n  revert\n    /* \"#utility.yul\":1393:1584   */\ntag_7:\n    /* \"#utility.yul\":1433:1436   */\n  0x00\n    /* \"#utility.yul\":1452:1472   */\n  tag_56\n    /* \"#utility.yul\":1470:1471   */\n  dup3\n    /* \"#utility.yul\":1452:1472   */\n  tag_16\n  jump\t// in\ntag_56:\n    /* \"#utility.yul\":1447:1472   */\n  swap2\n  pop\n    /* \"#utility.yul\":1486:1506   */\n  tag_57\n    /* \"#utility.yul\":1504:1505   */\n  dup4\n    /* \"#utility.yul\":1486:1506   */\n  tag_16\n  jump\t// in\ntag_57:\n    /* \"#utility.yul\":1481:1506   */\n  swap3\n  pop\n    /* \"#utility.yul\":1529:1530   */\n  dup3\n    /* \"#utility.yul\":1526:1527   */\n  dup3\n    /* \"#utility.yul\":1522:1531   */\n  add\n    /* \"#utility.yul\":1515:1531   */\n  swap1\n  pop\n    /* \"#utility.yul\":1550:1553   */\n  dup1\n    /* \"#utility.yul\":1547:1548   */\n  dup3\n    /* \"#utility.yul\":1544:1554   */\n  gt\n    /* \"#utility.yul\":1541:1577   */\n  iszero\n  tag_58\n  jumpi\n    /* \"#utility.yul\":1557:1575   */\n  tag_59\n  tag_19\n  jump\t// in\ntag_59:\n    /* \"#utility.yul\":1541:1577   */\ntag_58:\n    /* \"#utility.yul\":1393:1584   */\n  swap3\n  swap2\n  pop\n  pop\n  jump\t// out\n    /* \"#utility.yul\":1590:2000   */\ntag_9:\n    /* \"#utility.yul\":1630:1637   */\n  0x00\n    /* \"#utility.yul\":1653:1673   */\n  tag_61\n    /* \"#utility.yul\":1671:1672   */\n  dup3\n    /* \"#utility.yul\":1653:1673   */\n  tag_16\n  jump\t// in\ntag_61:\n    /* \"#utility.yul\":1648:1673   */\n  swap2\n  pop\n    /* \"#utility.yul\":1687:1707   */\n  tag_62\n    /* \"#utility.yul\":1705:1706   */\n  dup4\n    /* \"#utility.yul\":1687:1707   */\n  tag_16\n  jump\t// in\ntag_62:\n    /* \"#utility.yul\":1682:1707   */\n  swap3\n  pop\n    /* \"#utility.yul\":1742:1743   */\n  dup3\n    /* \"#utility.yul\":1739:1740   */\n  dup3\n    /* \"#utility.yul\":1735:1744   */\n  mul\n    /* \"#utility.yul\":1764:1794   */\n  tag_63\n    /* \"#utility.yul\":1782:1793   */\n  dup2\n    /* \"#utility.yul\":1764:1794   */\n  tag_16\n  jump\t// in\ntag_63:\n    /* \"#utility.yul\":1753:1794   */\n  swap2\n  pop\n    /* \"#utility.yul\":1943:1944   */\n  dup3\n    /* \"#utility.yul\":1934:1941   */\n  dup3\n    /* \"#utility.yul\":1930:1945   */\n  div\n    /* \"#utility.yul\":1927:1928   */\n  dup5\n    /* \"#utility.yul\":1924:1946   */\n  eq\n    /* \"#utility.yul\":1904:1905   */\n  dup4\n    /* \"#utility.yul\":1897:1906   */\n  iszero\n    /* \"#utility.yul\":1877:1960   */\n  or\n    /* \"#utility.yul\":1854:1993   */\n  tag_64\n  jumpi\n    /* \"#utility.yul\":1973:1991   */\n  tag_65\n  tag_19\n  jump\t// in\ntag_65:\n    /* \"#utility.yul\":1854:1993   */\ntag_64:\n    /* \"#utility.yul\":1638:2000   */\n  pop\n    /* \"#utility.yul\":1590:2000   */\n  swap3\n  swap2\n  pop\n  pop\n  jump\t// out\n    /* \"#utility.yul\":2006:2105   */\ntag_20:\n    /* \"#utility.yul\":2058:2064   */\n  0x00\n    /* \"#utility.yul\":2092:2097   */\n  dup2\n    /* \"#utility.yul\":2086:2098   */\n  mload\n    /* \"#utility.yul\":2076:2098   */\n  swap1\n  pop\n    /* \"#utility.yul\":2006:2105   */\n  swap2\n  swap1\n  pop\n  jump\t// out\n    /* \"#utility.yul\":2111:2291   */\ntag_21:\n    /* \"#utility.yul\":2159:2236   */\n  0x4e487b7100000000000000000000000000000000000000000000000000000000\n    /* \"#utility.yul\":2156:2157   */\n  0x00\n    /* \"#utility.yul\":2149:2237   */\n  mstore\n    /* \"#utility.yul\":2256:2260   */\n  0x41\n    /* \"#utility.yul\":2253:2254   */\n  0x04\n    /* \"#utility.yul\":2246:2261   */\n  mstore\n    /* \"#utility.yul\":2280:2284   */\n  0x24\n    /* \"#utility.yul\":2277:2278   */\n  0x00\n    /* \"#utility.yul\":2270:2285   */\n  revert\n    /* \"#utility.yul\":2297:2477   */\ntag_22:\n    /* \"#utility.yul\":2345:2422   */\n  0x4e487b7100000000000000000000000000000000000000000000000000000000\n    /* \"#utility.yul\":2342:2343   */\n  0x00\n    /* \"#utility.yul\":2335:2423   */\n  mstore\n    /* \"#utility.yul\":2442:2446   */\n  0x22\n    /* \"#utility.yul\":2439:2440   */\n  0x04\n    /* \"#utility.yul\":2432:2447   */\n  mstore\n    /* \"#utility.yul\":2466:2470   */\n  0x24\n    /* \"#utility.yul\":2463:2464   */\n  0x00\n    /* \"#utility.yul\":2456:2471   */\n  revert\n    /* \"#utility.yul\":2483:2803   */\ntag_23:\n    /* \"#utility.yul\":2527:2533   */\n  0x00\n    /* \"#utility.yul\":2564:2565   */\n  0x02\n    /* \"#utility.yul\":2558:2562   */\n  dup3\n    /* \"#utility.yul\":2554:2566   */\n  div\n    /* \"#utility.yul\":2544:2566   */\n  swap1\n  pop\n    /* \"#utility.yul\":2611:2612   */\n  0x01\n    /* \"#utility.yul\":2605:2609   */\n  dup3\n    /* \"#utility.yul\":2601:2613   */\n  and\n    /* \"#utility.yul\":2632:2650   */\n  dup1\n    /* \"#utility.yul\":2622:2703   */\n  tag_70\n  jumpi\n    /* \"#utility.yul\":2688:2692   */\n  0x7f\n    /* \"#utility.yul\":2680:2686   */\n  dup3\n    /* \"#utility.yul\":2676:2693   */\n  and\n    /* \"#utility.yul\":2666:2693   */\n  swap2\n  pop\n    /* \"#utility.yul\":2622:2703   */\ntag_70:\n    /* \"#utility.yul\":2750:2752   */\n  0x20\n    /* \"#utility.yul\":2742:2748   */\n  dup3\n    /* \"#utility.yul\":2739:2753   */\n  lt\n    /* \"#utility.yul\":2719:2737   */\n  dup2\n    /* \"#utility.yul\":2716:2754   */\n  sub\n    /* \"#utility.yul\":2713:2797   */\n  tag_71\n  jumpi\n    /* \"#utility.yul\":2769:2787   */\n  tag_72\n  tag_22\n  jump\t// in\ntag_72:\n    /* \"#utility.yul\":2713:2797   */\ntag_71:\n    /* \"#utility.yul\":2534:2803   */\n  pop\n    /* \"#utility.yul\":2483:2803   */\n  swap2\n  swap1\n  pop\n  jump\t// out\n    /* \"#utility.yul\":2809:2950   */\ntag_24:\n    /* \"#utility.yul\":2858:2862   */\n  0x00\n    /* \"#utility.yul\":2881:2884   */\n  dup2\n    /* \"#utility.yul\":2873:2884   */\n  swap1\n  pop\n    /* \"#utility.yul\":2904:2907   */\n  dup2\n    /* \"#utility.yul\":2901:2902   */\n  0x00\n    /* \"#utility.yul\":2894:2908   */\n  mstore\n    /* \"#utility.yul\":2938:2942   */\n  0x20\n    /* \"#utility.yul\":2935:2936   */\n  0x00\n    /* \"#utility.yul\":2925:2943   */\n  keccak256\n    /* \"#utility.yul\":2917:2943   */\n  swap1\n  pop\n    /* \"#utility.yul\":2809:2950   */\n  swap2\n  swap1\n  pop\n  jump\t// out\n    /* \"#utility.yul\":2956:3049   */\ntag_25:\n    /* \"#utility.yul\":2993:2999   */\n  0x00\n    /* \"#utility.yul\":3040:3042   */\n  0x20\n    /* \"#utility.yul\":3035:3037   */\n  0x1f\n    /* \"#utility.yul\":3028:3033   */\n  dup4\n    /* \"#utility.yul\":3024:3038   */\n  add\n    /* \"#utility.yul\":3020:3043   */\n  div\n    /* \"#utility.yul\":3010:3043   */\n  swap1\n  pop\n    /* \"#utility.yul\":2956:3049   */\n  swap2\n  swap1\n  pop\n  jump\t// out\n    /* \"#utility.yul\":3055:3162   */\ntag_26:\n    /* \"#utility.yul\":3099:3107   */\n  0x00\n    /* \"#utility.yul\":3149:3154   */\n  dup3\n    /* \"#utility.yul\":3143:3147   */\n  dup3\n    /* \"#utility.yul\":3139:3155   */\n  shl\n    /* \"#utility.yul\":3118:3155   */\n  swap1\n  pop\n    /* \"#utility.yul\":3055:3162   */\n  swap3\n  swap2\n  pop\n  pop\n  jump\t// out\n    /* \"#utility.yul\":3168:3561   */\ntag_27:\n    /* \"#utility.yul\":3237:3243   */\n  0x00\n    /* \"#utility.yul\":3287:3288   */\n  0x08\n    /* \"#utility.yul\":3275:3285   */\n  dup4\n    /* \"#utility.yul\":3271:3289   */\n  mul\n    /* \"#utility.yul\":3310:3407   */\n  tag_77\n    /* \"#utility.yul\":3340:3406   */\n  0xffffffffffffffffffffffffffffffffffffffffffffffffffffffffffffffff\n    /* \"#utility.yul\":3329:3338   */\n  dup3\n    /* \"#utility.yul\":3310:3407   */\n  tag_26\n  jump\t// in\ntag_77:\n    /* \"#utility.yul\":3428:3467   */\n  tag_78\n    /* \"#utility.yul\":3458:3466   */\n  dup7\n    /* \"#utility.yul\":3447:3456   */\n  dup4\n    /* \"#utility.yul\":3428:3467   */\n  tag_26\n  jump\t// in\ntag_78:\n    /* \"#utility.yul\":3416:3467   */\n  swap6\n  pop\n    /* \"#utility.yul\":3500:3504   */\n  dup1\n    /* \"#utility.yul\":3496:3505   */\n  not\n    /* \"#utility.yul\":3489:3494   */\n  dup5\n    /* \"#utility.yul\":3485:3506   */\n  and\n    /* \"#utility.yul\":3476:3506   */\n  swap4\n  pop\n    /* \"#utility.yul\":3549:3553   */\n  dup1\n    /* \"#utility.yul\":3539:3547   */\n  dup7\n    /* \"#utility.yul\":3535:3554   */\n  and\n    /* \"#utility.yul\":3528:3533   */\n  dup5\n    /* \"#utility.yul\":3525:3555   */\n  or\n    /* \"#utility.yul\":3515:3555   */\n  swap3\n  pop\n    /* \"#utility.yul\":3244:3561   */\n  pop\n  pop\n    /* \"#utility.yul\":3168:3561   */\n  swap4\n  swap3\n  pop\n  pop\n  pop\n  jump\t// out\n    /* \"#utility.yul\":3567:3627   */\ntag_28:\n    /* \"#utility.yul\":3595:3598   */\n  0x00\n    /* \"#utility.yul\":3616:3621   */\n  dup2\n    /* \"#utility.yul\":3609:3621   */\n  swap1\n  pop\n    /* \"#utility.yul\":3567:3627   */\n  swap2\n  swap1\n  pop\n  jump\t// out\n    /* \"#utility.yul\":3633:3775   */\ntag_29:\n    /* \"#utility.yul\":3683:3692   */\n  0x00\n    /* \"#utility.yul\":3716:3769   */\n  tag_81\n    /* \"#utility.yul\":3734:3768   */\n  tag_82\n    /* \"#utility.yul\":3743:3767   */\n  tag_83\n    /* \"#utility.yul\":3761:3766   */\n  dup5\n    /* \"#utility.yul\":3743:3767   */\n  tag_16\n  jump\t// in\ntag_83:\n    /* \"#utility.yul\":3734:3768   */\n  tag_28\n  jump\t// in\ntag_82:\n    /* \"#utility.yul\":3716:3769   */\n  tag_16\n  jump\t// in\ntag_81:\n    /* \"#utility.yul\":3703:3769   */\n  swap1\n  pop\n    /* \"#utility.yul\":3633:3775   */\n  swap2\n  swap1\n  pop\n  jump\t// out\n    /* \"#utility.yul\":3781:3856   */\ntag_30:\n    /* \"#utility.yul\":3824:3827   */\n  0x00\n    /* \"#utility.yul\":3845:3850   */\n  dup2\n    /* \"#utility.yul\":3838:3850   */\n  swap1\n  pop\n    /* \"#utility.yul\":3781:3856   */\n  swap2\n  swap1\n  pop\n  jump\t// out\n    /* \"#utility.yul\":3862:4131   */\ntag_31:\n    /* \"#utility.yul\":3972:4011   */\n  tag_86\n    /* \"#utility.yul\":4003:4010   */\n  dup4\n    /* \"#utility.yul\":3972:4011   */\n  tag_29\n  jump\t// in\ntag_86:\n    /* \"#utility.yul\":4033:4124   */\n  tag_87\n    /* \"#utility.yul\":4082:4123   */\n  tag_88\n    /* \"#utility.yul\":4106:4122   */\n  dup3\n    /* \"#utility.yul\":4082:4123   */\n  tag_30\n  jump\t// in\ntag_88:\n    /* \"#utility.yul\":4074:4080   */\n  dup5\n    /* \"#utility.yul\":4067:4071   */\n  dup5\n    /* \"#utility.yul\":4061:4072   */\n  sload\n    /* \"#utility.yul\":4033:4124   */\n  tag_27\n  jump\t// in\ntag_87:\n    /* \"#utility.yul\":4027:4031   */\n  dup3\n    /* \"#utility.yul\":4020:4125   */\n  sstore\n    /* \"#utility.yul\":3938:4131   */\n  pop\n    /* \"#utility.yul\":3862:4131   */\n  pop\n  pop\n  pop\n  jump\t// out\n    /* \"#utility.yul\":4137:4210   */\ntag_32:\n    /* \"#utility.yul\":4182:4185   */\n  0x00\n    /* \"#utility.yul\":4137:4210   */\n  swap1\n  jump\t// out\n    /* \"#utility.yul\":4216:4405   */\ntag_33:\n    /* \"#utility.yul\":4293:4325   */\n  tag_91\n  tag_32\n  jump\t// in\ntag_91:\n    /* \"#utility.yul\":4334:4399   */\n  tag_92\n    /* \"#utility.yul\":4392:4398   */\n  dup2\n    /* \"#utility.yul\":4384:4390   */\n  dup5\n    /* \"#utility.yul\":4378:4382   */\n  dup5\n    /* \"#utility.yul\":4334:4399   */\n  tag_31\n  jump\t// in\ntag_92:\n    /* \"#utility.yul\":4269:4405   */\n  pop\n    /* \"#utility.yul\":4216:4405   */\n  pop\n  pop\n  jump\t// out\n    /* \"#utility.yul\":4411:4597   */\ntag_34:\n    /* \"#utility.yul\":4471:4591   */\ntag_94:\n    /* \"#utility.yul\":4488:4491   */\n  dup2\n    /* \"#utility.yul\":4481:4486   */\n  dup2\n    /* \"#utility.yul\":4478:4492   */\n  lt\n    /* \"#utility.yul\":4471:4591   */\n  iszero\n  tag_96\n  jumpi\n    /* \"#utility.yul\":4542:4581   */\n  tag_97\n    /* \"#utility.yul\":4579:4580   */\n  0x00\n    /* \"#utility.yul\":4572:4577   */\n  dup3\n    /* \"#utility.yul\":4542:4581   */\n  tag_33\n  jump\t// in\ntag_97:\n    /* \"#utility.yul\":4515:4516   */\n  0x01\n    /* \"#utility.yul\":4508:4513   */\n  dup2\n    /* \"#utility.yul\":4504:4517   */\n  add\n    /* \"#utility.yul\":4495:4517   */\n  swap1\n  pop\n    /* \"#utility.yul\":4471:4591   */\n  jump(tag_94)\ntag_96:\n    /* \"#utility.yul\":4411:4597   */\n  pop\n  pop\n  jump\t// out\n    /* \"#utility.yul\":4603:5146   */\ntag_35:\n    /* \"#utility.yul\":4704:4706   */\n  0x1f\n    /* \"#utility.yul\":4699:4702   */\n  dup3\n    /* \"#utility.yul\":4696:4707   */\n  gt\n    /* \"#utility.yul\":4693:5139   */\n  iszero\n  tag_99\n  jumpi\n    /* \"#utility.yul\":4738:4776   */\n  tag_100\n    /* \"#utility.yul\":4770:4775   */\n  dup2\n    /* \"#utility.yul\":4738:4776   */\n  tag_24\n  jump\t// in\ntag_100:\n    /* \"#utility.yul\":4822:4851   */\n  tag_101\n    /* \"#utility.yul\":4840:4850   */\n  dup5\n    /* \"#utility.yul\":4822:4851   */\n  tag_25\n  jump\t// in\ntag_101:\n    /* \"#utility.yul\":4812:4820   */\n  dup2\n    /* \"#utility.yul\":4808:4852   */\n  add\n    /* \"#utility.yul\":5005:5007   */\n  0x20\n    /* \"#utility.yul\":4993:5003   */\n  dup6\n    /* \"#utility.yul\":4990:5008   */\n  lt\n    /* \"#utility.yul\":4987:5036   */\n  iszero\n  tag_102\n  jumpi\n    /* \"#utility.yul\":5026:5034   */\n  dup2\n    /* \"#utility.yul\":5011:5034   */\n  swap1\n  pop\n    /* \"#utility.yul\":4987:5036   */\ntag_102:\n    /* \"#utility.yul\":5049:5129   */\n  tag_103\n    /* \"#utility.yul\":5105:5127   */\n  tag_104\n    /* \"#utility.yul\":5123:5126   */\n  dup6\n    /* \"#utility.yul\":5105:5127   */\n  tag_25\n  jump\t// in\ntag_104:\n    /* \"#utility.yul\":5095:5103   */\n  dup4\n    /* \"#utility.yul\":5091:5128   */\n  add\n    /* \"#utility.yul\":5078:5089   */\n  dup3\n    /* \"#utility.yul\":5049:5129   */\n  tag_34\n  jump\t// in\ntag_103:\n    /* \"#utility.yul\":4708:5139   */\n  pop\n  pop\n    /* \"#utility.yul\":4693:5139   */\ntag_99:\n    /* \"#utility.yul\":4603:5146   */\n  pop\n  pop\n  pop\n  jump\t// out\n    /* \"#utility.yul\":5152:5269   */\ntag_36:\n    /* \"#utility.yul\":5206:5214   */\n  0x00\n    /* \"#utility.yul\":5256:5261   */\n  dup3\n    /* \"#utility.yul\":5250:5254   */\n  dup3\n    /* \"#utility.yul\":5246:5262   */\n  shr\n    /* \"#utility.yul\":5225:5262   */\n  swap1\n  pop\n    /* \"#utility.yul\":5152:5269   */\n  swap3\n  swap2\n  pop\n  pop\n  jump\t// out\n    /* \"#utility.yul\":5275:5444   */\ntag_37:\n    /* \"#utility.yul\":5319:5325   */\n  0x00\n    /* \"#utility.yul\":5352:5403   */\n  tag_107\n    /* \"#utility.yul\":5400:5401   */\n  0x00\n    /* \"#utility.yul\":5396:5402   */\n  not\n    /* \"#utility.yul\":5388:5393   */\n  dup5\n    /* \"#utility.yul\":5385:5386   */\n  0x08\n    /* \"#utility.yul\":5381:5394   */\n  mul\n    /* \"#utility.yul\":5352:5403   */\n  tag_36\n  jump\t// in\ntag_107:\n    /* \"#utility.yul\":5348:5404   */\n  not\n    /* \"#utility.yul\":5433:5437   */\n  dup1\n    /* \"#utility.yul\":5427:5431   */\n  dup4\n    /* \"#utility.yul\":5423:5438   */\n  and\n    /* \"#utility.yul\":5413:5438   */\n  swap2\n  pop\n    /* \"#utility.yul\":5326:5444   */\n  pop\n    /* \"#utility.yul\":5275:5444   */\n  swap3\n  swap2\n  pop\n  pop\n  jump\t// out\n    /* \"#utility.yul\":5449:5744   */\ntag_38:\n    /* \"#utility.yul\":5525:5529   */\n  0x00\n    /* \"#utility.yul\":5671:5700   */\n  tag_109\n    /* \"#utility.yul\":5696:5699   */\n  dup4\n    /* \"#utility.yul\":5690:5694   */\n  dup4\n    /* \"#utility.yul\":5671:5700   */\n  tag_37\n  jump\t// in\ntag_109:\n    /* \"#utility.yul\":5663:5700   */\n  swap2\n  pop\n    /* \"#utility.yul\":5733:5736   */\n  dup3\n    /* \"#utility.yul\":5730:5731   */\n  0x02\n    /* \"#utility.yul\":5726:5737   */\n  mul\n    /* \"#utility.yul\":5720:5724   */\n  dup3\n    /* \"#utility.yul\":5717:5738   */\n  or\n    /* \"#utility.yul\":5709:5738   */\n  swap1\n  pop\n    /* \"#utility.yul\":5449:5744   */\n  swap3\n  swap2\n  pop\n  pop\n  jump\t// out\n    /* \"#utility.yul\":5749:7144   */\ntag_11:\n    /* \"#utility.yul\":5866:5903   */\n  tag_111\n    /* \"#utility.yul\":5899:5902   */\n  dup3\n    /* \"#utility.yul\":5866:5903   */\n  tag_20\n  jump\t// in\ntag_111:\n    /* \"#utility.yul\":5968:5986   */\n  0xffffffffffffffff\n    /* \"#utility.yul\":5960:5966   */\n  dup2\n    /* \"#utility.yul\":5957:5987   */\n  gt\n    /* \"#utility.yul\":5954:6010   */\n  iszero\n  tag_112\n  jumpi\n    /* \"#utility.yul\":5990:6008   */\n  tag_113\n  tag_21\n  jump\t// in\ntag_113:\n    /* \"#utility.yul\":5954:6010   */\ntag_112:\n    /* \"#utility.yul\":6034:6072   */\n  tag_114\n    /* \"#utility.yul\":6066:6070   */\n  dup3\n    /* \"#utility.yul\":6060:6071   */\n  sload\n    /* \"#utility.yul\":6034:6072   */\n  tag_23\n  jump\t// in\ntag_114:\n    /* \"#utility.yul\":6119:6186   */\n  tag_115\n    /* \"#utility.yul\":6179:6185   */\n  dup3\n    /* \"#utility.yul\":6171:6177   */\n  dup3\n    /* \"#utility.yul\":6165:6169   */\n  dup6\n    /* \"#utility.yul\":6119:6186   */\n  tag_35\n  jump\t// in\ntag_115:\n    /* \"#utility.yul\":6213:6214   */\n  0x00\n    /* \"#utility.yul\":6237:6241   */\n  0x20\n    /* \"#utility.yul\":6224:6241   */\n  swap1\n  pop\n    /* \"#utility.yul\":6269:6271   */\n  0x1f\n    /* \"#utility.yul\":6261:6267   */\n  dup4\n    /* \"#utility.yul\":6258:6272   */\n  gt\n    /* \"#utility.yul\":6286:6287   */\n  0x01\n    /* \"#utility.yul\":6281:6899   */\n  dup2\n  eq\n  tag_117\n  jumpi\n    /* \"#utility.yul\":6943:6944   */\n  0x00\n    /* \"#utility.yul\":6960:6966   */\n  dup5\n    /* \"#utility.yul\":6957:7034   */\n  iszero\n  tag_118\n  jumpi\n    /* \"#utility.yul\":7009:7018   */\n  dup3\n    /* \"#utility.yul\":7004:7007   */\n  dup8\n    /* \"#utility.yul\":7000:7019   */\n  add\n    /* \"#utility.yul\":6994:7020   */\n  mload\n    /* \"#utility.yul\":6985:7020   */\n  swap1\n  pop\n    /* \"#utility.yul\":6957:7034   */\ntag_118:\n    /* \"#utility.yul\":7060:7127   */\n  tag_119\n    /* \"#utility.yul\":7120:7126   */\n  dup6\n    /* \"#utility.yul\":7113:7118   */\n  dup3\n    /* \"#utility.yul\":7060:7127   */\n  tag_38\n  jump\t// in\ntag_119:\n    /* \"#utility.yul\":7054:7058   */\n  dup7\n    /* \"#utility.yul\":7047:7128   */\n  sstore\n    /* \"#utility.yul\":6916:7138   */\n  pop\n    /* \"#utility.yul\":6251:7138   */\n  jump(tag_116)\n    /* \"#utility.yul\":6281:6899   */\ntag_117:\n    /* \"#utility.yul\":6333:6337   */\n  0x1f\n    /* \"#utility.yul\":6329:6338   */\n  not\n    /* \"#utility.yul\":6321:6327   */\n  dup5\n    /* \"#utility.yul\":6317:6339   */\n  and\n    /* \"#utility.yul\":6367:6404   */\n  tag_120\n    /* \"#utility.yul\":6399:6403   */\n  dup7\n    /* \"#utility.yul\":6367:6404   */\n  tag_24\n  jump\t// in\ntag_120:\n    /* \"#utility.yul\":6426:6427   */\n  0x00\n    /* \"#utility.yul\":6440:6648   */\ntag_121:\n    /* \"#utility.yul\":6454:6461   */\n  dup3\n    /* \"#utility.yul\":6451:6452   */\n  dup2\n    /* \"#utility.yul\":6448:6462   */\n  lt\n    /* \"#utility.yul\":6440:6648   */\n  iszero\n  tag_123\n  jumpi\n    /* \"#utility.yul\":6533:6542   */\n  dup5\n    /* \"#utility.yul\":6528:6531   */\n  dup10\n    /* \"#utility.yul\":6524:6543   */\n  add\n    /* \"#utility.yul\":6518:6544   */\n  mload\n    /* \"#utility.yul\":6510:6516   */\n  dup3\n    /* \"#utility.yul\":6503:6545   */\n  sstore\n    /* \"#utility.yul\":6584:6585   */\n  0x01\n    /* \"#utility.yul\":6576:6582   */\n  dup3\n    /* \"#utility.yul\":6572:6586   */\n  add\n    /* \"#utility.yul\":6562:6586   */\n  swap2\n  pop\n    /* \"#utility.yul\":6631:6633   */\n  0x20\n    /* \"#utility.yul\":6620:6629   */\n  dup6\n    /* \"#utility.yul\":6616:6634   */\n  add\n    /* \"#utility.yul\":6603:6634   */\n  swap5\n  pop\n    /* \"#utility.yul\":6477:6481   */\n  0x20\n    /* \"#utility.yul\":6474:6475   */\n  dup2\n    /* \"#utility.yul\":6470:6482   */\n  add\n    /* \"#utility.yul\":6465:6482   */\n  swap1\n  pop\n    /* \"#utility.yul\":6440:6648   */\n  jump(tag_121)\ntag_123:\n    /* \"#utility.yul\":6676:6682   */\n  dup7\n    /* \"#utility.yul\":6667:6674   */\n  dup4\n    /* \"#utility.yul\":6664:6683   */\n  lt\n    /* \"#utility.yul\":6661:6840   */\n  iszero\n  tag_124\n  jumpi\n    /* \"#utility.yul\":6734:6743   */\n  dup5\n    /* \"#utility.yul\":6729:6732   */\n  dup10\n    /* \"#utility.yul\":6725:6744   */\n  add\n    /* \"#utility.yul\":6719:6745   */\n  mload\n    /* \"#utility.yul\":6777:6825   */\n  tag_125\n    /* \"#utility.yul\":6819:6823   */\n  0x1f\n    /* \"#utility.yul\":6811:6817   */\n  dup10\n    /* \"#utility.yul\":6807:6824   */\n  and\n    /* \"#utility.yul\":6796:6805   */\n  dup3\n    /* \"#utility.yul\":6777:6825   */\n  tag_37\n  jump\t// in\ntag_125:\n    /* \"#utility.yul\":6769:6775   */\n  dup4\n    /* \"#utility.yul\":6762:6826   */\n  sstore\n    /* \"#utility.yul\":6684:6840   */\n  pop\n    /* \"#utility.yul\":6661:6840   */\ntag_124:\n    /* \"#utility.yul\":6886:6887   */\n  0x01\n    /* \"#utility.yul\":6882:6883   */\n  0x02\n    /* \"#utility.yul\":6874:6880   */\n  dup9\n    /* \"#utility.yul\":6870:6884   */\n  mul\n    /* \"#utility.yul\":6866:6888   */\n  add\n    /* \"#utility.yul\":6860:6864   */\n  dup9\n    /* \"#utility.yul\":6853:6889   */\n  sstore\n    /* \"#utility.yul\":6288:6899   */\n  pop\n  pop\n  pop\n    /* \"#utility.yul\":6251:7138   */\ntag_116:\n  pop\n    /* \"#utility.yul\":5841:7144   */\n  pop\n  pop\n  pop\n    /* \"#utility.yul\":5749:7144   */\n  pop\n  pop\n  jump\t// out\n    /* \"scripts/CloudFunding.sol\":58:2146  contract CloudFunding {... */\ntag_12:\n  dataSize(sub_0)\n  dup1\n  dataOffset(sub_0)\n  0x00\n  codecopy\n  0x00\n  return\nstop\n\nsub_0: assembly {\n        /* \"scripts/CloudFunding.sol\":58:2146  contract CloudFunding {... */\n      mstore(0x40, 0x80)\n      jumpi(tag_1, lt(calldatasize, 0x04))\n      shr(0xe0, calldataload(0x00))\n      dup1\n      0x2636b945\n      gt\n      tag_12\n      jumpi\n      dup1\n      0x2636b945\n      eq\n      tag_7\n      jumpi\n      dup1\n      0x29dcb0cf\n      eq\n      tag_8\n      jumpi\n      dup1\n      0x3feb5f2b\n      eq\n      tag_9\n      jumpi\n      dup1\n      0x8da5cb5b\n      eq\n      tag_10\n      jumpi\n      dup1\n      0xb60d4288\n      eq\n      tag_11\n      jumpi\n      jump(tag_1)\n    tag_12:\n      dup1\n      0x01cb3b20\n      eq\n      tag_2\n      jumpi\n      dup1\n      0x12fa6feb\n      eq\n      tag_3\n      jumpi\n      dup1\n      0x132ae5e9\n      eq\n      tag_4\n      jumpi\n      dup1\n      0x1a39d8ef\n      eq\n      tag_5\n      jumpi\n      dup1\n      0x200d2ed2\n      eq\n      tag_6\n      jumpi\n    tag_1:\n      0x00\n      dup1\n      revert\n        /* \"scripts/CloudFunding.sol\":1782:2143  function checkGoalReached() public onlyOwner {... */\n    tag_2:\n      callvalue\n      dup1\n      iszero\n      tag_13\n      jumpi\n      0x00\n      dup1\n      revert\n    tag_13:\n      pop\n      tag_14\n      tag_15\n      jump\t// in\n    tag_14:\n      stop\n        /* \"scripts/CloudFunding.sol\":544:561  bool public ended */\n    tag_3:\n      callvalue\n      dup1\n      iszero\n      tag_16\n      jumpi\n      0x00\n      dup1\n      revert\n    tag_16:\n      pop\n      tag_17\n      tag_18\n      jump\t// in\n    tag_17:\n      mload(0x40)\n      tag_19\n      swap2\n      swap1\n      tag_20\n      jump\t// in\n    tag_19:\n      mload(0x40)\n      dup1\n      swap2\n      sub\n      swap1\n      return\n        /* \"scripts/CloudFunding.sol\":363:387  uint public numInvestors */\n    tag_4:\n      callvalue\n      dup1\n      iszero\n      tag_21\n      jumpi\n      0x00\n      dup1\n      revert\n    tag_21:\n      pop\n      tag_22\n      tag_23\n      jump\t// in\n    tag_22:\n      mload(0x40)\n      tag_24\n      swap2\n      swap1\n      tag_25\n      jump\t// in\n    tag_24:\n      mload(0x40)\n      dup1\n      swap2\n      sub\n      swap1\n      return\n        /* \"scripts/CloudFunding.sol\":631:654  uint public totalAmount */\n    tag_5:\n      callvalue\n      dup1\n      iszero\n      tag_26\n      jumpi\n      0x00\n      dup1\n      revert\n    tag_26:\n      pop\n      tag_27\n      tag_28\n      jump\t// in\n    tag_27:\n      mload(0x40)\n      tag_29\n      swap2\n      swap1\n      tag_25\n      jump\t// in\n    tag_29:\n      mload(0x40)\n      dup1\n      swap2\n      sub\n      swap1\n      return\n        /* \"scripts/CloudFunding.sol\":449:469  string public status */\n    tag_6:\n      callvalue\n      dup1\n      iszero\n      tag_30\n      jumpi\n      0x00\n      dup1\n      revert\n    tag_30:\n      pop\n      tag_31\n      tag_32\n      jump\t// in\n    tag_31:\n      mload(0x40)\n      tag_33\n      swap2\n      swap1\n      tag_34\n      jump\t// in\n    tag_33:\n      mload(0x40)\n      dup1\n      swap2\n      sub\n      swap1\n      return\n        /* \"scripts/CloudFunding.sol\":590:612  uint public goalAmount */\n    tag_7:\n      callvalue\n      dup1\n      iszero\n      tag_35\n      jumpi\n      0x00\n      dup1\n      revert\n    tag_35:\n      pop\n      tag_36\n      tag_37\n      jump\t// in\n    tag_36:\n      mload(0x40)\n      tag_38\n      swap2\n      swap1\n      tag_25\n      jump\t// in\n    tag_38:\n      mload(0x40)\n      dup1\n      swap2\n      sub\n      swap1\n      return\n        /* \"scripts/CloudFunding.sol\":410:430  uint public deadline */\n    tag_8:\n      callvalue\n      dup1\n      iszero\n      tag_39\n      jumpi\n      0x00\n      dup1\n      revert\n    tag_39:\n      pop\n      tag_40\n      tag_41\n      jump\t// in\n    tag_40:\n      mload(0x40)\n      tag_42\n      swap2\n      swap1\n      tag_25\n      jump\t// in\n    tag_42:\n      mload(0x40)\n      dup1\n      swap2\n      sub\n      swap1\n      return\n        /* \"scripts/CloudFunding.sol\":224:266  mapping(uint => Investor) public investors */\n    tag_9:\n      callvalue\n      dup1\n      iszero\n      tag_43\n      jumpi\n      0x00\n      dup1\n      revert\n    tag_43:\n      pop\n      tag_44\n      0x04\n      dup1\n      calldatasize\n      sub\n      dup2\n      add\n      swap1\n      tag_45\n      swap2\n      swap1\n      tag_46\n      jump\t// in\n    tag_45:\n      tag_47\n      jump\t// in\n    tag_44:\n      mload(0x40)\n      tag_48\n      swap3\n      swap2\n      swap1\n      tag_49\n      jump\t// in\n    tag_48:\n      mload(0x40)\n      dup1\n      swap2\n      sub\n      swap1\n      return\n        /* \"scripts/CloudFunding.sol\":311:331  address public owner */\n    tag_10:\n      callvalue\n      dup1\n      iszero\n      tag_50\n      jumpi\n      0x00\n      dup1\n      revert\n    tag_50:\n      pop\n      tag_51\n      tag_52\n      jump\t// in\n    tag_51:\n      mload(0x40)\n      tag_53\n      swap2\n      swap1\n      tag_54\n      jump\t// in\n    tag_53:\n      mload(0x40)\n      dup1\n      swap2\n      sub\n      swap1\n      return\n        /* \"scripts/CloudFunding.sol\":1238:1712  function fund() public payable {... */\n    tag_11:\n      tag_55\n      tag_56\n      jump\t// in\n    tag_55:\n      stop\n        /* \"scripts/CloudFunding.sol\":1782:2143  function checkGoalReached() public onlyOwner {... */\n    tag_15:\n        /* \"scripts/CloudFunding.sol\":731:736  owner */\n      0x01\n      0x00\n      swap1\n      sload\n      swap1\n      0x0100\n      exp\n      swap1\n      div\n      0xffffffffffffffffffffffffffffffffffffffff\n      and\n        /* \"scripts/CloudFunding.sol\":717:736  msg.sender == owner */\n      0xffffffffffffffffffffffffffffffffffffffff\n      and\n        /* \"scripts/CloudFunding.sol\":717:727  msg.sender */\n      caller\n        /* \"scripts/CloudFunding.sol\":717:736  msg.sender == owner */\n      0xffffffffffffffffffffffffffffffffffffffff\n      and\n      eq\n        /* \"scripts/CloudFunding.sol\":709:771  require(msg.sender == owner, \"Error: caller is not the owner\") */\n      tag_58\n      jumpi\n      mload(0x40)\n      0x08c379a000000000000000000000000000000000000000000000000000000000\n      dup2\n      mstore\n      0x04\n      add\n      tag_59\n      swap1\n      tag_60\n      jump\t// in\n    tag_59:\n      mload(0x40)\n      dup1\n      swap2\n      sub\n      swap1\n      revert\n    tag_58:\n        /* \"scripts/CloudFunding.sol\":1864:1872  deadline */\n      sload(0x03)\n        /* \"scripts/CloudFunding.sol\":1845:1860  block.timestamp */\n      timestamp\n        /* \"scripts/CloudFunding.sol\":1845:1872  block.timestamp >= deadline */\n      lt\n      iszero\n        /* \"scripts/CloudFunding.sol\":1837:1902  require(block.timestamp >= deadline, \"Campaign is still ongoing\") */\n      tag_62\n      jumpi\n      mload(0x40)\n      0x08c379a000000000000000000000000000000000000000000000000000000000\n      dup2\n      mstore\n      0x04\n      add\n      tag_63\n      swap1\n      tag_64\n      jump\t// in\n    tag_63:\n      mload(0x40)\n      dup1\n      swap2\n      sub\n      swap1\n      revert\n    tag_62:\n        /* \"scripts/CloudFunding.sol\":1921:1926  ended */\n      0x05\n      0x00\n      swap1\n      sload\n      swap1\n      0x0100\n      exp\n      swap1\n      div\n      0xff\n      and\n        /* \"scripts/CloudFunding.sol\":1920:1926  !ended */\n      iszero\n        /* \"scripts/CloudFunding.sol\":1912:1953  require(!ended, \"Campaign already ended\") */\n      tag_65\n      jumpi\n      mload(0x40)\n      0x08c379a000000000000000000000000000000000000000000000000000000000\n      dup2\n      mstore\n      0x04\n      add\n      tag_66\n      swap1\n      tag_67\n      jump\t// in\n    tag_66:\n      mload(0x40)\n      dup1\n      swap2\n      sub\n      swap1\n      revert\n    tag_65:\n        /* \"scripts/CloudFunding.sol\":1983:1993  goalAmount */\n      sload(0x06)\n        /* \"scripts/CloudFunding.sol\":1968:1979  totalAmount */\n      sload(0x07)\n        /* \"scripts/CloudFunding.sol\":1968:1993  totalAmount >= goalAmount */\n      lt\n        /* \"scripts/CloudFunding.sol\":1964:2106  if (totalAmount >= goalAmount) {... */\n      tag_68\n      jumpi\n        /* \"scripts/CloudFunding.sol\":2009:2038  status = \"Campaign Succeeded\" */\n      mload(0x40)\n      dup1\n      0x40\n      add\n      0x40\n      mstore\n      dup1\n      0x12\n      dup2\n      mstore\n      0x20\n      add\n      0x43616d706169676e205375636365656465640000000000000000000000000000\n      dup2\n      mstore\n      pop\n        /* \"scripts/CloudFunding.sol\":2009:2015  status */\n      0x04\n        /* \"scripts/CloudFunding.sol\":2009:2038  status = \"Campaign Succeeded\" */\n      swap1\n      dup2\n      tag_69\n      swap2\n      swap1\n      tag_70\n      jump\t// in\n    tag_69:\n      pop\n        /* \"scripts/CloudFunding.sol\":1964:2106  if (totalAmount >= goalAmount) {... */\n      jump(tag_71)\n    tag_68:\n        /* \"scripts/CloudFunding.sol\":2069:2095  status = \"Campaign Failed\" */\n      mload(0x40)\n      dup1\n      0x40\n      add\n      0x40\n      mstore\n      dup1\n      0x0f\n      dup2\n      mstore\n      0x20\n      add\n      0x43616d706169676e204661696c65640000000000000000000000000000000000\n      dup2\n      mstore\n      pop\n        /* \"scripts/CloudFunding.sol\":2069:2075  status */\n      0x04\n        /* \"scripts/CloudFunding.sol\":2069:2095  status = \"Campaign Failed\" */\n      swap1\n      dup2\n      tag_72\n      swap2\n      swap1\n      tag_70\n      jump\t// in\n    tag_72:\n      pop\n        /* \"scripts/CloudFunding.sol\":1964:2106  if (totalAmount >= goalAmount) {... */\n    tag_71:\n        /* \"scripts/CloudFunding.sol\":2132:2136  true */\n      0x01\n        /* \"scripts/CloudFunding.sol\":2124:2129  ended */\n      0x05\n      0x00\n        /* \"scripts/CloudFunding.sol\":2124:2136  ended = true */\n      0x0100\n      exp\n      dup2\n      sload\n      dup2\n      0xff\n      mul\n      not\n      and\n      swap1\n      dup4\n      iszero\n      iszero\n      mul\n      or\n      swap1\n      sstore\n      pop\n        /* \"scripts/CloudFunding.sol\":1782:2143  function checkGoalReached() public onlyOwner {... */\n      jump\t// out\n        /* \"scripts/CloudFunding.sol\":544:561  bool public ended */\n    tag_18:\n      0x05\n      0x00\n      swap1\n      sload\n      swap1\n      0x0100\n      exp\n      swap1\n      div\n      0xff\n      and\n      dup2\n      jump\t// out\n        /* \"scripts/CloudFunding.sol\":363:387  uint public numInvestors */\n    tag_23:\n      sload(0x02)\n      dup2\n      jump\t// out\n        /* \"scripts/CloudFunding.sol\":631:654  uint public totalAmount */\n    tag_28:\n      sload(0x07)\n      dup2\n      jump\t// out\n        /* \"scripts/CloudFunding.sol\":449:469  string public status */\n    tag_32:\n      0x04\n      dup1\n      sload\n      tag_73\n      swap1\n      tag_74\n      jump\t// in\n    tag_73:\n      dup1\n      0x1f\n      add\n      0x20\n      dup1\n      swap2\n      div\n      mul\n      0x20\n      add\n      mload(0x40)\n      swap1\n      dup2\n      add\n      0x40\n      mstore\n      dup1\n      swap3\n      swap2\n      swap1\n      dup2\n      dup2\n      mstore\n      0x20\n      add\n      dup3\n      dup1\n      sload\n      tag_75\n      swap1\n      tag_74\n      jump\t// in\n    tag_75:\n      dup1\n      iszero\n      tag_76\n      jumpi\n      dup1\n      0x1f\n      lt\n      tag_77\n      jumpi\n      0x0100\n      dup1\n      dup4\n      sload\n      div\n      mul\n      dup4\n      mstore\n      swap2\n      0x20\n      add\n      swap2\n      jump(tag_76)\n    tag_77:\n      dup3\n      add\n      swap2\n      swap1\n      0x00\n      mstore\n      keccak256(0x00, 0x20)\n      swap1\n    tag_78:\n      dup2\n      sload\n      dup2\n      mstore\n      swap1\n      0x01\n      add\n      swap1\n      0x20\n      add\n      dup1\n      dup4\n      gt\n      tag_78\n      jumpi\n      dup3\n      swap1\n      sub\n      0x1f\n      and\n      dup3\n      add\n      swap2\n    tag_76:\n      pop\n      pop\n      pop\n      pop\n      pop\n      dup2\n      jump\t// out\n        /* \"scripts/CloudFunding.sol\":590:612  uint public goalAmount */\n    tag_37:\n      sload(0x06)\n      dup2\n      jump\t// out\n        /* \"scripts/CloudFunding.sol\":410:430  uint public deadline */\n    tag_41:\n      sload(0x03)\n      dup2\n      jump\t// out\n        /* \"scripts/CloudFunding.sol\":224:266  mapping(uint => Investor) public investors */\n    tag_47:\n      mstore(0x20, 0x00)\n      dup1\n      0x00\n      mstore\n      keccak256(0x00, 0x40)\n      0x00\n      swap2\n      pop\n      swap1\n      pop\n      dup1\n      0x00\n      add\n      0x00\n      swap1\n      sload\n      swap1\n      0x0100\n      exp\n      swap1\n      div\n      0xffffffffffffffffffffffffffffffffffffffff\n      and\n      swap1\n      dup1\n      0x01\n      add\n      sload\n      swap1\n      pop\n      dup3\n      jump\t// out\n        /* \"scripts/CloudFunding.sol\":311:331  address public owner */\n    tag_52:\n      0x01\n      0x00\n      swap1\n      sload\n      swap1\n      0x0100\n      exp\n      swap1\n      div\n      0xffffffffffffffffffffffffffffffffffffffff\n      and\n      dup2\n      jump\t// out\n        /* \"scripts/CloudFunding.sol\":1238:1712  function fund() public payable {... */\n    tag_56:\n        /* \"scripts/CloudFunding.sol\":1288:1293  ended */\n      0x05\n      0x00\n      swap1\n      sload\n      swap1\n      0x0100\n      exp\n      swap1\n      div\n      0xff\n      and\n        /* \"scripts/CloudFunding.sol\":1287:1293  !ended */\n      iszero\n        /* \"scripts/CloudFunding.sol\":1279:1315  require(!ended, \"Funding has ended\") */\n      tag_80\n      jumpi\n      mload(0x40)\n      0x08c379a000000000000000000000000000000000000000000000000000000000\n      dup2\n      mstore\n      0x04\n      add\n      tag_81\n      swap1\n      tag_82\n      jump\t// in\n    tag_81:\n      mload(0x40)\n      dup1\n      swap2\n      sub\n      swap1\n      revert\n    tag_80:\n        /* \"scripts/CloudFunding.sol\":1371:1379  deadline */\n      sload(0x03)\n        /* \"scripts/CloudFunding.sol\":1353:1368  block.timestamp */\n      timestamp\n        /* \"scripts/CloudFunding.sol\":1353:1379  block.timestamp < deadline */\n      lt\n        /* \"scripts/CloudFunding.sol\":1345:1403  require(block.timestamp < deadline, \"Deadline has passed\") */\n      tag_83\n      jumpi\n      mload(0x40)\n      0x08c379a000000000000000000000000000000000000000000000000000000000\n      dup2\n      mstore\n      0x04\n      add\n      tag_84\n      swap1\n      tag_85\n      jump\t// in\n    tag_84:\n      mload(0x40)\n      dup1\n      swap2\n      sub\n      swap1\n      revert\n    tag_83:\n        /* \"scripts/CloudFunding.sol\":1453:1454  0 */\n      0x00\n        /* \"scripts/CloudFunding.sol\":1441:1450  msg.value */\n      callvalue\n        /* \"scripts/CloudFunding.sol\":1441:1454  msg.value > 0 */\n      gt\n        /* \"scripts/CloudFunding.sol\":1433:1492  require(msg.value > 0, \"Investment must be greater than 0\") */\n      tag_86\n      jumpi\n      mload(0x40)\n      0x08c379a000000000000000000000000000000000000000000000000000000000\n      dup2\n      mstore\n      0x04\n      add\n      tag_87\n      swap1\n      tag_88\n      jump\t// in\n    tag_87:\n      mload(0x40)\n      dup1\n      swap2\n      sub\n      swap1\n      revert\n    tag_86:\n        /* \"scripts/CloudFunding.sol\":1561:1592  Investor(msg.sender, msg.value) */\n      mload(0x40)\n      dup1\n      0x40\n      add\n      0x40\n      mstore\n      dup1\n        /* \"scripts/CloudFunding.sol\":1570:1580  msg.sender */\n      caller\n        /* \"scripts/CloudFunding.sol\":1561:1592  Investor(msg.sender, msg.value) */\n      0xffffffffffffffffffffffffffffffffffffffff\n      and\n      dup2\n      mstore\n      0x20\n      add\n        /* \"scripts/CloudFunding.sol\":1582:1591  msg.value */\n      callvalue\n        /* \"scripts/CloudFunding.sol\":1561:1592  Investor(msg.sender, msg.value) */\n      dup2\n      mstore\n      pop\n        /* \"scripts/CloudFunding.sol\":1535:1544  investors */\n      0x00\n        /* \"scripts/CloudFunding.sol\":1535:1558  investors[numInvestors] */\n      dup1\n        /* \"scripts/CloudFunding.sol\":1545:1557  numInvestors */\n      sload(0x02)\n        /* \"scripts/CloudFunding.sol\":1535:1558  investors[numInvestors] */\n      dup2\n      mstore\n      0x20\n      add\n      swap1\n      dup2\n      mstore\n      0x20\n      add\n      0x00\n      keccak256\n        /* \"scripts/CloudFunding.sol\":1535:1592  investors[numInvestors] = Investor(msg.sender, msg.value) */\n      0x00\n      dup3\n      add\n      mload\n      dup2\n      0x00\n      add\n      exp(0x0100, 0x00)\n      dup2\n      sload\n      dup2\n      0xffffffffffffffffffffffffffffffffffffffff\n      mul\n      not\n      and\n      swap1\n      dup4\n      0xffffffffffffffffffffffffffffffffffffffff\n      and\n      mul\n      or\n      swap1\n      sstore\n      pop\n      0x20\n      dup3\n      add\n      mload\n      dup2\n      0x01\n      add\n      sstore\n      swap1\n      pop\n      pop\n        /* \"scripts/CloudFunding.sol\":1657:1669  numInvestors */\n      0x02\n      0x00\n        /* \"scripts/CloudFunding.sol\":1657:1671  numInvestors++ */\n      dup2\n      sload\n      dup1\n      swap3\n      swap2\n      swap1\n      tag_89\n      swap1\n      tag_90\n      jump\t// in\n    tag_89:\n      swap2\n      swap1\n      pop\n      sstore\n      pop\n        /* \"scripts/CloudFunding.sol\":1696:1705  msg.value */\n      callvalue\n        /* \"scripts/CloudFunding.sol\":1681:1692  totalAmount */\n      0x07\n      0x00\n        /* \"scripts/CloudFunding.sol\":1681:1705  totalAmount += msg.value */\n      dup3\n      dup3\n      sload\n      tag_91\n      swap2\n      swap1\n      tag_92\n      jump\t// in\n    tag_91:\n      swap3\n      pop\n      pop\n      dup2\n      swap1\n      sstore\n      pop\n        /* \"scripts/CloudFunding.sol\":1238:1712  function fund() public payable {... */\n      jump\t// out\n        /* \"#utility.yul\":7:97   */\n    tag_93:\n        /* \"#utility.yul\":41:48   */\n      0x00\n        /* \"#utility.yul\":84:89   */\n      dup2\n        /* \"#utility.yul\":77:90   */\n      iszero\n        /* \"#utility.yul\":70:91   */\n      iszero\n        /* \"#utility.yul\":59:91   */\n      swap1\n      pop\n        /* \"#utility.yul\":7:97   */\n      swap2\n      swap1\n      pop\n      jump\t// out\n        /* \"#utility.yul\":103:212   */\n    tag_94:\n        /* \"#utility.yul\":184:205   */\n      tag_143\n        /* \"#utility.yul\":199:204   */\n      dup2\n        /* \"#utility.yul\":184:205   */\n      tag_93\n      jump\t// in\n    tag_143:\n        /* \"#utility.yul\":179:182   */\n      dup3\n        /* \"#utility.yul\":172:206   */\n      mstore\n        /* \"#utility.yul\":103:212   */\n      pop\n      pop\n      jump\t// out\n        /* \"#utility.yul\":218:428   */\n    tag_20:\n        /* \"#utility.yul\":305:309   */\n      0x00\n        /* \"#utility.yul\":343:345   */\n      0x20\n        /* \"#utility.yul\":332:341   */\n      dup3\n        /* \"#utility.yul\":328:346   */\n      add\n        /* \"#utility.yul\":320:346   */\n      swap1\n      pop\n        /* \"#utility.yul\":356:421   */\n      tag_145\n        /* \"#utility.yul\":418:419   */\n      0x00\n        /* \"#utility.yul\":407:416   */\n      dup4\n        /* \"#utility.yul\":403:420   */\n      add\n        /* \"#utility.yul\":394:400   */\n      dup5\n        /* \"#utility.yul\":356:421   */\n      tag_94\n      jump\t// in\n    tag_145:\n        /* \"#utility.yul\":218:428   */\n      swap3\n      swap2\n      pop\n      pop\n      jump\t// out\n        /* \"#utility.yul\":434:511   */\n    tag_95:\n        /* \"#utility.yul\":471:478   */\n      0x00\n        /* \"#utility.yul\":500:505   */\n      dup2\n        /* \"#utility.yul\":489:505   */\n      swap1\n      pop\n        /* \"#utility.yul\":434:511   */\n      swap2\n      swap1\n      pop\n      jump\t// out\n        /* \"#utility.yul\":517:635   */\n    tag_96:\n        /* \"#utility.yul\":604:628   */\n      tag_148\n        /* \"#utility.yul\":622:627   */\n      dup2\n        /* \"#utility.yul\":604:628   */\n      tag_95\n      jump\t// in\n    tag_148:\n        /* \"#utility.yul\":599:602   */\n      dup3\n        /* \"#utility.yul\":592:629   */\n      mstore\n        /* \"#utility.yul\":517:635   */\n      pop\n      pop\n      jump\t// out\n        /* \"#utility.yul\":641:863   */\n    tag_25:\n        /* \"#utility.yul\":734:738   */\n      0x00\n        /* \"#utility.yul\":772:774   */\n      0x20\n        /* \"#utility.yul\":761:770   */\n      dup3\n        /* \"#utility.yul\":757:775   */\n      add\n        /* \"#utility.yul\":749:775   */\n      swap1\n      pop\n        /* \"#utility.yul\":785:856   */\n      tag_150\n        /* \"#utility.yul\":853:854   */\n      0x00\n        /* \"#utility.yul\":842:851   */\n      dup4\n        /* \"#utility.yul\":838:855   */\n      add\n        /* \"#utility.yul\":829:835   */\n      dup5\n        /* \"#utility.yul\":785:856   */\n      tag_96\n      jump\t// in\n    tag_150:\n        /* \"#utility.yul\":641:863   */\n      swap3\n      swap2\n      pop\n      pop\n      jump\t// out\n        /* \"#utility.yul\":869:968   */\n    tag_97:\n        /* \"#utility.yul\":921:927   */\n      0x00\n        /* \"#utility.yul\":955:960   */\n      dup2\n        /* \"#utility.yul\":949:961   */\n      mload\n        /* \"#utility.yul\":939:961   */\n      swap1\n      pop\n        /* \"#utility.yul\":869:968   */\n      swap2\n      swap1\n      pop\n      jump\t// out\n        /* \"#utility.yul\":974:1143   */\n    tag_98:\n        /* \"#utility.yul\":1058:1069   */\n      0x00\n        /* \"#utility.yul\":1092:1098   */\n      dup3\n        /* \"#utility.yul\":1087:1090   */\n      dup3\n        /* \"#utility.yul\":1080:1099   */\n      mstore\n        /* \"#utility.yul\":1132:1136   */\n      0x20\n        /* \"#utility.yul\":1127:1130   */\n      dup3\n        /* \"#utility.yul\":1123:1137   */\n      add\n        /* \"#utility.yul\":1108:1137   */\n      swap1\n      pop\n        /* \"#utility.yul\":974:1143   */\n      swap3\n      swap2\n      pop\n      pop\n      jump\t// out\n        /* \"#utility.yul\":1149:1288   */\n    tag_99:\n        /* \"#utility.yul\":1238:1244   */\n      dup3\n        /* \"#utility.yul\":1233:1236   */\n      dup2\n        /* \"#utility.yul\":1228:1231   */\n      dup4\n        /* \"#utility.yul\":1222:1245   */\n      mcopy\n        /* \"#utility.yul\":1279:1280   */\n      0x00\n        /* \"#utility.yul\":1270:1276   */\n      dup4\n        /* \"#utility.yul\":1265:1268   */\n      dup4\n        /* \"#utility.yul\":1261:1277   */\n      add\n        /* \"#utility.yul\":1254:1281   */\n      mstore\n        /* \"#utility.yul\":1149:1288   */\n      pop\n      pop\n      pop\n      jump\t// out\n        /* \"#utility.yul\":1294:1396   */\n    tag_100:\n        /* \"#utility.yul\":1335:1341   */\n      0x00\n        /* \"#utility.yul\":1386:1388   */\n      0x1f\n        /* \"#utility.yul\":1382:1389   */\n      not\n        /* \"#utility.yul\":1377:1379   */\n      0x1f\n        /* \"#utility.yul\":1370:1375   */\n      dup4\n        /* \"#utility.yul\":1366:1380   */\n      add\n        /* \"#utility.yul\":1362:1390   */\n      and\n        /* \"#utility.yul\":1352:1390   */\n      swap1\n      pop\n        /* \"#utility.yul\":1294:1396   */\n      swap2\n      swap1\n      pop\n      jump\t// out\n        /* \"#utility.yul\":1402:1779   */\n    tag_101:\n        /* \"#utility.yul\":1490:1493   */\n      0x00\n        /* \"#utility.yul\":1518:1557   */\n      tag_156\n        /* \"#utility.yul\":1551:1556   */\n      dup3\n        /* \"#utility.yul\":1518:1557   */\n      tag_97\n      jump\t// in\n    tag_156:\n        /* \"#utility.yul\":1573:1644   */\n      tag_157\n        /* \"#utility.yul\":1637:1643   */\n      dup2\n        /* \"#utility.yul\":1632:1635   */\n      dup6\n        /* \"#utility.yul\":1573:1644   */\n      tag_98\n      jump\t// in\n    tag_157:\n        /* \"#utility.yul\":1566:1644   */\n      swap4\n      pop\n        /* \"#utility.yul\":1653:1718   */\n      tag_158\n        /* \"#utility.yul\":1711:1717   */\n      dup2\n        /* \"#utility.yul\":1706:1709   */\n      dup6\n        /* \"#utility.yul\":1699:1703   */\n      0x20\n        /* \"#utility.yul\":1692:1697   */\n      dup7\n        /* \"#utility.yul\":1688:1704   */\n      add\n        /* \"#utility.yul\":1653:1718   */\n      tag_99\n      jump\t// in\n    tag_158:\n        /* \"#utility.yul\":1743:1772   */\n      tag_159\n        /* \"#utility.yul\":1765:1771   */\n      dup2\n        /* \"#utility.yul\":1743:1772   */\n      tag_100\n      jump\t// in\n    tag_159:\n        /* \"#utility.yul\":1738:1741   */\n      dup5\n        /* \"#utility.yul\":1734:1773   */\n      add\n        /* \"#utility.yul\":1727:1773   */\n      swap2\n      pop\n        /* \"#utility.yul\":1494:1779   */\n      pop\n        /* \"#utility.yul\":1402:1779   */\n      swap3\n      swap2\n      pop\n      pop\n      jump\t// out\n        /* \"#utility.yul\":1785:2098   */\n    tag_34:\n        /* \"#utility.yul\":1898:1902   */\n      0x00\n        /* \"#utility.yul\":1936:1938   */\n      0x20\n        /* \"#utility.yul\":1925:1934   */\n      dup3\n        /* \"#utility.yul\":1921:1939   */\n      add\n        /* \"#utility.yul\":1913:1939   */\n      swap1\n      pop\n        /* \"#utility.yul\":1985:1994   */\n      dup2\n        /* \"#utility.yul\":1979:1983   */\n      dup2\n        /* \"#utility.yul\":1975:1995   */\n      sub\n        /* \"#utility.yul\":1971:1972   */\n      0x00\n        /* \"#utility.yul\":1960:1969   */\n      dup4\n        /* \"#utility.yul\":1956:1973   */\n      add\n        /* \"#utility.yul\":1949:1996   */\n      mstore\n        /* \"#utility.yul\":2013:2091   */\n      tag_161\n        /* \"#utility.yul\":2086:2090   */\n      dup2\n        /* \"#utility.yul\":2077:2083   */\n      dup5\n        /* \"#utility.yul\":2013:2091   */\n      tag_101\n      jump\t// in\n    tag_161:\n        /* \"#utility.yul\":2005:2091   */\n      swap1\n      pop\n        /* \"#utility.yul\":1785:2098   */\n      swap3\n      swap2\n      pop\n      pop\n      jump\t// out\n        /* \"#utility.yul\":2185:2302   */\n    tag_103:\n        /* \"#utility.yul\":2294:2295   */\n      0x00\n        /* \"#utility.yul\":2291:2292   */\n      dup1\n        /* \"#utility.yul\":2284:2296   */\n      revert\n        /* \"#utility.yul\":2431:2553   */\n    tag_105:\n        /* \"#utility.yul\":2504:2528   */\n      tag_166\n        /* \"#utility.yul\":2522:2527   */\n      dup2\n        /* \"#utility.yul\":2504:2528   */\n      tag_95\n      jump\t// in\n    tag_166:\n        /* \"#utility.yul\":2497:2502   */\n      dup2\n        /* \"#utility.yul\":2494:2529   */\n      eq\n        /* \"#utility.yul\":2484:2547   */\n      tag_167\n      jumpi\n        /* \"#utility.yul\":2543:2544   */\n      0x00\n        /* \"#utility.yul\":2540:2541   */\n      dup1\n        /* \"#utility.yul\":2533:2545   */\n      revert\n        /* \"#utility.yul\":2484:2547   */\n    tag_167:\n        /* \"#utility.yul\":2431:2553   */\n      pop\n      jump\t// out\n        /* \"#utility.yul\":2559:2698   */\n    tag_106:\n        /* \"#utility.yul\":2605:2610   */\n      0x00\n        /* \"#utility.yul\":2643:2649   */\n      dup2\n        /* \"#utility.yul\":2630:2650   */\n      calldataload\n        /* \"#utility.yul\":2621:2650   */\n      swap1\n      pop\n        /* \"#utility.yul\":2659:2692   */\n      tag_169\n        /* \"#utility.yul\":2686:2691   */\n      dup2\n        /* \"#utility.yul\":2659:2692   */\n      tag_105\n      jump\t// in\n    tag_169:\n        /* \"#utility.yul\":2559:2698   */\n      swap3\n      swap2\n      pop\n      pop\n      jump\t// out\n        /* \"#utility.yul\":2704:3033   */\n    tag_46:\n        /* \"#utility.yul\":2763:2769   */\n      0x00\n        /* \"#utility.yul\":2812:2814   */\n      0x20\n        /* \"#utility.yul\":2800:2809   */\n      dup3\n        /* \"#utility.yul\":2791:2798   */\n      dup5\n        /* \"#utility.yul\":2787:2810   */\n      sub\n        /* \"#utility.yul\":2783:2815   */\n      slt\n        /* \"#utility.yul\":2780:2899   */\n      iszero\n      tag_171\n      jumpi\n        /* \"#utility.yul\":2818:2897   */\n      tag_172\n      tag_103\n      jump\t// in\n    tag_172:\n        /* \"#utility.yul\":2780:2899   */\n    tag_171:\n        /* \"#utility.yul\":2938:2939   */\n      0x00\n        /* \"#utility.yul\":2963:3016   */\n      tag_173\n        /* \"#utility.yul\":3008:3015   */\n      dup5\n        /* \"#utility.yul\":2999:3005   */\n      dup3\n        /* \"#utility.yul\":2988:2997   */\n      dup6\n        /* \"#utility.yul\":2984:3006   */\n      add\n        /* \"#utility.yul\":2963:3016   */\n      tag_106\n      jump\t// in\n    tag_173:\n        /* \"#utility.yul\":2953:3016   */\n      swap2\n      pop\n        /* \"#utility.yul\":2909:3026   */\n      pop\n        /* \"#utility.yul\":2704:3033   */\n      swap3\n      swap2\n      pop\n      pop\n      jump\t// out\n        /* \"#utility.yul\":3039:3165   */\n    tag_107:\n        /* \"#utility.yul\":3076:3083   */\n      0x00\n        /* \"#utility.yul\":3116:3158   */\n      0xffffffffffffffffffffffffffffffffffffffff\n        /* \"#utility.yul\":3109:3114   */\n      dup3\n        /* \"#utility.yul\":3105:3159   */\n      and\n        /* \"#utility.yul\":3094:3159   */\n      swap1\n      pop\n        /* \"#utility.yul\":3039:3165   */\n      swap2\n      swap1\n      pop\n      jump\t// out\n        /* \"#utility.yul\":3171:3267   */\n    tag_108:\n        /* \"#utility.yul\":3208:3215   */\n      0x00\n        /* \"#utility.yul\":3237:3261   */\n      tag_176\n        /* \"#utility.yul\":3255:3260   */\n      dup3\n        /* \"#utility.yul\":3237:3261   */\n      tag_107\n      jump\t// in\n    tag_176:\n        /* \"#utility.yul\":3226:3261   */\n      swap1\n      pop\n        /* \"#utility.yul\":3171:3267   */\n      swap2\n      swap1\n      pop\n      jump\t// out\n        /* \"#utility.yul\":3273:3391   */\n    tag_109:\n        /* \"#utility.yul\":3360:3384   */\n      tag_178\n        /* \"#utility.yul\":3378:3383   */\n      dup2\n        /* \"#utility.yul\":3360:3384   */\n      tag_108\n      jump\t// in\n    tag_178:\n        /* \"#utility.yul\":3355:3358   */\n      dup3\n        /* \"#utility.yul\":3348:3385   */\n      mstore\n        /* \"#utility.yul\":3273:3391   */\n      pop\n      pop\n      jump\t// out\n        /* \"#utility.yul\":3397:3729   */\n    tag_49:\n        /* \"#utility.yul\":3518:3522   */\n      0x00\n        /* \"#utility.yul\":3556:3558   */\n      0x40\n        /* \"#utility.yul\":3545:3554   */\n      dup3\n        /* \"#utility.yul\":3541:3559   */\n      add\n        /* \"#utility.yul\":3533:3559   */\n      swap1\n      pop\n        /* \"#utility.yul\":3569:3640   */\n      tag_180\n        /* \"#utility.yul\":3637:3638   */\n      0x00\n        /* \"#utility.yul\":3626:3635   */\n      dup4\n        /* \"#utility.yul\":3622:3639   */\n      add\n        /* \"#utility.yul\":3613:3619   */\n      dup6\n        /* \"#utility.yul\":3569:3640   */\n      tag_109\n      jump\t// in\n    tag_180:\n        /* \"#utility.yul\":3650:3722   */\n      tag_181\n        /* \"#utility.yul\":3718:3720   */\n      0x20\n        /* \"#utility.yul\":3707:3716   */\n      dup4\n        /* \"#utility.yul\":3703:3721   */\n      add\n        /* \"#utility.yul\":3694:3700   */\n      dup5\n        /* \"#utility.yul\":3650:3722   */\n      tag_96\n      jump\t// in\n    tag_181:\n        /* \"#utility.yul\":3397:3729   */\n      swap4\n      swap3\n      pop\n      pop\n      pop\n      jump\t// out\n        /* \"#utility.yul\":3735:3957   */\n    tag_54:\n        /* \"#utility.yul\":3828:3832   */\n      0x00\n        /* \"#utility.yul\":3866:3868   */\n      0x20\n        /* \"#utility.yul\":3855:3864   */\n      dup3\n        /* \"#utility.yul\":3851:3869   */\n      add\n        /* \"#utility.yul\":3843:3869   */\n      swap1\n      pop\n        /* \"#utility.yul\":3879:3950   */\n      tag_183\n        /* \"#utility.yul\":3947:3948   */\n      0x00\n        /* \"#utility.yul\":3936:3945   */\n      dup4\n        /* \"#utility.yul\":3932:3949   */\n      add\n        /* \"#utility.yul\":3923:3929   */\n      dup5\n        /* \"#utility.yul\":3879:3950   */\n      tag_109\n      jump\t// in\n    tag_183:\n        /* \"#utility.yul\":3735:3957   */\n      swap3\n      swap2\n      pop\n      pop\n      jump\t// out\n        /* \"#utility.yul\":3963:4143   */\n    tag_110:\n        /* \"#utility.yul\":4103:4135   */\n      0x4572726f723a2063616c6c6572206973206e6f7420746865206f776e65720000\n        /* \"#utility.yul\":4099:4100   */\n      0x00\n        /* \"#utility.yul\":4091:4097   */\n      dup3\n        /* \"#utility.yul\":4087:4101   */\n      add\n        /* \"#utility.yul\":4080:4136   */\n      mstore\n        /* \"#utility.yul\":3963:4143   */\n      pop\n      jump\t// out\n        /* \"#utility.yul\":4149:4515   */\n    tag_111:\n        /* \"#utility.yul\":4291:4294   */\n      0x00\n        /* \"#utility.yul\":4312:4379   */\n      tag_186\n        /* \"#utility.yul\":4376:4378   */\n      0x1e\n        /* \"#utility.yul\":4371:4374   */\n      dup4\n        /* \"#utility.yul\":4312:4379   */\n      tag_98\n      jump\t// in\n    tag_186:\n        /* \"#utility.yul\":4305:4379   */\n      swap2\n      pop\n        /* \"#utility.yul\":4388:4481   */\n      tag_187\n        /* \"#utility.yul\":4477:4480   */\n      dup3\n        /* \"#utility.yul\":4388:4481   */\n      tag_110\n      jump\t// in\n    tag_187:\n        /* \"#utility.yul\":4506:4508   */\n      0x20\n        /* \"#utility.yul\":4501:4504   */\n      dup3\n        /* \"#utility.yul\":4497:4509   */\n      add\n        /* \"#utility.yul\":4490:4509   */\n      swap1\n      pop\n        /* \"#utility.yul\":4149:4515   */\n      swap2\n      swap1\n      pop\n      jump\t// out\n        /* \"#utility.yul\":4521:4940   */\n    tag_60:\n        /* \"#utility.yul\":4687:4691   */\n      0x00\n        /* \"#utility.yul\":4725:4727   */\n      0x20\n        /* \"#utility.yul\":4714:4723   */\n      dup3\n        /* \"#utility.yul\":4710:4728   */\n      add\n        /* \"#utility.yul\":4702:4728   */\n      swap1\n      pop\n        /* \"#utility.yul\":4774:4783   */\n      dup2\n        /* \"#utility.yul\":4768:4772   */\n      dup2\n        /* \"#utility.yul\":4764:4784   */\n      sub\n        /* \"#utility.yul\":4760:4761   */\n      0x00\n        /* \"#utility.yul\":4749:4758   */\n      dup4\n        /* \"#utility.yul\":4745:4762   */\n      add\n        /* \"#utility.yul\":4738:4785   */\n      mstore\n        /* \"#utility.yul\":4802:4933   */\n      tag_189\n        /* \"#utility.yul\":4928:4932   */\n      dup2\n        /* \"#utility.yul\":4802:4933   */\n      tag_111\n      jump\t// in\n    tag_189:\n        /* \"#utility.yul\":4794:4933   */\n      swap1\n      pop\n        /* \"#utility.yul\":4521:4940   */\n      swap2\n      swap1\n      pop\n      jump\t// out\n        /* \"#utility.yul\":4946:5121   */\n    tag_112:\n        /* \"#utility.yul\":5086:5113   */\n      0x43616d706169676e206973207374696c6c206f6e676f696e6700000000000000\n        /* \"#utility.yul\":5082:5083   */\n      0x00\n        /* \"#utility.yul\":5074:5080   */\n      dup3\n        /* \"#utility.yul\":5070:5084   */\n      add\n        /* \"#utility.yul\":5063:5114   */\n      mstore\n        /* \"#utility.yul\":4946:5121   */\n      pop\n      jump\t// out\n        /* \"#utility.yul\":5127:5493   */\n    tag_113:\n        /* \"#utility.yul\":5269:5272   */\n      0x00\n        /* \"#utility.yul\":5290:5357   */\n      tag_192\n        /* \"#utility.yul\":5354:5356   */\n      0x19\n        /* \"#utility.yul\":5349:5352   */\n      dup4\n        /* \"#utility.yul\":5290:5357   */\n      tag_98\n      jump\t// in\n    tag_192:\n        /* \"#utility.yul\":5283:5357   */\n      swap2\n      pop\n        /* \"#utility.yul\":5366:5459   */\n      tag_193\n        /* \"#utility.yul\":5455:5458   */\n      dup3\n        /* \"#utility.yul\":5366:5459   */\n      tag_112\n      jump\t// in\n    tag_193:\n        /* \"#utility.yul\":5484:5486   */\n      0x20\n        /* \"#utility.yul\":5479:5482   */\n      dup3\n        /* \"#utility.yul\":5475:5487   */\n      add\n        /* \"#utility.yul\":5468:5487   */\n      swap1\n      pop\n        /* \"#utility.yul\":5127:5493   */\n      swap2\n      swap1\n      pop\n      jump\t// out\n        /* \"#utility.yul\":5499:5918   */\n    tag_64:\n        /* \"#utility.yul\":5665:5669   */\n      0x00\n        /* \"#utility.yul\":5703:5705   */\n      0x20\n        /* \"#utility.yul\":5692:5701   */\n      dup3\n        /* \"#utility.yul\":5688:5706   */\n      add\n        /* \"#utility.yul\":5680:5706   */\n      swap1\n      pop\n        /* \"#utility.yul\":5752:5761   */\n      dup2\n        /* \"#utility.yul\":5746:5750   */\n      dup2\n        /* \"#utility.yul\":5742:5762   */\n      sub\n        /* \"#utility.yul\":5738:5739   */\n      0x00\n        /* \"#utility.yul\":5727:5736   */\n      dup4\n        /* \"#utility.yul\":5723:5740   */\n      add\n        /* \"#utility.yul\":5716:5763   */\n      mstore\n        /* \"#utility.yul\":5780:5911   */\n      tag_195\n        /* \"#utility.yul\":5906:5910   */\n      dup2\n        /* \"#utility.yul\":5780:5911   */\n      tag_113\n      jump\t// in\n    tag_195:\n        /* \"#utility.yul\":5772:5911   */\n      swap1\n      pop\n        /* \"#utility.yul\":5499:5918   */\n      swap2\n      swap1\n      pop\n      jump\t// out\n        /* \"#utility.yul\":5924:6096   */\n    tag_114:\n        /* \"#utility.yul\":6064:6088   */\n      0x43616d706169676e20616c726561647920656e64656400000000000000000000\n        /* \"#utility.yul\":6060:6061   */\n      0x00\n        /* \"#utility.yul\":6052:6058   */\n      dup3\n        /* \"#utility.yul\":6048:6062   */\n      add\n        /* \"#utility.yul\":6041:6089   */\n      mstore\n        /* \"#utility.yul\":5924:6096   */\n      pop\n      jump\t// out\n        /* \"#utility.yul\":6102:6468   */\n    tag_115:\n        /* \"#utility.yul\":6244:6247   */\n      0x00\n        /* \"#utility.yul\":6265:6332   */\n      tag_198\n        /* \"#utility.yul\":6329:6331   */\n      0x16\n        /* \"#utility.yul\":6324:6327   */\n      dup4\n        /* \"#utility.yul\":6265:6332   */\n      tag_98\n      jump\t// in\n    tag_198:\n        /* \"#utility.yul\":6258:6332   */\n      swap2\n      pop\n        /* \"#utility.yul\":6341:6434   */\n      tag_199\n        /* \"#utility.yul\":6430:6433   */\n      dup3\n        /* \"#utility.yul\":6341:6434   */\n      tag_114\n      jump\t// in\n    tag_199:\n        /* \"#utility.yul\":6459:6461   */\n      0x20\n        /* \"#utility.yul\":6454:6457   */\n      dup3\n        /* \"#utility.yul\":6450:6462   */\n      add\n        /* \"#utility.yul\":6443:6462   */\n      swap1\n      pop\n        /* \"#utility.yul\":6102:6468   */\n      swap2\n      swap1\n      pop\n      jump\t// out\n        /* \"#utility.yul\":6474:6893   */\n    tag_67:\n        /* \"#utility.yul\":6640:6644   */\n      0x00\n        /* \"#utility.yul\":6678:6680   */\n      0x20\n        /* \"#utility.yul\":6667:6676   */\n      dup3\n        /* \"#utility.yul\":6663:6681   */\n      add\n        /* \"#utility.yul\":6655:6681   */\n      swap1\n      pop\n        /* \"#utility.yul\":6727:6736   */\n      dup2\n        /* \"#utility.yul\":6721:6725   */\n      dup2\n        /* \"#utility.yul\":6717:6737   */\n      sub\n        /* \"#utility.yul\":6713:6714   */\n      0x00\n        /* \"#utility.yul\":6702:6711   */\n      dup4\n        /* \"#utility.yul\":6698:6715   */\n      add\n        /* \"#utility.yul\":6691:6738   */\n      mstore\n        /* \"#utility.yul\":6755:6886   */\n      tag_201\n        /* \"#utility.yul\":6881:6885   */\n      dup2\n        /* \"#utility.yul\":6755:6886   */\n      tag_115\n      jump\t// in\n    tag_201:\n        /* \"#utility.yul\":6747:6886   */\n      swap1\n      pop\n        /* \"#utility.yul\":6474:6893   */\n      swap2\n      swap1\n      pop\n      jump\t// out\n        /* \"#utility.yul\":6899:7079   */\n    tag_116:\n        /* \"#utility.yul\":6947:7024   */\n      0x4e487b7100000000000000000000000000000000000000000000000000000000\n        /* \"#utility.yul\":6944:6945   */\n      0x00\n        /* \"#utility.yul\":6937:7025   */\n      mstore\n        /* \"#utility.yul\":7044:7048   */\n      0x41\n        /* \"#utility.yul\":7041:7042   */\n      0x04\n        /* \"#utility.yul\":7034:7049   */\n      mstore\n        /* \"#utility.yul\":7068:7072   */\n      0x24\n        /* \"#utility.yul\":7065:7066   */\n      0x00\n        /* \"#utility.yul\":7058:7073   */\n      revert\n        /* \"#utility.yul\":7085:7265   */\n    tag_117:\n        /* \"#utility.yul\":7133:7210   */\n      0x4e487b7100000000000000000000000000000000000000000000000000000000\n        /* \"#utility.yul\":7130:7131   */\n      0x00\n        /* \"#utility.yul\":7123:7211   */\n      mstore\n        /* \"#utility.yul\":7230:7234   */\n      0x22\n        /* \"#utility.yul\":7227:7228   */\n      0x04\n        /* \"#utility.yul\":7220:7235   */\n      mstore\n        /* \"#utility.yul\":7254:7258   */\n      0x24\n        /* \"#utility.yul\":7251:7252   */\n      0x00\n        /* \"#utility.yul\":7244:7259   */\n      revert\n        /* \"#utility.yul\":7271:7591   */\n    tag_74:\n        /* \"#utility.yul\":7315:7321   */\n      0x00\n        /* \"#utility.yul\":7352:7353   */\n      0x02\n        /* \"#utility.yul\":7346:7350   */\n      dup3\n        /* \"#utility.yul\":7342:7354   */\n      div\n        /* \"#utility.yul\":7332:7354   */\n      swap1\n      pop\n        /* \"#utility.yul\":7399:7400   */\n      0x01\n        /* \"#utility.yul\":7393:7397   */\n      dup3\n        /* \"#utility.yul\":7389:7401   */\n      and\n        /* \"#utility.yul\":7420:7438   */\n      dup1\n        /* \"#utility.yul\":7410:7491   */\n      tag_205\n      jumpi\n        /* \"#utility.yul\":7476:7480   */\n      0x7f\n        /* \"#utility.yul\":7468:7474   */\n      dup3\n        /* \"#utility.yul\":7464:7481   */\n      and\n        /* \"#utility.yul\":7454:7481   */\n      swap2\n      pop\n        /* \"#utility.yul\":7410:7491   */\n    tag_205:\n        /* \"#utility.yul\":7538:7540   */\n      0x20\n        /* \"#utility.yul\":7530:7536   */\n      dup3\n        /* \"#utility.yul\":7527:7541   */\n      lt\n        /* \"#utility.yul\":7507:7525   */\n      dup2\n        /* \"#utility.yul\":7504:7542   */\n      sub\n        /* \"#utility.yul\":7501:7585   */\n      tag_206\n      jumpi\n        /* \"#utility.yul\":7557:7575   */\n      tag_207\n      tag_117\n      jump\t// in\n    tag_207:\n        /* \"#utility.yul\":7501:7585   */\n    tag_206:\n        /* \"#utility.yul\":7322:7591   */\n      pop\n        /* \"#utility.yul\":7271:7591   */\n      swap2\n      swap1\n      pop\n      jump\t// out\n        /* \"#utility.yul\":7597:7738   */\n    tag_118:\n        /* \"#utility.yul\":7646:7650   */\n      0x00\n        /* \"#utility.yul\":7669:7672   */\n      dup2\n        /* \"#utility.yul\":7661:7672   */\n      swap1\n      pop\n        /* \"#utility.yul\":7692:7695   */\n      dup2\n        /* \"#utility.yul\":7689:7690   */\n      0x00\n        /* \"#utility.yul\":7682:7696   */\n      mstore\n        /* \"#utility.yul\":7726:7730   */\n      0x20\n        /* \"#utility.yul\":7723:7724   */\n      0x00\n        /* \"#utility.yul\":7713:7731   */\n      keccak256\n        /* \"#utility.yul\":7705:7731   */\n      swap1\n      pop\n        /* \"#utility.yul\":7597:7738   */\n      swap2\n      swap1\n      pop\n      jump\t// out\n        /* \"#utility.yul\":7744:7837   */\n    tag_119:\n        /* \"#utility.yul\":7781:7787   */\n      0x00\n        /* \"#utility.yul\":7828:7830   */\n      0x20\n        /* \"#utility.yul\":7823:7825   */\n      0x1f\n        /* \"#utility.yul\":7816:7821   */\n      dup4\n        /* \"#utility.yul\":7812:7826   */\n      add\n        /* \"#utility.yul\":7808:7831   */\n      div\n        /* \"#utility.yul\":7798:7831   */\n      swap1\n      pop\n        /* \"#utility.yul\":7744:7837   */\n      swap2\n      swap1\n      pop\n      jump\t// out\n        /* \"#utility.yul\":7843:7950   */\n    tag_120:\n        /* \"#utility.yul\":7887:7895   */\n      0x00\n        /* \"#utility.yul\":7937:7942   */\n      dup3\n        /* \"#utility.yul\":7931:7935   */\n      dup3\n        /* \"#utility.yul\":7927:7943   */\n      shl\n        /* \"#utility.yul\":7906:7943   */\n      swap1\n      pop\n        /* \"#utility.yul\":7843:7950   */\n      swap3\n      swap2\n      pop\n      pop\n      jump\t// out\n        /* \"#utility.yul\":7956:8349   */\n    tag_121:\n        /* \"#utility.yul\":8025:8031   */\n      0x00\n        /* \"#utility.yul\":8075:8076   */\n      0x08\n        /* \"#utility.yul\":8063:8073   */\n      dup4\n        /* \"#utility.yul\":8059:8077   */\n      mul\n        /* \"#utility.yul\":8098:8195   */\n      tag_212\n        /* \"#utility.yul\":8128:8194   */\n      0xffffffffffffffffffffffffffffffffffffffffffffffffffffffffffffffff\n        /* \"#utility.yul\":8117:8126   */\n      dup3\n        /* \"#utility.yul\":8098:8195   */\n      tag_120\n      jump\t// in\n    tag_212:\n        /* \"#utility.yul\":8216:8255   */\n      tag_213\n        /* \"#utility.yul\":8246:8254   */\n      dup7\n        /* \"#utility.yul\":8235:8244   */\n      dup4\n        /* \"#utility.yul\":8216:8255   */\n      tag_120\n      jump\t// in\n    tag_213:\n        /* \"#utility.yul\":8204:8255   */\n      swap6\n      pop\n        /* \"#utility.yul\":8288:8292   */\n      dup1\n        /* \"#utility.yul\":8284:8293   */\n      not\n        /* \"#utility.yul\":8277:8282   */\n      dup5\n        /* \"#utility.yul\":8273:8294   */\n      and\n        /* \"#utility.yul\":8264:8294   */\n      swap4\n      pop\n        /* \"#utility.yul\":8337:8341   */\n      dup1\n        /* \"#utility.yul\":8327:8335   */\n      dup7\n        /* \"#utility.yul\":8323:8342   */\n      and\n        /* \"#utility.yul\":8316:8321   */\n      dup5\n        /* \"#utility.yul\":8313:8343   */\n      or\n        /* \"#utility.yul\":8303:8343   */\n      swap3\n      pop\n        /* \"#utility.yul\":8032:8349   */\n      pop\n      pop\n        /* \"#utility.yul\":7956:8349   */\n      swap4\n      swap3\n      pop\n      pop\n      pop\n      jump\t// out\n        /* \"#utility.yul\":8355:8415   */\n    tag_122:\n        /* \"#utility.yul\":8383:8386   */\n      0x00\n        /* \"#utility.yul\":8404:8409   */\n      dup2\n        /* \"#utility.yul\":8397:8409   */\n      swap1\n      pop\n        /* \"#utility.yul\":8355:8415   */\n      swap2\n      swap1\n      pop\n      jump\t// out\n        /* \"#utility.yul\":8421:8563   */\n    tag_123:\n        /* \"#utility.yul\":8471:8480   */\n      0x00\n        /* \"#utility.yul\":8504:8557   */\n      tag_216\n        /* \"#utility.yul\":8522:8556   */\n      tag_217\n        /* \"#utility.yul\":8531:8555   */\n      tag_218\n        /* \"#utility.yul\":8549:8554   */\n      dup5\n        /* \"#utility.yul\":8531:8555   */\n      tag_95\n      jump\t// in\n    tag_218:\n        /* \"#utility.yul\":8522:8556   */\n      tag_122\n      jump\t// in\n    tag_217:\n        /* \"#utility.yul\":8504:8557   */\n      tag_95\n      jump\t// in\n    tag_216:\n        /* \"#utility.yul\":8491:8557   */\n      swap1\n      pop\n        /* \"#utility.yul\":8421:8563   */\n      swap2\n      swap1\n      pop\n      jump\t// out\n        /* \"#utility.yul\":8569:8644   */\n    tag_124:\n        /* \"#utility.yul\":8612:8615   */\n      0x00\n        /* \"#utility.yul\":8633:8638   */\n      dup2\n        /* \"#utility.yul\":8626:8638   */\n      swap1\n      pop\n        /* \"#utility.yul\":8569:8644   */\n      swap2\n      swap1\n      pop\n      jump\t// out\n        /* \"#utility.yul\":8650:8919   */\n    tag_125:\n        /* \"#utility.yul\":8760:8799   */\n      tag_221\n        /* \"#utility.yul\":8791:8798   */\n      dup4\n        /* \"#utility.yul\":8760:8799   */\n      tag_123\n      jump\t// in\n    tag_221:\n        /* \"#utility.yul\":8821:8912   */\n      tag_222\n        /* \"#utility.yul\":8870:8911   */\n      tag_223\n        /* \"#utility.yul\":8894:8910   */\n      dup3\n        /* \"#utility.yul\":8870:8911   */\n      tag_124\n      jump\t// in\n    tag_223:\n        /* \"#utility.yul\":8862:8868   */\n      dup5\n        /* \"#utility.yul\":8855:8859   */\n      dup5\n        /* \"#utility.yul\":8849:8860   */\n      sload\n        /* \"#utility.yul\":8821:8912   */\n      tag_121\n      jump\t// in\n    tag_222:\n        /* \"#utility.yul\":8815:8819   */\n      dup3\n        /* \"#utility.yul\":8808:8913   */\n      sstore\n        /* \"#utility.yul\":8726:8919   */\n      pop\n        /* \"#utility.yul\":8650:8919   */\n      pop\n      pop\n      pop\n      jump\t// out\n        /* \"#utility.yul\":8925:8998   */\n    tag_126:\n        /* \"#utility.yul\":8970:8973   */\n      0x00\n        /* \"#utility.yul\":8925:8998   */\n      swap1\n      jump\t// out\n        /* \"#utility.yul\":9004:9193   */\n    tag_127:\n        /* \"#utility.yul\":9081:9113   */\n      tag_226\n      tag_126\n      jump\t// in\n    tag_226:\n        /* \"#utility.yul\":9122:9187   */\n      tag_227\n        /* \"#utility.yul\":9180:9186   */\n      dup2\n        /* \"#utility.yul\":9172:9178   */\n      dup5\n        /* \"#utility.yul\":9166:9170   */\n      dup5\n        /* \"#utility.yul\":9122:9187   */\n      tag_125\n      jump\t// in\n    tag_227:\n        /* \"#utility.yul\":9057:9193   */\n      pop\n        /* \"#utility.yul\":9004:9193   */\n      pop\n      pop\n      jump\t// out\n        /* \"#utility.yul\":9199:9385   */\n    tag_128:\n        /* \"#utility.yul\":9259:9379   */\n    tag_229:\n        /* \"#utility.yul\":9276:9279   */\n      dup2\n        /* \"#utility.yul\":9269:9274   */\n      dup2\n        /* \"#utility.yul\":9266:9280   */\n      lt\n        /* \"#utility.yul\":9259:9379   */\n      iszero\n      tag_231\n      jumpi\n        /* \"#utility.yul\":9330:9369   */\n      tag_232\n        /* \"#utility.yul\":9367:9368   */\n      0x00\n        /* \"#utility.yul\":9360:9365   */\n      dup3\n        /* \"#utility.yul\":9330:9369   */\n      tag_127\n      jump\t// in\n    tag_232:\n        /* \"#utility.yul\":9303:9304   */\n      0x01\n        /* \"#utility.yul\":9296:9301   */\n      dup2\n        /* \"#utility.yul\":9292:9305   */\n      add\n        /* \"#utility.yul\":9283:9305   */\n      swap1\n      pop\n        /* \"#utility.yul\":9259:9379   */\n      jump(tag_229)\n    tag_231:\n        /* \"#utility.yul\":9199:9385   */\n      pop\n      pop\n      jump\t// out\n        /* \"#utility.yul\":9391:9934   */\n    tag_129:\n        /* \"#utility.yul\":9492:9494   */\n      0x1f\n        /* \"#utility.yul\":9487:9490   */\n      dup3\n        /* \"#utility.yul\":9484:9495   */\n      gt\n        /* \"#utility.yul\":9481:9927   */\n      iszero\n      tag_234\n      jumpi\n        /* \"#utility.yul\":9526:9564   */\n      tag_235\n        /* \"#utility.yul\":9558:9563   */\n      dup2\n        /* \"#utility.yul\":9526:9564   */\n      tag_118\n      jump\t// in\n    tag_235:\n        /* \"#utility.yul\":9610:9639   */\n      tag_236\n        /* \"#utility.yul\":9628:9638   */\n      dup5\n        /* \"#utility.yul\":9610:9639   */\n      tag_119\n      jump\t// in\n    tag_236:\n        /* \"#utility.yul\":9600:9608   */\n      dup2\n        /* \"#utility.yul\":9596:9640   */\n      add\n        /* \"#utility.yul\":9793:9795   */\n      0x20\n        /* \"#utility.yul\":9781:9791   */\n      dup6\n        /* \"#utility.yul\":9778:9796   */\n      lt\n        /* \"#utility.yul\":9775:9824   */\n      iszero\n      tag_237\n      jumpi\n        /* \"#utility.yul\":9814:9822   */\n      dup2\n        /* \"#utility.yul\":9799:9822   */\n      swap1\n      pop\n        /* \"#utility.yul\":9775:9824   */\n    tag_237:\n        /* \"#utility.yul\":9837:9917   */\n      tag_238\n        /* \"#utility.yul\":9893:9915   */\n      tag_239\n        /* \"#utility.yul\":9911:9914   */\n      dup6\n        /* \"#utility.yul\":9893:9915   */\n      tag_119\n      jump\t// in\n    tag_239:\n        /* \"#utility.yul\":9883:9891   */\n      dup4\n        /* \"#utility.yul\":9879:9916   */\n      add\n        /* \"#utility.yul\":9866:9877   */\n      dup3\n        /* \"#utility.yul\":9837:9917   */\n      tag_128\n      jump\t// in\n    tag_238:\n        /* \"#utility.yul\":9496:9927   */\n      pop\n      pop\n        /* \"#utility.yul\":9481:9927   */\n    tag_234:\n        /* \"#utility.yul\":9391:9934   */\n      pop\n      pop\n      pop\n      jump\t// out\n        /* \"#utility.yul\":9940:10057   */\n    tag_130:\n        /* \"#utility.yul\":9994:10002   */\n      0x00\n        /* \"#utility.yul\":10044:10049   */\n      dup3\n        /* \"#utility.yul\":10038:10042   */\n      dup3\n        /* \"#utility.yul\":10034:10050   */\n      shr\n        /* \"#utility.yul\":10013:10050   */\n      swap1\n      pop\n        /* \"#utility.yul\":9940:10057   */\n      swap3\n      swap2\n      pop\n      pop\n      jump\t// out\n        /* \"#utility.yul\":10063:10232   */\n    tag_131:\n        /* \"#utility.yul\":10107:10113   */\n      0x00\n        /* \"#utility.yul\":10140:10191   */\n      tag_242\n        /* \"#utility.yul\":10188:10189   */\n      0x00\n        /* \"#utility.yul\":10184:10190   */\n      not\n        /* \"#utility.yul\":10176:10181   */\n      dup5\n        /* \"#utility.yul\":10173:10174   */\n      0x08\n        /* \"#utility.yul\":10169:10182   */\n      mul\n        /* \"#utility.yul\":10140:10191   */\n      tag_130\n      jump\t// in\n    tag_242:\n        /* \"#utility.yul\":10136:10192   */\n      not\n        /* \"#utility.yul\":10221:10225   */\n      dup1\n        /* \"#utility.yul\":10215:10219   */\n      dup4\n        /* \"#utility.yul\":10211:10226   */\n      and\n        /* \"#utility.yul\":10201:10226   */\n      swap2\n      pop\n        /* \"#utility.yul\":10114:10232   */\n      pop\n        /* \"#utility.yul\":10063:10232   */\n      swap3\n      swap2\n      pop\n      pop\n      jump\t// out\n        /* \"#utility.yul\":10237:10532   */\n    tag_132:\n        /* \"#utility.yul\":10313:10317   */\n      0x00\n        /* \"#utility.yul\":10459:10488   */\n      tag_244\n        /* \"#utility.yul\":10484:10487   */\n      dup4\n        /* \"#utility.yul\":10478:10482   */\n      dup4\n        /* \"#utility.yul\":10459:10488   */\n      tag_131\n      jump\t// in\n    tag_244:\n        /* \"#utility.yul\":10451:10488   */\n      swap2\n      pop\n        /* \"#utility.yul\":10521:10524   */\n      dup3\n        /* \"#utility.yul\":10518:10519   */\n      0x02\n        /* \"#utility.yul\":10514:10525   */\n      mul\n        /* \"#utility.yul\":10508:10512   */\n      dup3\n        /* \"#utility.yul\":10505:10526   */\n      or\n        /* \"#utility.yul\":10497:10526   */\n      swap1\n      pop\n        /* \"#utility.yul\":10237:10532   */\n      swap3\n      swap2\n      pop\n      pop\n      jump\t// out\n        /* \"#utility.yul\":10537:11932   */\n    tag_70:\n        /* \"#utility.yul\":10654:10691   */\n      tag_246\n        /* \"#utility.yul\":10687:10690   */\n      dup3\n        /* \"#utility.yul\":10654:10691   */\n      tag_97\n      jump\t// in\n    tag_246:\n        /* \"#utility.yul\":10756:10774   */\n      0xffffffffffffffff\n        /* \"#utility.yul\":10748:10754   */\n      dup2\n        /* \"#utility.yul\":10745:10775   */\n      gt\n        /* \"#utility.yul\":10742:10798   */\n      iszero\n      tag_247\n      jumpi\n        /* \"#utility.yul\":10778:10796   */\n      tag_248\n      tag_116\n      jump\t// in\n    tag_248:\n        /* \"#utility.yul\":10742:10798   */\n    tag_247:\n        /* \"#utility.yul\":10822:10860   */\n      tag_249\n        /* \"#utility.yul\":10854:10858   */\n      dup3\n        /* \"#utility.yul\":10848:10859   */\n      sload\n        /* \"#utility.yul\":10822:10860   */\n      tag_74\n      jump\t// in\n    tag_249:\n        /* \"#utility.yul\":10907:10974   */\n      tag_250\n        /* \"#utility.yul\":10967:10973   */\n      dup3\n        /* \"#utility.yul\":10959:10965   */\n      dup3\n        /* \"#utility.yul\":10953:10957   */\n      dup6\n        /* \"#utility.yul\":10907:10974   */\n      tag_129\n      jump\t// in\n    tag_250:\n        /* \"#utility.yul\":11001:11002   */\n      0x00\n        /* \"#utility.yul\":11025:11029   */\n      0x20\n        /* \"#utility.yul\":11012:11029   */\n      swap1\n      pop\n        /* \"#utility.yul\":11057:11059   */\n      0x1f\n        /* \"#utility.yul\":11049:11055   */\n      dup4\n        /* \"#utility.yul\":11046:11060   */\n      gt\n        /* \"#utility.yul\":11074:11075   */\n      0x01\n        /* \"#utility.yul\":11069:11687   */\n      dup2\n      eq\n      tag_252\n      jumpi\n        /* \"#utility.yul\":11731:11732   */\n      0x00\n        /* \"#utility.yul\":11748:11754   */\n      dup5\n        /* \"#utility.yul\":11745:11822   */\n      iszero\n      tag_253\n      jumpi\n        /* \"#utility.yul\":11797:11806   */\n      dup3\n        /* \"#utility.yul\":11792:11795   */\n      dup8\n        /* \"#utility.yul\":11788:11807   */\n      add\n        /* \"#utility.yul\":11782:11808   */\n      mload\n        /* \"#utility.yul\":11773:11808   */\n      swap1\n      pop\n        /* \"#utility.yul\":11745:11822   */\n    tag_253:\n        /* \"#utility.yul\":11848:11915   */\n      tag_254\n        /* \"#utility.yul\":11908:11914   */\n      dup6\n        /* \"#utility.yul\":11901:11906   */\n      dup3\n        /* \"#utility.yul\":11848:11915   */\n      tag_132\n      jump\t// in\n    tag_254:\n        /* \"#utility.yul\":11842:11846   */\n      dup7\n        /* \"#utility.yul\":11835:11916   */\n      sstore\n        /* \"#utility.yul\":11704:11926   */\n      pop\n        /* \"#utility.yul\":11039:11926   */\n      jump(tag_251)\n        /* \"#utility.yul\":11069:11687   */\n    tag_252:\n        /* \"#utility.yul\":11121:11125   */\n      0x1f\n        /* \"#utility.yul\":11117:11126   */\n      not\n        /* \"#utility.yul\":11109:11115   */\n      dup5\n        /* \"#utility.yul\":11105:11127   */\n      and\n        /* \"#utility.yul\":11155:11192   */\n      tag_255\n        /* \"#utility.yul\":11187:11191   */\n      dup7\n        /* \"#utility.yul\":11155:11192   */\n      tag_118\n      jump\t// in\n    tag_255:\n        /* \"#utility.yul\":11214:11215   */\n      0x00\n        /* \"#utility.yul\":11228:11436   */\n    tag_256:\n        /* \"#utility.yul\":11242:11249   */\n      dup3\n        /* \"#utility.yul\":11239:11240   */\n      dup2\n        /* \"#utility.yul\":11236:11250   */\n      lt\n        /* \"#utility.yul\":11228:11436   */\n      iszero\n      tag_258\n      jumpi\n        /* \"#utility.yul\":11321:11330   */\n      dup5\n        /* \"#utility.yul\":11316:11319   */\n      dup10\n        /* \"#utility.yul\":11312:11331   */\n      add\n        /* \"#utility.yul\":11306:11332   */\n      mload\n        /* \"#utility.yul\":11298:11304   */\n      dup3\n        /* \"#utility.yul\":11291:11333   */\n      sstore\n        /* \"#utility.yul\":11372:11373   */\n      0x01\n        /* \"#utility.yul\":11364:11370   */\n      dup3\n        /* \"#utility.yul\":11360:11374   */\n      add\n        /* \"#utility.yul\":11350:11374   */\n      swap2\n      pop\n        /* \"#utility.yul\":11419:11421   */\n      0x20\n        /* \"#utility.yul\":11408:11417   */\n      dup6\n        /* \"#utility.yul\":11404:11422   */\n      add\n        /* \"#utility.yul\":11391:11422   */\n      swap5\n      pop\n        /* \"#utility.yul\":11265:11269   */\n      0x20\n        /* \"#utility.yul\":11262:11263   */\n      dup2\n        /* \"#utility.yul\":11258:11270   */\n      add\n        /* \"#utility.yul\":11253:11270   */\n      swap1\n      pop\n        /* \"#utility.yul\":11228:11436   */\n      jump(tag_256)\n    tag_258:\n        /* \"#utility.yul\":11464:11470   */\n      dup7\n        /* \"#utility.yul\":11455:11462   */\n      dup4\n        /* \"#utility.yul\":11452:11471   */\n      lt\n        /* \"#utility.yul\":11449:11628   */\n      iszero\n      tag_259\n      jumpi\n        /* \"#utility.yul\":11522:11531   */\n      dup5\n        /* \"#utility.yul\":11517:11520   */\n      dup10\n        /* \"#utility.yul\":11513:11532   */\n      add\n        /* \"#utility.yul\":11507:11533   */\n      mload\n        /* \"#utility.yul\":11565:11613   */\n      tag_260\n        /* \"#utility.yul\":11607:11611   */\n      0x1f\n        /* \"#utility.yul\":11599:11605   */\n      dup10\n        /* \"#utility.yul\":11595:11612   */\n      and\n        /* \"#utility.yul\":11584:11593   */\n      dup3\n        /* \"#utility.yul\":11565:11613   */\n      tag_131\n      jump\t// in\n    tag_260:\n        /* \"#utility.yul\":11557:11563   */\n      dup4\n        /* \"#utility.yul\":11550:11614   */\n      sstore\n        /* \"#utility.yul\":11472:11628   */\n      pop\n        /* \"#utility.yul\":11449:11628   */\n    tag_259:\n        /* \"#utility.yul\":11674:11675   */\n      0x01\n        /* \"#utility.yul\":11670:11671   */\n      0x02\n        /* \"#utility.yul\":11662:11668   */\n      dup9\n        /* \"#utility.yul\":11658:11672   */\n      mul\n        /* \"#utility.yul\":11654:11676   */\n      add\n        /* \"#utility.yul\":11648:11652   */\n      dup9\n        /* \"#utility.yul\":11641:11677   */\n      sstore\n        /* \"#utility.yul\":11076:11687   */\n      pop\n      pop\n      pop\n        /* \"#utility.yul\":11039:11926   */\n    tag_251:\n      pop\n        /* \"#utility.yul\":10629:11932   */\n      pop\n      pop\n      pop\n        /* \"#utility.yul\":10537:11932   */\n      pop\n      pop\n      jump\t// out\n        /* \"#utility.yul\":11938:12105   */\n    tag_133:\n        /* \"#utility.yul\":12078:12097   */\n      0x46756e64696e672068617320656e646564000000000000000000000000000000\n        /* \"#utility.yul\":12074:12075   */\n      0x00\n        /* \"#utility.yul\":12066:12072   */\n      dup3\n        /* \"#utility.yul\":12062:12076   */\n      add\n        /* \"#utility.yul\":12055:12098   */\n      mstore\n        /* \"#utility.yul\":11938:12105   */\n      pop\n      jump\t// out\n        /* \"#utility.yul\":12111:12477   */\n    tag_134:\n        /* \"#utility.yul\":12253:12256   */\n      0x00\n        /* \"#utility.yul\":12274:12341   */\n      tag_263\n        /* \"#utility.yul\":12338:12340   */\n      0x11\n        /* \"#utility.yul\":12333:12336   */\n      dup4\n        /* \"#utility.yul\":12274:12341   */\n      tag_98\n      jump\t// in\n    tag_263:\n        /* \"#utility.yul\":12267:12341   */\n      swap2\n      pop\n        /* \"#utility.yul\":12350:12443   */\n      tag_264\n        /* \"#utility.yul\":12439:12442   */\n      dup3\n        /* \"#utility.yul\":12350:12443   */\n      tag_133\n      jump\t// in\n    tag_264:\n        /* \"#utility.yul\":12468:12470   */\n      0x20\n        /* \"#utility.yul\":12463:12466   */\n      dup3\n        /* \"#utility.yul\":12459:12471   */\n      add\n        /* \"#utility.yul\":12452:12471   */\n      swap1\n      pop\n        /* \"#utility.yul\":12111:12477   */\n      swap2\n      swap1\n      pop\n      jump\t// out\n        /* \"#utility.yul\":12483:12902   */\n    tag_82:\n        /* \"#utility.yul\":12649:12653   */\n      0x00\n        /* \"#utility.yul\":12687:12689   */\n      0x20\n        /* \"#utility.yul\":12676:12685   */\n      dup3\n        /* \"#utility.yul\":12672:12690   */\n      add\n        /* \"#utility.yul\":12664:12690   */\n      swap1\n      pop\n        /* \"#utility.yul\":12736:12745   */\n      dup2\n        /* \"#utility.yul\":12730:12734   */\n      dup2\n        /* \"#utility.yul\":12726:12746   */\n      sub\n        /* \"#utility.yul\":12722:12723   */\n      0x00\n        /* \"#utility.yul\":12711:12720   */\n      dup4\n        /* \"#utility.yul\":12707:12724   */\n      add\n        /* \"#utility.yul\":12700:12747   */\n      mstore\n        /* \"#utility.yul\":12764:12895   */\n      tag_266\n        /* \"#utility.yul\":12890:12894   */\n      dup2\n        /* \"#utility.yul\":12764:12895   */\n      tag_134\n      jump\t// in\n    tag_266:\n        /* \"#utility.yul\":12756:12895   */\n      swap1\n      pop\n        /* \"#utility.yul\":12483:12902   */\n      swap2\n      swap1\n      pop\n      jump\t// out\n        /* \"#utility.yul\":12908:13077   */\n    tag_135:\n        /* \"#utility.yul\":13048:13069   */\n      0x446561646c696e65206861732070617373656400000000000000000000000000\n        /* \"#utility.yul\":13044:13045   */\n      0x00\n        /* \"#utility.yul\":13036:13042   */\n      dup3\n        /* \"#utility.yul\":13032:13046   */\n      add\n        /* \"#utility.yul\":13025:13070   */\n      mstore\n        /* \"#utility.yul\":12908:13077   */\n      pop\n      jump\t// out\n        /* \"#utility.yul\":13083:13449   */\n    tag_136:\n        /* \"#utility.yul\":13225:13228   */\n      0x00\n        /* \"#utility.yul\":13246:13313   */\n      tag_269\n        /* \"#utility.yul\":13310:13312   */\n      0x13\n        /* \"#utility.yul\":13305:13308   */\n      dup4\n        /* \"#utility.yul\":13246:13313   */\n      tag_98\n      jump\t// in\n    tag_269:\n        /* \"#utility.yul\":13239:13313   */\n      swap2\n      pop\n        /* \"#utility.yul\":13322:13415   */\n      tag_270\n        /* \"#utility.yul\":13411:13414   */\n      dup3\n        /* \"#utility.yul\":13322:13415   */\n      tag_135\n      jump\t// in\n    tag_270:\n        /* \"#utility.yul\":13440:13442   */\n      0x20\n        /* \"#utility.yul\":13435:13438   */\n      dup3\n        /* \"#utility.yul\":13431:13443   */\n      add\n        /* \"#utility.yul\":13424:13443   */\n      swap1\n      pop\n        /* \"#utility.yul\":13083:13449   */\n      swap2\n      swap1\n      pop\n      jump\t// out\n        /* \"#utility.yul\":13455:13874   */\n    tag_85:\n        /* \"#utility.yul\":13621:13625   */\n      0x00\n        /* \"#utility.yul\":13659:13661   */\n      0x20\n        /* \"#utility.yul\":13648:13657   */\n      dup3\n        /* \"#utility.yul\":13644:13662   */\n      add\n        /* \"#utility.yul\":13636:13662   */\n      swap1\n      pop\n        /* \"#utility.yul\":13708:13717   */\n      dup2\n        /* \"#utility.yul\":13702:13706   */\n      dup2\n        /* \"#utility.yul\":13698:13718   */\n      sub\n        /* \"#utility.yul\":13694:13695   */\n      0x00\n        /* \"#utility.yul\":13683:13692   */\n      dup4\n        /* \"#utility.yul\":13679:13696   */\n      add\n        /* \"#utility.yul\":13672:13719   */\n      mstore\n        /* \"#utility.yul\":13736:13867   */\n      tag_272\n        /* \"#utility.yul\":13862:13866   */\n      dup2\n        /* \"#utility.yul\":13736:13867   */\n      tag_136\n      jump\t// in\n    tag_272:\n        /* \"#utility.yul\":13728:13867   */\n      swap1\n      pop\n        /* \"#utility.yul\":13455:13874   */\n      swap2\n      swap1\n      pop\n      jump\t// out\n        /* \"#utility.yul\":13880:14100   */\n    tag_137:\n        /* \"#utility.yul\":14020:14054   */\n      0x496e766573746d656e74206d7573742062652067726561746572207468616e20\n        /* \"#utility.yul\":14016:14017   */\n      0x00\n        /* \"#utility.yul\":14008:14014   */\n      dup3\n        /* \"#utility.yul\":14004:14018   */\n      add\n        /* \"#utility.yul\":13997:14055   */\n      mstore\n        /* \"#utility.yul\":14089:14092   */\n      0x3000000000000000000000000000000000000000000000000000000000000000\n        /* \"#utility.yul\":14084:14086   */\n      0x20\n        /* \"#utility.yul\":14076:14082   */\n      dup3\n        /* \"#utility.yul\":14072:14087   */\n      add\n        /* \"#utility.yul\":14065:14093   */\n      mstore\n        /* \"#utility.yul\":13880:14100   */\n      pop\n      jump\t// out\n        /* \"#utility.yul\":14106:14472   */\n    tag_138:\n        /* \"#utility.yul\":14248:14251   */\n      0x00\n        /* \"#utility.yul\":14269:14336   */\n      tag_275\n        /* \"#utility.yul\":14333:14335   */\n      0x21\n        /* \"#utility.yul\":14328:14331   */\n      dup4\n        /* \"#utility.yul\":14269:14336   */\n      tag_98\n      jump\t// in\n    tag_275:\n        /* \"#utility.yul\":14262:14336   */\n      swap2\n      pop\n        /* \"#utility.yul\":14345:14438   */\n      tag_276\n        /* \"#utility.yul\":14434:14437   */\n      dup3\n        /* \"#utility.yul\":14345:14438   */\n      tag_137\n      jump\t// in\n    tag_276:\n        /* \"#utility.yul\":14463:14465   */\n      0x40\n        /* \"#utility.yul\":14458:14461   */\n      dup3\n        /* \"#utility.yul\":14454:14466   */\n      add\n        /* \"#utility.yul\":14447:14466   */\n      swap1\n      pop\n        /* \"#utility.yul\":14106:14472   */\n      swap2\n      swap1\n      pop\n      jump\t// out\n        /* \"#utility.yul\":14478:14897   */\n    tag_88:\n        /* \"#utility.yul\":14644:14648   */\n      0x00\n        /* \"#utility.yul\":14682:14684   */\n      0x20\n        /* \"#utility.yul\":14671:14680   */\n      dup3\n        /* \"#utility.yul\":14667:14685   */\n      add\n        /* \"#utility.yul\":14659:14685   */\n      swap1\n      pop\n        /* \"#utility.yul\":14731:14740   */\n      dup2\n        /* \"#utility.yul\":14725:14729   */\n      dup2\n        /* \"#utility.yul\":14721:14741   */\n      sub\n        /* \"#utility.yul\":14717:14718   */\n      0x00\n        /* \"#utility.yul\":14706:14715   */\n      dup4\n        /* \"#utility.yul\":14702:14719   */\n      add\n        /* \"#utility.yul\":14695:14742   */\n      mstore\n        /* \"#utility.yul\":14759:14890   */\n      tag_278\n        /* \"#utility.yul\":14885:14889   */\n      dup2\n        /* \"#utility.yul\":14759:14890   */\n      tag_138\n      jump\t// in\n    tag_278:\n        /* \"#utility.yul\":14751:14890   */\n      swap1\n      pop\n        /* \"#utility.yul\":14478:14897   */\n      swap2\n      swap1\n      pop\n      jump\t// out\n        /* \"#utility.yul\":14903:15083   */\n    tag_139:\n        /* \"#utility.yul\":14951:15028   */\n      0x4e487b7100000000000000000000000000000000000000000000000000000000\n        /* \"#utility.yul\":14948:14949   */\n      0x00\n        /* \"#utility.yul\":14941:15029   */\n      mstore\n        /* \"#utility.yul\":15048:15052   */\n      0x11\n        /* \"#utility.yul\":15045:15046   */\n      0x04\n        /* \"#utility.yul\":15038:15053   */\n      mstore\n        /* \"#utility.yul\":15072:15076   */\n      0x24\n        /* \"#utility.yul\":15069:15070   */\n      0x00\n        /* \"#utility.yul\":15062:15077   */\n      revert\n        /* \"#utility.yul\":15089:15322   */\n    tag_90:\n        /* \"#utility.yul\":15128:15131   */\n      0x00\n        /* \"#utility.yul\":15151:15175   */\n      tag_281\n        /* \"#utility.yul\":15169:15174   */\n      dup3\n        /* \"#utility.yul\":15151:15175   */\n      tag_95\n      jump\t// in\n    tag_281:\n        /* \"#utility.yul\":15142:15175   */\n      swap2\n      pop\n        /* \"#utility.yul\":15197:15263   */\n      0xffffffffffffffffffffffffffffffffffffffffffffffffffffffffffffffff\n        /* \"#utility.yul\":15190:15195   */\n      dup3\n        /* \"#utility.yul\":15187:15264   */\n      sub\n        /* \"#utility.yul\":15184:15287   */\n      tag_282\n      jumpi\n        /* \"#utility.yul\":15267:15285   */\n      tag_283\n      tag_139\n      jump\t// in\n    tag_283:\n        /* \"#utility.yul\":15184:15287   */\n    tag_282:\n        /* \"#utility.yul\":15314:15315   */\n      0x01\n        /* \"#utility.yul\":15307:15312   */\n      dup3\n        /* \"#utility.yul\":15303:15316   */\n      add\n        /* \"#utility.yul\":15296:15316   */\n      swap1\n      pop\n        /* \"#utility.yul\":15089:15322   */\n      swap2\n      swap1\n      pop\n      jump\t// out\n        /* \"#utility.yul\":15328:15519   */\n    tag_92:\n        /* \"#utility.yul\":15368:15371   */\n      0x00\n        /* \"#utility.yul\":15387:15407   */\n      tag_285\n        /* \"#utility.yul\":15405:15406   */\n      dup3\n        /* \"#utility.yul\":15387:15407   */\n      tag_95\n      jump\t// in\n    tag_285:\n        /* \"#utility.yul\":15382:15407   */\n      swap2\n      pop\n        /* \"#utility.yul\":15421:15441   */\n      tag_286\n        /* \"#utility.yul\":15439:15440   */\n      dup4\n        /* \"#utility.yul\":15421:15441   */\n      tag_95\n      jump\t// in\n    tag_286:\n        /* \"#utility.yul\":15416:15441   */\n      swap3\n      pop\n        /* \"#utility.yul\":15464:15465   */\n      dup3\n        /* \"#utility.yul\":15461:15462   */\n      dup3\n        /* \"#utility.yul\":15457:15466   */\n      add\n        /* \"#utility.yul\":15450:15466   */\n      swap1\n      pop\n        /* \"#utility.yul\":15485:15488   */\n      dup1\n        /* \"#utility.yul\":15482:15483   */\n      dup3\n        /* \"#utility.yul\":15479:15489   */\n      gt\n        /* \"#utility.yul\":15476:15512   */\n      iszero\n      tag_287\n      jumpi\n        /* \"#utility.yul\":15492:15510   */\n      tag_288\n      tag_139\n      jump\t// in\n    tag_288:\n        /* \"#utility.yul\":15476:15512   */\n    tag_287:\n        /* \"#utility.yul\":15328:15519   */\n      swap3\n      swap2\n      pop\n      pop\n      jump\t// out\n\n    auxdata: 0xa2646970667358221220d46eebab0617ab3dae60f56fec3cb2bc6f19cd954c58096b5231159a1ef31ea564736f6c634300081a0033\n}\n",
				"bytecode": {
					"linkReferences": {},
					"object": "608060405234801561000f575f80fd5b5060405161140638038061140683398181016040528101906100319190610147565b3360015f6101000a81548173ffffffffffffffffffffffffffffffffffffffff021916908373ffffffffffffffffffffffffffffffffffffffff160217905550814261007d91906101b2565b600381905550670de0b6b3a76400008161009791906101e5565b6006819055506040518060400160405280600781526020017f46756e64696e6700000000000000000000000000000000000000000000000000815250600490816100e19190610457565b505f60055f6101000a81548160ff0219169083151502179055505f6002819055505f6007819055505050610526565b5f80fd5b5f819050919050565b61012681610114565b8114610130575f80fd5b50565b5f815190506101418161011d565b92915050565b5f806040838503121561015d5761015c610110565b5b5f61016a85828601610133565b925050602061017b85828601610133565b9150509250929050565b7f4e487b71000000000000000000000000000000000000000000000000000000005f52601160045260245ffd5b5f6101bc82610114565b91506101c783610114565b92508282019050808211156101df576101de610185565b5b92915050565b5f6101ef82610114565b91506101fa83610114565b925082820261020881610114565b9150828204841483151761021f5761021e610185565b5b5092915050565b5f81519050919050565b7f4e487b71000000000000000000000000000000000000000000000000000000005f52604160045260245ffd5b7f4e487b71000000000000000000000000000000000000000000000000000000005f52602260045260245ffd5b5f60028204905060018216806102a157607f821691505b6020821081036102b4576102b361025d565b5b50919050565b5f819050815f5260205f209050919050565b5f6020601f8301049050919050565b5f82821b905092915050565b5f600883026103167fffffffffffffffffffffffffffffffffffffffffffffffffffffffffffffffff826102db565b61032086836102db565b95508019841693508086168417925050509392505050565b5f819050919050565b5f61035b61035661035184610114565b610338565b610114565b9050919050565b5f819050919050565b61037483610341565b61038861038082610362565b8484546102e7565b825550505050565b5f90565b61039c610390565b6103a781848461036b565b505050565b5b818110156103ca576103bf5f82610394565b6001810190506103ad565b5050565b601f82111561040f576103e0816102ba565b6103e9846102cc565b810160208510156103f8578190505b61040c610404856102cc565b8301826103ac565b50505b505050565b5f82821c905092915050565b5f61042f5f1984600802610414565b1980831691505092915050565b5f6104478383610420565b9150826002028217905092915050565b61046082610226565b67ffffffffffffffff81111561047957610478610230565b5b610483825461028a565b61048e8282856103ce565b5f60209050601f8311600181146104bf575f84156104ad578287015190505b6104b7858261043c565b86555061051e565b601f1984166104cd866102ba565b5f5b828110156104f4578489015182556001820191506020850194506020810190506104cf565b86831015610511578489015161050d601f891682610420565b8355505b6001600288020188555050505b505050505050565b610ed3806105335f395ff3fe608060405260043610610090575f3560e01c80632636b945116100585780632636b9451461015257806329dcb0cf1461017c5780633feb5f2b146101a65780638da5cb5b146101e3578063b60d42881461020d57610090565b806301cb3b201461009457806312fa6feb146100aa578063132ae5e9146100d45780631a39d8ef146100fe578063200d2ed214610128575b5f80fd5b34801561009f575f80fd5b506100a8610217565b005b3480156100b5575f80fd5b506100be6103f1565b6040516100cb91906106b8565b60405180910390f35b3480156100df575f80fd5b506100e8610403565b6040516100f591906106e9565b60405180910390f35b348015610109575f80fd5b50610112610409565b60405161011f91906106e9565b60405180910390f35b348015610133575f80fd5b5061013c61040f565b6040516101499190610772565b60405180910390f35b34801561015d575f80fd5b5061016661049b565b60405161017391906106e9565b60405180910390f35b348015610187575f80fd5b506101906104a1565b60405161019d91906106e9565b60405180910390f35b3480156101b1575f80fd5b506101cc60048036038101906101c791906107c0565b6104a7565b6040516101da92919061082a565b60405180910390f35b3480156101ee575f80fd5b506101f76104e5565b6040516102049190610851565b60405180910390f35b61021561050a565b005b60015f9054906101000a900473ffffffffffffffffffffffffffffffffffffffff1673ffffffffffffffffffffffffffffffffffffffff163373ffffffffffffffffffffffffffffffffffffffff16146102a6576040517f08c379a000000000000000000000000000000000000000000000000000000000815260040161029d906108b4565b60405180910390fd5b6003544210156102eb576040517f08c379a00000000000000000000000000000000000000000000000000000000081526004016102e29061091c565b60405180910390fd5b60055f9054906101000a900460ff161561033a576040517f08c379a000000000000000000000000000000000000000000000000000000000815260040161033190610984565b60405180910390fd5b6006546007541061038f576040518060400160405280601281526020017f43616d706169676e205375636365656465640000000000000000000000000000815250600490816103899190610bc9565b506103d5565b6040518060400160405280600f81526020017f43616d706169676e204661696c65640000000000000000000000000000000000815250600490816103d39190610bc9565b505b600160055f6101000a81548160ff021916908315150217905550565b60055f9054906101000a900460ff1681565b60025481565b60075481565b6004805461041c906109fc565b80601f0160208091040260200160405190810160405280929190818152602001828054610448906109fc565b80156104935780601f1061046a57610100808354040283529160200191610493565b820191905f5260205f20905b81548152906001019060200180831161047657829003601f168201915b505050505081565b60065481565b60035481565b5f602052805f5260405f205f91509050805f015f9054906101000a900473ffffffffffffffffffffffffffffffffffffffff16908060010154905082565b60015f9054906101000a900473ffffffffffffffffffffffffffffffffffffffff1681565b60055f9054906101000a900460ff1615610559576040517f08c379a000000000000000000000000000000000000000000000000000000000815260040161055090610ce2565b60405180910390fd5b600354421061059d576040517f08c379a000000000000000000000000000000000000000000000000000000000815260040161059490610d4a565b60405180910390fd5b5f34116105df576040517f08c379a00000000000000000000000000000000000000000000000000000000081526004016105d690610dd8565b60405180910390fd5b60405180604001604052803373ffffffffffffffffffffffffffffffffffffffff168152602001348152505f8060025481526020019081526020015f205f820151815f015f6101000a81548173ffffffffffffffffffffffffffffffffffffffff021916908373ffffffffffffffffffffffffffffffffffffffff1602179055506020820151816001015590505060025f81548092919061067f90610e23565b91905055503460075f8282546106959190610e6a565b92505081905550565b5f8115159050919050565b6106b28161069e565b82525050565b5f6020820190506106cb5f8301846106a9565b92915050565b5f819050919050565b6106e3816106d1565b82525050565b5f6020820190506106fc5f8301846106da565b92915050565b5f81519050919050565b5f82825260208201905092915050565b8281835e5f83830152505050565b5f601f19601f8301169050919050565b5f61074482610702565b61074e818561070c565b935061075e81856020860161071c565b6107678161072a565b840191505092915050565b5f6020820190508181035f83015261078a818461073a565b905092915050565b5f80fd5b61079f816106d1565b81146107a9575f80fd5b50565b5f813590506107ba81610796565b92915050565b5f602082840312156107d5576107d4610792565b5b5f6107e2848285016107ac565b91505092915050565b5f73ffffffffffffffffffffffffffffffffffffffff82169050919050565b5f610814826107eb565b9050919050565b6108248161080a565b82525050565b5f60408201905061083d5f83018561081b565b61084a60208301846106da565b9392505050565b5f6020820190506108645f83018461081b565b92915050565b7f4572726f723a2063616c6c6572206973206e6f7420746865206f776e657200005f82015250565b5f61089e601e8361070c565b91506108a98261086a565b602082019050919050565b5f6020820190508181035f8301526108cb81610892565b9050919050565b7f43616d706169676e206973207374696c6c206f6e676f696e67000000000000005f82015250565b5f61090660198361070c565b9150610911826108d2565b602082019050919050565b5f6020820190508181035f830152610933816108fa565b9050919050565b7f43616d706169676e20616c726561647920656e646564000000000000000000005f82015250565b5f61096e60168361070c565b91506109798261093a565b602082019050919050565b5f6020820190508181035f83015261099b81610962565b9050919050565b7f4e487b71000000000000000000000000000000000000000000000000000000005f52604160045260245ffd5b7f4e487b71000000000000000000000000000000000000000000000000000000005f52602260045260245ffd5b5f6002820490506001821680610a1357607f821691505b602082108103610a2657610a256109cf565b5b50919050565b5f819050815f5260205f209050919050565b5f6020601f8301049050919050565b5f82821b905092915050565b5f60088302610a887fffffffffffffffffffffffffffffffffffffffffffffffffffffffffffffffff82610a4d565b610a928683610a4d565b95508019841693508086168417925050509392505050565b5f819050919050565b5f610acd610ac8610ac3846106d1565b610aaa565b6106d1565b9050919050565b5f819050919050565b610ae683610ab3565b610afa610af282610ad4565b848454610a59565b825550505050565b5f90565b610b0e610b02565b610b19818484610add565b505050565b5b81811015610b3c57610b315f82610b06565b600181019050610b1f565b5050565b601f821115610b8157610b5281610a2c565b610b5b84610a3e565b81016020851015610b6a578190505b610b7e610b7685610a3e565b830182610b1e565b50505b505050565b5f82821c905092915050565b5f610ba15f1984600802610b86565b1980831691505092915050565b5f610bb98383610b92565b9150826002028217905092915050565b610bd282610702565b67ffffffffffffffff811115610beb57610bea6109a2565b5b610bf582546109fc565b610c00828285610b40565b5f60209050601f831160018114610c31575f8415610c1f578287015190505b610c298582610bae565b865550610c90565b601f198416610c3f86610a2c565b5f5b82811015610c6657848901518255600182019150602085019450602081019050610c41565b86831015610c835784890151610c7f601f891682610b92565b8355505b6001600288020188555050505b505050505050565b7f46756e64696e672068617320656e6465640000000000000000000000000000005f82015250565b5f610ccc60118361070c565b9150610cd782610c98565b602082019050919050565b5f6020820190508181035f830152610cf981610cc0565b9050919050565b7f446561646c696e652068617320706173736564000000000000000000000000005f82015250565b5f610d3460138361070c565b9150610d3f82610d00565b602082019050919050565b5f6020820190508181035f830152610d6181610d28565b9050919050565b7f496e766573746d656e74206d7573742062652067726561746572207468616e205f8201527f3000000000000000000000000000000000000000000000000000000000000000602082015250565b5f610dc260218361070c565b9150610dcd82610d68565b604082019050919050565b5f6020820190508181035f830152610def81610db6565b9050919050565b7f4e487b71000000000000000000000000000000000000000000000000000000005f52601160045260245ffd5b5f610e2d826106d1565b91507fffffffffffffffffffffffffffffffffffffffffffffffffffffffffffffffff8203610e5f57610e5e610df6565b5b600182019050919050565b5f610e74826106d1565b9150610e7f836106d1565b9250828201905080821115610e9757610e96610df6565b5b9291505056fea2646970667358221220d46eebab0617ab3dae60f56fec3cb2bc6f19cd954c58096b5231159a1ef31ea564736f6c634300081a0033",
					"opcodes": "PUSH1 0x80 PUSH1 0x40 MSTORE CALLVALUE DUP1 ISZERO PUSH2 0xF JUMPI PUSH0 DUP1 REVERT JUMPDEST POP PUSH1 0x40 MLOAD PUSH2 0x1406 CODESIZE SUB DUP1 PUSH2 0x1406 DUP4 CODECOPY DUP2 DUP2 ADD PUSH1 0x40 MSTORE DUP2 ADD SWAP1 PUSH2 0x31 SWAP2 SWAP1 PUSH2 0x147 JUMP JUMPDEST CALLER PUSH1 0x1 PUSH0 PUSH2 0x100 EXP DUP2 SLOAD DUP2 PUSH20 0xFFFFFFFFFFFFFFFFFFFFFFFFFFFFFFFFFFFFFFFF MUL NOT AND SWAP1 DUP4 PUSH20 0xFFFFFFFFFFFFFFFFFFFFFFFFFFFFFFFFFFFFFFFF AND MUL OR SWAP1 SSTORE POP DUP2 TIMESTAMP PUSH2 0x7D SWAP2 SWAP1 PUSH2 0x1B2 JUMP JUMPDEST PUSH1 0x3 DUP2 SWAP1 SSTORE POP PUSH8 0xDE0B6B3A7640000 DUP2 PUSH2 0x97 SWAP2 SWAP1 PUSH2 0x1E5 JUMP JUMPDEST PUSH1 0x6 DUP2 SWAP1 SSTORE POP PUSH1 0x40 MLOAD DUP1 PUSH1 0x40 ADD PUSH1 0x40 MSTORE DUP1 PUSH1 0x7 DUP2 MSTORE PUSH1 0x20 ADD PUSH32 0x46756E64696E6700000000000000000000000000000000000000000000000000 DUP2 MSTORE POP PUSH1 0x4 SWAP1 DUP2 PUSH2 0xE1 SWAP2 SWAP1 PUSH2 0x457 JUMP JUMPDEST POP PUSH0 PUSH1 0x5 PUSH0 PUSH2 0x100 EXP DUP2 SLOAD DUP2 PUSH1 0xFF MUL NOT AND SWAP1 DUP4 ISZERO ISZERO MUL OR SWAP1 SSTORE POP PUSH0 PUSH1 0x2 DUP2 SWAP1 SSTORE POP PUSH0 PUSH1 0x7 DUP2 SWAP1 SSTORE POP POP POP PUSH2 0x526 JUMP JUMPDEST PUSH0 DUP1 REVERT JUMPDEST PUSH0 DUP2 SWAP1 POP SWAP2 SWAP1 POP JUMP JUMPDEST PUSH2 0x126 DUP2 PUSH2 0x114 JUMP JUMPDEST DUP2 EQ PUSH2 0x130 JUMPI PUSH0 DUP1 REVERT JUMPDEST POP JUMP JUMPDEST PUSH0 DUP2 MLOAD SWAP1 POP PUSH2 0x141 DUP2 PUSH2 0x11D JUMP JUMPDEST SWAP3 SWAP2 POP POP JUMP JUMPDEST PUSH0 DUP1 PUSH1 0x40 DUP4 DUP6 SUB SLT ISZERO PUSH2 0x15D JUMPI PUSH2 0x15C PUSH2 0x110 JUMP JUMPDEST JUMPDEST PUSH0 PUSH2 0x16A DUP6 DUP3 DUP7 ADD PUSH2 0x133 JUMP JUMPDEST SWAP3 POP POP PUSH1 0x20 PUSH2 0x17B DUP6 DUP3 DUP7 ADD PUSH2 0x133 JUMP JUMPDEST SWAP2 POP POP SWAP3 POP SWAP3 SWAP1 POP JUMP JUMPDEST PUSH32 0x4E487B7100000000000000000000000000000000000000000000000000000000 PUSH0 MSTORE PUSH1 0x11 PUSH1 0x4 MSTORE PUSH1 0x24 PUSH0 REVERT JUMPDEST PUSH0 PUSH2 0x1BC DUP3 PUSH2 0x114 JUMP JUMPDEST SWAP2 POP PUSH2 0x1C7 DUP4 PUSH2 0x114 JUMP JUMPDEST SWAP3 POP DUP3 DUP3 ADD SWAP1 POP DUP1 DUP3 GT ISZERO PUSH2 0x1DF JUMPI PUSH2 0x1DE PUSH2 0x185 JUMP JUMPDEST JUMPDEST SWAP3 SWAP2 POP POP JUMP JUMPDEST PUSH0 PUSH2 0x1EF DUP3 PUSH2 0x114 JUMP JUMPDEST SWAP2 POP PUSH2 0x1FA DUP4 PUSH2 0x114 JUMP JUMPDEST SWAP3 POP DUP3 DUP3 MUL PUSH2 0x208 DUP2 PUSH2 0x114 JUMP JUMPDEST SWAP2 POP DUP3 DUP3 DIV DUP5 EQ DUP4 ISZERO OR PUSH2 0x21F JUMPI PUSH2 0x21E PUSH2 0x185 JUMP JUMPDEST JUMPDEST POP SWAP3 SWAP2 POP POP JUMP JUMPDEST PUSH0 DUP2 MLOAD SWAP1 POP SWAP2 SWAP1 POP JUMP JUMPDEST PUSH32 0x4E487B7100000000000000000000000000000000000000000000000000000000 PUSH0 MSTORE PUSH1 0x41 PUSH1 0x4 MSTORE PUSH1 0x24 PUSH0 REVERT JUMPDEST PUSH32 0x4E487B7100000000000000000000000000000000000000000000000000000000 PUSH0 MSTORE PUSH1 0x22 PUSH1 0x4 MSTORE PUSH1 0x24 PUSH0 REVERT JUMPDEST PUSH0 PUSH1 0x2 DUP3 DIV SWAP1 POP PUSH1 0x1 DUP3 AND DUP1 PUSH2 0x2A1 JUMPI PUSH1 0x7F DUP3 AND SWAP2 POP JUMPDEST PUSH1 0x20 DUP3 LT DUP2 SUB PUSH2 0x2B4 JUMPI PUSH2 0x2B3 PUSH2 0x25D JUMP JUMPDEST JUMPDEST POP SWAP2 SWAP1 POP JUMP JUMPDEST PUSH0 DUP2 SWAP1 POP DUP2 PUSH0 MSTORE PUSH1 0x20 PUSH0 KECCAK256 SWAP1 POP SWAP2 SWAP1 POP JUMP JUMPDEST PUSH0 PUSH1 0x20 PUSH1 0x1F DUP4 ADD DIV SWAP1 POP SWAP2 SWAP1 POP JUMP JUMPDEST PUSH0 DUP3 DUP3 SHL SWAP1 POP SWAP3 SWAP2 POP POP JUMP JUMPDEST PUSH0 PUSH1 0x8 DUP4 MUL PUSH2 0x316 PUSH32 0xFFFFFFFFFFFFFFFFFFFFFFFFFFFFFFFFFFFFFFFFFFFFFFFFFFFFFFFFFFFFFFFF DUP3 PUSH2 0x2DB JUMP JUMPDEST PUSH2 0x320 DUP7 DUP4 PUSH2 0x2DB JUMP JUMPDEST SWAP6 POP DUP1 NOT DUP5 AND SWAP4 POP DUP1 DUP7 AND DUP5 OR SWAP3 POP POP POP SWAP4 SWAP3 POP POP POP JUMP JUMPDEST PUSH0 DUP2 SWAP1 POP SWAP2 SWAP1 POP JUMP JUMPDEST PUSH0 PUSH2 0x35B PUSH2 0x356 PUSH2 0x351 DUP5 PUSH2 0x114 JUMP JUMPDEST PUSH2 0x338 JUMP JUMPDEST PUSH2 0x114 JUMP JUMPDEST SWAP1 POP SWAP2 SWAP1 POP JUMP JUMPDEST PUSH0 DUP2 SWAP1 POP SWAP2 SWAP1 POP JUMP JUMPDEST PUSH2 0x374 DUP4 PUSH2 0x341 JUMP JUMPDEST PUSH2 0x388 PUSH2 0x380 DUP3 PUSH2 0x362 JUMP JUMPDEST DUP5 DUP5 SLOAD PUSH2 0x2E7 JUMP JUMPDEST DUP3 SSTORE POP POP POP POP JUMP JUMPDEST PUSH0 SWAP1 JUMP JUMPDEST PUSH2 0x39C PUSH2 0x390 JUMP JUMPDEST PUSH2 0x3A7 DUP2 DUP5 DUP5 PUSH2 0x36B JUMP JUMPDEST POP POP POP JUMP JUMPDEST JUMPDEST DUP2 DUP2 LT ISZERO PUSH2 0x3CA JUMPI PUSH2 0x3BF PUSH0 DUP3 PUSH2 0x394 JUMP JUMPDEST PUSH1 0x1 DUP2 ADD SWAP1 POP PUSH2 0x3AD JUMP JUMPDEST POP POP JUMP JUMPDEST PUSH1 0x1F DUP3 GT ISZERO PUSH2 0x40F JUMPI PUSH2 0x3E0 DUP2 PUSH2 0x2BA JUMP JUMPDEST PUSH2 0x3E9 DUP5 PUSH2 0x2CC JUMP JUMPDEST DUP2 ADD PUSH1 0x20 DUP6 LT ISZERO PUSH2 0x3F8 JUMPI DUP2 SWAP1 POP JUMPDEST PUSH2 0x40C PUSH2 0x404 DUP6 PUSH2 0x2CC JUMP JUMPDEST DUP4 ADD DUP3 PUSH2 0x3AC JUMP JUMPDEST POP POP JUMPDEST POP POP POP JUMP JUMPDEST PUSH0 DUP3 DUP3 SHR SWAP1 POP SWAP3 SWAP2 POP POP JUMP JUMPDEST PUSH0 PUSH2 0x42F PUSH0 NOT DUP5 PUSH1 0x8 MUL PUSH2 0x414 JUMP JUMPDEST NOT DUP1 DUP4 AND SWAP2 POP POP SWAP3 SWAP2 POP POP JUMP JUMPDEST PUSH0 PUSH2 0x447 DUP4 DUP4 PUSH2 0x420 JUMP JUMPDEST SWAP2 POP DUP3 PUSH1 0x2 MUL DUP3 OR SWAP1 POP SWAP3 SWAP2 POP POP JUMP JUMPDEST PUSH2 0x460 DUP3 PUSH2 0x226 JUMP JUMPDEST PUSH8 0xFFFFFFFFFFFFFFFF DUP2 GT ISZERO PUSH2 0x479 JUMPI PUSH2 0x478 PUSH2 0x230 JUMP JUMPDEST JUMPDEST PUSH2 0x483 DUP3 SLOAD PUSH2 0x28A JUMP JUMPDEST PUSH2 0x48E DUP3 DUP3 DUP6 PUSH2 0x3CE JUMP JUMPDEST PUSH0 PUSH1 0x20 SWAP1 POP PUSH1 0x1F DUP4 GT PUSH1 0x1 DUP2 EQ PUSH2 0x4BF JUMPI PUSH0 DUP5 ISZERO PUSH2 0x4AD JUMPI DUP3 DUP8 ADD MLOAD SWAP1 POP JUMPDEST PUSH2 0x4B7 DUP6 DUP3 PUSH2 0x43C JUMP JUMPDEST DUP7 SSTORE POP PUSH2 0x51E JUMP JUMPDEST PUSH1 0x1F NOT DUP5 AND PUSH2 0x4CD DUP7 PUSH2 0x2BA JUMP JUMPDEST PUSH0 JUMPDEST DUP3 DUP2 LT ISZERO PUSH2 0x4F4 JUMPI DUP5 DUP10 ADD MLOAD DUP3 SSTORE PUSH1 0x1 DUP3 ADD SWAP2 POP PUSH1 0x20 DUP6 ADD SWAP5 POP PUSH1 0x20 DUP2 ADD SWAP1 POP PUSH2 0x4CF JUMP JUMPDEST DUP7 DUP4 LT ISZERO PUSH2 0x511 JUMPI DUP5 DUP10 ADD MLOAD PUSH2 0x50D PUSH1 0x1F DUP10 AND DUP3 PUSH2 0x420 JUMP JUMPDEST DUP4 SSTORE POP JUMPDEST PUSH1 0x1 PUSH1 0x2 DUP9 MUL ADD DUP9 SSTORE POP POP POP JUMPDEST POP POP POP POP POP POP JUMP JUMPDEST PUSH2 0xED3 DUP1 PUSH2 0x533 PUSH0 CODECOPY PUSH0 RETURN INVALID PUSH1 0x80 PUSH1 0x40 MSTORE PUSH1 0x4 CALLDATASIZE LT PUSH2 0x90 JUMPI PUSH0 CALLDATALOAD PUSH1 0xE0 SHR DUP1 PUSH4 0x2636B945 GT PUSH2 0x58 JUMPI DUP1 PUSH4 0x2636B945 EQ PUSH2 0x152 JUMPI DUP1 PUSH4 0x29DCB0CF EQ PUSH2 0x17C JUMPI DUP1 PUSH4 0x3FEB5F2B EQ PUSH2 0x1A6 JUMPI DUP1 PUSH4 0x8DA5CB5B EQ PUSH2 0x1E3 JUMPI DUP1 PUSH4 0xB60D4288 EQ PUSH2 0x20D JUMPI PUSH2 0x90 JUMP JUMPDEST DUP1 PUSH4 0x1CB3B20 EQ PUSH2 0x94 JUMPI DUP1 PUSH4 0x12FA6FEB EQ PUSH2 0xAA JUMPI DUP1 PUSH4 0x132AE5E9 EQ PUSH2 0xD4 JUMPI DUP1 PUSH4 0x1A39D8EF EQ PUSH2 0xFE JUMPI DUP1 PUSH4 0x200D2ED2 EQ PUSH2 0x128 JUMPI JUMPDEST PUSH0 DUP1 REVERT JUMPDEST CALLVALUE DUP1 ISZERO PUSH2 0x9F JUMPI PUSH0 DUP1 REVERT JUMPDEST POP PUSH2 0xA8 PUSH2 0x217 JUMP JUMPDEST STOP JUMPDEST CALLVALUE DUP1 ISZERO PUSH2 0xB5 JUMPI PUSH0 DUP1 REVERT JUMPDEST POP PUSH2 0xBE PUSH2 0x3F1 JUMP JUMPDEST PUSH1 0x40 MLOAD PUSH2 0xCB SWAP2 SWAP1 PUSH2 0x6B8 JUMP JUMPDEST PUSH1 0x40 MLOAD DUP1 SWAP2 SUB SWAP1 RETURN JUMPDEST CALLVALUE DUP1 ISZERO PUSH2 0xDF JUMPI PUSH0 DUP1 REVERT JUMPDEST POP PUSH2 0xE8 PUSH2 0x403 JUMP JUMPDEST PUSH1 0x40 MLOAD PUSH2 0xF5 SWAP2 SWAP1 PUSH2 0x6E9 JUMP JUMPDEST PUSH1 0x40 MLOAD DUP1 SWAP2 SUB SWAP1 RETURN JUMPDEST CALLVALUE DUP1 ISZERO PUSH2 0x109 JUMPI PUSH0 DUP1 REVERT JUMPDEST POP PUSH2 0x112 PUSH2 0x409 JUMP JUMPDEST PUSH1 0x40 MLOAD PUSH2 0x11F SWAP2 SWAP1 PUSH2 0x6E9 JUMP JUMPDEST PUSH1 0x40 MLOAD DUP1 SWAP2 SUB SWAP1 RETURN JUMPDEST CALLVALUE DUP1 ISZERO PUSH2 0x133 JUMPI PUSH0 DUP1 REVERT JUMPDEST POP PUSH2 0x13C PUSH2 0x40F JUMP JUMPDEST PUSH1 0x40 MLOAD PUSH2 0x149 SWAP2 SWAP1 PUSH2 0x772 JUMP JUMPDEST PUSH1 0x40 MLOAD DUP1 SWAP2 SUB SWAP1 RETURN JUMPDEST CALLVALUE DUP1 ISZERO PUSH2 0x15D JUMPI PUSH0 DUP1 REVERT JUMPDEST POP PUSH2 0x166 PUSH2 0x49B JUMP JUMPDEST PUSH1 0x40 MLOAD PUSH2 0x173 SWAP2 SWAP1 PUSH2 0x6E9 JUMP JUMPDEST PUSH1 0x40 MLOAD DUP1 SWAP2 SUB SWAP1 RETURN JUMPDEST CALLVALUE DUP1 ISZERO PUSH2 0x187 JUMPI PUSH0 DUP1 REVERT JUMPDEST POP PUSH2 0x190 PUSH2 0x4A1 JUMP JUMPDEST PUSH1 0x40 MLOAD PUSH2 0x19D SWAP2 SWAP1 PUSH2 0x6E9 JUMP JUMPDEST PUSH1 0x40 MLOAD DUP1 SWAP2 SUB SWAP1 RETURN JUMPDEST CALLVALUE DUP1 ISZERO PUSH2 0x1B1 JUMPI PUSH0 DUP1 REVERT JUMPDEST POP PUSH2 0x1CC PUSH1 0x4 DUP1 CALLDATASIZE SUB DUP2 ADD SWAP1 PUSH2 0x1C7 SWAP2 SWAP1 PUSH2 0x7C0 JUMP JUMPDEST PUSH2 0x4A7 JUMP JUMPDEST PUSH1 0x40 MLOAD PUSH2 0x1DA SWAP3 SWAP2 SWAP1 PUSH2 0x82A JUMP JUMPDEST PUSH1 0x40 MLOAD DUP1 SWAP2 SUB SWAP1 RETURN JUMPDEST CALLVALUE DUP1 ISZERO PUSH2 0x1EE JUMPI PUSH0 DUP1 REVERT JUMPDEST POP PUSH2 0x1F7 PUSH2 0x4E5 JUMP JUMPDEST PUSH1 0x40 MLOAD PUSH2 0x204 SWAP2 SWAP1 PUSH2 0x851 JUMP JUMPDEST PUSH1 0x40 MLOAD DUP1 SWAP2 SUB SWAP1 RETURN JUMPDEST PUSH2 0x215 PUSH2 0x50A JUMP JUMPDEST STOP JUMPDEST PUSH1 0x1 PUSH0 SWAP1 SLOAD SWAP1 PUSH2 0x100 EXP SWAP1 DIV PUSH20 0xFFFFFFFFFFFFFFFFFFFFFFFFFFFFFFFFFFFFFFFF AND PUSH20 0xFFFFFFFFFFFFFFFFFFFFFFFFFFFFFFFFFFFFFFFF AND CALLER PUSH20 0xFFFFFFFFFFFFFFFFFFFFFFFFFFFFFFFFFFFFFFFF AND EQ PUSH2 0x2A6 JUMPI PUSH1 0x40 MLOAD PUSH32 0x8C379A000000000000000000000000000000000000000000000000000000000 DUP2 MSTORE PUSH1 0x4 ADD PUSH2 0x29D SWAP1 PUSH2 0x8B4 JUMP JUMPDEST PUSH1 0x40 MLOAD DUP1 SWAP2 SUB SWAP1 REVERT JUMPDEST PUSH1 0x3 SLOAD TIMESTAMP LT ISZERO PUSH2 0x2EB JUMPI PUSH1 0x40 MLOAD PUSH32 0x8C379A000000000000000000000000000000000000000000000000000000000 DUP2 MSTORE PUSH1 0x4 ADD PUSH2 0x2E2 SWAP1 PUSH2 0x91C JUMP JUMPDEST PUSH1 0x40 MLOAD DUP1 SWAP2 SUB SWAP1 REVERT JUMPDEST PUSH1 0x5 PUSH0 SWAP1 SLOAD SWAP1 PUSH2 0x100 EXP SWAP1 DIV PUSH1 0xFF AND ISZERO PUSH2 0x33A JUMPI PUSH1 0x40 MLOAD PUSH32 0x8C379A000000000000000000000000000000000000000000000000000000000 DUP2 MSTORE PUSH1 0x4 ADD PUSH2 0x331 SWAP1 PUSH2 0x984 JUMP JUMPDEST PUSH1 0x40 MLOAD DUP1 SWAP2 SUB SWAP1 REVERT JUMPDEST PUSH1 0x6 SLOAD PUSH1 0x7 SLOAD LT PUSH2 0x38F JUMPI PUSH1 0x40 MLOAD DUP1 PUSH1 0x40 ADD PUSH1 0x40 MSTORE DUP1 PUSH1 0x12 DUP2 MSTORE PUSH1 0x20 ADD PUSH32 0x43616D706169676E205375636365656465640000000000000000000000000000 DUP2 MSTORE POP PUSH1 0x4 SWAP1 DUP2 PUSH2 0x389 SWAP2 SWAP1 PUSH2 0xBC9 JUMP JUMPDEST POP PUSH2 0x3D5 JUMP JUMPDEST PUSH1 0x40 MLOAD DUP1 PUSH1 0x40 ADD PUSH1 0x40 MSTORE DUP1 PUSH1 0xF DUP2 MSTORE PUSH1 0x20 ADD PUSH32 0x43616D706169676E204661696C65640000000000000000000000000000000000 DUP2 MSTORE POP PUSH1 0x4 SWAP1 DUP2 PUSH2 0x3D3 SWAP2 SWAP1 PUSH2 0xBC9 JUMP JUMPDEST POP JUMPDEST PUSH1 0x1 PUSH1 0x5 PUSH0 PUSH2 0x100 EXP DUP2 SLOAD DUP2 PUSH1 0xFF MUL NOT AND SWAP1 DUP4 ISZERO ISZERO MUL OR SWAP1 SSTORE POP JUMP JUMPDEST PUSH1 0x5 PUSH0 SWAP1 SLOAD SWAP1 PUSH2 0x100 EXP SWAP1 DIV PUSH1 0xFF AND DUP2 JUMP JUMPDEST PUSH1 0x2 SLOAD DUP2 JUMP JUMPDEST PUSH1 0x7 SLOAD DUP2 JUMP JUMPDEST PUSH1 0x4 DUP1 SLOAD PUSH2 0x41C SWAP1 PUSH2 0x9FC JUMP JUMPDEST DUP1 PUSH1 0x1F ADD PUSH1 0x20 DUP1 SWAP2 DIV MUL PUSH1 0x20 ADD PUSH1 0x40 MLOAD SWAP1 DUP2 ADD PUSH1 0x40 MSTORE DUP1 SWAP3 SWAP2 SWAP1 DUP2 DUP2 MSTORE PUSH1 0x20 ADD DUP3 DUP1 SLOAD PUSH2 0x448 SWAP1 PUSH2 0x9FC JUMP JUMPDEST DUP1 ISZERO PUSH2 0x493 JUMPI DUP1 PUSH1 0x1F LT PUSH2 0x46A JUMPI PUSH2 0x100 DUP1 DUP4 SLOAD DIV MUL DUP4 MSTORE SWAP2 PUSH1 0x20 ADD SWAP2 PUSH2 0x493 JUMP JUMPDEST DUP3 ADD SWAP2 SWAP1 PUSH0 MSTORE PUSH1 0x20 PUSH0 KECCAK256 SWAP1 JUMPDEST DUP2 SLOAD DUP2 MSTORE SWAP1 PUSH1 0x1 ADD SWAP1 PUSH1 0x20 ADD DUP1 DUP4 GT PUSH2 0x476 JUMPI DUP3 SWAP1 SUB PUSH1 0x1F AND DUP3 ADD SWAP2 JUMPDEST POP POP POP POP POP DUP2 JUMP JUMPDEST PUSH1 0x6 SLOAD DUP2 JUMP JUMPDEST PUSH1 0x3 SLOAD DUP2 JUMP JUMPDEST PUSH0 PUSH1 0x20 MSTORE DUP1 PUSH0 MSTORE PUSH1 0x40 PUSH0 KECCAK256 PUSH0 SWAP2 POP SWAP1 POP DUP1 PUSH0 ADD PUSH0 SWAP1 SLOAD SWAP1 PUSH2 0x100 EXP SWAP1 DIV PUSH20 0xFFFFFFFFFFFFFFFFFFFFFFFFFFFFFFFFFFFFFFFF AND SWAP1 DUP1 PUSH1 0x1 ADD SLOAD SWAP1 POP DUP3 JUMP JUMPDEST PUSH1 0x1 PUSH0 SWAP1 SLOAD SWAP1 PUSH2 0x100 EXP SWAP1 DIV PUSH20 0xFFFFFFFFFFFFFFFFFFFFFFFFFFFFFFFFFFFFFFFF AND DUP2 JUMP JUMPDEST PUSH1 0x5 PUSH0 SWAP1 SLOAD SWAP1 PUSH2 0x100 EXP SWAP1 DIV PUSH1 0xFF AND ISZERO PUSH2 0x559 JUMPI PUSH1 0x40 MLOAD PUSH32 0x8C379A000000000000000000000000000000000000000000000000000000000 DUP2 MSTORE PUSH1 0x4 ADD PUSH2 0x550 SWAP1 PUSH2 0xCE2 JUMP JUMPDEST PUSH1 0x40 MLOAD DUP1 SWAP2 SUB SWAP1 REVERT JUMPDEST PUSH1 0x3 SLOAD TIMESTAMP LT PUSH2 0x59D JUMPI PUSH1 0x40 MLOAD PUSH32 0x8C379A000000000000000000000000000000000000000000000000000000000 DUP2 MSTORE PUSH1 0x4 ADD PUSH2 0x594 SWAP1 PUSH2 0xD4A JUMP JUMPDEST PUSH1 0x40 MLOAD DUP1 SWAP2 SUB SWAP1 REVERT JUMPDEST PUSH0 CALLVALUE GT PUSH2 0x5DF JUMPI PUSH1 0x40 MLOAD PUSH32 0x8C379A000000000000000000000000000000000000000000000000000000000 DUP2 MSTORE PUSH1 0x4 ADD PUSH2 0x5D6 SWAP1 PUSH2 0xDD8 JUMP JUMPDEST PUSH1 0x40 MLOAD DUP1 SWAP2 SUB SWAP1 REVERT JUMPDEST PUSH1 0x40 MLOAD DUP1 PUSH1 0x40 ADD PUSH1 0x40 MSTORE DUP1 CALLER PUSH20 0xFFFFFFFFFFFFFFFFFFFFFFFFFFFFFFFFFFFFFFFF AND DUP2 MSTORE PUSH1 0x20 ADD CALLVALUE DUP2 MSTORE POP PUSH0 DUP1 PUSH1 0x2 SLOAD DUP2 MSTORE PUSH1 0x20 ADD SWAP1 DUP2 MSTORE PUSH1 0x20 ADD PUSH0 KECCAK256 PUSH0 DUP3 ADD MLOAD DUP2 PUSH0 ADD PUSH0 PUSH2 0x100 EXP DUP2 SLOAD DUP2 PUSH20 0xFFFFFFFFFFFFFFFFFFFFFFFFFFFFFFFFFFFFFFFF MUL NOT AND SWAP1 DUP4 PUSH20 0xFFFFFFFFFFFFFFFFFFFFFFFFFFFFFFFFFFFFFFFF AND MUL OR SWAP1 SSTORE POP PUSH1 0x20 DUP3 ADD MLOAD DUP2 PUSH1 0x1 ADD SSTORE SWAP1 POP POP PUSH1 0x2 PUSH0 DUP2 SLOAD DUP1 SWAP3 SWAP2 SWAP1 PUSH2 0x67F SWAP1 PUSH2 0xE23 JUMP JUMPDEST SWAP2 SWAP1 POP SSTORE POP CALLVALUE PUSH1 0x7 PUSH0 DUP3 DUP3 SLOAD PUSH2 0x695 SWAP2 SWAP1 PUSH2 0xE6A JUMP JUMPDEST SWAP3 POP POP DUP2 SWAP1 SSTORE POP JUMP JUMPDEST PUSH0 DUP2 ISZERO ISZERO SWAP1 POP SWAP2 SWAP1 POP JUMP JUMPDEST PUSH2 0x6B2 DUP2 PUSH2 0x69E JUMP JUMPDEST DUP3 MSTORE POP POP JUMP JUMPDEST PUSH0 PUSH1 0x20 DUP3 ADD SWAP1 POP PUSH2 0x6CB PUSH0 DUP4 ADD DUP5 PUSH2 0x6A9 JUMP JUMPDEST SWAP3 SWAP2 POP POP JUMP JUMPDEST PUSH0 DUP2 SWAP1 POP SWAP2 SWAP1 POP JUMP JUMPDEST PUSH2 0x6E3 DUP2 PUSH2 0x6D1 JUMP JUMPDEST DUP3 MSTORE POP POP JUMP JUMPDEST PUSH0 PUSH1 0x20 DUP3 ADD SWAP1 POP PUSH2 0x6FC PUSH0 DUP4 ADD DUP5 PUSH2 0x6DA JUMP JUMPDEST SWAP3 SWAP2 POP POP JUMP JUMPDEST PUSH0 DUP2 MLOAD SWAP1 POP SWAP2 SWAP1 POP JUMP JUMPDEST PUSH0 DUP3 DUP3 MSTORE PUSH1 0x20 DUP3 ADD SWAP1 POP SWAP3 SWAP2 POP POP JUMP JUMPDEST DUP3 DUP2 DUP4 MCOPY PUSH0 DUP4 DUP4 ADD MSTORE POP POP POP JUMP JUMPDEST PUSH0 PUSH1 0x1F NOT PUSH1 0x1F DUP4 ADD AND SWAP1 POP SWAP2 SWAP1 POP JUMP JUMPDEST PUSH0 PUSH2 0x744 DUP3 PUSH2 0x702 JUMP JUMPDEST PUSH2 0x74E DUP2 DUP6 PUSH2 0x70C JUMP JUMPDEST SWAP4 POP PUSH2 0x75E DUP2 DUP6 PUSH1 0x20 DUP7 ADD PUSH2 0x71C JUMP JUMPDEST PUSH2 0x767 DUP2 PUSH2 0x72A JUMP JUMPDEST DUP5 ADD SWAP2 POP POP SWAP3 SWAP2 POP POP JUMP JUMPDEST PUSH0 PUSH1 0x20 DUP3 ADD SWAP1 POP DUP2 DUP2 SUB PUSH0 DUP4 ADD MSTORE PUSH2 0x78A DUP2 DUP5 PUSH2 0x73A JUMP JUMPDEST SWAP1 POP SWAP3 SWAP2 POP POP JUMP JUMPDEST PUSH0 DUP1 REVERT JUMPDEST PUSH2 0x79F DUP2 PUSH2 0x6D1 JUMP JUMPDEST DUP2 EQ PUSH2 0x7A9 JUMPI PUSH0 DUP1 REVERT JUMPDEST POP JUMP JUMPDEST PUSH0 DUP2 CALLDATALOAD SWAP1 POP PUSH2 0x7BA DUP2 PUSH2 0x796 JUMP JUMPDEST SWAP3 SWAP2 POP POP JUMP JUMPDEST PUSH0 PUSH1 0x20 DUP3 DUP5 SUB SLT ISZERO PUSH2 0x7D5 JUMPI PUSH2 0x7D4 PUSH2 0x792 JUMP JUMPDEST JUMPDEST PUSH0 PUSH2 0x7E2 DUP5 DUP3 DUP6 ADD PUSH2 0x7AC JUMP JUMPDEST SWAP2 POP POP SWAP3 SWAP2 POP POP JUMP JUMPDEST PUSH0 PUSH20 0xFFFFFFFFFFFFFFFFFFFFFFFFFFFFFFFFFFFFFFFF DUP3 AND SWAP1 POP SWAP2 SWAP1 POP JUMP JUMPDEST PUSH0 PUSH2 0x814 DUP3 PUSH2 0x7EB JUMP JUMPDEST SWAP1 POP SWAP2 SWAP1 POP JUMP JUMPDEST PUSH2 0x824 DUP2 PUSH2 0x80A JUMP JUMPDEST DUP3 MSTORE POP POP JUMP JUMPDEST PUSH0 PUSH1 0x40 DUP3 ADD SWAP1 POP PUSH2 0x83D PUSH0 DUP4 ADD DUP6 PUSH2 0x81B JUMP JUMPDEST PUSH2 0x84A PUSH1 0x20 DUP4 ADD DUP5 PUSH2 0x6DA JUMP JUMPDEST SWAP4 SWAP3 POP POP POP JUMP JUMPDEST PUSH0 PUSH1 0x20 DUP3 ADD SWAP1 POP PUSH2 0x864 PUSH0 DUP4 ADD DUP5 PUSH2 0x81B JUMP JUMPDEST SWAP3 SWAP2 POP POP JUMP JUMPDEST PUSH32 0x4572726F723A2063616C6C6572206973206E6F7420746865206F776E65720000 PUSH0 DUP3 ADD MSTORE POP JUMP JUMPDEST PUSH0 PUSH2 0x89E PUSH1 0x1E DUP4 PUSH2 0x70C JUMP JUMPDEST SWAP2 POP PUSH2 0x8A9 DUP3 PUSH2 0x86A JUMP JUMPDEST PUSH1 0x20 DUP3 ADD SWAP1 POP SWAP2 SWAP1 POP JUMP JUMPDEST PUSH0 PUSH1 0x20 DUP3 ADD SWAP1 POP DUP2 DUP2 SUB PUSH0 DUP4 ADD MSTORE PUSH2 0x8CB DUP2 PUSH2 0x892 JUMP JUMPDEST SWAP1 POP SWAP2 SWAP1 POP JUMP JUMPDEST PUSH32 0x43616D706169676E206973207374696C6C206F6E676F696E6700000000000000 PUSH0 DUP3 ADD MSTORE POP JUMP JUMPDEST PUSH0 PUSH2 0x906 PUSH1 0x19 DUP4 PUSH2 0x70C JUMP JUMPDEST SWAP2 POP PUSH2 0x911 DUP3 PUSH2 0x8D2 JUMP JUMPDEST PUSH1 0x20 DUP3 ADD SWAP1 POP SWAP2 SWAP1 POP JUMP JUMPDEST PUSH0 PUSH1 0x20 DUP3 ADD SWAP1 POP DUP2 DUP2 SUB PUSH0 DUP4 ADD MSTORE PUSH2 0x933 DUP2 PUSH2 0x8FA JUMP JUMPDEST SWAP1 POP SWAP2 SWAP1 POP JUMP JUMPDEST PUSH32 0x43616D706169676E20616C726561647920656E64656400000000000000000000 PUSH0 DUP3 ADD MSTORE POP JUMP JUMPDEST PUSH0 PUSH2 0x96E PUSH1 0x16 DUP4 PUSH2 0x70C JUMP JUMPDEST SWAP2 POP PUSH2 0x979 DUP3 PUSH2 0x93A JUMP JUMPDEST PUSH1 0x20 DUP3 ADD SWAP1 POP SWAP2 SWAP1 POP JUMP JUMPDEST PUSH0 PUSH1 0x20 DUP3 ADD SWAP1 POP DUP2 DUP2 SUB PUSH0 DUP4 ADD MSTORE PUSH2 0x99B DUP2 PUSH2 0x962 JUMP JUMPDEST SWAP1 POP SWAP2 SWAP1 POP JUMP JUMPDEST PUSH32 0x4E487B7100000000000000000000000000000000000000000000000000000000 PUSH0 MSTORE PUSH1 0x41 PUSH1 0x4 MSTORE PUSH1 0x24 PUSH0 REVERT JUMPDEST PUSH32 0x4E487B7100000000000000000000000000000000000000000000000000000000 PUSH0 MSTORE PUSH1 0x22 PUSH1 0x4 MSTORE PUSH1 0x24 PUSH0 REVERT JUMPDEST PUSH0 PUSH1 0x2 DUP3 DIV SWAP1 POP PUSH1 0x1 DUP3 AND DUP1 PUSH2 0xA13 JUMPI PUSH1 0x7F DUP3 AND SWAP2 POP JUMPDEST PUSH1 0x20 DUP3 LT DUP2 SUB PUSH2 0xA26 JUMPI PUSH2 0xA25 PUSH2 0x9CF JUMP JUMPDEST JUMPDEST POP SWAP2 SWAP1 POP JUMP JUMPDEST PUSH0 DUP2 SWAP1 POP DUP2 PUSH0 MSTORE PUSH1 0x20 PUSH0 KECCAK256 SWAP1 POP SWAP2 SWAP1 POP JUMP JUMPDEST PUSH0 PUSH1 0x20 PUSH1 0x1F DUP4 ADD DIV SWAP1 POP SWAP2 SWAP1 POP JUMP JUMPDEST PUSH0 DUP3 DUP3 SHL SWAP1 POP SWAP3 SWAP2 POP POP JUMP JUMPDEST PUSH0 PUSH1 0x8 DUP4 MUL PUSH2 0xA88 PUSH32 0xFFFFFFFFFFFFFFFFFFFFFFFFFFFFFFFFFFFFFFFFFFFFFFFFFFFFFFFFFFFFFFFF DUP3 PUSH2 0xA4D JUMP JUMPDEST PUSH2 0xA92 DUP7 DUP4 PUSH2 0xA4D JUMP JUMPDEST SWAP6 POP DUP1 NOT DUP5 AND SWAP4 POP DUP1 DUP7 AND DUP5 OR SWAP3 POP POP POP SWAP4 SWAP3 POP POP POP JUMP JUMPDEST PUSH0 DUP2 SWAP1 POP SWAP2 SWAP1 POP JUMP JUMPDEST PUSH0 PUSH2 0xACD PUSH2 0xAC8 PUSH2 0xAC3 DUP5 PUSH2 0x6D1 JUMP JUMPDEST PUSH2 0xAAA JUMP JUMPDEST PUSH2 0x6D1 JUMP JUMPDEST SWAP1 POP SWAP2 SWAP1 POP JUMP JUMPDEST PUSH0 DUP2 SWAP1 POP SWAP2 SWAP1 POP JUMP JUMPDEST PUSH2 0xAE6 DUP4 PUSH2 0xAB3 JUMP JUMPDEST PUSH2 0xAFA PUSH2 0xAF2 DUP3 PUSH2 0xAD4 JUMP JUMPDEST DUP5 DUP5 SLOAD PUSH2 0xA59 JUMP JUMPDEST DUP3 SSTORE POP POP POP POP JUMP JUMPDEST PUSH0 SWAP1 JUMP JUMPDEST PUSH2 0xB0E PUSH2 0xB02 JUMP JUMPDEST PUSH2 0xB19 DUP2 DUP5 DUP5 PUSH2 0xADD JUMP JUMPDEST POP POP POP JUMP JUMPDEST JUMPDEST DUP2 DUP2 LT ISZERO PUSH2 0xB3C JUMPI PUSH2 0xB31 PUSH0 DUP3 PUSH2 0xB06 JUMP JUMPDEST PUSH1 0x1 DUP2 ADD SWAP1 POP PUSH2 0xB1F JUMP JUMPDEST POP POP JUMP JUMPDEST PUSH1 0x1F DUP3 GT ISZERO PUSH2 0xB81 JUMPI PUSH2 0xB52 DUP2 PUSH2 0xA2C JUMP JUMPDEST PUSH2 0xB5B DUP5 PUSH2 0xA3E JUMP JUMPDEST DUP2 ADD PUSH1 0x20 DUP6 LT ISZERO PUSH2 0xB6A JUMPI DUP2 SWAP1 POP JUMPDEST PUSH2 0xB7E PUSH2 0xB76 DUP6 PUSH2 0xA3E JUMP JUMPDEST DUP4 ADD DUP3 PUSH2 0xB1E JUMP JUMPDEST POP POP JUMPDEST POP POP POP JUMP JUMPDEST PUSH0 DUP3 DUP3 SHR SWAP1 POP SWAP3 SWAP2 POP POP JUMP JUMPDEST PUSH0 PUSH2 0xBA1 PUSH0 NOT DUP5 PUSH1 0x8 MUL PUSH2 0xB86 JUMP JUMPDEST NOT DUP1 DUP4 AND SWAP2 POP POP SWAP3 SWAP2 POP POP JUMP JUMPDEST PUSH0 PUSH2 0xBB9 DUP4 DUP4 PUSH2 0xB92 JUMP JUMPDEST SWAP2 POP DUP3 PUSH1 0x2 MUL DUP3 OR SWAP1 POP SWAP3 SWAP2 POP POP JUMP JUMPDEST PUSH2 0xBD2 DUP3 PUSH2 0x702 JUMP JUMPDEST PUSH8 0xFFFFFFFFFFFFFFFF DUP2 GT ISZERO PUSH2 0xBEB JUMPI PUSH2 0xBEA PUSH2 0x9A2 JUMP JUMPDEST JUMPDEST PUSH2 0xBF5 DUP3 SLOAD PUSH2 0x9FC JUMP JUMPDEST PUSH2 0xC00 DUP3 DUP3 DUP6 PUSH2 0xB40 JUMP JUMPDEST PUSH0 PUSH1 0x20 SWAP1 POP PUSH1 0x1F DUP4 GT PUSH1 0x1 DUP2 EQ PUSH2 0xC31 JUMPI PUSH0 DUP5 ISZERO PUSH2 0xC1F JUMPI DUP3 DUP8 ADD MLOAD SWAP1 POP JUMPDEST PUSH2 0xC29 DUP6 DUP3 PUSH2 0xBAE JUMP JUMPDEST DUP7 SSTORE POP PUSH2 0xC90 JUMP JUMPDEST PUSH1 0x1F NOT DUP5 AND PUSH2 0xC3F DUP7 PUSH2 0xA2C JUMP JUMPDEST PUSH0 JUMPDEST DUP3 DUP2 LT ISZERO PUSH2 0xC66 JUMPI DUP5 DUP10 ADD MLOAD DUP3 SSTORE PUSH1 0x1 DUP3 ADD SWAP2 POP PUSH1 0x20 DUP6 ADD SWAP5 POP PUSH1 0x20 DUP2 ADD SWAP1 POP PUSH2 0xC41 JUMP JUMPDEST DUP7 DUP4 LT ISZERO PUSH2 0xC83 JUMPI DUP5 DUP10 ADD MLOAD PUSH2 0xC7F PUSH1 0x1F DUP10 AND DUP3 PUSH2 0xB92 JUMP JUMPDEST DUP4 SSTORE POP JUMPDEST PUSH1 0x1 PUSH1 0x2 DUP9 MUL ADD DUP9 SSTORE POP POP POP JUMPDEST POP POP POP POP POP POP JUMP JUMPDEST PUSH32 0x46756E64696E672068617320656E646564000000000000000000000000000000 PUSH0 DUP3 ADD MSTORE POP JUMP JUMPDEST PUSH0 PUSH2 0xCCC PUSH1 0x11 DUP4 PUSH2 0x70C JUMP JUMPDEST SWAP2 POP PUSH2 0xCD7 DUP3 PUSH2 0xC98 JUMP JUMPDEST PUSH1 0x20 DUP3 ADD SWAP1 POP SWAP2 SWAP1 POP JUMP JUMPDEST PUSH0 PUSH1 0x20 DUP3 ADD SWAP1 POP DUP2 DUP2 SUB PUSH0 DUP4 ADD MSTORE PUSH2 0xCF9 DUP2 PUSH2 0xCC0 JUMP JUMPDEST SWAP1 POP SWAP2 SWAP1 POP JUMP JUMPDEST PUSH32 0x446561646C696E65206861732070617373656400000000000000000000000000 PUSH0 DUP3 ADD MSTORE POP JUMP JUMPDEST PUSH0 PUSH2 0xD34 PUSH1 0x13 DUP4 PUSH2 0x70C JUMP JUMPDEST SWAP2 POP PUSH2 0xD3F DUP3 PUSH2 0xD00 JUMP JUMPDEST PUSH1 0x20 DUP3 ADD SWAP1 POP SWAP2 SWAP1 POP JUMP JUMPDEST PUSH0 PUSH1 0x20 DUP3 ADD SWAP1 POP DUP2 DUP2 SUB PUSH0 DUP4 ADD MSTORE PUSH2 0xD61 DUP2 PUSH2 0xD28 JUMP JUMPDEST SWAP1 POP SWAP2 SWAP1 POP JUMP JUMPDEST PUSH32 0x496E766573746D656E74206D7573742062652067726561746572207468616E20 PUSH0 DUP3 ADD MSTORE PUSH32 0x3000000000000000000000000000000000000000000000000000000000000000 PUSH1 0x20 DUP3 ADD MSTORE POP JUMP JUMPDEST PUSH0 PUSH2 0xDC2 PUSH1 0x21 DUP4 PUSH2 0x70C JUMP JUMPDEST SWAP2 POP PUSH2 0xDCD DUP3 PUSH2 0xD68 JUMP JUMPDEST PUSH1 0x40 DUP3 ADD SWAP1 POP SWAP2 SWAP1 POP JUMP JUMPDEST PUSH0 PUSH1 0x20 DUP3 ADD SWAP1 POP DUP2 DUP2 SUB PUSH0 DUP4 ADD MSTORE PUSH2 0xDEF DUP2 PUSH2 0xDB6 JUMP JUMPDEST SWAP1 POP SWAP2 SWAP1 POP JUMP JUMPDEST PUSH32 0x4E487B7100000000000000000000000000000000000000000000000000000000 PUSH0 MSTORE PUSH1 0x11 PUSH1 0x4 MSTORE PUSH1 0x24 PUSH0 REVERT JUMPDEST PUSH0 PUSH2 0xE2D DUP3 PUSH2 0x6D1 JUMP JUMPDEST SWAP2 POP PUSH32 0xFFFFFFFFFFFFFFFFFFFFFFFFFFFFFFFFFFFFFFFFFFFFFFFFFFFFFFFFFFFFFFFF DUP3 SUB PUSH2 0xE5F JUMPI PUSH2 0xE5E PUSH2 0xDF6 JUMP JUMPDEST JUMPDEST PUSH1 0x1 DUP3 ADD SWAP1 POP SWAP2 SWAP1 POP JUMP JUMPDEST PUSH0 PUSH2 0xE74 DUP3 PUSH2 0x6D1 JUMP JUMPDEST SWAP2 POP PUSH2 0xE7F DUP4 PUSH2 0x6D1 JUMP JUMPDEST SWAP3 POP DUP3 DUP3 ADD SWAP1 POP DUP1 DUP3 GT ISZERO PUSH2 0xE97 JUMPI PUSH2 0xE96 PUSH2 0xDF6 JUMP JUMPDEST JUMPDEST SWAP3 SWAP2 POP POP JUMP INVALID LOG2 PUSH5 0x6970667358 0x22 SLT KECCAK256 0xD4 PUSH15 0xEBAB0617AB3DAE60F56FEC3CB2BC6F NOT 0xCD SWAP6 0x4C PC MULMOD PUSH12 0x5231159A1EF31EA564736F6C PUSH4 0x4300081A STOP CALLER "
				},
				"gasEstimates": {
					"creation": {
						"codeDepositCost": "759000",
						"executionCost": "infinite",
						"totalCost": "infinite"
					},
					"external": {
						"checkGoalReached()": "infinite",
						"deadline()": "2447",
						"ended()": "2489",
						"fund()": "infinite",
						"goalAmount()": "2425",
						"investors(uint256)": "infinite",
						"numInvestors()": "2470",
						"owner()": "2574",
						"status()": "infinite",
						"totalAmount()": "2492"
					}
				},
				"methodIdentifiers": {
					"checkGoalReached()": "01cb3b20",
					"deadline()": "29dcb0cf",
					"ended()": "12fa6feb",
					"fund()": "b60d4288",
					"goalAmount()": "2636b945",
					"investors(uint256)": "3feb5f2b",
					"numInvestors()": "132ae5e9",
					"owner()": "8da5cb5b",
					"status()": "200d2ed2",
					"totalAmount()": "1a39d8ef"
				}
			},
			"storageLayout": {
				"storage": [
					{
						"astId": 11,
						"contract": "scripts/CloudFunding.sol:CloudFunding",
						"label": "investors",
						"offset": 0,
						"slot": "0",
						"type": "t_mapping(t_uint256,t_struct(Investor)6_storage)"
					},
					{
						"astId": 13,
						"contract": "scripts/CloudFunding.sol:CloudFunding",
						"label": "owner",
						"offset": 0,
						"slot": "1",
						"type": "t_address"
					},
					{
						"astId": 15,
						"contract": "scripts/CloudFunding.sol:CloudFunding",
						"label": "numInvestors",
						"offset": 0,
						"slot": "2",
						"type": "t_uint256"
					},
					{
						"astId": 17,
						"contract": "scripts/CloudFunding.sol:CloudFunding",
						"label": "deadline",
						"offset": 0,
						"slot": "3",
						"type": "t_uint256"
					},
					{
						"astId": 19,
						"contract": "scripts/CloudFunding.sol:CloudFunding",
						"label": "status",
						"offset": 0,
						"slot": "4",
						"type": "t_string_storage"
					},
					{
						"astId": 21,
						"contract": "scripts/CloudFunding.sol:CloudFunding",
						"label": "ended",
						"offset": 0,
						"slot": "5",
						"type": "t_bool"
					},
					{
						"astId": 23,
						"contract": "scripts/CloudFunding.sol:CloudFunding",
						"label": "goalAmount",
						"offset": 0,
						"slot": "6",
						"type": "t_uint256"
					},
					{
						"astId": 25,
						"contract": "scripts/CloudFunding.sol:CloudFunding",
						"label": "totalAmount",
						"offset": 0,
						"slot": "7",
						"type": "t_uint256"
					}
				],
				"types": {
					"t_address": {
						"encoding": "inplace",
						"label": "address",
						"numberOfBytes": "20"
					},
					"t_bool": {
						"encoding": "inplace",
						"label": "bool",
						"numberOfBytes": "1"
					},
					"t_mapping(t_uint256,t_struct(Investor)6_storage)": {
						"encoding": "mapping",
						"key": "t_uint256",
						"label": "mapping(uint256 => struct CloudFunding.Investor)",
						"numberOfBytes": "32",
						"value": "t_struct(Investor)6_storage"
					},
					"t_string_storage": {
						"encoding": "bytes",
						"label": "string",
						"numberOfBytes": "32"
					},
					"t_struct(Investor)6_storage": {
						"encoding": "inplace",
						"label": "struct CloudFunding.Investor",
						"members": [
							{
								"astId": 3,
								"contract": "scripts/CloudFunding.sol:CloudFunding",
								"label": "addr",
								"offset": 0,
								"slot": "0",
								"type": "t_address"
							},
							{
								"astId": 5,
								"contract": "scripts/CloudFunding.sol:CloudFunding",
								"label": "amount",
								"offset": 0,
								"slot": "1",
								"type": "t_uint256"
							}
						],
						"numberOfBytes": "64"
					},
					"t_uint256": {
						"encoding": "inplace",
						"label": "uint256",
						"numberOfBytes": "32"
					}
				}
			},
			"userdoc": {
				"kind": "user",
				"methods": {},
				"version": 1
			}
		}
	}
}