{
	"scripts/ERC721StdNFT.sol": {
		"ERC721StdNFT": {
			"abi": [
				{
					"inputs": [
						{
							"internalType": "string",
							"name": "_name",
							"type": "string"
						},
						{
							"internalType": "string",
							"name": "_symbol",
							"type": "string"
						}
					],
					"stateMutability": "nonpayable",
					"type": "constructor"
				},
				{
					"anonymous": false,
					"inputs": [
						{
							"indexed": true,
							"internalType": "address",
							"name": "_owner",
							"type": "address"
						},
						{
							"indexed": true,
							"internalType": "address",
							"name": "_approved",
							"type": "address"
						},
						{
							"indexed": true,
							"internalType": "uint256",
							"name": "_tokenId",
							"type": "uint256"
						}
					],
					"name": "Approval",
					"type": "event"
				},
				{
					"anonymous": false,
					"inputs": [
						{
							"indexed": true,
							"internalType": "address",
							"name": "_owner",
							"type": "address"
						},
						{
							"indexed": true,
							"internalType": "address",
							"name": "_operator",
							"type": "address"
						},
						{
							"indexed": false,
							"internalType": "bool",
							"name": "_approved",
							"type": "bool"
						}
					],
					"name": "ApprovalForAll",
					"type": "event"
				},
				{
					"anonymous": false,
					"inputs": [
						{
							"indexed": true,
							"internalType": "address",
							"name": "_from",
							"type": "address"
						},
						{
							"indexed": true,
							"internalType": "address",
							"name": "_to",
							"type": "address"
						},
						{
							"indexed": true,
							"internalType": "uint256",
							"name": "_tokenId",
							"type": "uint256"
						}
					],
					"name": "Transfer",
					"type": "event"
				},
				{
					"inputs": [
						{
							"internalType": "address",
							"name": "",
							"type": "address"
						},
						{
							"internalType": "address",
							"name": "",
							"type": "address"
						}
					],
					"name": "_operatorApprovals",
					"outputs": [
						{
							"internalType": "bool",
							"name": "",
							"type": "bool"
						}
					],
					"stateMutability": "view",
					"type": "function"
				},
				{
					"inputs": [
						{
							"internalType": "address",
							"name": "_approved",
							"type": "address"
						},
						{
							"internalType": "uint256",
							"name": "_tokenId",
							"type": "uint256"
						}
					],
					"name": "approve",
					"outputs": [],
					"stateMutability": "payable",
					"type": "function"
				},
				{
					"inputs": [
						{
							"internalType": "address",
							"name": "_owner",
							"type": "address"
						}
					],
					"name": "balanceOf",
					"outputs": [
						{
							"internalType": "uint256",
							"name": "",
							"type": "uint256"
						}
					],
					"stateMutability": "view",
					"type": "function"
				},
				{
					"inputs": [],
					"name": "founder",
					"outputs": [
						{
							"internalType": "address",
							"name": "",
							"type": "address"
						}
					],
					"stateMutability": "view",
					"type": "function"
				},
				{
					"inputs": [
						{
							"internalType": "uint256",
							"name": "_tokenId",
							"type": "uint256"
						}
					],
					"name": "getApproved",
					"outputs": [
						{
							"internalType": "address",
							"name": "",
							"type": "address"
						}
					],
					"stateMutability": "view",
					"type": "function"
				},
				{
					"inputs": [
						{
							"internalType": "address",
							"name": "_owner",
							"type": "address"
						},
						{
							"internalType": "address",
							"name": "_operator",
							"type": "address"
						}
					],
					"name": "isApprovedForAll",
					"outputs": [
						{
							"internalType": "bool",
							"name": "",
							"type": "bool"
						}
					],
					"stateMutability": "view",
					"type": "function"
				},
				{
					"inputs": [
						{
							"internalType": "address",
							"name": "to",
							"type": "address"
						},
						{
							"internalType": "uint256",
							"name": "tokenID",
							"type": "uint256"
						}
					],
					"name": "mintNFT",
					"outputs": [],
					"stateMutability": "nonpayable",
					"type": "function"
				},
				{
					"inputs": [],
					"name": "name",
					"outputs": [
						{
							"internalType": "string",
							"name": "",
							"type": "string"
						}
					],
					"stateMutability": "view",
					"type": "function"
				},
				{
					"inputs": [
						{
							"internalType": "uint256",
							"name": "_tokenId",
							"type": "uint256"
						}
					],
					"name": "ownerOf",
					"outputs": [
						{
							"internalType": "address",
							"name": "",
							"type": "address"
						}
					],
					"stateMutability": "view",
					"type": "function"
				},
				{
					"inputs": [
						{
							"internalType": "address",
							"name": "_from",
							"type": "address"
						},
						{
							"internalType": "address",
							"name": "_to",
							"type": "address"
						},
						{
							"internalType": "uint256",
							"name": "_tokenId",
							"type": "uint256"
						}
					],
					"name": "safeTransferFrom",
					"outputs": [],
					"stateMutability": "payable",
					"type": "function"
				},
				{
					"inputs": [
						{
							"internalType": "address",
							"name": "_from",
							"type": "address"
						},
						{
							"internalType": "address",
							"name": "_to",
							"type": "address"
						},
						{
							"internalType": "uint256",
							"name": "_tokenId",
							"type": "uint256"
						},
						{
							"internalType": "bytes",
							"name": "data",
							"type": "bytes"
						}
					],
					"name": "safeTransferFrom",
					"outputs": [],
					"stateMutability": "payable",
					"type": "function"
				},
				{
					"inputs": [
						{
							"internalType": "address",
							"name": "_operator",
							"type": "address"
						},
						{
							"internalType": "bool",
							"name": "_approved",
							"type": "bool"
						}
					],
					"name": "setApprovalForAll",
					"outputs": [],
					"stateMutability": "nonpayable",
					"type": "function"
				},
				{
					"inputs": [
						{
							"internalType": "bytes4",
							"name": "interfaceId",
							"type": "bytes4"
						}
					],
					"name": "supportsInterface",
					"outputs": [
						{
							"internalType": "bool",
							"name": "",
							"type": "bool"
						}
					],
					"stateMutability": "pure",
					"type": "function"
				},
				{
					"inputs": [],
					"name": "symbol",
					"outputs": [
						{
							"internalType": "string",
							"name": "",
							"type": "string"
						}
					],
					"stateMutability": "view",
					"type": "function"
				},
				{
					"inputs": [
						{
							"internalType": "address",
							"name": "_from",
							"type": "address"
						},
						{
							"internalType": "address",
							"name": "_to",
							"type": "address"
						},
						{
							"internalType": "uint256",
							"name": "_tokenId",
							"type": "uint256"
						}
					],
					"name": "transferFrom",
					"outputs": [],
					"stateMutability": "payable",
					"type": "function"
				}
			],
			"devdoc": {
				"kind": "dev",
				"methods": {},
				"version": 1
			},
			"evm": {
				"assembly": "    /* \"scripts/ERC721StdNFT.sol\":1743:8065  contract ERC721StdNFT is ERC721 {... */\n  mstore(0x40, 0x80)\n    /* \"scripts/ERC721StdNFT.sol\":2405:2770  constructor(string memory _name, string memory _symbol) {... */\n  callvalue\n  dup1\n  iszero\n  tag_1\n  jumpi\n  0x00\n  dup1\n  revert\ntag_1:\n  pop\n  mload(0x40)\n  sub(codesize, bytecodeSize)\n  dup1\n  bytecodeSize\n  dup4\n  codecopy\n  dup2\n  dup2\n  add\n  0x40\n  mstore\n  dup2\n  add\n  swap1\n  tag_2\n  swap2\n  swap1\n  tag_3\n  jump\t// in\ntag_2:\n    /* \"scripts/ERC721StdNFT.sol\":2481:2491  msg.sender */\n  caller\n    /* \"scripts/ERC721StdNFT.sol\":2471:2478  founder */\n  0x00\n  dup1\n    /* \"scripts/ERC721StdNFT.sol\":2471:2491  founder = msg.sender */\n  0x0100\n  exp\n  dup2\n  sload\n  dup2\n  0xffffffffffffffffffffffffffffffffffffffff\n  mul\n  not\n  and\n  swap1\n  dup4\n  0xffffffffffffffffffffffffffffffffffffffff\n  and\n  mul\n  or\n  swap1\n  sstore\n  pop\n    /* \"scripts/ERC721StdNFT.sol\":2555:2560  _name */\n  dup2\n    /* \"scripts/ERC721StdNFT.sol\":2548:2552  name */\n  0x05\n    /* \"scripts/ERC721StdNFT.sol\":2548:2560  name = _name */\n  swap1\n  dup2\n  tag_6\n  swap2\n  swap1\n  tag_7\n  jump\t// in\ntag_6:\n  pop\n    /* \"scripts/ERC721StdNFT.sol\":2600:2607  _symbol */\n  dup1\n    /* \"scripts/ERC721StdNFT.sol\":2591:2597  symbol */\n  0x06\n    /* \"scripts/ERC721StdNFT.sol\":2591:2607  symbol = _symbol */\n  swap1\n  dup2\n  tag_8\n  swap2\n  swap1\n  tag_7\n  jump\t// in\ntag_8:\n  pop\n    /* \"scripts/ERC721StdNFT.sol\":2643:2658  uint256 tokenID */\n  0x00\n    /* \"scripts/ERC721StdNFT.sol\":2661:2662  1 */\n  0x01\n    /* \"scripts/ERC721StdNFT.sol\":2643:2662  uint256 tokenID = 1 */\n  swap1\n  pop\n    /* \"scripts/ERC721StdNFT.sol\":2638:2764  for (uint256 tokenID = 1; tokenID <= 5; tokenID++) {... */\ntag_9:\n    /* \"scripts/ERC721StdNFT.sol\":2675:2676  5 */\n  0x05\n    /* \"scripts/ERC721StdNFT.sol\":2664:2671  tokenID */\n  dup2\n    /* \"scripts/ERC721StdNFT.sol\":2664:2676  tokenID <= 5 */\n  gt\n    /* \"scripts/ERC721StdNFT.sol\":2638:2764  for (uint256 tokenID = 1; tokenID <= 5; tokenID++) {... */\n  tag_10\n  jumpi\n    /* \"scripts/ERC721StdNFT.sol\":2703:2729  _mint(msg.sender, tokenID) */\n  tag_12\n    /* \"scripts/ERC721StdNFT.sol\":2709:2719  msg.sender */\n  caller\n    /* \"scripts/ERC721StdNFT.sol\":2721:2728  tokenID */\n  dup3\n    /* \"scripts/ERC721StdNFT.sol\":2703:2708  _mint */\n  shl(0x20, tag_13)\n    /* \"scripts/ERC721StdNFT.sol\":2703:2729  _mint(msg.sender, tokenID) */\n  0x20\n  shr\n  jump\t// in\ntag_12:\n    /* \"scripts/ERC721StdNFT.sol\":2678:2687  tokenID++ */\n  dup1\n  dup1\n  tag_14\n  swap1\n  tag_15\n  jump\t// in\ntag_14:\n  swap2\n  pop\n  pop\n    /* \"scripts/ERC721StdNFT.sol\":2638:2764  for (uint256 tokenID = 1; tokenID <= 5; tokenID++) {... */\n  jump(tag_9)\ntag_10:\n  pop\n    /* \"scripts/ERC721StdNFT.sol\":2405:2770  constructor(string memory _name, string memory _symbol) {... */\n  pop\n  pop\n    /* \"scripts/ERC721StdNFT.sol\":1743:8065  contract ERC721StdNFT is ERC721 {... */\n  jump(tag_16)\n    /* \"scripts/ERC721StdNFT.sol\":2816:3255  function _mint(address to, uint256 id) internal {... */\ntag_13:\n    /* \"scripts/ERC721StdNFT.sol\":2896:2897  0 */\n  0x00\n    /* \"scripts/ERC721StdNFT.sol\":2882:2898  to != address(0) */\n  0xffffffffffffffffffffffffffffffffffffffff\n  and\n    /* \"scripts/ERC721StdNFT.sol\":2882:2884  to */\n  dup3\n    /* \"scripts/ERC721StdNFT.sol\":2882:2898  to != address(0) */\n  0xffffffffffffffffffffffffffffffffffffffff\n  and\n  sub\n    /* \"scripts/ERC721StdNFT.sol\":2874:2923  require(to != address(0), \"mint to zero address\") */\n  tag_18\n  jumpi\n  mload(0x40)\n  0x08c379a000000000000000000000000000000000000000000000000000000000\n  dup2\n  mstore\n  0x04\n  add\n  tag_19\n  swap1\n  tag_20\n  jump\t// in\ntag_19:\n  mload(0x40)\n  dup1\n  swap2\n  sub\n  swap1\n  revert\ntag_18:\n    /* \"scripts/ERC721StdNFT.sol\":2994:2995  0 */\n  0x00\n    /* \"scripts/ERC721StdNFT.sol\":2970:2996  _ownerOf[id] == address(0) */\n  0xffffffffffffffffffffffffffffffffffffffff\n  and\n    /* \"scripts/ERC721StdNFT.sol\":2970:2978  _ownerOf */\n  0x01\n    /* \"scripts/ERC721StdNFT.sol\":2970:2982  _ownerOf[id] */\n  0x00\n    /* \"scripts/ERC721StdNFT.sol\":2979:2981  id */\n  dup4\n    /* \"scripts/ERC721StdNFT.sol\":2970:2982  _ownerOf[id] */\n  dup2\n  mstore\n  0x20\n  add\n  swap1\n  dup2\n  mstore\n  0x20\n  add\n  0x00\n  keccak256\n  0x00\n  swap1\n  sload\n  swap1\n  0x0100\n  exp\n  swap1\n  div\n  0xffffffffffffffffffffffffffffffffffffffff\n  and\n    /* \"scripts/ERC721StdNFT.sol\":2970:2996  _ownerOf[id] == address(0) */\n  0xffffffffffffffffffffffffffffffffffffffff\n  and\n  eq\n    /* \"scripts/ERC721StdNFT.sol\":2962:3015  require(_ownerOf[id] == address(0), \"already minted\") */\n  tag_21\n  jumpi\n  mload(0x40)\n  0x08c379a000000000000000000000000000000000000000000000000000000000\n  dup2\n  mstore\n  0x04\n  add\n  tag_22\n  swap1\n  tag_23\n  jump\t// in\ntag_22:\n  mload(0x40)\n  dup1\n  swap2\n  sub\n  swap1\n  revert\ntag_21:\n    /* \"scripts/ERC721StdNFT.sol\":3069:3079  _balanceOf */\n  0x02\n    /* \"scripts/ERC721StdNFT.sol\":3069:3083  _balanceOf[to] */\n  0x00\n    /* \"scripts/ERC721StdNFT.sol\":3080:3082  to */\n  dup4\n    /* \"scripts/ERC721StdNFT.sol\":3069:3083  _balanceOf[to] */\n  0xffffffffffffffffffffffffffffffffffffffff\n  and\n  0xffffffffffffffffffffffffffffffffffffffff\n  and\n  dup2\n  mstore\n  0x20\n  add\n  swap1\n  dup2\n  mstore\n  0x20\n  add\n  0x00\n  keccak256\n  0x00\n    /* \"scripts/ERC721StdNFT.sol\":3069:3085  _balanceOf[to]++ */\n  dup2\n  sload\n  dup1\n  swap3\n  swap2\n  swap1\n  tag_24\n  swap1\n  tag_15\n  jump\t// in\ntag_24:\n  swap2\n  swap1\n  pop\n  sstore\n  pop\n    /* \"scripts/ERC721StdNFT.sol\":3147:3149  to */\n  dup2\n    /* \"scripts/ERC721StdNFT.sol\":3132:3140  _ownerOf */\n  0x01\n    /* \"scripts/ERC721StdNFT.sol\":3132:3144  _ownerOf[id] */\n  0x00\n    /* \"scripts/ERC721StdNFT.sol\":3141:3143  id */\n  dup4\n    /* \"scripts/ERC721StdNFT.sol\":3132:3144  _ownerOf[id] */\n  dup2\n  mstore\n  0x20\n  add\n  swap1\n  dup2\n  mstore\n  0x20\n  add\n  0x00\n  keccak256\n  0x00\n    /* \"scripts/ERC721StdNFT.sol\":3132:3149  _ownerOf[id] = to */\n  0x0100\n  exp\n  dup2\n  sload\n  dup2\n  0xffffffffffffffffffffffffffffffffffffffff\n  mul\n  not\n  and\n  swap1\n  dup4\n  0xffffffffffffffffffffffffffffffffffffffff\n  and\n  mul\n  or\n  swap1\n  sstore\n  pop\n    /* \"scripts/ERC721StdNFT.sol\":3216:3218  id */\n  dup1\n    /* \"scripts/ERC721StdNFT.sol\":3212:3214  to */\n  dup3\n    /* \"scripts/ERC721StdNFT.sol\":3191:3219  Transfer(address(0), to, id) */\n  0xffffffffffffffffffffffffffffffffffffffff\n  and\n    /* \"scripts/ERC721StdNFT.sol\":3208:3209  0 */\n  0x00\n    /* \"scripts/ERC721StdNFT.sol\":3191:3219  Transfer(address(0), to, id) */\n  0xffffffffffffffffffffffffffffffffffffffff\n  and\n  0xddf252ad1be2c89b69c2b068fc378daa952ba7f163c4a11628f55a4df523b3ef\n  mload(0x40)\n  mload(0x40)\n  dup1\n  swap2\n  sub\n  swap1\n  log4\n    /* \"scripts/ERC721StdNFT.sol\":2816:3255  function _mint(address to, uint256 id) internal {... */\n  pop\n  pop\n  jump\t// out\n    /* \"#utility.yul\":7:82   */\ntag_25:\n    /* \"#utility.yul\":40:46   */\n  0x00\n    /* \"#utility.yul\":73:75   */\n  0x40\n    /* \"#utility.yul\":67:76   */\n  mload\n    /* \"#utility.yul\":57:76   */\n  swap1\n  pop\n    /* \"#utility.yul\":7:82   */\n  swap1\n  jump\t// out\n    /* \"#utility.yul\":88:205   */\ntag_26:\n    /* \"#utility.yul\":197:198   */\n  0x00\n    /* \"#utility.yul\":194:195   */\n  dup1\n    /* \"#utility.yul\":187:199   */\n  revert\n    /* \"#utility.yul\":211:328   */\ntag_27:\n    /* \"#utility.yul\":320:321   */\n  0x00\n    /* \"#utility.yul\":317:318   */\n  dup1\n    /* \"#utility.yul\":310:322   */\n  revert\n    /* \"#utility.yul\":334:451   */\ntag_28:\n    /* \"#utility.yul\":443:444   */\n  0x00\n    /* \"#utility.yul\":440:441   */\n  dup1\n    /* \"#utility.yul\":433:445   */\n  revert\n    /* \"#utility.yul\":457:574   */\ntag_29:\n    /* \"#utility.yul\":566:567   */\n  0x00\n    /* \"#utility.yul\":563:564   */\n  dup1\n    /* \"#utility.yul\":556:568   */\n  revert\n    /* \"#utility.yul\":580:682   */\ntag_30:\n    /* \"#utility.yul\":621:627   */\n  0x00\n    /* \"#utility.yul\":672:674   */\n  0x1f\n    /* \"#utility.yul\":668:675   */\n  not\n    /* \"#utility.yul\":663:665   */\n  0x1f\n    /* \"#utility.yul\":656:661   */\n  dup4\n    /* \"#utility.yul\":652:666   */\n  add\n    /* \"#utility.yul\":648:676   */\n  and\n    /* \"#utility.yul\":638:676   */\n  swap1\n  pop\n    /* \"#utility.yul\":580:682   */\n  swap2\n  swap1\n  pop\n  jump\t// out\n    /* \"#utility.yul\":688:868   */\ntag_31:\n    /* \"#utility.yul\":736:813   */\n  0x4e487b7100000000000000000000000000000000000000000000000000000000\n    /* \"#utility.yul\":733:734   */\n  0x00\n    /* \"#utility.yul\":726:814   */\n  mstore\n    /* \"#utility.yul\":833:837   */\n  0x41\n    /* \"#utility.yul\":830:831   */\n  0x04\n    /* \"#utility.yul\":823:838   */\n  mstore\n    /* \"#utility.yul\":857:861   */\n  0x24\n    /* \"#utility.yul\":854:855   */\n  0x00\n    /* \"#utility.yul\":847:862   */\n  revert\n    /* \"#utility.yul\":874:1155   */\ntag_32:\n    /* \"#utility.yul\":957:984   */\n  tag_72\n    /* \"#utility.yul\":979:983   */\n  dup3\n    /* \"#utility.yul\":957:984   */\n  tag_30\n  jump\t// in\ntag_72:\n    /* \"#utility.yul\":949:955   */\n  dup2\n    /* \"#utility.yul\":945:985   */\n  add\n    /* \"#utility.yul\":1087:1093   */\n  dup2\n    /* \"#utility.yul\":1075:1085   */\n  dup2\n    /* \"#utility.yul\":1072:1094   */\n  lt\n    /* \"#utility.yul\":1051:1069   */\n  0xffffffffffffffff\n    /* \"#utility.yul\":1039:1049   */\n  dup3\n    /* \"#utility.yul\":1036:1070   */\n  gt\n    /* \"#utility.yul\":1033:1095   */\n  or\n    /* \"#utility.yul\":1030:1118   */\n  iszero\n  tag_73\n  jumpi\n    /* \"#utility.yul\":1098:1116   */\n  tag_74\n  tag_31\n  jump\t// in\ntag_74:\n    /* \"#utility.yul\":1030:1118   */\ntag_73:\n    /* \"#utility.yul\":1138:1148   */\n  dup1\n    /* \"#utility.yul\":1134:1136   */\n  0x40\n    /* \"#utility.yul\":1127:1149   */\n  mstore\n    /* \"#utility.yul\":917:1155   */\n  pop\n    /* \"#utility.yul\":874:1155   */\n  pop\n  pop\n  jump\t// out\n    /* \"#utility.yul\":1161:1290   */\ntag_33:\n    /* \"#utility.yul\":1195:1201   */\n  0x00\n    /* \"#utility.yul\":1222:1242   */\n  tag_76\n  tag_25\n  jump\t// in\ntag_76:\n    /* \"#utility.yul\":1212:1242   */\n  swap1\n  pop\n    /* \"#utility.yul\":1251:1284   */\n  tag_77\n    /* \"#utility.yul\":1279:1283   */\n  dup3\n    /* \"#utility.yul\":1271:1277   */\n  dup3\n    /* \"#utility.yul\":1251:1284   */\n  tag_32\n  jump\t// in\ntag_77:\n    /* \"#utility.yul\":1161:1290   */\n  swap2\n  swap1\n  pop\n  jump\t// out\n    /* \"#utility.yul\":1296:1604   */\ntag_34:\n    /* \"#utility.yul\":1358:1362   */\n  0x00\n    /* \"#utility.yul\":1448:1466   */\n  0xffffffffffffffff\n    /* \"#utility.yul\":1440:1446   */\n  dup3\n    /* \"#utility.yul\":1437:1467   */\n  gt\n    /* \"#utility.yul\":1434:1490   */\n  iszero\n  tag_79\n  jumpi\n    /* \"#utility.yul\":1470:1488   */\n  tag_80\n  tag_31\n  jump\t// in\ntag_80:\n    /* \"#utility.yul\":1434:1490   */\ntag_79:\n    /* \"#utility.yul\":1508:1537   */\n  tag_81\n    /* \"#utility.yul\":1530:1536   */\n  dup3\n    /* \"#utility.yul\":1508:1537   */\n  tag_30\n  jump\t// in\ntag_81:\n    /* \"#utility.yul\":1500:1537   */\n  swap1\n  pop\n    /* \"#utility.yul\":1592:1596   */\n  0x20\n    /* \"#utility.yul\":1586:1590   */\n  dup2\n    /* \"#utility.yul\":1582:1597   */\n  add\n    /* \"#utility.yul\":1574:1597   */\n  swap1\n  pop\n    /* \"#utility.yul\":1296:1604   */\n  swap2\n  swap1\n  pop\n  jump\t// out\n    /* \"#utility.yul\":1610:1749   */\ntag_35:\n    /* \"#utility.yul\":1699:1705   */\n  dup3\n    /* \"#utility.yul\":1694:1697   */\n  dup2\n    /* \"#utility.yul\":1689:1692   */\n  dup4\n    /* \"#utility.yul\":1683:1706   */\n  mcopy\n    /* \"#utility.yul\":1740:1741   */\n  0x00\n    /* \"#utility.yul\":1731:1737   */\n  dup4\n    /* \"#utility.yul\":1726:1729   */\n  dup4\n    /* \"#utility.yul\":1722:1738   */\n  add\n    /* \"#utility.yul\":1715:1742   */\n  mstore\n    /* \"#utility.yul\":1610:1749   */\n  pop\n  pop\n  pop\n  jump\t// out\n    /* \"#utility.yul\":1755:2189   */\ntag_36:\n    /* \"#utility.yul\":1844:1849   */\n  0x00\n    /* \"#utility.yul\":1869:1935   */\n  tag_84\n    /* \"#utility.yul\":1885:1934   */\n  tag_85\n    /* \"#utility.yul\":1927:1933   */\n  dup5\n    /* \"#utility.yul\":1885:1934   */\n  tag_34\n  jump\t// in\ntag_85:\n    /* \"#utility.yul\":1869:1935   */\n  tag_33\n  jump\t// in\ntag_84:\n    /* \"#utility.yul\":1860:1935   */\n  swap1\n  pop\n    /* \"#utility.yul\":1958:1964   */\n  dup3\n    /* \"#utility.yul\":1951:1956   */\n  dup2\n    /* \"#utility.yul\":1944:1965   */\n  mstore\n    /* \"#utility.yul\":1996:2000   */\n  0x20\n    /* \"#utility.yul\":1989:1994   */\n  dup2\n    /* \"#utility.yul\":1985:2001   */\n  add\n    /* \"#utility.yul\":2034:2037   */\n  dup5\n    /* \"#utility.yul\":2025:2031   */\n  dup5\n    /* \"#utility.yul\":2020:2023   */\n  dup5\n    /* \"#utility.yul\":2016:2032   */\n  add\n    /* \"#utility.yul\":2013:2038   */\n  gt\n    /* \"#utility.yul\":2010:2122   */\n  iszero\n  tag_86\n  jumpi\n    /* \"#utility.yul\":2041:2120   */\n  tag_87\n  tag_29\n  jump\t// in\ntag_87:\n    /* \"#utility.yul\":2010:2122   */\ntag_86:\n    /* \"#utility.yul\":2131:2183   */\n  tag_88\n    /* \"#utility.yul\":2176:2182   */\n  dup5\n    /* \"#utility.yul\":2171:2174   */\n  dup3\n    /* \"#utility.yul\":2166:2169   */\n  dup6\n    /* \"#utility.yul\":2131:2183   */\n  tag_35\n  jump\t// in\ntag_88:\n    /* \"#utility.yul\":1850:2189   */\n  pop\n    /* \"#utility.yul\":1755:2189   */\n  swap4\n  swap3\n  pop\n  pop\n  pop\n  jump\t// out\n    /* \"#utility.yul\":2209:2564   */\ntag_37:\n    /* \"#utility.yul\":2276:2281   */\n  0x00\n    /* \"#utility.yul\":2325:2328   */\n  dup3\n    /* \"#utility.yul\":2318:2322   */\n  0x1f\n    /* \"#utility.yul\":2310:2316   */\n  dup4\n    /* \"#utility.yul\":2306:2323   */\n  add\n    /* \"#utility.yul\":2302:2329   */\n  slt\n    /* \"#utility.yul\":2292:2414   */\n  tag_90\n  jumpi\n    /* \"#utility.yul\":2333:2412   */\n  tag_91\n  tag_28\n  jump\t// in\ntag_91:\n    /* \"#utility.yul\":2292:2414   */\ntag_90:\n    /* \"#utility.yul\":2443:2449   */\n  dup2\n    /* \"#utility.yul\":2437:2450   */\n  mload\n    /* \"#utility.yul\":2468:2558   */\n  tag_92\n    /* \"#utility.yul\":2554:2557   */\n  dup5\n    /* \"#utility.yul\":2546:2552   */\n  dup3\n    /* \"#utility.yul\":2539:2543   */\n  0x20\n    /* \"#utility.yul\":2531:2537   */\n  dup7\n    /* \"#utility.yul\":2527:2544   */\n  add\n    /* \"#utility.yul\":2468:2558   */\n  tag_36\n  jump\t// in\ntag_92:\n    /* \"#utility.yul\":2459:2558   */\n  swap2\n  pop\n    /* \"#utility.yul\":2282:2564   */\n  pop\n    /* \"#utility.yul\":2209:2564   */\n  swap3\n  swap2\n  pop\n  pop\n  jump\t// out\n    /* \"#utility.yul\":2570:3423   */\ntag_3:\n    /* \"#utility.yul\":2669:2675   */\n  0x00\n    /* \"#utility.yul\":2677:2683   */\n  dup1\n    /* \"#utility.yul\":2726:2728   */\n  0x40\n    /* \"#utility.yul\":2714:2723   */\n  dup4\n    /* \"#utility.yul\":2705:2712   */\n  dup6\n    /* \"#utility.yul\":2701:2724   */\n  sub\n    /* \"#utility.yul\":2697:2729   */\n  slt\n    /* \"#utility.yul\":2694:2813   */\n  iszero\n  tag_94\n  jumpi\n    /* \"#utility.yul\":2732:2811   */\n  tag_95\n  tag_26\n  jump\t// in\ntag_95:\n    /* \"#utility.yul\":2694:2813   */\ntag_94:\n    /* \"#utility.yul\":2873:2874   */\n  0x00\n    /* \"#utility.yul\":2862:2871   */\n  dup4\n    /* \"#utility.yul\":2858:2875   */\n  add\n    /* \"#utility.yul\":2852:2876   */\n  mload\n    /* \"#utility.yul\":2903:2921   */\n  0xffffffffffffffff\n    /* \"#utility.yul\":2895:2901   */\n  dup2\n    /* \"#utility.yul\":2892:2922   */\n  gt\n    /* \"#utility.yul\":2889:3006   */\n  iszero\n  tag_96\n  jumpi\n    /* \"#utility.yul\":2925:3004   */\n  tag_97\n  tag_27\n  jump\t// in\ntag_97:\n    /* \"#utility.yul\":2889:3006   */\ntag_96:\n    /* \"#utility.yul\":3030:3104   */\n  tag_98\n    /* \"#utility.yul\":3096:3103   */\n  dup6\n    /* \"#utility.yul\":3087:3093   */\n  dup3\n    /* \"#utility.yul\":3076:3085   */\n  dup7\n    /* \"#utility.yul\":3072:3094   */\n  add\n    /* \"#utility.yul\":3030:3104   */\n  tag_37\n  jump\t// in\ntag_98:\n    /* \"#utility.yul\":3020:3104   */\n  swap3\n  pop\n    /* \"#utility.yul\":2823:3114   */\n  pop\n    /* \"#utility.yul\":3174:3176   */\n  0x20\n    /* \"#utility.yul\":3163:3172   */\n  dup4\n    /* \"#utility.yul\":3159:3177   */\n  add\n    /* \"#utility.yul\":3153:3178   */\n  mload\n    /* \"#utility.yul\":3205:3223   */\n  0xffffffffffffffff\n    /* \"#utility.yul\":3197:3203   */\n  dup2\n    /* \"#utility.yul\":3194:3224   */\n  gt\n    /* \"#utility.yul\":3191:3308   */\n  iszero\n  tag_99\n  jumpi\n    /* \"#utility.yul\":3227:3306   */\n  tag_100\n  tag_27\n  jump\t// in\ntag_100:\n    /* \"#utility.yul\":3191:3308   */\ntag_99:\n    /* \"#utility.yul\":3332:3406   */\n  tag_101\n    /* \"#utility.yul\":3398:3405   */\n  dup6\n    /* \"#utility.yul\":3389:3395   */\n  dup3\n    /* \"#utility.yul\":3378:3387   */\n  dup7\n    /* \"#utility.yul\":3374:3396   */\n  add\n    /* \"#utility.yul\":3332:3406   */\n  tag_37\n  jump\t// in\ntag_101:\n    /* \"#utility.yul\":3322:3406   */\n  swap2\n  pop\n    /* \"#utility.yul\":3124:3416   */\n  pop\n    /* \"#utility.yul\":2570:3423   */\n  swap3\n  pop\n  swap3\n  swap1\n  pop\n  jump\t// out\n    /* \"#utility.yul\":3429:3528   */\ntag_38:\n    /* \"#utility.yul\":3481:3487   */\n  0x00\n    /* \"#utility.yul\":3515:3520   */\n  dup2\n    /* \"#utility.yul\":3509:3521   */\n  mload\n    /* \"#utility.yul\":3499:3521   */\n  swap1\n  pop\n    /* \"#utility.yul\":3429:3528   */\n  swap2\n  swap1\n  pop\n  jump\t// out\n    /* \"#utility.yul\":3534:3714   */\ntag_39:\n    /* \"#utility.yul\":3582:3659   */\n  0x4e487b7100000000000000000000000000000000000000000000000000000000\n    /* \"#utility.yul\":3579:3580   */\n  0x00\n    /* \"#utility.yul\":3572:3660   */\n  mstore\n    /* \"#utility.yul\":3679:3683   */\n  0x22\n    /* \"#utility.yul\":3676:3677   */\n  0x04\n    /* \"#utility.yul\":3669:3684   */\n  mstore\n    /* \"#utility.yul\":3703:3707   */\n  0x24\n    /* \"#utility.yul\":3700:3701   */\n  0x00\n    /* \"#utility.yul\":3693:3708   */\n  revert\n    /* \"#utility.yul\":3720:4040   */\ntag_40:\n    /* \"#utility.yul\":3764:3770   */\n  0x00\n    /* \"#utility.yul\":3801:3802   */\n  0x02\n    /* \"#utility.yul\":3795:3799   */\n  dup3\n    /* \"#utility.yul\":3791:3803   */\n  div\n    /* \"#utility.yul\":3781:3803   */\n  swap1\n  pop\n    /* \"#utility.yul\":3848:3849   */\n  0x01\n    /* \"#utility.yul\":3842:3846   */\n  dup3\n    /* \"#utility.yul\":3838:3850   */\n  and\n    /* \"#utility.yul\":3869:3887   */\n  dup1\n    /* \"#utility.yul\":3859:3940   */\n  tag_105\n  jumpi\n    /* \"#utility.yul\":3925:3929   */\n  0x7f\n    /* \"#utility.yul\":3917:3923   */\n  dup3\n    /* \"#utility.yul\":3913:3930   */\n  and\n    /* \"#utility.yul\":3903:3930   */\n  swap2\n  pop\n    /* \"#utility.yul\":3859:3940   */\ntag_105:\n    /* \"#utility.yul\":3987:3989   */\n  0x20\n    /* \"#utility.yul\":3979:3985   */\n  dup3\n    /* \"#utility.yul\":3976:3990   */\n  lt\n    /* \"#utility.yul\":3956:3974   */\n  dup2\n    /* \"#utility.yul\":3953:3991   */\n  sub\n    /* \"#utility.yul\":3950:4034   */\n  tag_106\n  jumpi\n    /* \"#utility.yul\":4006:4024   */\n  tag_107\n  tag_39\n  jump\t// in\ntag_107:\n    /* \"#utility.yul\":3950:4034   */\ntag_106:\n    /* \"#utility.yul\":3771:4040   */\n  pop\n    /* \"#utility.yul\":3720:4040   */\n  swap2\n  swap1\n  pop\n  jump\t// out\n    /* \"#utility.yul\":4046:4187   */\ntag_41:\n    /* \"#utility.yul\":4095:4099   */\n  0x00\n    /* \"#utility.yul\":4118:4121   */\n  dup2\n    /* \"#utility.yul\":4110:4121   */\n  swap1\n  pop\n    /* \"#utility.yul\":4141:4144   */\n  dup2\n    /* \"#utility.yul\":4138:4139   */\n  0x00\n    /* \"#utility.yul\":4131:4145   */\n  mstore\n    /* \"#utility.yul\":4175:4179   */\n  0x20\n    /* \"#utility.yul\":4172:4173   */\n  0x00\n    /* \"#utility.yul\":4162:4180   */\n  keccak256\n    /* \"#utility.yul\":4154:4180   */\n  swap1\n  pop\n    /* \"#utility.yul\":4046:4187   */\n  swap2\n  swap1\n  pop\n  jump\t// out\n    /* \"#utility.yul\":4193:4286   */\ntag_42:\n    /* \"#utility.yul\":4230:4236   */\n  0x00\n    /* \"#utility.yul\":4277:4279   */\n  0x20\n    /* \"#utility.yul\":4272:4274   */\n  0x1f\n    /* \"#utility.yul\":4265:4270   */\n  dup4\n    /* \"#utility.yul\":4261:4275   */\n  add\n    /* \"#utility.yul\":4257:4280   */\n  div\n    /* \"#utility.yul\":4247:4280   */\n  swap1\n  pop\n    /* \"#utility.yul\":4193:4286   */\n  swap2\n  swap1\n  pop\n  jump\t// out\n    /* \"#utility.yul\":4292:4399   */\ntag_43:\n    /* \"#utility.yul\":4336:4344   */\n  0x00\n    /* \"#utility.yul\":4386:4391   */\n  dup3\n    /* \"#utility.yul\":4380:4384   */\n  dup3\n    /* \"#utility.yul\":4376:4392   */\n  shl\n    /* \"#utility.yul\":4355:4392   */\n  swap1\n  pop\n    /* \"#utility.yul\":4292:4399   */\n  swap3\n  swap2\n  pop\n  pop\n  jump\t// out\n    /* \"#utility.yul\":4405:4798   */\ntag_44:\n    /* \"#utility.yul\":4474:4480   */\n  0x00\n    /* \"#utility.yul\":4524:4525   */\n  0x08\n    /* \"#utility.yul\":4512:4522   */\n  dup4\n    /* \"#utility.yul\":4508:4526   */\n  mul\n    /* \"#utility.yul\":4547:4644   */\n  tag_112\n    /* \"#utility.yul\":4577:4643   */\n  0xffffffffffffffffffffffffffffffffffffffffffffffffffffffffffffffff\n    /* \"#utility.yul\":4566:4575   */\n  dup3\n    /* \"#utility.yul\":4547:4644   */\n  tag_43\n  jump\t// in\ntag_112:\n    /* \"#utility.yul\":4665:4704   */\n  tag_113\n    /* \"#utility.yul\":4695:4703   */\n  dup7\n    /* \"#utility.yul\":4684:4693   */\n  dup4\n    /* \"#utility.yul\":4665:4704   */\n  tag_43\n  jump\t// in\ntag_113:\n    /* \"#utility.yul\":4653:4704   */\n  swap6\n  pop\n    /* \"#utility.yul\":4737:4741   */\n  dup1\n    /* \"#utility.yul\":4733:4742   */\n  not\n    /* \"#utility.yul\":4726:4731   */\n  dup5\n    /* \"#utility.yul\":4722:4743   */\n  and\n    /* \"#utility.yul\":4713:4743   */\n  swap4\n  pop\n    /* \"#utility.yul\":4786:4790   */\n  dup1\n    /* \"#utility.yul\":4776:4784   */\n  dup7\n    /* \"#utility.yul\":4772:4791   */\n  and\n    /* \"#utility.yul\":4765:4770   */\n  dup5\n    /* \"#utility.yul\":4762:4792   */\n  or\n    /* \"#utility.yul\":4752:4792   */\n  swap3\n  pop\n    /* \"#utility.yul\":4481:4798   */\n  pop\n  pop\n    /* \"#utility.yul\":4405:4798   */\n  swap4\n  swap3\n  pop\n  pop\n  pop\n  jump\t// out\n    /* \"#utility.yul\":4804:4881   */\ntag_45:\n    /* \"#utility.yul\":4841:4848   */\n  0x00\n    /* \"#utility.yul\":4870:4875   */\n  dup2\n    /* \"#utility.yul\":4859:4875   */\n  swap1\n  pop\n    /* \"#utility.yul\":4804:4881   */\n  swap2\n  swap1\n  pop\n  jump\t// out\n    /* \"#utility.yul\":4887:4947   */\ntag_46:\n    /* \"#utility.yul\":4915:4918   */\n  0x00\n    /* \"#utility.yul\":4936:4941   */\n  dup2\n    /* \"#utility.yul\":4929:4941   */\n  swap1\n  pop\n    /* \"#utility.yul\":4887:4947   */\n  swap2\n  swap1\n  pop\n  jump\t// out\n    /* \"#utility.yul\":4953:5095   */\ntag_47:\n    /* \"#utility.yul\":5003:5012   */\n  0x00\n    /* \"#utility.yul\":5036:5089   */\n  tag_117\n    /* \"#utility.yul\":5054:5088   */\n  tag_118\n    /* \"#utility.yul\":5063:5087   */\n  tag_119\n    /* \"#utility.yul\":5081:5086   */\n  dup5\n    /* \"#utility.yul\":5063:5087   */\n  tag_45\n  jump\t// in\ntag_119:\n    /* \"#utility.yul\":5054:5088   */\n  tag_46\n  jump\t// in\ntag_118:\n    /* \"#utility.yul\":5036:5089   */\n  tag_45\n  jump\t// in\ntag_117:\n    /* \"#utility.yul\":5023:5089   */\n  swap1\n  pop\n    /* \"#utility.yul\":4953:5095   */\n  swap2\n  swap1\n  pop\n  jump\t// out\n    /* \"#utility.yul\":5101:5176   */\ntag_48:\n    /* \"#utility.yul\":5144:5147   */\n  0x00\n    /* \"#utility.yul\":5165:5170   */\n  dup2\n    /* \"#utility.yul\":5158:5170   */\n  swap1\n  pop\n    /* \"#utility.yul\":5101:5176   */\n  swap2\n  swap1\n  pop\n  jump\t// out\n    /* \"#utility.yul\":5182:5451   */\ntag_49:\n    /* \"#utility.yul\":5292:5331   */\n  tag_122\n    /* \"#utility.yul\":5323:5330   */\n  dup4\n    /* \"#utility.yul\":5292:5331   */\n  tag_47\n  jump\t// in\ntag_122:\n    /* \"#utility.yul\":5353:5444   */\n  tag_123\n    /* \"#utility.yul\":5402:5443   */\n  tag_124\n    /* \"#utility.yul\":5426:5442   */\n  dup3\n    /* \"#utility.yul\":5402:5443   */\n  tag_48\n  jump\t// in\ntag_124:\n    /* \"#utility.yul\":5394:5400   */\n  dup5\n    /* \"#utility.yul\":5387:5391   */\n  dup5\n    /* \"#utility.yul\":5381:5392   */\n  sload\n    /* \"#utility.yul\":5353:5444   */\n  tag_44\n  jump\t// in\ntag_123:\n    /* \"#utility.yul\":5347:5351   */\n  dup3\n    /* \"#utility.yul\":5340:5445   */\n  sstore\n    /* \"#utility.yul\":5258:5451   */\n  pop\n    /* \"#utility.yul\":5182:5451   */\n  pop\n  pop\n  pop\n  jump\t// out\n    /* \"#utility.yul\":5457:5530   */\ntag_50:\n    /* \"#utility.yul\":5502:5505   */\n  0x00\n    /* \"#utility.yul\":5457:5530   */\n  swap1\n  jump\t// out\n    /* \"#utility.yul\":5536:5725   */\ntag_51:\n    /* \"#utility.yul\":5613:5645   */\n  tag_127\n  tag_50\n  jump\t// in\ntag_127:\n    /* \"#utility.yul\":5654:5719   */\n  tag_128\n    /* \"#utility.yul\":5712:5718   */\n  dup2\n    /* \"#utility.yul\":5704:5710   */\n  dup5\n    /* \"#utility.yul\":5698:5702   */\n  dup5\n    /* \"#utility.yul\":5654:5719   */\n  tag_49\n  jump\t// in\ntag_128:\n    /* \"#utility.yul\":5589:5725   */\n  pop\n    /* \"#utility.yul\":5536:5725   */\n  pop\n  pop\n  jump\t// out\n    /* \"#utility.yul\":5731:5917   */\ntag_52:\n    /* \"#utility.yul\":5791:5911   */\ntag_130:\n    /* \"#utility.yul\":5808:5811   */\n  dup2\n    /* \"#utility.yul\":5801:5806   */\n  dup2\n    /* \"#utility.yul\":5798:5812   */\n  lt\n    /* \"#utility.yul\":5791:5911   */\n  iszero\n  tag_132\n  jumpi\n    /* \"#utility.yul\":5862:5901   */\n  tag_133\n    /* \"#utility.yul\":5899:5900   */\n  0x00\n    /* \"#utility.yul\":5892:5897   */\n  dup3\n    /* \"#utility.yul\":5862:5901   */\n  tag_51\n  jump\t// in\ntag_133:\n    /* \"#utility.yul\":5835:5836   */\n  0x01\n    /* \"#utility.yul\":5828:5833   */\n  dup2\n    /* \"#utility.yul\":5824:5837   */\n  add\n    /* \"#utility.yul\":5815:5837   */\n  swap1\n  pop\n    /* \"#utility.yul\":5791:5911   */\n  jump(tag_130)\ntag_132:\n    /* \"#utility.yul\":5731:5917   */\n  pop\n  pop\n  jump\t// out\n    /* \"#utility.yul\":5923:6466   */\ntag_53:\n    /* \"#utility.yul\":6024:6026   */\n  0x1f\n    /* \"#utility.yul\":6019:6022   */\n  dup3\n    /* \"#utility.yul\":6016:6027   */\n  gt\n    /* \"#utility.yul\":6013:6459   */\n  iszero\n  tag_135\n  jumpi\n    /* \"#utility.yul\":6058:6096   */\n  tag_136\n    /* \"#utility.yul\":6090:6095   */\n  dup2\n    /* \"#utility.yul\":6058:6096   */\n  tag_41\n  jump\t// in\ntag_136:\n    /* \"#utility.yul\":6142:6171   */\n  tag_137\n    /* \"#utility.yul\":6160:6170   */\n  dup5\n    /* \"#utility.yul\":6142:6171   */\n  tag_42\n  jump\t// in\ntag_137:\n    /* \"#utility.yul\":6132:6140   */\n  dup2\n    /* \"#utility.yul\":6128:6172   */\n  add\n    /* \"#utility.yul\":6325:6327   */\n  0x20\n    /* \"#utility.yul\":6313:6323   */\n  dup6\n    /* \"#utility.yul\":6310:6328   */\n  lt\n    /* \"#utility.yul\":6307:6356   */\n  iszero\n  tag_138\n  jumpi\n    /* \"#utility.yul\":6346:6354   */\n  dup2\n    /* \"#utility.yul\":6331:6354   */\n  swap1\n  pop\n    /* \"#utility.yul\":6307:6356   */\ntag_138:\n    /* \"#utility.yul\":6369:6449   */\n  tag_139\n    /* \"#utility.yul\":6425:6447   */\n  tag_140\n    /* \"#utility.yul\":6443:6446   */\n  dup6\n    /* \"#utility.yul\":6425:6447   */\n  tag_42\n  jump\t// in\ntag_140:\n    /* \"#utility.yul\":6415:6423   */\n  dup4\n    /* \"#utility.yul\":6411:6448   */\n  add\n    /* \"#utility.yul\":6398:6409   */\n  dup3\n    /* \"#utility.yul\":6369:6449   */\n  tag_52\n  jump\t// in\ntag_139:\n    /* \"#utility.yul\":6028:6459   */\n  pop\n  pop\n    /* \"#utility.yul\":6013:6459   */\ntag_135:\n    /* \"#utility.yul\":5923:6466   */\n  pop\n  pop\n  pop\n  jump\t// out\n    /* \"#utility.yul\":6472:6589   */\ntag_54:\n    /* \"#utility.yul\":6526:6534   */\n  0x00\n    /* \"#utility.yul\":6576:6581   */\n  dup3\n    /* \"#utility.yul\":6570:6574   */\n  dup3\n    /* \"#utility.yul\":6566:6582   */\n  shr\n    /* \"#utility.yul\":6545:6582   */\n  swap1\n  pop\n    /* \"#utility.yul\":6472:6589   */\n  swap3\n  swap2\n  pop\n  pop\n  jump\t// out\n    /* \"#utility.yul\":6595:6764   */\ntag_55:\n    /* \"#utility.yul\":6639:6645   */\n  0x00\n    /* \"#utility.yul\":6672:6723   */\n  tag_143\n    /* \"#utility.yul\":6720:6721   */\n  0x00\n    /* \"#utility.yul\":6716:6722   */\n  not\n    /* \"#utility.yul\":6708:6713   */\n  dup5\n    /* \"#utility.yul\":6705:6706   */\n  0x08\n    /* \"#utility.yul\":6701:6714   */\n  mul\n    /* \"#utility.yul\":6672:6723   */\n  tag_54\n  jump\t// in\ntag_143:\n    /* \"#utility.yul\":6668:6724   */\n  not\n    /* \"#utility.yul\":6753:6757   */\n  dup1\n    /* \"#utility.yul\":6747:6751   */\n  dup4\n    /* \"#utility.yul\":6743:6758   */\n  and\n    /* \"#utility.yul\":6733:6758   */\n  swap2\n  pop\n    /* \"#utility.yul\":6646:6764   */\n  pop\n    /* \"#utility.yul\":6595:6764   */\n  swap3\n  swap2\n  pop\n  pop\n  jump\t// out\n    /* \"#utility.yul\":6769:7064   */\ntag_56:\n    /* \"#utility.yul\":6845:6849   */\n  0x00\n    /* \"#utility.yul\":6991:7020   */\n  tag_145\n    /* \"#utility.yul\":7016:7019   */\n  dup4\n    /* \"#utility.yul\":7010:7014   */\n  dup4\n    /* \"#utility.yul\":6991:7020   */\n  tag_55\n  jump\t// in\ntag_145:\n    /* \"#utility.yul\":6983:7020   */\n  swap2\n  pop\n    /* \"#utility.yul\":7053:7056   */\n  dup3\n    /* \"#utility.yul\":7050:7051   */\n  0x02\n    /* \"#utility.yul\":7046:7057   */\n  mul\n    /* \"#utility.yul\":7040:7044   */\n  dup3\n    /* \"#utility.yul\":7037:7058   */\n  or\n    /* \"#utility.yul\":7029:7058   */\n  swap1\n  pop\n    /* \"#utility.yul\":6769:7064   */\n  swap3\n  swap2\n  pop\n  pop\n  jump\t// out\n    /* \"#utility.yul\":7069:8464   */\ntag_7:\n    /* \"#utility.yul\":7186:7223   */\n  tag_147\n    /* \"#utility.yul\":7219:7222   */\n  dup3\n    /* \"#utility.yul\":7186:7223   */\n  tag_38\n  jump\t// in\ntag_147:\n    /* \"#utility.yul\":7288:7306   */\n  0xffffffffffffffff\n    /* \"#utility.yul\":7280:7286   */\n  dup2\n    /* \"#utility.yul\":7277:7307   */\n  gt\n    /* \"#utility.yul\":7274:7330   */\n  iszero\n  tag_148\n  jumpi\n    /* \"#utility.yul\":7310:7328   */\n  tag_149\n  tag_31\n  jump\t// in\ntag_149:\n    /* \"#utility.yul\":7274:7330   */\ntag_148:\n    /* \"#utility.yul\":7354:7392   */\n  tag_150\n    /* \"#utility.yul\":7386:7390   */\n  dup3\n    /* \"#utility.yul\":7380:7391   */\n  sload\n    /* \"#utility.yul\":7354:7392   */\n  tag_40\n  jump\t// in\ntag_150:\n    /* \"#utility.yul\":7439:7506   */\n  tag_151\n    /* \"#utility.yul\":7499:7505   */\n  dup3\n    /* \"#utility.yul\":7491:7497   */\n  dup3\n    /* \"#utility.yul\":7485:7489   */\n  dup6\n    /* \"#utility.yul\":7439:7506   */\n  tag_53\n  jump\t// in\ntag_151:\n    /* \"#utility.yul\":7533:7534   */\n  0x00\n    /* \"#utility.yul\":7557:7561   */\n  0x20\n    /* \"#utility.yul\":7544:7561   */\n  swap1\n  pop\n    /* \"#utility.yul\":7589:7591   */\n  0x1f\n    /* \"#utility.yul\":7581:7587   */\n  dup4\n    /* \"#utility.yul\":7578:7592   */\n  gt\n    /* \"#utility.yul\":7606:7607   */\n  0x01\n    /* \"#utility.yul\":7601:8219   */\n  dup2\n  eq\n  tag_153\n  jumpi\n    /* \"#utility.yul\":8263:8264   */\n  0x00\n    /* \"#utility.yul\":8280:8286   */\n  dup5\n    /* \"#utility.yul\":8277:8354   */\n  iszero\n  tag_154\n  jumpi\n    /* \"#utility.yul\":8329:8338   */\n  dup3\n    /* \"#utility.yul\":8324:8327   */\n  dup8\n    /* \"#utility.yul\":8320:8339   */\n  add\n    /* \"#utility.yul\":8314:8340   */\n  mload\n    /* \"#utility.yul\":8305:8340   */\n  swap1\n  pop\n    /* \"#utility.yul\":8277:8354   */\ntag_154:\n    /* \"#utility.yul\":8380:8447   */\n  tag_155\n    /* \"#utility.yul\":8440:8446   */\n  dup6\n    /* \"#utility.yul\":8433:8438   */\n  dup3\n    /* \"#utility.yul\":8380:8447   */\n  tag_56\n  jump\t// in\ntag_155:\n    /* \"#utility.yul\":8374:8378   */\n  dup7\n    /* \"#utility.yul\":8367:8448   */\n  sstore\n    /* \"#utility.yul\":8236:8458   */\n  pop\n    /* \"#utility.yul\":7571:8458   */\n  jump(tag_152)\n    /* \"#utility.yul\":7601:8219   */\ntag_153:\n    /* \"#utility.yul\":7653:7657   */\n  0x1f\n    /* \"#utility.yul\":7649:7658   */\n  not\n    /* \"#utility.yul\":7641:7647   */\n  dup5\n    /* \"#utility.yul\":7637:7659   */\n  and\n    /* \"#utility.yul\":7687:7724   */\n  tag_156\n    /* \"#utility.yul\":7719:7723   */\n  dup7\n    /* \"#utility.yul\":7687:7724   */\n  tag_41\n  jump\t// in\ntag_156:\n    /* \"#utility.yul\":7746:7747   */\n  0x00\n    /* \"#utility.yul\":7760:7968   */\ntag_157:\n    /* \"#utility.yul\":7774:7781   */\n  dup3\n    /* \"#utility.yul\":7771:7772   */\n  dup2\n    /* \"#utility.yul\":7768:7782   */\n  lt\n    /* \"#utility.yul\":7760:7968   */\n  iszero\n  tag_159\n  jumpi\n    /* \"#utility.yul\":7853:7862   */\n  dup5\n    /* \"#utility.yul\":7848:7851   */\n  dup10\n    /* \"#utility.yul\":7844:7863   */\n  add\n    /* \"#utility.yul\":7838:7864   */\n  mload\n    /* \"#utility.yul\":7830:7836   */\n  dup3\n    /* \"#utility.yul\":7823:7865   */\n  sstore\n    /* \"#utility.yul\":7904:7905   */\n  0x01\n    /* \"#utility.yul\":7896:7902   */\n  dup3\n    /* \"#utility.yul\":7892:7906   */\n  add\n    /* \"#utility.yul\":7882:7906   */\n  swap2\n  pop\n    /* \"#utility.yul\":7951:7953   */\n  0x20\n    /* \"#utility.yul\":7940:7949   */\n  dup6\n    /* \"#utility.yul\":7936:7954   */\n  add\n    /* \"#utility.yul\":7923:7954   */\n  swap5\n  pop\n    /* \"#utility.yul\":7797:7801   */\n  0x20\n    /* \"#utility.yul\":7794:7795   */\n  dup2\n    /* \"#utility.yul\":7790:7802   */\n  add\n    /* \"#utility.yul\":7785:7802   */\n  swap1\n  pop\n    /* \"#utility.yul\":7760:7968   */\n  jump(tag_157)\ntag_159:\n    /* \"#utility.yul\":7996:8002   */\n  dup7\n    /* \"#utility.yul\":7987:7994   */\n  dup4\n    /* \"#utility.yul\":7984:8003   */\n  lt\n    /* \"#utility.yul\":7981:8160   */\n  iszero\n  tag_160\n  jumpi\n    /* \"#utility.yul\":8054:8063   */\n  dup5\n    /* \"#utility.yul\":8049:8052   */\n  dup10\n    /* \"#utility.yul\":8045:8064   */\n  add\n    /* \"#utility.yul\":8039:8065   */\n  mload\n    /* \"#utility.yul\":8097:8145   */\n  tag_161\n    /* \"#utility.yul\":8139:8143   */\n  0x1f\n    /* \"#utility.yul\":8131:8137   */\n  dup10\n    /* \"#utility.yul\":8127:8144   */\n  and\n    /* \"#utility.yul\":8116:8125   */\n  dup3\n    /* \"#utility.yul\":8097:8145   */\n  tag_55\n  jump\t// in\ntag_161:\n    /* \"#utility.yul\":8089:8095   */\n  dup4\n    /* \"#utility.yul\":8082:8146   */\n  sstore\n    /* \"#utility.yul\":8004:8160   */\n  pop\n    /* \"#utility.yul\":7981:8160   */\ntag_160:\n    /* \"#utility.yul\":8206:8207   */\n  0x01\n    /* \"#utility.yul\":8202:8203   */\n  0x02\n    /* \"#utility.yul\":8194:8200   */\n  dup9\n    /* \"#utility.yul\":8190:8204   */\n  mul\n    /* \"#utility.yul\":8186:8208   */\n  add\n    /* \"#utility.yul\":8180:8184   */\n  dup9\n    /* \"#utility.yul\":8173:8209   */\n  sstore\n    /* \"#utility.yul\":7608:8219   */\n  pop\n  pop\n  pop\n    /* \"#utility.yul\":7571:8458   */\ntag_152:\n  pop\n    /* \"#utility.yul\":7161:8464   */\n  pop\n  pop\n  pop\n    /* \"#utility.yul\":7069:8464   */\n  pop\n  pop\n  jump\t// out\n    /* \"#utility.yul\":8470:8650   */\ntag_57:\n    /* \"#utility.yul\":8518:8595   */\n  0x4e487b7100000000000000000000000000000000000000000000000000000000\n    /* \"#utility.yul\":8515:8516   */\n  0x00\n    /* \"#utility.yul\":8508:8596   */\n  mstore\n    /* \"#utility.yul\":8615:8619   */\n  0x11\n    /* \"#utility.yul\":8612:8613   */\n  0x04\n    /* \"#utility.yul\":8605:8620   */\n  mstore\n    /* \"#utility.yul\":8639:8643   */\n  0x24\n    /* \"#utility.yul\":8636:8637   */\n  0x00\n    /* \"#utility.yul\":8629:8644   */\n  revert\n    /* \"#utility.yul\":8656:8889   */\ntag_15:\n    /* \"#utility.yul\":8695:8698   */\n  0x00\n    /* \"#utility.yul\":8718:8742   */\n  tag_164\n    /* \"#utility.yul\":8736:8741   */\n  dup3\n    /* \"#utility.yul\":8718:8742   */\n  tag_45\n  jump\t// in\ntag_164:\n    /* \"#utility.yul\":8709:8742   */\n  swap2\n  pop\n    /* \"#utility.yul\":8764:8830   */\n  0xffffffffffffffffffffffffffffffffffffffffffffffffffffffffffffffff\n    /* \"#utility.yul\":8757:8762   */\n  dup3\n    /* \"#utility.yul\":8754:8831   */\n  sub\n    /* \"#utility.yul\":8751:8854   */\n  tag_165\n  jumpi\n    /* \"#utility.yul\":8834:8852   */\n  tag_166\n  tag_57\n  jump\t// in\ntag_166:\n    /* \"#utility.yul\":8751:8854   */\ntag_165:\n    /* \"#utility.yul\":8881:8882   */\n  0x01\n    /* \"#utility.yul\":8874:8879   */\n  dup3\n    /* \"#utility.yul\":8870:8883   */\n  add\n    /* \"#utility.yul\":8863:8883   */\n  swap1\n  pop\n    /* \"#utility.yul\":8656:8889   */\n  swap2\n  swap1\n  pop\n  jump\t// out\n    /* \"#utility.yul\":8895:9064   */\ntag_58:\n    /* \"#utility.yul\":8979:8990   */\n  0x00\n    /* \"#utility.yul\":9013:9019   */\n  dup3\n    /* \"#utility.yul\":9008:9011   */\n  dup3\n    /* \"#utility.yul\":9001:9020   */\n  mstore\n    /* \"#utility.yul\":9053:9057   */\n  0x20\n    /* \"#utility.yul\":9048:9051   */\n  dup3\n    /* \"#utility.yul\":9044:9058   */\n  add\n    /* \"#utility.yul\":9029:9058   */\n  swap1\n  pop\n    /* \"#utility.yul\":8895:9064   */\n  swap3\n  swap2\n  pop\n  pop\n  jump\t// out\n    /* \"#utility.yul\":9070:9240   */\ntag_59:\n    /* \"#utility.yul\":9210:9232   */\n  0x6d696e7420746f207a65726f2061646472657373000000000000000000000000\n    /* \"#utility.yul\":9206:9207   */\n  0x00\n    /* \"#utility.yul\":9198:9204   */\n  dup3\n    /* \"#utility.yul\":9194:9208   */\n  add\n    /* \"#utility.yul\":9187:9233   */\n  mstore\n    /* \"#utility.yul\":9070:9240   */\n  pop\n  jump\t// out\n    /* \"#utility.yul\":9246:9612   */\ntag_60:\n    /* \"#utility.yul\":9388:9391   */\n  0x00\n    /* \"#utility.yul\":9409:9476   */\n  tag_170\n    /* \"#utility.yul\":9473:9475   */\n  0x14\n    /* \"#utility.yul\":9468:9471   */\n  dup4\n    /* \"#utility.yul\":9409:9476   */\n  tag_58\n  jump\t// in\ntag_170:\n    /* \"#utility.yul\":9402:9476   */\n  swap2\n  pop\n    /* \"#utility.yul\":9485:9578   */\n  tag_171\n    /* \"#utility.yul\":9574:9577   */\n  dup3\n    /* \"#utility.yul\":9485:9578   */\n  tag_59\n  jump\t// in\ntag_171:\n    /* \"#utility.yul\":9603:9605   */\n  0x20\n    /* \"#utility.yul\":9598:9601   */\n  dup3\n    /* \"#utility.yul\":9594:9606   */\n  add\n    /* \"#utility.yul\":9587:9606   */\n  swap1\n  pop\n    /* \"#utility.yul\":9246:9612   */\n  swap2\n  swap1\n  pop\n  jump\t// out\n    /* \"#utility.yul\":9618:10037   */\ntag_20:\n    /* \"#utility.yul\":9784:9788   */\n  0x00\n    /* \"#utility.yul\":9822:9824   */\n  0x20\n    /* \"#utility.yul\":9811:9820   */\n  dup3\n    /* \"#utility.yul\":9807:9825   */\n  add\n    /* \"#utility.yul\":9799:9825   */\n  swap1\n  pop\n    /* \"#utility.yul\":9871:9880   */\n  dup2\n    /* \"#utility.yul\":9865:9869   */\n  dup2\n    /* \"#utility.yul\":9861:9881   */\n  sub\n    /* \"#utility.yul\":9857:9858   */\n  0x00\n    /* \"#utility.yul\":9846:9855   */\n  dup4\n    /* \"#utility.yul\":9842:9859   */\n  add\n    /* \"#utility.yul\":9835:9882   */\n  mstore\n    /* \"#utility.yul\":9899:10030   */\n  tag_173\n    /* \"#utility.yul\":10025:10029   */\n  dup2\n    /* \"#utility.yul\":9899:10030   */\n  tag_60\n  jump\t// in\ntag_173:\n    /* \"#utility.yul\":9891:10030   */\n  swap1\n  pop\n    /* \"#utility.yul\":9618:10037   */\n  swap2\n  swap1\n  pop\n  jump\t// out\n    /* \"#utility.yul\":10043:10207   */\ntag_61:\n    /* \"#utility.yul\":10183:10199   */\n  0x616c7265616479206d696e746564000000000000000000000000000000000000\n    /* \"#utility.yul\":10179:10180   */\n  0x00\n    /* \"#utility.yul\":10171:10177   */\n  dup3\n    /* \"#utility.yul\":10167:10181   */\n  add\n    /* \"#utility.yul\":10160:10200   */\n  mstore\n    /* \"#utility.yul\":10043:10207   */\n  pop\n  jump\t// out\n    /* \"#utility.yul\":10213:10579   */\ntag_62:\n    /* \"#utility.yul\":10355:10358   */\n  0x00\n    /* \"#utility.yul\":10376:10443   */\n  tag_176\n    /* \"#utility.yul\":10440:10442   */\n  0x0e\n    /* \"#utility.yul\":10435:10438   */\n  dup4\n    /* \"#utility.yul\":10376:10443   */\n  tag_58\n  jump\t// in\ntag_176:\n    /* \"#utility.yul\":10369:10443   */\n  swap2\n  pop\n    /* \"#utility.yul\":10452:10545   */\n  tag_177\n    /* \"#utility.yul\":10541:10544   */\n  dup3\n    /* \"#utility.yul\":10452:10545   */\n  tag_61\n  jump\t// in\ntag_177:\n    /* \"#utility.yul\":10570:10572   */\n  0x20\n    /* \"#utility.yul\":10565:10568   */\n  dup3\n    /* \"#utility.yul\":10561:10573   */\n  add\n    /* \"#utility.yul\":10554:10573   */\n  swap1\n  pop\n    /* \"#utility.yul\":10213:10579   */\n  swap2\n  swap1\n  pop\n  jump\t// out\n    /* \"#utility.yul\":10585:11004   */\ntag_23:\n    /* \"#utility.yul\":10751:10755   */\n  0x00\n    /* \"#utility.yul\":10789:10791   */\n  0x20\n    /* \"#utility.yul\":10778:10787   */\n  dup3\n    /* \"#utility.yul\":10774:10792   */\n  add\n    /* \"#utility.yul\":10766:10792   */\n  swap1\n  pop\n    /* \"#utility.yul\":10838:10847   */\n  dup2\n    /* \"#utility.yul\":10832:10836   */\n  dup2\n    /* \"#utility.yul\":10828:10848   */\n  sub\n    /* \"#utility.yul\":10824:10825   */\n  0x00\n    /* \"#utility.yul\":10813:10822   */\n  dup4\n    /* \"#utility.yul\":10809:10826   */\n  add\n    /* \"#utility.yul\":10802:10849   */\n  mstore\n    /* \"#utility.yul\":10866:10997   */\n  tag_179\n    /* \"#utility.yul\":10992:10996   */\n  dup2\n    /* \"#utility.yul\":10866:10997   */\n  tag_62\n  jump\t// in\ntag_179:\n    /* \"#utility.yul\":10858:10997   */\n  swap1\n  pop\n    /* \"#utility.yul\":10585:11004   */\n  swap2\n  swap1\n  pop\n  jump\t// out\n    /* \"scripts/ERC721StdNFT.sol\":1743:8065  contract ERC721StdNFT is ERC721 {... */\ntag_16:\n  dataSize(sub_0)\n  dup1\n  dataOffset(sub_0)\n  0x00\n  codecopy\n  0x00\n  return\nstop\n\nsub_0: assembly {\n        /* \"scripts/ERC721StdNFT.sol\":1743:8065  contract ERC721StdNFT is ERC721 {... */\n      mstore(0x40, 0x80)\n      jumpi(tag_1, lt(calldatasize, 0x04))\n      shr(0xe0, calldataload(0x00))\n      dup1\n      0x4d853ee5\n      gt\n      tag_17\n      jumpi\n      dup1\n      0xa22cb465\n      gt\n      tag_18\n      jumpi\n      dup1\n      0xa22cb465\n      eq\n      tag_13\n      jumpi\n      dup1\n      0xb88d4fde\n      eq\n      tag_14\n      jumpi\n      dup1\n      0xe985e9c5\n      eq\n      tag_15\n      jumpi\n      dup1\n      0xedc3bc3f\n      eq\n      tag_16\n      jumpi\n      jump(tag_1)\n    tag_18:\n      dup1\n      0x4d853ee5\n      eq\n      tag_9\n      jumpi\n      dup1\n      0x6352211e\n      eq\n      tag_10\n      jumpi\n      dup1\n      0x70a08231\n      eq\n      tag_11\n      jumpi\n      dup1\n      0x95d89b41\n      eq\n      tag_12\n      jumpi\n      jump(tag_1)\n    tag_17:\n      dup1\n      0x095ea7b3\n      gt\n      tag_19\n      jumpi\n      dup1\n      0x095ea7b3\n      eq\n      tag_5\n      jumpi\n      dup1\n      0x23b872dd\n      eq\n      tag_6\n      jumpi\n      dup1\n      0x3c168eab\n      eq\n      tag_7\n      jumpi\n      dup1\n      0x42842e0e\n      eq\n      tag_8\n      jumpi\n      jump(tag_1)\n    tag_19:\n      dup1\n      0x01ffc9a7\n      eq\n      tag_2\n      jumpi\n      dup1\n      0x06fdde03\n      eq\n      tag_3\n      jumpi\n      dup1\n      0x081812fc\n      eq\n      tag_4\n      jumpi\n    tag_1:\n      0x00\n      dup1\n      revert\n        /* \"scripts/ERC721StdNFT.sol\":7848:8063  function supportsInterface(bytes4 interfaceId) external pure override returns (bool) {... */\n    tag_2:\n      callvalue\n      dup1\n      iszero\n      tag_20\n      jumpi\n      0x00\n      dup1\n      revert\n    tag_20:\n      pop\n      tag_21\n      0x04\n      dup1\n      calldatasize\n      sub\n      dup2\n      add\n      swap1\n      tag_22\n      swap2\n      swap1\n      tag_23\n      jump\t// in\n    tag_22:\n      tag_24\n      jump\t// in\n    tag_21:\n      mload(0x40)\n      tag_25\n      swap2\n      swap1\n      tag_26\n      jump\t// in\n    tag_25:\n      mload(0x40)\n      dup1\n      swap2\n      sub\n      swap1\n      return\n        /* \"scripts/ERC721StdNFT.sol\":2300:2318  string public name */\n    tag_3:\n      callvalue\n      dup1\n      iszero\n      tag_27\n      jumpi\n      0x00\n      dup1\n      revert\n    tag_27:\n      pop\n      tag_28\n      tag_29\n      jump\t// in\n    tag_28:\n      mload(0x40)\n      tag_30\n      swap2\n      swap1\n      tag_31\n      jump\t// in\n    tag_30:\n      mload(0x40)\n      dup1\n      swap2\n      sub\n      swap1\n      return\n        /* \"scripts/ERC721StdNFT.sol\":4107:4329  function getApproved(uint256 _tokenId) external view override returns (address) {... */\n    tag_4:\n      callvalue\n      dup1\n      iszero\n      tag_32\n      jumpi\n      0x00\n      dup1\n      revert\n    tag_32:\n      pop\n      tag_33\n      0x04\n      dup1\n      calldatasize\n      sub\n      dup2\n      add\n      swap1\n      tag_34\n      swap2\n      swap1\n      tag_35\n      jump\t// in\n    tag_34:\n      tag_36\n      jump\t// in\n    tag_33:\n      mload(0x40)\n      tag_37\n      swap2\n      swap1\n      tag_38\n      jump\t// in\n    tag_37:\n      mload(0x40)\n      dup1\n      swap2\n      sub\n      swap1\n      return\n        /* \"scripts/ERC721StdNFT.sol\":4591:5019  function approve(address _approved, uint256 _tokenId) external payable override {... */\n    tag_5:\n      tag_39\n      0x04\n      dup1\n      calldatasize\n      sub\n      dup2\n      add\n      swap1\n      tag_40\n      swap2\n      swap1\n      tag_41\n      jump\t// in\n    tag_40:\n      tag_42\n      jump\t// in\n    tag_39:\n      stop\n        /* \"scripts/ERC721StdNFT.sol\":5393:5844  function transferFrom(address _from, address _to, uint256 _tokenId) external payable override {... */\n    tag_6:\n      tag_43\n      0x04\n      dup1\n      calldatasize\n      sub\n      dup2\n      add\n      swap1\n      tag_44\n      swap2\n      swap1\n      tag_45\n      jump\t// in\n    tag_44:\n      tag_46\n      jump\t// in\n    tag_43:\n      stop\n        /* \"scripts/ERC721StdNFT.sol\":3301:3498  function mintNFT(address to, uint256 tokenID) public {... */\n    tag_7:\n      callvalue\n      dup1\n      iszero\n      tag_47\n      jumpi\n      0x00\n      dup1\n      revert\n    tag_47:\n      pop\n      tag_48\n      0x04\n      dup1\n      calldatasize\n      sub\n      dup2\n      add\n      swap1\n      tag_49\n      swap2\n      swap1\n      tag_41\n      jump\t// in\n    tag_49:\n      tag_50\n      jump\t// in\n    tag_48:\n      stop\n        /* \"scripts/ERC721StdNFT.sol\":6788:6946  function safeTransferFrom(address _from, address _to, uint256 _tokenId) external payable override {... */\n    tag_8:\n      tag_51\n      0x04\n      dup1\n      calldatasize\n      sub\n      dup2\n      add\n      swap1\n      tag_52\n      swap2\n      swap1\n      tag_45\n      jump\t// in\n    tag_52:\n      tag_53\n      jump\t// in\n    tag_51:\n      stop\n        /* \"scripts/ERC721StdNFT.sol\":1825:1847  address public founder */\n    tag_9:\n      callvalue\n      dup1\n      iszero\n      tag_54\n      jumpi\n      0x00\n      dup1\n      revert\n    tag_54:\n      pop\n      tag_55\n      tag_56\n      jump\t// in\n    tag_55:\n      mload(0x40)\n      tag_57\n      swap2\n      swap1\n      tag_38\n      jump\t// in\n    tag_57:\n      mload(0x40)\n      dup1\n      swap2\n      sub\n      swap1\n      return\n        /* \"scripts/ERC721StdNFT.sol\":3542:3776  function ownerOf(uint256 _tokenId) external view override returns (address) {... */\n    tag_10:\n      callvalue\n      dup1\n      iszero\n      tag_58\n      jumpi\n      0x00\n      dup1\n      revert\n    tag_58:\n      pop\n      tag_59\n      0x04\n      dup1\n      calldatasize\n      sub\n      dup2\n      add\n      swap1\n      tag_60\n      swap2\n      swap1\n      tag_35\n      jump\t// in\n    tag_60:\n      tag_61\n      jump\t// in\n    tag_59:\n      mload(0x40)\n      tag_62\n      swap2\n      swap1\n      tag_38\n      jump\t// in\n    tag_62:\n      mload(0x40)\n      dup1\n      swap2\n      sub\n      swap1\n      return\n        /* \"scripts/ERC721StdNFT.sol\":3831:4049  function balanceOf(address _owner) external view override returns (uint256) {... */\n    tag_11:\n      callvalue\n      dup1\n      iszero\n      tag_63\n      jumpi\n      0x00\n      dup1\n      revert\n    tag_63:\n      pop\n      tag_64\n      0x04\n      dup1\n      calldatasize\n      sub\n      dup2\n      add\n      swap1\n      tag_65\n      swap2\n      swap1\n      tag_66\n      jump\t// in\n    tag_65:\n      tag_67\n      jump\t// in\n    tag_64:\n      mload(0x40)\n      tag_68\n      swap2\n      swap1\n      tag_69\n      jump\t// in\n    tag_68:\n      mload(0x40)\n      dup1\n      swap2\n      sub\n      swap1\n      return\n        /* \"scripts/ERC721StdNFT.sol\":2324:2344  string public symbol */\n    tag_12:\n      callvalue\n      dup1\n      iszero\n      tag_70\n      jumpi\n      0x00\n      dup1\n      revert\n    tag_70:\n      pop\n      tag_71\n      tag_72\n      jump\t// in\n    tag_71:\n      mload(0x40)\n      tag_73\n      swap2\n      swap1\n      tag_31\n      jump\t// in\n    tag_73:\n      mload(0x40)\n      dup1\n      swap2\n      sub\n      swap1\n      return\n        /* \"scripts/ERC721StdNFT.sol\":5078:5353  function setApprovalForAll(address _operator, bool _approved) external override {... */\n    tag_13:\n      callvalue\n      dup1\n      iszero\n      tag_74\n      jumpi\n      0x00\n      dup1\n      revert\n    tag_74:\n      pop\n      tag_75\n      0x04\n      dup1\n      calldatasize\n      sub\n      dup2\n      add\n      swap1\n      tag_76\n      swap2\n      swap1\n      tag_77\n      jump\t// in\n    tag_76:\n      tag_78\n      jump\t// in\n    tag_75:\n      stop\n        /* \"scripts/ERC721StdNFT.sol\":6554:6735  function safeTransferFrom(address _from, address _to, uint256 _tokenId, bytes calldata data) external payable override {... */\n    tag_14:\n      tag_79\n      0x04\n      dup1\n      calldatasize\n      sub\n      dup2\n      add\n      swap1\n      tag_80\n      swap2\n      swap1\n      tag_81\n      jump\t// in\n    tag_80:\n      tag_82\n      jump\t// in\n    tag_79:\n      stop\n        /* \"scripts/ERC721StdNFT.sol\":4386:4546  function isApprovedForAll(address _owner, address _operator) external view override returns (bool) {... */\n    tag_15:\n      callvalue\n      dup1\n      iszero\n      tag_83\n      jumpi\n      0x00\n      dup1\n      revert\n    tag_83:\n      pop\n      tag_84\n      0x04\n      dup1\n      calldatasize\n      sub\n      dup2\n      add\n      swap1\n      tag_85\n      swap2\n      swap1\n      tag_86\n      jump\t// in\n    tag_85:\n      tag_87\n      jump\t// in\n    tag_84:\n      mload(0x40)\n      tag_88\n      swap2\n      swap1\n      tag_26\n      jump\t// in\n    tag_88:\n      mload(0x40)\n      dup1\n      swap2\n      sub\n      swap1\n      return\n        /* \"scripts/ERC721StdNFT.sol\":2195:2265  mapping(address => mapping(address => bool)) public _operatorApprovals */\n    tag_16:\n      callvalue\n      dup1\n      iszero\n      tag_89\n      jumpi\n      0x00\n      dup1\n      revert\n    tag_89:\n      pop\n      tag_90\n      0x04\n      dup1\n      calldatasize\n      sub\n      dup2\n      add\n      swap1\n      tag_91\n      swap2\n      swap1\n      tag_86\n      jump\t// in\n    tag_91:\n      tag_92\n      jump\t// in\n    tag_90:\n      mload(0x40)\n      tag_93\n      swap2\n      swap1\n      tag_26\n      jump\t// in\n    tag_93:\n      mload(0x40)\n      dup1\n      swap2\n      sub\n      swap1\n      return\n        /* \"scripts/ERC721StdNFT.sol\":7848:8063  function supportsInterface(bytes4 interfaceId) external pure override returns (bool) {... */\n    tag_24:\n        /* \"scripts/ERC721StdNFT.sol\":7927:7931  bool */\n      0x00\n        /* \"scripts/ERC721StdNFT.sol\":7977:8001  type(ERC721).interfaceId */\n      0x80ac58cd00000000000000000000000000000000000000000000000000000000\n        /* \"scripts/ERC721StdNFT.sol\":7962:8001  interfaceId == type(ERC721).interfaceId */\n      not(0xffffffffffffffffffffffffffffffffffffffffffffffffffffffff)\n      and\n        /* \"scripts/ERC721StdNFT.sol\":7962:7973  interfaceId */\n      dup3\n        /* \"scripts/ERC721StdNFT.sol\":7962:8001  interfaceId == type(ERC721).interfaceId */\n      not(0xffffffffffffffffffffffffffffffffffffffffffffffffffffffff)\n      and\n      eq\n        /* \"scripts/ERC721StdNFT.sol\":7962:8056  interfaceId == type(ERC721).interfaceId ||... */\n      dup1\n      tag_95\n      jumpi\n      pop\n        /* \"scripts/ERC721StdNFT.sol\":8032:8056  type(ERC165).interfaceId */\n      0x01ffc9a700000000000000000000000000000000000000000000000000000000\n        /* \"scripts/ERC721StdNFT.sol\":8017:8056  interfaceId == type(ERC165).interfaceId */\n      not(0xffffffffffffffffffffffffffffffffffffffffffffffffffffffff)\n      and\n        /* \"scripts/ERC721StdNFT.sol\":8017:8028  interfaceId */\n      dup3\n        /* \"scripts/ERC721StdNFT.sol\":8017:8056  interfaceId == type(ERC165).interfaceId */\n      not(0xffffffffffffffffffffffffffffffffffffffffffffffffffffffff)\n      and\n      eq\n        /* \"scripts/ERC721StdNFT.sol\":7962:8056  interfaceId == type(ERC721).interfaceId ||... */\n    tag_95:\n        /* \"scripts/ERC721StdNFT.sol\":7943:8056  return... */\n      swap1\n      pop\n        /* \"scripts/ERC721StdNFT.sol\":7848:8063  function supportsInterface(bytes4 interfaceId) external pure override returns (bool) {... */\n      swap2\n      swap1\n      pop\n      jump\t// out\n        /* \"scripts/ERC721StdNFT.sol\":2300:2318  string public name */\n    tag_29:\n      0x05\n      dup1\n      sload\n      tag_96\n      swap1\n      tag_97\n      jump\t// in\n    tag_96:\n      dup1\n      0x1f\n      add\n      0x20\n      dup1\n      swap2\n      div\n      mul\n      0x20\n      add\n      mload(0x40)\n      swap1\n      dup2\n      add\n      0x40\n      mstore\n      dup1\n      swap3\n      swap2\n      swap1\n      dup2\n      dup2\n      mstore\n      0x20\n      add\n      dup3\n      dup1\n      sload\n      tag_98\n      swap1\n      tag_97\n      jump\t// in\n    tag_98:\n      dup1\n      iszero\n      tag_99\n      jumpi\n      dup1\n      0x1f\n      lt\n      tag_100\n      jumpi\n      0x0100\n      dup1\n      dup4\n      sload\n      div\n      mul\n      dup4\n      mstore\n      swap2\n      0x20\n      add\n      swap2\n      jump(tag_99)\n    tag_100:\n      dup3\n      add\n      swap2\n      swap1\n      0x00\n      mstore\n      keccak256(0x00, 0x20)\n      swap1\n    tag_101:\n      dup2\n      sload\n      dup2\n      mstore\n      swap1\n      0x01\n      add\n      swap1\n      0x20\n      add\n      dup1\n      dup4\n      gt\n      tag_101\n      jumpi\n      dup3\n      swap1\n      sub\n      0x1f\n      and\n      dup3\n      add\n      swap2\n    tag_99:\n      pop\n      pop\n      pop\n      pop\n      pop\n      dup2\n      jump\t// out\n        /* \"scripts/ERC721StdNFT.sol\":4107:4329  function getApproved(uint256 _tokenId) external view override returns (address) {... */\n    tag_36:\n        /* \"scripts/ERC721StdNFT.sol\":4178:4185  address */\n      0x00\n        /* \"scripts/ERC721StdNFT.sol\":4235:4236  0 */\n      dup1\n        /* \"scripts/ERC721StdNFT.sol\":4205:4237  _ownerOf[_tokenId] != address(0) */\n      0xffffffffffffffffffffffffffffffffffffffff\n      and\n        /* \"scripts/ERC721StdNFT.sol\":4205:4213  _ownerOf */\n      0x01\n        /* \"scripts/ERC721StdNFT.sol\":4205:4223  _ownerOf[_tokenId] */\n      0x00\n        /* \"scripts/ERC721StdNFT.sol\":4214:4222  _tokenId */\n      dup5\n        /* \"scripts/ERC721StdNFT.sol\":4205:4223  _ownerOf[_tokenId] */\n      dup2\n      mstore\n      0x20\n      add\n      swap1\n      dup2\n      mstore\n      0x20\n      add\n      0x00\n      keccak256\n      0x00\n      swap1\n      sload\n      swap1\n      0x0100\n      exp\n      swap1\n      div\n      0xffffffffffffffffffffffffffffffffffffffff\n      and\n        /* \"scripts/ERC721StdNFT.sol\":4205:4237  _ownerOf[_tokenId] != address(0) */\n      0xffffffffffffffffffffffffffffffffffffffff\n      and\n      sub\n        /* \"scripts/ERC721StdNFT.sol\":4197:4261  require(_ownerOf[_tokenId] != address(0), \"token doesn't exist\") */\n      tag_103\n      jumpi\n      mload(0x40)\n      0x08c379a000000000000000000000000000000000000000000000000000000000\n      dup2\n      mstore\n      0x04\n      add\n      tag_104\n      swap1\n      tag_105\n      jump\t// in\n    tag_104:\n      mload(0x40)\n      dup1\n      swap2\n      sub\n      swap1\n      revert\n    tag_103:\n        /* \"scripts/ERC721StdNFT.sol\":4302:4312  _approvals */\n      0x03\n        /* \"scripts/ERC721StdNFT.sol\":4302:4322  _approvals[_tokenId] */\n      0x00\n        /* \"scripts/ERC721StdNFT.sol\":4313:4321  _tokenId */\n      dup4\n        /* \"scripts/ERC721StdNFT.sol\":4302:4322  _approvals[_tokenId] */\n      dup2\n      mstore\n      0x20\n      add\n      swap1\n      dup2\n      mstore\n      0x20\n      add\n      0x00\n      keccak256\n      0x00\n      swap1\n      sload\n      swap1\n      0x0100\n      exp\n      swap1\n      div\n      0xffffffffffffffffffffffffffffffffffffffff\n      and\n        /* \"scripts/ERC721StdNFT.sol\":4295:4322  return _approvals[_tokenId] */\n      swap1\n      pop\n        /* \"scripts/ERC721StdNFT.sol\":4107:4329  function getApproved(uint256 _tokenId) external view override returns (address) {... */\n      swap2\n      swap1\n      pop\n      jump\t// out\n        /* \"scripts/ERC721StdNFT.sol\":4591:5019  function approve(address _approved, uint256 _tokenId) external payable override {... */\n    tag_42:\n        /* \"scripts/ERC721StdNFT.sol\":4681:4694  address owner */\n      0x00\n        /* \"scripts/ERC721StdNFT.sol\":4697:4705  _ownerOf */\n      0x01\n        /* \"scripts/ERC721StdNFT.sol\":4697:4715  _ownerOf[_tokenId] */\n      0x00\n        /* \"scripts/ERC721StdNFT.sol\":4706:4714  _tokenId */\n      dup4\n        /* \"scripts/ERC721StdNFT.sol\":4697:4715  _ownerOf[_tokenId] */\n      dup2\n      mstore\n      0x20\n      add\n      swap1\n      dup2\n      mstore\n      0x20\n      add\n      0x00\n      keccak256\n      0x00\n      swap1\n      sload\n      swap1\n      0x0100\n      exp\n      swap1\n      div\n      0xffffffffffffffffffffffffffffffffffffffff\n      and\n        /* \"scripts/ERC721StdNFT.sol\":4681:4715  address owner = _ownerOf[_tokenId] */\n      swap1\n      pop\n        /* \"scripts/ERC721StdNFT.sol\":4760:4765  owner */\n      dup1\n        /* \"scripts/ERC721StdNFT.sol\":4746:4765  msg.sender == owner */\n      0xffffffffffffffffffffffffffffffffffffffff\n      and\n        /* \"scripts/ERC721StdNFT.sol\":4746:4756  msg.sender */\n      caller\n        /* \"scripts/ERC721StdNFT.sol\":4746:4765  msg.sender == owner */\n      0xffffffffffffffffffffffffffffffffffffffff\n      and\n      eq\n        /* \"scripts/ERC721StdNFT.sol\":4746:4806  msg.sender == owner || _operatorApprovals[owner][msg.sender] */\n      dup1\n      tag_107\n      jumpi\n      pop\n        /* \"scripts/ERC721StdNFT.sol\":4769:4787  _operatorApprovals */\n      0x04\n        /* \"scripts/ERC721StdNFT.sol\":4769:4794  _operatorApprovals[owner] */\n      0x00\n        /* \"scripts/ERC721StdNFT.sol\":4788:4793  owner */\n      dup3\n        /* \"scripts/ERC721StdNFT.sol\":4769:4794  _operatorApprovals[owner] */\n      0xffffffffffffffffffffffffffffffffffffffff\n      and\n      0xffffffffffffffffffffffffffffffffffffffff\n      and\n      dup2\n      mstore\n      0x20\n      add\n      swap1\n      dup2\n      mstore\n      0x20\n      add\n      0x00\n      keccak256\n        /* \"scripts/ERC721StdNFT.sol\":4769:4806  _operatorApprovals[owner][msg.sender] */\n      0x00\n        /* \"scripts/ERC721StdNFT.sol\":4795:4805  msg.sender */\n      caller\n        /* \"scripts/ERC721StdNFT.sol\":4769:4806  _operatorApprovals[owner][msg.sender] */\n      0xffffffffffffffffffffffffffffffffffffffff\n      and\n      0xffffffffffffffffffffffffffffffffffffffff\n      and\n      dup2\n      mstore\n      0x20\n      add\n      swap1\n      dup2\n      mstore\n      0x20\n      add\n      0x00\n      keccak256\n      0x00\n      swap1\n      sload\n      swap1\n      0x0100\n      exp\n      swap1\n      div\n      0xff\n      and\n        /* \"scripts/ERC721StdNFT.sol\":4746:4806  msg.sender == owner || _operatorApprovals[owner][msg.sender] */\n    tag_107:\n        /* \"scripts/ERC721StdNFT.sol\":4725:4846  require(... */\n      tag_108\n      jumpi\n      mload(0x40)\n      0x08c379a000000000000000000000000000000000000000000000000000000000\n      dup2\n      mstore\n      0x04\n      add\n      tag_109\n      swap1\n      tag_110\n      jump\t// in\n    tag_109:\n      mload(0x40)\n      dup1\n      swap2\n      sub\n      swap1\n      revert\n    tag_108:\n        /* \"scripts/ERC721StdNFT.sol\":4896:4905  _approved */\n      dup3\n        /* \"scripts/ERC721StdNFT.sol\":4873:4883  _approvals */\n      0x03\n        /* \"scripts/ERC721StdNFT.sol\":4873:4893  _approvals[_tokenId] */\n      0x00\n        /* \"scripts/ERC721StdNFT.sol\":4884:4892  _tokenId */\n      dup5\n        /* \"scripts/ERC721StdNFT.sol\":4873:4893  _approvals[_tokenId] */\n      dup2\n      mstore\n      0x20\n      add\n      swap1\n      dup2\n      mstore\n      0x20\n      add\n      0x00\n      keccak256\n      0x00\n        /* \"scripts/ERC721StdNFT.sol\":4873:4905  _approvals[_tokenId] = _approved */\n      0x0100\n      exp\n      dup2\n      sload\n      dup2\n      0xffffffffffffffffffffffffffffffffffffffff\n      mul\n      not\n      and\n      swap1\n      dup4\n      0xffffffffffffffffffffffffffffffffffffffff\n      and\n      mul\n      or\n      swap1\n      sstore\n      pop\n        /* \"scripts/ERC721StdNFT.sol\":4974:4982  _tokenId */\n      dup2\n        /* \"scripts/ERC721StdNFT.sol\":4963:4972  _approved */\n      dup4\n        /* \"scripts/ERC721StdNFT.sol\":4947:4983  Approval(owner, _approved, _tokenId) */\n      0xffffffffffffffffffffffffffffffffffffffff\n      and\n        /* \"scripts/ERC721StdNFT.sol\":4956:4961  owner */\n      dup3\n        /* \"scripts/ERC721StdNFT.sol\":4947:4983  Approval(owner, _approved, _tokenId) */\n      0xffffffffffffffffffffffffffffffffffffffff\n      and\n      0x8c5be1e5ebec7d5bd14f71427d1e84f3dd0314c0f7b2291e5b200ac8c7c3b925\n      mload(0x40)\n      mload(0x40)\n      dup1\n      swap2\n      sub\n      swap1\n      log4\n        /* \"scripts/ERC721StdNFT.sol\":4671:5019  {... */\n      pop\n        /* \"scripts/ERC721StdNFT.sol\":4591:5019  function approve(address _approved, uint256 _tokenId) external payable override {... */\n      pop\n      pop\n      jump\t// out\n        /* \"scripts/ERC721StdNFT.sol\":5393:5844  function transferFrom(address _from, address _to, uint256 _tokenId) external payable override {... */\n    tag_46:\n        /* \"scripts/ERC721StdNFT.sol\":5532:5539  founder */\n      0x00\n      dup1\n      sload\n      swap1\n      0x0100\n      exp\n      swap1\n      div\n      0xffffffffffffffffffffffffffffffffffffffff\n      and\n        /* \"scripts/ERC721StdNFT.sol\":5518:5539  msg.sender == founder */\n      0xffffffffffffffffffffffffffffffffffffffff\n      and\n        /* \"scripts/ERC721StdNFT.sol\":5518:5528  msg.sender */\n      caller\n        /* \"scripts/ERC721StdNFT.sol\":5518:5539  msg.sender == founder */\n      0xffffffffffffffffffffffffffffffffffffffff\n      and\n      eq\n        /* \"scripts/ERC721StdNFT.sol\":5518:5588  msg.sender == founder || ... */\n      dup1\n      tag_112\n      jumpi\n      pop\n        /* \"scripts/ERC721StdNFT.sol\":5570:5578  _ownerOf */\n      0x01\n        /* \"scripts/ERC721StdNFT.sol\":5570:5588  _ownerOf[_tokenId] */\n      0x00\n        /* \"scripts/ERC721StdNFT.sol\":5579:5587  _tokenId */\n      dup3\n        /* \"scripts/ERC721StdNFT.sol\":5570:5588  _ownerOf[_tokenId] */\n      dup2\n      mstore\n      0x20\n      add\n      swap1\n      dup2\n      mstore\n      0x20\n      add\n      0x00\n      keccak256\n      0x00\n      swap1\n      sload\n      swap1\n      0x0100\n      exp\n      swap1\n      div\n      0xffffffffffffffffffffffffffffffffffffffff\n      and\n        /* \"scripts/ERC721StdNFT.sol\":5556:5588  msg.sender == _ownerOf[_tokenId] */\n      0xffffffffffffffffffffffffffffffffffffffff\n      and\n        /* \"scripts/ERC721StdNFT.sol\":5556:5566  msg.sender */\n      caller\n        /* \"scripts/ERC721StdNFT.sol\":5556:5588  msg.sender == _ownerOf[_tokenId] */\n      0xffffffffffffffffffffffffffffffffffffffff\n      and\n      eq\n        /* \"scripts/ERC721StdNFT.sol\":5518:5588  msg.sender == founder || ... */\n    tag_112:\n        /* \"scripts/ERC721StdNFT.sol\":5518:5638  msg.sender == founder || ... */\n      dup1\n      tag_113\n      jumpi\n      pop\n        /* \"scripts/ERC721StdNFT.sol\":5618:5628  _approvals */\n      0x03\n        /* \"scripts/ERC721StdNFT.sol\":5618:5638  _approvals[_tokenId] */\n      0x00\n        /* \"scripts/ERC721StdNFT.sol\":5629:5637  _tokenId */\n      dup3\n        /* \"scripts/ERC721StdNFT.sol\":5618:5638  _approvals[_tokenId] */\n      dup2\n      mstore\n      0x20\n      add\n      swap1\n      dup2\n      mstore\n      0x20\n      add\n      0x00\n      keccak256\n      0x00\n      swap1\n      sload\n      swap1\n      0x0100\n      exp\n      swap1\n      div\n      0xffffffffffffffffffffffffffffffffffffffff\n      and\n        /* \"scripts/ERC721StdNFT.sol\":5604:5638  msg.sender == _approvals[_tokenId] */\n      0xffffffffffffffffffffffffffffffffffffffff\n      and\n        /* \"scripts/ERC721StdNFT.sol\":5604:5614  msg.sender */\n      caller\n        /* \"scripts/ERC721StdNFT.sol\":5604:5638  msg.sender == _approvals[_tokenId] */\n      0xffffffffffffffffffffffffffffffffffffffff\n      and\n      eq\n        /* \"scripts/ERC721StdNFT.sol\":5518:5638  msg.sender == founder || ... */\n    tag_113:\n        /* \"scripts/ERC721StdNFT.sol\":5518:5704  msg.sender == founder || ... */\n      dup1\n      tag_114\n      jumpi\n      pop\n        /* \"scripts/ERC721StdNFT.sol\":5654:5672  _operatorApprovals */\n      0x04\n        /* \"scripts/ERC721StdNFT.sol\":5654:5692  _operatorApprovals[_ownerOf[_tokenId]] */\n      0x00\n        /* \"scripts/ERC721StdNFT.sol\":5673:5681  _ownerOf */\n      0x01\n        /* \"scripts/ERC721StdNFT.sol\":5673:5691  _ownerOf[_tokenId] */\n      0x00\n        /* \"scripts/ERC721StdNFT.sol\":5682:5690  _tokenId */\n      dup5\n        /* \"scripts/ERC721StdNFT.sol\":5673:5691  _ownerOf[_tokenId] */\n      dup2\n      mstore\n      0x20\n      add\n      swap1\n      dup2\n      mstore\n      0x20\n      add\n      0x00\n      keccak256\n      0x00\n      swap1\n      sload\n      swap1\n      0x0100\n      exp\n      swap1\n      div\n      0xffffffffffffffffffffffffffffffffffffffff\n      and\n        /* \"scripts/ERC721StdNFT.sol\":5654:5692  _operatorApprovals[_ownerOf[_tokenId]] */\n      0xffffffffffffffffffffffffffffffffffffffff\n      and\n      0xffffffffffffffffffffffffffffffffffffffff\n      and\n      dup2\n      mstore\n      0x20\n      add\n      swap1\n      dup2\n      mstore\n      0x20\n      add\n      0x00\n      keccak256\n        /* \"scripts/ERC721StdNFT.sol\":5654:5704  _operatorApprovals[_ownerOf[_tokenId]][msg.sender] */\n      0x00\n        /* \"scripts/ERC721StdNFT.sol\":5693:5703  msg.sender */\n      caller\n        /* \"scripts/ERC721StdNFT.sol\":5654:5704  _operatorApprovals[_ownerOf[_tokenId]][msg.sender] */\n      0xffffffffffffffffffffffffffffffffffffffff\n      and\n      0xffffffffffffffffffffffffffffffffffffffff\n      and\n      dup2\n      mstore\n      0x20\n      add\n      swap1\n      dup2\n      mstore\n      0x20\n      add\n      0x00\n      keccak256\n      0x00\n      swap1\n      sload\n      swap1\n      0x0100\n      exp\n      swap1\n      div\n      0xff\n      and\n        /* \"scripts/ERC721StdNFT.sol\":5518:5704  msg.sender == founder || ... */\n    tag_114:\n        /* \"scripts/ERC721StdNFT.sol\":5497:5744  require(... */\n      tag_115\n      jumpi\n      mload(0x40)\n      0x08c379a000000000000000000000000000000000000000000000000000000000\n      dup2\n      mstore\n      0x04\n      add\n      tag_116\n      swap1\n      tag_110\n      jump\t// in\n    tag_116:\n      mload(0x40)\n      dup1\n      swap2\n      sub\n      swap1\n      revert\n    tag_115:\n        /* \"scripts/ERC721StdNFT.sol\":5771:5806  _transferFrom(_from, _to, _tokenId) */\n      tag_117\n        /* \"scripts/ERC721StdNFT.sol\":5785:5790  _from */\n      dup4\n        /* \"scripts/ERC721StdNFT.sol\":5792:5795  _to */\n      dup4\n        /* \"scripts/ERC721StdNFT.sol\":5797:5805  _tokenId */\n      dup4\n        /* \"scripts/ERC721StdNFT.sol\":5771:5784  _transferFrom */\n      tag_118\n        /* \"scripts/ERC721StdNFT.sol\":5771:5806  _transferFrom(_from, _to, _tokenId) */\n      jump\t// in\n    tag_117:\n        /* \"scripts/ERC721StdNFT.sol\":5393:5844  function transferFrom(address _from, address _to, uint256 _tokenId) external payable override {... */\n      pop\n      pop\n      pop\n      jump\t// out\n        /* \"scripts/ERC721StdNFT.sol\":3301:3498  function mintNFT(address to, uint256 tokenID) public {... */\n    tag_50:\n        /* \"scripts/ERC721StdNFT.sol\":3386:3393  founder */\n      0x00\n      dup1\n      sload\n      swap1\n      0x0100\n      exp\n      swap1\n      div\n      0xffffffffffffffffffffffffffffffffffffffff\n      and\n        /* \"scripts/ERC721StdNFT.sol\":3372:3393  msg.sender == founder */\n      0xffffffffffffffffffffffffffffffffffffffff\n      and\n        /* \"scripts/ERC721StdNFT.sol\":3372:3382  msg.sender */\n      caller\n        /* \"scripts/ERC721StdNFT.sol\":3372:3393  msg.sender == founder */\n      0xffffffffffffffffffffffffffffffffffffffff\n      and\n      eq\n        /* \"scripts/ERC721StdNFT.sol\":3364:3422  require(msg.sender == founder, \"not an authorized minter\") */\n      tag_120\n      jumpi\n      mload(0x40)\n      0x08c379a000000000000000000000000000000000000000000000000000000000\n      dup2\n      mstore\n      0x04\n      add\n      tag_121\n      swap1\n      tag_122\n      jump\t// in\n    tag_121:\n      mload(0x40)\n      dup1\n      swap2\n      sub\n      swap1\n      revert\n    tag_120:\n        /* \"scripts/ERC721StdNFT.sol\":3456:3474  _mint(to, tokenID) */\n      tag_123\n        /* \"scripts/ERC721StdNFT.sol\":3462:3464  to */\n      dup3\n        /* \"scripts/ERC721StdNFT.sol\":3466:3473  tokenID */\n      dup3\n        /* \"scripts/ERC721StdNFT.sol\":3456:3461  _mint */\n      tag_124\n        /* \"scripts/ERC721StdNFT.sol\":3456:3474  _mint(to, tokenID) */\n      jump\t// in\n    tag_123:\n        /* \"scripts/ERC721StdNFT.sol\":3301:3498  function mintNFT(address to, uint256 tokenID) public {... */\n      pop\n      pop\n      jump\t// out\n        /* \"scripts/ERC721StdNFT.sol\":6788:6946  function safeTransferFrom(address _from, address _to, uint256 _tokenId) external payable override {... */\n    tag_53:\n        /* \"scripts/ERC721StdNFT.sol\":6896:6939  _safeTransferFrom(_from, _to, _tokenId, \"\") */\n      tag_126\n        /* \"scripts/ERC721StdNFT.sol\":6914:6919  _from */\n      dup4\n        /* \"scripts/ERC721StdNFT.sol\":6921:6924  _to */\n      dup4\n        /* \"scripts/ERC721StdNFT.sol\":6926:6934  _tokenId */\n      dup4\n        /* \"scripts/ERC721StdNFT.sol\":6896:6939  _safeTransferFrom(_from, _to, _tokenId, \"\") */\n      mload(0x40)\n      dup1\n      0x20\n      add\n      0x40\n      mstore\n      dup1\n      0x00\n      dup2\n      mstore\n      pop\n        /* \"scripts/ERC721StdNFT.sol\":6896:6913  _safeTransferFrom */\n      tag_127\n        /* \"scripts/ERC721StdNFT.sol\":6896:6939  _safeTransferFrom(_from, _to, _tokenId, \"\") */\n      jump\t// in\n    tag_126:\n        /* \"scripts/ERC721StdNFT.sol\":6788:6946  function safeTransferFrom(address _from, address _to, uint256 _tokenId) external payable override {... */\n      pop\n      pop\n      pop\n      jump\t// out\n        /* \"scripts/ERC721StdNFT.sol\":1825:1847  address public founder */\n    tag_56:\n      0x00\n      dup1\n      sload\n      swap1\n      0x0100\n      exp\n      swap1\n      div\n      0xffffffffffffffffffffffffffffffffffffffff\n      and\n      dup2\n      jump\t// out\n        /* \"scripts/ERC721StdNFT.sol\":3542:3776  function ownerOf(uint256 _tokenId) external view override returns (address) {... */\n    tag_61:\n        /* \"scripts/ERC721StdNFT.sol\":3609:3616  address */\n      0x00\n        /* \"scripts/ERC721StdNFT.sol\":3628:3641  address owner */\n      dup1\n        /* \"scripts/ERC721StdNFT.sol\":3644:3652  _ownerOf */\n      0x01\n        /* \"scripts/ERC721StdNFT.sol\":3644:3662  _ownerOf[_tokenId] */\n      0x00\n        /* \"scripts/ERC721StdNFT.sol\":3653:3661  _tokenId */\n      dup5\n        /* \"scripts/ERC721StdNFT.sol\":3644:3662  _ownerOf[_tokenId] */\n      dup2\n      mstore\n      0x20\n      add\n      swap1\n      dup2\n      mstore\n      0x20\n      add\n      0x00\n      keccak256\n      0x00\n      swap1\n      sload\n      swap1\n      0x0100\n      exp\n      swap1\n      div\n      0xffffffffffffffffffffffffffffffffffffffff\n      and\n        /* \"scripts/ERC721StdNFT.sol\":3628:3662  address owner = _ownerOf[_tokenId] */\n      swap1\n      pop\n        /* \"scripts/ERC721StdNFT.sol\":3697:3698  0 */\n      0x00\n        /* \"scripts/ERC721StdNFT.sol\":3680:3699  owner != address(0) */\n      0xffffffffffffffffffffffffffffffffffffffff\n      and\n        /* \"scripts/ERC721StdNFT.sol\":3680:3685  owner */\n      dup2\n        /* \"scripts/ERC721StdNFT.sol\":3680:3699  owner != address(0) */\n      0xffffffffffffffffffffffffffffffffffffffff\n      and\n      sub\n        /* \"scripts/ERC721StdNFT.sol\":3672:3723  require(owner != address(0), \"token doesn't exist\") */\n      tag_129\n      jumpi\n      mload(0x40)\n      0x08c379a000000000000000000000000000000000000000000000000000000000\n      dup2\n      mstore\n      0x04\n      add\n      tag_130\n      swap1\n      tag_105\n      jump\t// in\n    tag_130:\n      mload(0x40)\n      dup1\n      swap2\n      sub\n      swap1\n      revert\n    tag_129:\n        /* \"scripts/ERC721StdNFT.sol\":3764:3769  owner */\n      dup1\n        /* \"scripts/ERC721StdNFT.sol\":3757:3769  return owner */\n      swap2\n      pop\n      pop\n        /* \"scripts/ERC721StdNFT.sol\":3542:3776  function ownerOf(uint256 _tokenId) external view override returns (address) {... */\n      swap2\n      swap1\n      pop\n      jump\t// out\n        /* \"scripts/ERC721StdNFT.sol\":3831:4049  function balanceOf(address _owner) external view override returns (uint256) {... */\n    tag_67:\n        /* \"scripts/ERC721StdNFT.sol\":3898:3905  uint256 */\n      0x00\n        /* \"scripts/ERC721StdNFT.sol\":3943:3944  0 */\n      dup1\n        /* \"scripts/ERC721StdNFT.sol\":3925:3945  _owner != address(0) */\n      0xffffffffffffffffffffffffffffffffffffffff\n      and\n        /* \"scripts/ERC721StdNFT.sol\":3925:3931  _owner */\n      dup3\n        /* \"scripts/ERC721StdNFT.sol\":3925:3945  _owner != address(0) */\n      0xffffffffffffffffffffffffffffffffffffffff\n      and\n      sub\n        /* \"scripts/ERC721StdNFT.sol\":3917:3980  require(_owner != address(0), \"balance query for zero address\") */\n      tag_132\n      jumpi\n      mload(0x40)\n      0x08c379a000000000000000000000000000000000000000000000000000000000\n      dup2\n      mstore\n      0x04\n      add\n      tag_133\n      swap1\n      tag_134\n      jump\t// in\n    tag_133:\n      mload(0x40)\n      dup1\n      swap2\n      sub\n      swap1\n      revert\n    tag_132:\n        /* \"scripts/ERC721StdNFT.sol\":4024:4034  _balanceOf */\n      0x02\n        /* \"scripts/ERC721StdNFT.sol\":4024:4042  _balanceOf[_owner] */\n      0x00\n        /* \"scripts/ERC721StdNFT.sol\":4035:4041  _owner */\n      dup4\n        /* \"scripts/ERC721StdNFT.sol\":4024:4042  _balanceOf[_owner] */\n      0xffffffffffffffffffffffffffffffffffffffff\n      and\n      0xffffffffffffffffffffffffffffffffffffffff\n      and\n      dup2\n      mstore\n      0x20\n      add\n      swap1\n      dup2\n      mstore\n      0x20\n      add\n      0x00\n      keccak256\n      sload\n        /* \"scripts/ERC721StdNFT.sol\":4017:4042  return _balanceOf[_owner] */\n      swap1\n      pop\n        /* \"scripts/ERC721StdNFT.sol\":3831:4049  function balanceOf(address _owner) external view override returns (uint256) {... */\n      swap2\n      swap1\n      pop\n      jump\t// out\n        /* \"scripts/ERC721StdNFT.sol\":2324:2344  string public symbol */\n    tag_72:\n      0x06\n      dup1\n      sload\n      tag_135\n      swap1\n      tag_97\n      jump\t// in\n    tag_135:\n      dup1\n      0x1f\n      add\n      0x20\n      dup1\n      swap2\n      div\n      mul\n      0x20\n      add\n      mload(0x40)\n      swap1\n      dup2\n      add\n      0x40\n      mstore\n      dup1\n      swap3\n      swap2\n      swap1\n      dup2\n      dup2\n      mstore\n      0x20\n      add\n      dup3\n      dup1\n      sload\n      tag_136\n      swap1\n      tag_97\n      jump\t// in\n    tag_136:\n      dup1\n      iszero\n      tag_137\n      jumpi\n      dup1\n      0x1f\n      lt\n      tag_138\n      jumpi\n      0x0100\n      dup1\n      dup4\n      sload\n      div\n      mul\n      dup4\n      mstore\n      swap2\n      0x20\n      add\n      swap2\n      jump(tag_137)\n    tag_138:\n      dup3\n      add\n      swap2\n      swap1\n      0x00\n      mstore\n      keccak256(0x00, 0x20)\n      swap1\n    tag_139:\n      dup2\n      sload\n      dup2\n      mstore\n      swap1\n      0x01\n      add\n      swap1\n      0x20\n      add\n      dup1\n      dup4\n      gt\n      tag_139\n      jumpi\n      dup3\n      swap1\n      sub\n      0x1f\n      and\n      dup3\n      add\n      swap2\n    tag_137:\n      pop\n      pop\n      pop\n      pop\n      pop\n      dup2\n      jump\t// out\n        /* \"scripts/ERC721StdNFT.sol\":5078:5353  function setApprovalForAll(address _operator, bool _approved) external override {... */\n    tag_78:\n        /* \"scripts/ERC721StdNFT.sol\":5212:5221  _approved */\n      dup1\n        /* \"scripts/ERC721StdNFT.sol\":5168:5186  _operatorApprovals */\n      0x04\n        /* \"scripts/ERC721StdNFT.sol\":5168:5198  _operatorApprovals[msg.sender] */\n      0x00\n        /* \"scripts/ERC721StdNFT.sol\":5187:5197  msg.sender */\n      caller\n        /* \"scripts/ERC721StdNFT.sol\":5168:5198  _operatorApprovals[msg.sender] */\n      0xffffffffffffffffffffffffffffffffffffffff\n      and\n      0xffffffffffffffffffffffffffffffffffffffff\n      and\n      dup2\n      mstore\n      0x20\n      add\n      swap1\n      dup2\n      mstore\n      0x20\n      add\n      0x00\n      keccak256\n        /* \"scripts/ERC721StdNFT.sol\":5168:5209  _operatorApprovals[msg.sender][_operator] */\n      0x00\n        /* \"scripts/ERC721StdNFT.sol\":5199:5208  _operator */\n      dup5\n        /* \"scripts/ERC721StdNFT.sol\":5168:5209  _operatorApprovals[msg.sender][_operator] */\n      0xffffffffffffffffffffffffffffffffffffffff\n      and\n      0xffffffffffffffffffffffffffffffffffffffff\n      and\n      dup2\n      mstore\n      0x20\n      add\n      swap1\n      dup2\n      mstore\n      0x20\n      add\n      0x00\n      keccak256\n      0x00\n        /* \"scripts/ERC721StdNFT.sol\":5168:5221  _operatorApprovals[msg.sender][_operator] = _approved */\n      0x0100\n      exp\n      dup2\n      sload\n      dup2\n      0xff\n      mul\n      not\n      and\n      swap1\n      dup4\n      iszero\n      iszero\n      mul\n      or\n      swap1\n      sstore\n      pop\n        /* \"scripts/ERC721StdNFT.sol\":5290:5299  _operator */\n      dup2\n        /* \"scripts/ERC721StdNFT.sol\":5263:5311  ApprovalForAll(msg.sender, _operator, _approved) */\n      0xffffffffffffffffffffffffffffffffffffffff\n      and\n        /* \"scripts/ERC721StdNFT.sol\":5278:5288  msg.sender */\n      caller\n        /* \"scripts/ERC721StdNFT.sol\":5263:5311  ApprovalForAll(msg.sender, _operator, _approved) */\n      0xffffffffffffffffffffffffffffffffffffffff\n      and\n      0x17307eab39ab6107e8899845ad3d59bd9653f200f220920489ca2b5937696c31\n        /* \"scripts/ERC721StdNFT.sol\":5301:5310  _approved */\n      dup4\n        /* \"scripts/ERC721StdNFT.sol\":5263:5311  ApprovalForAll(msg.sender, _operator, _approved) */\n      mload(0x40)\n      tag_141\n      swap2\n      swap1\n      tag_26\n      jump\t// in\n    tag_141:\n      mload(0x40)\n      dup1\n      swap2\n      sub\n      swap1\n      log3\n        /* \"scripts/ERC721StdNFT.sol\":5078:5353  function setApprovalForAll(address _operator, bool _approved) external override {... */\n      pop\n      pop\n      jump\t// out\n        /* \"scripts/ERC721StdNFT.sol\":6554:6735  function safeTransferFrom(address _from, address _to, uint256 _tokenId, bytes calldata data) external payable override {... */\n    tag_82:\n        /* \"scripts/ERC721StdNFT.sol\":6683:6728  _safeTransferFrom(_from, _to, _tokenId, data) */\n      tag_143\n        /* \"scripts/ERC721StdNFT.sol\":6701:6706  _from */\n      dup6\n        /* \"scripts/ERC721StdNFT.sol\":6708:6711  _to */\n      dup6\n        /* \"scripts/ERC721StdNFT.sol\":6713:6721  _tokenId */\n      dup6\n        /* \"scripts/ERC721StdNFT.sol\":6723:6727  data */\n      dup6\n      dup6\n        /* \"scripts/ERC721StdNFT.sol\":6683:6728  _safeTransferFrom(_from, _to, _tokenId, data) */\n      dup1\n      dup1\n      0x1f\n      add\n      0x20\n      dup1\n      swap2\n      div\n      mul\n      0x20\n      add\n      mload(0x40)\n      swap1\n      dup2\n      add\n      0x40\n      mstore\n      dup1\n      swap4\n      swap3\n      swap2\n      swap1\n      dup2\n      dup2\n      mstore\n      0x20\n      add\n      dup4\n      dup4\n      dup1\n      dup3\n      dup5\n      calldatacopy\n      0x00\n      dup2\n      dup5\n      add\n      mstore\n      not(0x1f)\n      0x1f\n      dup3\n      add\n      and\n      swap1\n      pop\n      dup1\n      dup4\n      add\n      swap3\n      pop\n      pop\n      pop\n      pop\n      pop\n      pop\n      pop\n        /* \"scripts/ERC721StdNFT.sol\":6683:6700  _safeTransferFrom */\n      tag_127\n        /* \"scripts/ERC721StdNFT.sol\":6683:6728  _safeTransferFrom(_from, _to, _tokenId, data) */\n      jump\t// in\n    tag_143:\n        /* \"scripts/ERC721StdNFT.sol\":6554:6735  function safeTransferFrom(address _from, address _to, uint256 _tokenId, bytes calldata data) external payable override {... */\n      pop\n      pop\n      pop\n      pop\n      pop\n      jump\t// out\n        /* \"scripts/ERC721StdNFT.sol\":4386:4546  function isApprovedForAll(address _owner, address _operator) external view override returns (bool) {... */\n    tag_87:\n        /* \"scripts/ERC721StdNFT.sol\":4479:4483  bool */\n      0x00\n        /* \"scripts/ERC721StdNFT.sol\":4502:4520  _operatorApprovals */\n      0x04\n        /* \"scripts/ERC721StdNFT.sol\":4502:4528  _operatorApprovals[_owner] */\n      0x00\n        /* \"scripts/ERC721StdNFT.sol\":4521:4527  _owner */\n      dup5\n        /* \"scripts/ERC721StdNFT.sol\":4502:4528  _operatorApprovals[_owner] */\n      0xffffffffffffffffffffffffffffffffffffffff\n      and\n      0xffffffffffffffffffffffffffffffffffffffff\n      and\n      dup2\n      mstore\n      0x20\n      add\n      swap1\n      dup2\n      mstore\n      0x20\n      add\n      0x00\n      keccak256\n        /* \"scripts/ERC721StdNFT.sol\":4502:4539  _operatorApprovals[_owner][_operator] */\n      0x00\n        /* \"scripts/ERC721StdNFT.sol\":4529:4538  _operator */\n      dup4\n        /* \"scripts/ERC721StdNFT.sol\":4502:4539  _operatorApprovals[_owner][_operator] */\n      0xffffffffffffffffffffffffffffffffffffffff\n      and\n      0xffffffffffffffffffffffffffffffffffffffff\n      and\n      dup2\n      mstore\n      0x20\n      add\n      swap1\n      dup2\n      mstore\n      0x20\n      add\n      0x00\n      keccak256\n      0x00\n      swap1\n      sload\n      swap1\n      0x0100\n      exp\n      swap1\n      div\n      0xff\n      and\n        /* \"scripts/ERC721StdNFT.sol\":4495:4539  return _operatorApprovals[_owner][_operator] */\n      swap1\n      pop\n        /* \"scripts/ERC721StdNFT.sol\":4386:4546  function isApprovedForAll(address _owner, address _operator) external view override returns (bool) {... */\n      swap3\n      swap2\n      pop\n      pop\n      jump\t// out\n        /* \"scripts/ERC721StdNFT.sol\":2195:2265  mapping(address => mapping(address => bool)) public _operatorApprovals */\n    tag_92:\n      mstore(0x20, 0x04)\n      dup2\n      0x00\n      mstore\n      mstore(0x20, keccak256(0x00, 0x40))\n      dup1\n      0x00\n      mstore\n      keccak256(0x00, 0x40)\n      0x00\n      swap2\n      pop\n      swap2\n      pop\n      swap1\n      sload\n      swap1\n      0x0100\n      exp\n      swap1\n      div\n      0xff\n      and\n      dup2\n      jump\t// out\n        /* \"scripts/ERC721StdNFT.sol\":5884:6501  function _transferFrom(address _from, address _to, uint256 _tokenId) private {... */\n    tag_118:\n        /* \"scripts/ERC721StdNFT.sol\":5971:5984  address owner */\n      0x00\n        /* \"scripts/ERC721StdNFT.sol\":5987:5995  _ownerOf */\n      0x01\n        /* \"scripts/ERC721StdNFT.sol\":5987:6005  _ownerOf[_tokenId] */\n      0x00\n        /* \"scripts/ERC721StdNFT.sol\":5996:6004  _tokenId */\n      dup4\n        /* \"scripts/ERC721StdNFT.sol\":5987:6005  _ownerOf[_tokenId] */\n      dup2\n      mstore\n      0x20\n      add\n      swap1\n      dup2\n      mstore\n      0x20\n      add\n      0x00\n      keccak256\n      0x00\n      swap1\n      sload\n      swap1\n      0x0100\n      exp\n      swap1\n      div\n      0xffffffffffffffffffffffffffffffffffffffff\n      and\n        /* \"scripts/ERC721StdNFT.sol\":5971:6005  address owner = _ownerOf[_tokenId] */\n      swap1\n      pop\n        /* \"scripts/ERC721StdNFT.sol\":6032:6037  owner */\n      dup1\n        /* \"scripts/ERC721StdNFT.sol\":6023:6037  _from == owner */\n      0xffffffffffffffffffffffffffffffffffffffff\n      and\n        /* \"scripts/ERC721StdNFT.sol\":6023:6028  _from */\n      dup5\n        /* \"scripts/ERC721StdNFT.sol\":6023:6037  _from == owner */\n      0xffffffffffffffffffffffffffffffffffffffff\n      and\n      eq\n        /* \"scripts/ERC721StdNFT.sol\":6015:6055  require(_from == owner, \"from != owner\") */\n      tag_146\n      jumpi\n      mload(0x40)\n      0x08c379a000000000000000000000000000000000000000000000000000000000\n      dup2\n      mstore\n      0x04\n      add\n      tag_147\n      swap1\n      tag_148\n      jump\t// in\n    tag_147:\n      mload(0x40)\n      dup1\n      swap2\n      sub\n      swap1\n      revert\n    tag_146:\n        /* \"scripts/ERC721StdNFT.sol\":6108:6109  0 */\n      0x00\n        /* \"scripts/ERC721StdNFT.sol\":6093:6110  _to != address(0) */\n      0xffffffffffffffffffffffffffffffffffffffff\n      and\n        /* \"scripts/ERC721StdNFT.sol\":6093:6096  _to */\n      dup4\n        /* \"scripts/ERC721StdNFT.sol\":6093:6110  _to != address(0) */\n      0xffffffffffffffffffffffffffffffffffffffff\n      and\n      sub\n        /* \"scripts/ERC721StdNFT.sol\":6085:6139  require(_to != address(0), \"transfer to zero address\") */\n      tag_149\n      jumpi\n      mload(0x40)\n      0x08c379a000000000000000000000000000000000000000000000000000000000\n      dup2\n      mstore\n      0x04\n      add\n      tag_150\n      swap1\n      tag_151\n      jump\t// in\n    tag_150:\n      mload(0x40)\n      dup1\n      swap2\n      sub\n      swap1\n      revert\n    tag_149:\n        /* \"scripts/ERC721StdNFT.sol\":6177:6187  _balanceOf */\n      0x02\n        /* \"scripts/ERC721StdNFT.sol\":6177:6194  _balanceOf[_from] */\n      0x00\n        /* \"scripts/ERC721StdNFT.sol\":6188:6193  _from */\n      dup6\n        /* \"scripts/ERC721StdNFT.sol\":6177:6194  _balanceOf[_from] */\n      0xffffffffffffffffffffffffffffffffffffffff\n      and\n      0xffffffffffffffffffffffffffffffffffffffff\n      and\n      dup2\n      mstore\n      0x20\n      add\n      swap1\n      dup2\n      mstore\n      0x20\n      add\n      0x00\n      keccak256\n      0x00\n        /* \"scripts/ERC721StdNFT.sol\":6177:6196  _balanceOf[_from]-- */\n      dup2\n      sload\n      dup1\n      swap3\n      swap2\n      swap1\n      tag_152\n      swap1\n      tag_153\n      jump\t// in\n    tag_152:\n      swap2\n      swap1\n      pop\n      sstore\n      pop\n        /* \"scripts/ERC721StdNFT.sol\":6243:6253  _balanceOf */\n      0x02\n        /* \"scripts/ERC721StdNFT.sol\":6243:6258  _balanceOf[_to] */\n      0x00\n        /* \"scripts/ERC721StdNFT.sol\":6254:6257  _to */\n      dup5\n        /* \"scripts/ERC721StdNFT.sol\":6243:6258  _balanceOf[_to] */\n      0xffffffffffffffffffffffffffffffffffffffff\n      and\n      0xffffffffffffffffffffffffffffffffffffffff\n      and\n      dup2\n      mstore\n      0x20\n      add\n      swap1\n      dup2\n      mstore\n      0x20\n      add\n      0x00\n      keccak256\n      0x00\n        /* \"scripts/ERC721StdNFT.sol\":6243:6260  _balanceOf[_to]++ */\n      dup2\n      sload\n      dup1\n      swap3\n      swap2\n      swap1\n      tag_154\n      swap1\n      tag_155\n      jump\t// in\n    tag_154:\n      swap2\n      swap1\n      pop\n      sstore\n      pop\n        /* \"scripts/ERC721StdNFT.sol\":6328:6331  _to */\n      dup3\n        /* \"scripts/ERC721StdNFT.sol\":6307:6315  _ownerOf */\n      0x01\n        /* \"scripts/ERC721StdNFT.sol\":6307:6325  _ownerOf[_tokenId] */\n      0x00\n        /* \"scripts/ERC721StdNFT.sol\":6316:6324  _tokenId */\n      dup5\n        /* \"scripts/ERC721StdNFT.sol\":6307:6325  _ownerOf[_tokenId] */\n      dup2\n      mstore\n      0x20\n      add\n      swap1\n      dup2\n      mstore\n      0x20\n      add\n      0x00\n      keccak256\n      0x00\n        /* \"scripts/ERC721StdNFT.sol\":6307:6331  _ownerOf[_tokenId] = _to */\n      0x0100\n      exp\n      dup2\n      sload\n      dup2\n      0xffffffffffffffffffffffffffffffffffffffff\n      mul\n      not\n      and\n      swap1\n      dup4\n      0xffffffffffffffffffffffffffffffffffffffff\n      and\n      mul\n      or\n      swap1\n      sstore\n      pop\n        /* \"scripts/ERC721StdNFT.sol\":6369:6379  _approvals */\n      0x03\n        /* \"scripts/ERC721StdNFT.sol\":6369:6389  _approvals[_tokenId] */\n      0x00\n        /* \"scripts/ERC721StdNFT.sol\":6380:6388  _tokenId */\n      dup4\n        /* \"scripts/ERC721StdNFT.sol\":6369:6389  _approvals[_tokenId] */\n      dup2\n      mstore\n      0x20\n      add\n      swap1\n      dup2\n      mstore\n      0x20\n      add\n      0x00\n      keccak256\n      0x00\n        /* \"scripts/ERC721StdNFT.sol\":6362:6389  delete _approvals[_tokenId] */\n      0x0100\n      exp\n      dup2\n      sload\n      swap1\n      0xffffffffffffffffffffffffffffffffffffffff\n      mul\n      not\n      and\n      swap1\n      sstore\n        /* \"scripts/ERC721StdNFT.sol\":6456:6464  _tokenId */\n      dup2\n        /* \"scripts/ERC721StdNFT.sol\":6451:6454  _to */\n      dup4\n        /* \"scripts/ERC721StdNFT.sol\":6435:6465  Transfer(_from, _to, _tokenId) */\n      0xffffffffffffffffffffffffffffffffffffffff\n      and\n        /* \"scripts/ERC721StdNFT.sol\":6444:6449  _from */\n      dup6\n        /* \"scripts/ERC721StdNFT.sol\":6435:6465  Transfer(_from, _to, _tokenId) */\n      0xffffffffffffffffffffffffffffffffffffffff\n      and\n      0xddf252ad1be2c89b69c2b068fc378daa952ba7f163c4a11628f55a4df523b3ef\n      mload(0x40)\n      mload(0x40)\n      dup1\n      swap2\n      sub\n      swap1\n      log4\n        /* \"scripts/ERC721StdNFT.sol\":5961:6501  {... */\n      pop\n        /* \"scripts/ERC721StdNFT.sol\":5884:6501  function _transferFrom(address _from, address _to, uint256 _tokenId) private {... */\n      pop\n      pop\n      pop\n      jump\t// out\n        /* \"scripts/ERC721StdNFT.sol\":2816:3255  function _mint(address to, uint256 id) internal {... */\n    tag_124:\n        /* \"scripts/ERC721StdNFT.sol\":2896:2897  0 */\n      0x00\n        /* \"scripts/ERC721StdNFT.sol\":2882:2898  to != address(0) */\n      0xffffffffffffffffffffffffffffffffffffffff\n      and\n        /* \"scripts/ERC721StdNFT.sol\":2882:2884  to */\n      dup3\n        /* \"scripts/ERC721StdNFT.sol\":2882:2898  to != address(0) */\n      0xffffffffffffffffffffffffffffffffffffffff\n      and\n      sub\n        /* \"scripts/ERC721StdNFT.sol\":2874:2923  require(to != address(0), \"mint to zero address\") */\n      tag_157\n      jumpi\n      mload(0x40)\n      0x08c379a000000000000000000000000000000000000000000000000000000000\n      dup2\n      mstore\n      0x04\n      add\n      tag_158\n      swap1\n      tag_159\n      jump\t// in\n    tag_158:\n      mload(0x40)\n      dup1\n      swap2\n      sub\n      swap1\n      revert\n    tag_157:\n        /* \"scripts/ERC721StdNFT.sol\":2994:2995  0 */\n      0x00\n        /* \"scripts/ERC721StdNFT.sol\":2970:2996  _ownerOf[id] == address(0) */\n      0xffffffffffffffffffffffffffffffffffffffff\n      and\n        /* \"scripts/ERC721StdNFT.sol\":2970:2978  _ownerOf */\n      0x01\n        /* \"scripts/ERC721StdNFT.sol\":2970:2982  _ownerOf[id] */\n      0x00\n        /* \"scripts/ERC721StdNFT.sol\":2979:2981  id */\n      dup4\n        /* \"scripts/ERC721StdNFT.sol\":2970:2982  _ownerOf[id] */\n      dup2\n      mstore\n      0x20\n      add\n      swap1\n      dup2\n      mstore\n      0x20\n      add\n      0x00\n      keccak256\n      0x00\n      swap1\n      sload\n      swap1\n      0x0100\n      exp\n      swap1\n      div\n      0xffffffffffffffffffffffffffffffffffffffff\n      and\n        /* \"scripts/ERC721StdNFT.sol\":2970:2996  _ownerOf[id] == address(0) */\n      0xffffffffffffffffffffffffffffffffffffffff\n      and\n      eq\n        /* \"scripts/ERC721StdNFT.sol\":2962:3015  require(_ownerOf[id] == address(0), \"already minted\") */\n      tag_160\n      jumpi\n      mload(0x40)\n      0x08c379a000000000000000000000000000000000000000000000000000000000\n      dup2\n      mstore\n      0x04\n      add\n      tag_161\n      swap1\n      tag_162\n      jump\t// in\n    tag_161:\n      mload(0x40)\n      dup1\n      swap2\n      sub\n      swap1\n      revert\n    tag_160:\n        /* \"scripts/ERC721StdNFT.sol\":3069:3079  _balanceOf */\n      0x02\n        /* \"scripts/ERC721StdNFT.sol\":3069:3083  _balanceOf[to] */\n      0x00\n        /* \"scripts/ERC721StdNFT.sol\":3080:3082  to */\n      dup4\n        /* \"scripts/ERC721StdNFT.sol\":3069:3083  _balanceOf[to] */\n      0xffffffffffffffffffffffffffffffffffffffff\n      and\n      0xffffffffffffffffffffffffffffffffffffffff\n      and\n      dup2\n      mstore\n      0x20\n      add\n      swap1\n      dup2\n      mstore\n      0x20\n      add\n      0x00\n      keccak256\n      0x00\n        /* \"scripts/ERC721StdNFT.sol\":3069:3085  _balanceOf[to]++ */\n      dup2\n      sload\n      dup1\n      swap3\n      swap2\n      swap1\n      tag_163\n      swap1\n      tag_155\n      jump\t// in\n    tag_163:\n      swap2\n      swap1\n      pop\n      sstore\n      pop\n        /* \"scripts/ERC721StdNFT.sol\":3147:3149  to */\n      dup2\n        /* \"scripts/ERC721StdNFT.sol\":3132:3140  _ownerOf */\n      0x01\n        /* \"scripts/ERC721StdNFT.sol\":3132:3144  _ownerOf[id] */\n      0x00\n        /* \"scripts/ERC721StdNFT.sol\":3141:3143  id */\n      dup4\n        /* \"scripts/ERC721StdNFT.sol\":3132:3144  _ownerOf[id] */\n      dup2\n      mstore\n      0x20\n      add\n      swap1\n      dup2\n      mstore\n      0x20\n      add\n      0x00\n      keccak256\n      0x00\n        /* \"scripts/ERC721StdNFT.sol\":3132:3149  _ownerOf[id] = to */\n      0x0100\n      exp\n      dup2\n      sload\n      dup2\n      0xffffffffffffffffffffffffffffffffffffffff\n      mul\n      not\n      and\n      swap1\n      dup4\n      0xffffffffffffffffffffffffffffffffffffffff\n      and\n      mul\n      or\n      swap1\n      sstore\n      pop\n        /* \"scripts/ERC721StdNFT.sol\":3216:3218  id */\n      dup1\n        /* \"scripts/ERC721StdNFT.sol\":3212:3214  to */\n      dup3\n        /* \"scripts/ERC721StdNFT.sol\":3191:3219  Transfer(address(0), to, id) */\n      0xffffffffffffffffffffffffffffffffffffffff\n      and\n        /* \"scripts/ERC721StdNFT.sol\":3208:3209  0 */\n      0x00\n        /* \"scripts/ERC721StdNFT.sol\":3191:3219  Transfer(address(0), to, id) */\n      0xffffffffffffffffffffffffffffffffffffffff\n      and\n      0xddf252ad1be2c89b69c2b068fc378daa952ba7f163c4a11628f55a4df523b3ef\n      mload(0x40)\n      mload(0x40)\n      dup1\n      swap2\n      sub\n      swap1\n      log4\n        /* \"scripts/ERC721StdNFT.sol\":2816:3255  function _mint(address to, uint256 id) internal {... */\n      pop\n      pop\n      jump\t// out\n        /* \"scripts/ERC721StdNFT.sol\":6995:7770  function _safeTransferFrom(address _from, address _to, uint256 _tokenId, bytes memory data) internal {... */\n    tag_127:\n        /* \"scripts/ERC721StdNFT.sol\":7141:7148  founder */\n      0x00\n      dup1\n      sload\n      swap1\n      0x0100\n      exp\n      swap1\n      div\n      0xffffffffffffffffffffffffffffffffffffffff\n      and\n        /* \"scripts/ERC721StdNFT.sol\":7127:7148  msg.sender == founder */\n      0xffffffffffffffffffffffffffffffffffffffff\n      and\n        /* \"scripts/ERC721StdNFT.sol\":7127:7137  msg.sender */\n      caller\n        /* \"scripts/ERC721StdNFT.sol\":7127:7148  msg.sender == founder */\n      0xffffffffffffffffffffffffffffffffffffffff\n      and\n      eq\n        /* \"scripts/ERC721StdNFT.sol\":7127:7197  msg.sender == founder || ... */\n      dup1\n      tag_165\n      jumpi\n      pop\n        /* \"scripts/ERC721StdNFT.sol\":7179:7187  _ownerOf */\n      0x01\n        /* \"scripts/ERC721StdNFT.sol\":7179:7197  _ownerOf[_tokenId] */\n      0x00\n        /* \"scripts/ERC721StdNFT.sol\":7188:7196  _tokenId */\n      dup4\n        /* \"scripts/ERC721StdNFT.sol\":7179:7197  _ownerOf[_tokenId] */\n      dup2\n      mstore\n      0x20\n      add\n      swap1\n      dup2\n      mstore\n      0x20\n      add\n      0x00\n      keccak256\n      0x00\n      swap1\n      sload\n      swap1\n      0x0100\n      exp\n      swap1\n      div\n      0xffffffffffffffffffffffffffffffffffffffff\n      and\n        /* \"scripts/ERC721StdNFT.sol\":7165:7197  msg.sender == _ownerOf[_tokenId] */\n      0xffffffffffffffffffffffffffffffffffffffff\n      and\n        /* \"scripts/ERC721StdNFT.sol\":7165:7175  msg.sender */\n      caller\n        /* \"scripts/ERC721StdNFT.sol\":7165:7197  msg.sender == _ownerOf[_tokenId] */\n      0xffffffffffffffffffffffffffffffffffffffff\n      and\n      eq\n        /* \"scripts/ERC721StdNFT.sol\":7127:7197  msg.sender == founder || ... */\n    tag_165:\n        /* \"scripts/ERC721StdNFT.sol\":7127:7247  msg.sender == founder || ... */\n      dup1\n      tag_166\n      jumpi\n      pop\n        /* \"scripts/ERC721StdNFT.sol\":7227:7237  _approvals */\n      0x03\n        /* \"scripts/ERC721StdNFT.sol\":7227:7247  _approvals[_tokenId] */\n      0x00\n        /* \"scripts/ERC721StdNFT.sol\":7238:7246  _tokenId */\n      dup4\n        /* \"scripts/ERC721StdNFT.sol\":7227:7247  _approvals[_tokenId] */\n      dup2\n      mstore\n      0x20\n      add\n      swap1\n      dup2\n      mstore\n      0x20\n      add\n      0x00\n      keccak256\n      0x00\n      swap1\n      sload\n      swap1\n      0x0100\n      exp\n      swap1\n      div\n      0xffffffffffffffffffffffffffffffffffffffff\n      and\n        /* \"scripts/ERC721StdNFT.sol\":7213:7247  msg.sender == _approvals[_tokenId] */\n      0xffffffffffffffffffffffffffffffffffffffff\n      and\n        /* \"scripts/ERC721StdNFT.sol\":7213:7223  msg.sender */\n      caller\n        /* \"scripts/ERC721StdNFT.sol\":7213:7247  msg.sender == _approvals[_tokenId] */\n      0xffffffffffffffffffffffffffffffffffffffff\n      and\n      eq\n        /* \"scripts/ERC721StdNFT.sol\":7127:7247  msg.sender == founder || ... */\n    tag_166:\n        /* \"scripts/ERC721StdNFT.sol\":7127:7313  msg.sender == founder || ... */\n      dup1\n      tag_167\n      jumpi\n      pop\n        /* \"scripts/ERC721StdNFT.sol\":7263:7281  _operatorApprovals */\n      0x04\n        /* \"scripts/ERC721StdNFT.sol\":7263:7301  _operatorApprovals[_ownerOf[_tokenId]] */\n      0x00\n        /* \"scripts/ERC721StdNFT.sol\":7282:7290  _ownerOf */\n      0x01\n        /* \"scripts/ERC721StdNFT.sol\":7282:7300  _ownerOf[_tokenId] */\n      0x00\n        /* \"scripts/ERC721StdNFT.sol\":7291:7299  _tokenId */\n      dup6\n        /* \"scripts/ERC721StdNFT.sol\":7282:7300  _ownerOf[_tokenId] */\n      dup2\n      mstore\n      0x20\n      add\n      swap1\n      dup2\n      mstore\n      0x20\n      add\n      0x00\n      keccak256\n      0x00\n      swap1\n      sload\n      swap1\n      0x0100\n      exp\n      swap1\n      div\n      0xffffffffffffffffffffffffffffffffffffffff\n      and\n        /* \"scripts/ERC721StdNFT.sol\":7263:7301  _operatorApprovals[_ownerOf[_tokenId]] */\n      0xffffffffffffffffffffffffffffffffffffffff\n      and\n      0xffffffffffffffffffffffffffffffffffffffff\n      and\n      dup2\n      mstore\n      0x20\n      add\n      swap1\n      dup2\n      mstore\n      0x20\n      add\n      0x00\n      keccak256\n        /* \"scripts/ERC721StdNFT.sol\":7263:7313  _operatorApprovals[_ownerOf[_tokenId]][msg.sender] */\n      0x00\n        /* \"scripts/ERC721StdNFT.sol\":7302:7312  msg.sender */\n      caller\n        /* \"scripts/ERC721StdNFT.sol\":7263:7313  _operatorApprovals[_ownerOf[_tokenId]][msg.sender] */\n      0xffffffffffffffffffffffffffffffffffffffff\n      and\n      0xffffffffffffffffffffffffffffffffffffffff\n      and\n      dup2\n      mstore\n      0x20\n      add\n      swap1\n      dup2\n      mstore\n      0x20\n      add\n      0x00\n      keccak256\n      0x00\n      swap1\n      sload\n      swap1\n      0x0100\n      exp\n      swap1\n      div\n      0xff\n      and\n        /* \"scripts/ERC721StdNFT.sol\":7127:7313  msg.sender == founder || ... */\n    tag_167:\n        /* \"scripts/ERC721StdNFT.sol\":7106:7353  require(... */\n      tag_168\n      jumpi\n      mload(0x40)\n      0x08c379a000000000000000000000000000000000000000000000000000000000\n      dup2\n      mstore\n      0x04\n      add\n      tag_169\n      swap1\n      tag_110\n      jump\t// in\n    tag_169:\n      mload(0x40)\n      dup1\n      swap2\n      sub\n      swap1\n      revert\n    tag_168:\n        /* \"scripts/ERC721StdNFT.sol\":7381:7416  _transferFrom(_from, _to, _tokenId) */\n      tag_170\n        /* \"scripts/ERC721StdNFT.sol\":7395:7400  _from */\n      dup5\n        /* \"scripts/ERC721StdNFT.sol\":7402:7405  _to */\n      dup5\n        /* \"scripts/ERC721StdNFT.sol\":7407:7415  _tokenId */\n      dup5\n        /* \"scripts/ERC721StdNFT.sol\":7381:7394  _transferFrom */\n      tag_118\n        /* \"scripts/ERC721StdNFT.sol\":7381:7416  _transferFrom(_from, _to, _tokenId) */\n      jump\t// in\n    tag_170:\n        /* \"scripts/ERC721StdNFT.sol\":7498:7499  0 */\n      0x00\n        /* \"scripts/ERC721StdNFT.sol\":7479:7482  _to */\n      dup4\n        /* \"scripts/ERC721StdNFT.sol\":7479:7494  _to.code.length */\n      0xffffffffffffffffffffffffffffffffffffffff\n      and\n      extcodesize\n        /* \"scripts/ERC721StdNFT.sol\":7479:7499  _to.code.length == 0 */\n      eq\n        /* \"scripts/ERC721StdNFT.sol\":7479:7652  _to.code.length == 0 ||... */\n      dup1\n      tag_171\n      jumpi\n      pop\n        /* \"scripts/ERC721StdNFT.sol\":7607:7652  ERC721TokenReceiver.onERC721Received.selector */\n      shl(0xe0, 0x150b7a02)\n        /* \"scripts/ERC721StdNFT.sol\":7515:7652  ERC721TokenReceiver(_to).onERC721Received(msg.sender, _from, _tokenId, data) ==... */\n      not(0xffffffffffffffffffffffffffffffffffffffffffffffffffffffff)\n      and\n        /* \"scripts/ERC721StdNFT.sol\":7535:7538  _to */\n      dup4\n        /* \"scripts/ERC721StdNFT.sol\":7515:7556  ERC721TokenReceiver(_to).onERC721Received */\n      0xffffffffffffffffffffffffffffffffffffffff\n      and\n      0x150b7a02\n        /* \"scripts/ERC721StdNFT.sol\":7557:7567  msg.sender */\n      caller\n        /* \"scripts/ERC721StdNFT.sol\":7569:7574  _from */\n      dup8\n        /* \"scripts/ERC721StdNFT.sol\":7576:7584  _tokenId */\n      dup7\n        /* \"scripts/ERC721StdNFT.sol\":7586:7590  data */\n      dup7\n        /* \"scripts/ERC721StdNFT.sol\":7515:7591  ERC721TokenReceiver(_to).onERC721Received(msg.sender, _from, _tokenId, data) */\n      mload(0x40)\n      dup6\n      0xffffffff\n      and\n      0xe0\n      shl\n      dup2\n      mstore\n      0x04\n      add\n      tag_172\n      swap5\n      swap4\n      swap3\n      swap2\n      swap1\n      tag_173\n      jump\t// in\n    tag_172:\n      0x20\n      mload(0x40)\n      dup1\n      dup4\n      sub\n      dup2\n      0x00\n      dup8\n      gas\n      call\n      iszero\n      dup1\n      iszero\n      tag_175\n      jumpi\n      returndatasize\n      0x00\n      dup1\n      returndatacopy\n      revert(0x00, returndatasize)\n    tag_175:\n      pop\n      pop\n      pop\n      pop\n      mload(0x40)\n      returndatasize\n      not(0x1f)\n      0x1f\n      dup3\n      add\n      and\n      dup3\n      add\n      dup1\n      0x40\n      mstore\n      pop\n      dup2\n      add\n      swap1\n      tag_176\n      swap2\n      swap1\n      tag_177\n      jump\t// in\n    tag_176:\n        /* \"scripts/ERC721StdNFT.sol\":7515:7652  ERC721TokenReceiver(_to).onERC721Received(msg.sender, _from, _tokenId, data) ==... */\n      not(0xffffffffffffffffffffffffffffffffffffffffffffffffffffffff)\n      and\n      eq\n        /* \"scripts/ERC721StdNFT.sol\":7479:7652  _to.code.length == 0 ||... */\n    tag_171:\n        /* \"scripts/ERC721StdNFT.sol\":7458:7694  require(... */\n      tag_178\n      jumpi\n      mload(0x40)\n      0x08c379a000000000000000000000000000000000000000000000000000000000\n      dup2\n      mstore\n      0x04\n      add\n      tag_179\n      swap1\n      tag_180\n      jump\t// in\n    tag_179:\n      mload(0x40)\n      dup1\n      swap2\n      sub\n      swap1\n      revert\n    tag_178:\n        /* \"scripts/ERC721StdNFT.sol\":6995:7770  function _safeTransferFrom(address _from, address _to, uint256 _tokenId, bytes memory data) internal {... */\n      pop\n      pop\n      pop\n      pop\n      jump\t// out\n        /* \"#utility.yul\":88:205   */\n    tag_182:\n        /* \"#utility.yul\":197:198   */\n      0x00\n        /* \"#utility.yul\":194:195   */\n      dup1\n        /* \"#utility.yul\":187:199   */\n      revert\n        /* \"#utility.yul\":211:328   */\n    tag_183:\n        /* \"#utility.yul\":320:321   */\n      0x00\n        /* \"#utility.yul\":317:318   */\n      dup1\n        /* \"#utility.yul\":310:322   */\n      revert\n        /* \"#utility.yul\":334:483   */\n    tag_184:\n        /* \"#utility.yul\":370:377   */\n      0x00\n        /* \"#utility.yul\":410:476   */\n      0xffffffff00000000000000000000000000000000000000000000000000000000\n        /* \"#utility.yul\":403:408   */\n      dup3\n        /* \"#utility.yul\":399:477   */\n      and\n        /* \"#utility.yul\":388:477   */\n      swap1\n      pop\n        /* \"#utility.yul\":334:483   */\n      swap2\n      swap1\n      pop\n      jump\t// out\n        /* \"#utility.yul\":489:609   */\n    tag_185:\n        /* \"#utility.yul\":561:584   */\n      tag_239\n        /* \"#utility.yul\":578:583   */\n      dup2\n        /* \"#utility.yul\":561:584   */\n      tag_184\n      jump\t// in\n    tag_239:\n        /* \"#utility.yul\":554:559   */\n      dup2\n        /* \"#utility.yul\":551:585   */\n      eq\n        /* \"#utility.yul\":541:603   */\n      tag_240\n      jumpi\n        /* \"#utility.yul\":599:600   */\n      0x00\n        /* \"#utility.yul\":596:597   */\n      dup1\n        /* \"#utility.yul\":589:601   */\n      revert\n        /* \"#utility.yul\":541:603   */\n    tag_240:\n        /* \"#utility.yul\":489:609   */\n      pop\n      jump\t// out\n        /* \"#utility.yul\":615:752   */\n    tag_186:\n        /* \"#utility.yul\":660:665   */\n      0x00\n        /* \"#utility.yul\":698:704   */\n      dup2\n        /* \"#utility.yul\":685:705   */\n      calldataload\n        /* \"#utility.yul\":676:705   */\n      swap1\n      pop\n        /* \"#utility.yul\":714:746   */\n      tag_242\n        /* \"#utility.yul\":740:745   */\n      dup2\n        /* \"#utility.yul\":714:746   */\n      tag_185\n      jump\t// in\n    tag_242:\n        /* \"#utility.yul\":615:752   */\n      swap3\n      swap2\n      pop\n      pop\n      jump\t// out\n        /* \"#utility.yul\":758:1085   */\n    tag_23:\n        /* \"#utility.yul\":816:822   */\n      0x00\n        /* \"#utility.yul\":865:867   */\n      0x20\n        /* \"#utility.yul\":853:862   */\n      dup3\n        /* \"#utility.yul\":844:851   */\n      dup5\n        /* \"#utility.yul\":840:863   */\n      sub\n        /* \"#utility.yul\":836:868   */\n      slt\n        /* \"#utility.yul\":833:952   */\n      iszero\n      tag_244\n      jumpi\n        /* \"#utility.yul\":871:950   */\n      tag_245\n      tag_182\n      jump\t// in\n    tag_245:\n        /* \"#utility.yul\":833:952   */\n    tag_244:\n        /* \"#utility.yul\":991:992   */\n      0x00\n        /* \"#utility.yul\":1016:1068   */\n      tag_246\n        /* \"#utility.yul\":1060:1067   */\n      dup5\n        /* \"#utility.yul\":1051:1057   */\n      dup3\n        /* \"#utility.yul\":1040:1049   */\n      dup6\n        /* \"#utility.yul\":1036:1058   */\n      add\n        /* \"#utility.yul\":1016:1068   */\n      tag_186\n      jump\t// in\n    tag_246:\n        /* \"#utility.yul\":1006:1068   */\n      swap2\n      pop\n        /* \"#utility.yul\":962:1078   */\n      pop\n        /* \"#utility.yul\":758:1085   */\n      swap3\n      swap2\n      pop\n      pop\n      jump\t// out\n        /* \"#utility.yul\":1091:1181   */\n    tag_187:\n        /* \"#utility.yul\":1125:1132   */\n      0x00\n        /* \"#utility.yul\":1168:1173   */\n      dup2\n        /* \"#utility.yul\":1161:1174   */\n      iszero\n        /* \"#utility.yul\":1154:1175   */\n      iszero\n        /* \"#utility.yul\":1143:1175   */\n      swap1\n      pop\n        /* \"#utility.yul\":1091:1181   */\n      swap2\n      swap1\n      pop\n      jump\t// out\n        /* \"#utility.yul\":1187:1296   */\n    tag_188:\n        /* \"#utility.yul\":1268:1289   */\n      tag_249\n        /* \"#utility.yul\":1283:1288   */\n      dup2\n        /* \"#utility.yul\":1268:1289   */\n      tag_187\n      jump\t// in\n    tag_249:\n        /* \"#utility.yul\":1263:1266   */\n      dup3\n        /* \"#utility.yul\":1256:1290   */\n      mstore\n        /* \"#utility.yul\":1187:1296   */\n      pop\n      pop\n      jump\t// out\n        /* \"#utility.yul\":1302:1512   */\n    tag_26:\n        /* \"#utility.yul\":1389:1393   */\n      0x00\n        /* \"#utility.yul\":1427:1429   */\n      0x20\n        /* \"#utility.yul\":1416:1425   */\n      dup3\n        /* \"#utility.yul\":1412:1430   */\n      add\n        /* \"#utility.yul\":1404:1430   */\n      swap1\n      pop\n        /* \"#utility.yul\":1440:1505   */\n      tag_251\n        /* \"#utility.yul\":1502:1503   */\n      0x00\n        /* \"#utility.yul\":1491:1500   */\n      dup4\n        /* \"#utility.yul\":1487:1504   */\n      add\n        /* \"#utility.yul\":1478:1484   */\n      dup5\n        /* \"#utility.yul\":1440:1505   */\n      tag_188\n      jump\t// in\n    tag_251:\n        /* \"#utility.yul\":1302:1512   */\n      swap3\n      swap2\n      pop\n      pop\n      jump\t// out\n        /* \"#utility.yul\":1518:1617   */\n    tag_189:\n        /* \"#utility.yul\":1570:1576   */\n      0x00\n        /* \"#utility.yul\":1604:1609   */\n      dup2\n        /* \"#utility.yul\":1598:1610   */\n      mload\n        /* \"#utility.yul\":1588:1610   */\n      swap1\n      pop\n        /* \"#utility.yul\":1518:1617   */\n      swap2\n      swap1\n      pop\n      jump\t// out\n        /* \"#utility.yul\":1623:1792   */\n    tag_190:\n        /* \"#utility.yul\":1707:1718   */\n      0x00\n        /* \"#utility.yul\":1741:1747   */\n      dup3\n        /* \"#utility.yul\":1736:1739   */\n      dup3\n        /* \"#utility.yul\":1729:1748   */\n      mstore\n        /* \"#utility.yul\":1781:1785   */\n      0x20\n        /* \"#utility.yul\":1776:1779   */\n      dup3\n        /* \"#utility.yul\":1772:1786   */\n      add\n        /* \"#utility.yul\":1757:1786   */\n      swap1\n      pop\n        /* \"#utility.yul\":1623:1792   */\n      swap3\n      swap2\n      pop\n      pop\n      jump\t// out\n        /* \"#utility.yul\":1798:1937   */\n    tag_191:\n        /* \"#utility.yul\":1887:1893   */\n      dup3\n        /* \"#utility.yul\":1882:1885   */\n      dup2\n        /* \"#utility.yul\":1877:1880   */\n      dup4\n        /* \"#utility.yul\":1871:1894   */\n      mcopy\n        /* \"#utility.yul\":1928:1929   */\n      0x00\n        /* \"#utility.yul\":1919:1925   */\n      dup4\n        /* \"#utility.yul\":1914:1917   */\n      dup4\n        /* \"#utility.yul\":1910:1926   */\n      add\n        /* \"#utility.yul\":1903:1930   */\n      mstore\n        /* \"#utility.yul\":1798:1937   */\n      pop\n      pop\n      pop\n      jump\t// out\n        /* \"#utility.yul\":1943:2045   */\n    tag_192:\n        /* \"#utility.yul\":1984:1990   */\n      0x00\n        /* \"#utility.yul\":2035:2037   */\n      0x1f\n        /* \"#utility.yul\":2031:2038   */\n      not\n        /* \"#utility.yul\":2026:2028   */\n      0x1f\n        /* \"#utility.yul\":2019:2024   */\n      dup4\n        /* \"#utility.yul\":2015:2029   */\n      add\n        /* \"#utility.yul\":2011:2039   */\n      and\n        /* \"#utility.yul\":2001:2039   */\n      swap1\n      pop\n        /* \"#utility.yul\":1943:2045   */\n      swap2\n      swap1\n      pop\n      jump\t// out\n        /* \"#utility.yul\":2051:2428   */\n    tag_193:\n        /* \"#utility.yul\":2139:2142   */\n      0x00\n        /* \"#utility.yul\":2167:2206   */\n      tag_257\n        /* \"#utility.yul\":2200:2205   */\n      dup3\n        /* \"#utility.yul\":2167:2206   */\n      tag_189\n      jump\t// in\n    tag_257:\n        /* \"#utility.yul\":2222:2293   */\n      tag_258\n        /* \"#utility.yul\":2286:2292   */\n      dup2\n        /* \"#utility.yul\":2281:2284   */\n      dup6\n        /* \"#utility.yul\":2222:2293   */\n      tag_190\n      jump\t// in\n    tag_258:\n        /* \"#utility.yul\":2215:2293   */\n      swap4\n      pop\n        /* \"#utility.yul\":2302:2367   */\n      tag_259\n        /* \"#utility.yul\":2360:2366   */\n      dup2\n        /* \"#utility.yul\":2355:2358   */\n      dup6\n        /* \"#utility.yul\":2348:2352   */\n      0x20\n        /* \"#utility.yul\":2341:2346   */\n      dup7\n        /* \"#utility.yul\":2337:2353   */\n      add\n        /* \"#utility.yul\":2302:2367   */\n      tag_191\n      jump\t// in\n    tag_259:\n        /* \"#utility.yul\":2392:2421   */\n      tag_260\n        /* \"#utility.yul\":2414:2420   */\n      dup2\n        /* \"#utility.yul\":2392:2421   */\n      tag_192\n      jump\t// in\n    tag_260:\n        /* \"#utility.yul\":2387:2390   */\n      dup5\n        /* \"#utility.yul\":2383:2422   */\n      add\n        /* \"#utility.yul\":2376:2422   */\n      swap2\n      pop\n        /* \"#utility.yul\":2143:2428   */\n      pop\n        /* \"#utility.yul\":2051:2428   */\n      swap3\n      swap2\n      pop\n      pop\n      jump\t// out\n        /* \"#utility.yul\":2434:2747   */\n    tag_31:\n        /* \"#utility.yul\":2547:2551   */\n      0x00\n        /* \"#utility.yul\":2585:2587   */\n      0x20\n        /* \"#utility.yul\":2574:2583   */\n      dup3\n        /* \"#utility.yul\":2570:2588   */\n      add\n        /* \"#utility.yul\":2562:2588   */\n      swap1\n      pop\n        /* \"#utility.yul\":2634:2643   */\n      dup2\n        /* \"#utility.yul\":2628:2632   */\n      dup2\n        /* \"#utility.yul\":2624:2644   */\n      sub\n        /* \"#utility.yul\":2620:2621   */\n      0x00\n        /* \"#utility.yul\":2609:2618   */\n      dup4\n        /* \"#utility.yul\":2605:2622   */\n      add\n        /* \"#utility.yul\":2598:2645   */\n      mstore\n        /* \"#utility.yul\":2662:2740   */\n      tag_262\n        /* \"#utility.yul\":2735:2739   */\n      dup2\n        /* \"#utility.yul\":2726:2732   */\n      dup5\n        /* \"#utility.yul\":2662:2740   */\n      tag_193\n      jump\t// in\n    tag_262:\n        /* \"#utility.yul\":2654:2740   */\n      swap1\n      pop\n        /* \"#utility.yul\":2434:2747   */\n      swap3\n      swap2\n      pop\n      pop\n      jump\t// out\n        /* \"#utility.yul\":2753:2830   */\n    tag_194:\n        /* \"#utility.yul\":2790:2797   */\n      0x00\n        /* \"#utility.yul\":2819:2824   */\n      dup2\n        /* \"#utility.yul\":2808:2824   */\n      swap1\n      pop\n        /* \"#utility.yul\":2753:2830   */\n      swap2\n      swap1\n      pop\n      jump\t// out\n        /* \"#utility.yul\":2836:2958   */\n    tag_195:\n        /* \"#utility.yul\":2909:2933   */\n      tag_265\n        /* \"#utility.yul\":2927:2932   */\n      dup2\n        /* \"#utility.yul\":2909:2933   */\n      tag_194\n      jump\t// in\n    tag_265:\n        /* \"#utility.yul\":2902:2907   */\n      dup2\n        /* \"#utility.yul\":2899:2934   */\n      eq\n        /* \"#utility.yul\":2889:2952   */\n      tag_266\n      jumpi\n        /* \"#utility.yul\":2948:2949   */\n      0x00\n        /* \"#utility.yul\":2945:2946   */\n      dup1\n        /* \"#utility.yul\":2938:2950   */\n      revert\n        /* \"#utility.yul\":2889:2952   */\n    tag_266:\n        /* \"#utility.yul\":2836:2958   */\n      pop\n      jump\t// out\n        /* \"#utility.yul\":2964:3103   */\n    tag_196:\n        /* \"#utility.yul\":3010:3015   */\n      0x00\n        /* \"#utility.yul\":3048:3054   */\n      dup2\n        /* \"#utility.yul\":3035:3055   */\n      calldataload\n        /* \"#utility.yul\":3026:3055   */\n      swap1\n      pop\n        /* \"#utility.yul\":3064:3097   */\n      tag_268\n        /* \"#utility.yul\":3091:3096   */\n      dup2\n        /* \"#utility.yul\":3064:3097   */\n      tag_195\n      jump\t// in\n    tag_268:\n        /* \"#utility.yul\":2964:3103   */\n      swap3\n      swap2\n      pop\n      pop\n      jump\t// out\n        /* \"#utility.yul\":3109:3438   */\n    tag_35:\n        /* \"#utility.yul\":3168:3174   */\n      0x00\n        /* \"#utility.yul\":3217:3219   */\n      0x20\n        /* \"#utility.yul\":3205:3214   */\n      dup3\n        /* \"#utility.yul\":3196:3203   */\n      dup5\n        /* \"#utility.yul\":3192:3215   */\n      sub\n        /* \"#utility.yul\":3188:3220   */\n      slt\n        /* \"#utility.yul\":3185:3304   */\n      iszero\n      tag_270\n      jumpi\n        /* \"#utility.yul\":3223:3302   */\n      tag_271\n      tag_182\n      jump\t// in\n    tag_271:\n        /* \"#utility.yul\":3185:3304   */\n    tag_270:\n        /* \"#utility.yul\":3343:3344   */\n      0x00\n        /* \"#utility.yul\":3368:3421   */\n      tag_272\n        /* \"#utility.yul\":3413:3420   */\n      dup5\n        /* \"#utility.yul\":3404:3410   */\n      dup3\n        /* \"#utility.yul\":3393:3402   */\n      dup6\n        /* \"#utility.yul\":3389:3411   */\n      add\n        /* \"#utility.yul\":3368:3421   */\n      tag_196\n      jump\t// in\n    tag_272:\n        /* \"#utility.yul\":3358:3421   */\n      swap2\n      pop\n        /* \"#utility.yul\":3314:3431   */\n      pop\n        /* \"#utility.yul\":3109:3438   */\n      swap3\n      swap2\n      pop\n      pop\n      jump\t// out\n        /* \"#utility.yul\":3444:3570   */\n    tag_197:\n        /* \"#utility.yul\":3481:3488   */\n      0x00\n        /* \"#utility.yul\":3521:3563   */\n      0xffffffffffffffffffffffffffffffffffffffff\n        /* \"#utility.yul\":3514:3519   */\n      dup3\n        /* \"#utility.yul\":3510:3564   */\n      and\n        /* \"#utility.yul\":3499:3564   */\n      swap1\n      pop\n        /* \"#utility.yul\":3444:3570   */\n      swap2\n      swap1\n      pop\n      jump\t// out\n        /* \"#utility.yul\":3576:3672   */\n    tag_198:\n        /* \"#utility.yul\":3613:3620   */\n      0x00\n        /* \"#utility.yul\":3642:3666   */\n      tag_275\n        /* \"#utility.yul\":3660:3665   */\n      dup3\n        /* \"#utility.yul\":3642:3666   */\n      tag_197\n      jump\t// in\n    tag_275:\n        /* \"#utility.yul\":3631:3666   */\n      swap1\n      pop\n        /* \"#utility.yul\":3576:3672   */\n      swap2\n      swap1\n      pop\n      jump\t// out\n        /* \"#utility.yul\":3678:3796   */\n    tag_199:\n        /* \"#utility.yul\":3765:3789   */\n      tag_277\n        /* \"#utility.yul\":3783:3788   */\n      dup2\n        /* \"#utility.yul\":3765:3789   */\n      tag_198\n      jump\t// in\n    tag_277:\n        /* \"#utility.yul\":3760:3763   */\n      dup3\n        /* \"#utility.yul\":3753:3790   */\n      mstore\n        /* \"#utility.yul\":3678:3796   */\n      pop\n      pop\n      jump\t// out\n        /* \"#utility.yul\":3802:4024   */\n    tag_38:\n        /* \"#utility.yul\":3895:3899   */\n      0x00\n        /* \"#utility.yul\":3933:3935   */\n      0x20\n        /* \"#utility.yul\":3922:3931   */\n      dup3\n        /* \"#utility.yul\":3918:3936   */\n      add\n        /* \"#utility.yul\":3910:3936   */\n      swap1\n      pop\n        /* \"#utility.yul\":3946:4017   */\n      tag_279\n        /* \"#utility.yul\":4014:4015   */\n      0x00\n        /* \"#utility.yul\":4003:4012   */\n      dup4\n        /* \"#utility.yul\":3999:4016   */\n      add\n        /* \"#utility.yul\":3990:3996   */\n      dup5\n        /* \"#utility.yul\":3946:4017   */\n      tag_199\n      jump\t// in\n    tag_279:\n        /* \"#utility.yul\":3802:4024   */\n      swap3\n      swap2\n      pop\n      pop\n      jump\t// out\n        /* \"#utility.yul\":4030:4152   */\n    tag_200:\n        /* \"#utility.yul\":4103:4127   */\n      tag_281\n        /* \"#utility.yul\":4121:4126   */\n      dup2\n        /* \"#utility.yul\":4103:4127   */\n      tag_198\n      jump\t// in\n    tag_281:\n        /* \"#utility.yul\":4096:4101   */\n      dup2\n        /* \"#utility.yul\":4093:4128   */\n      eq\n        /* \"#utility.yul\":4083:4146   */\n      tag_282\n      jumpi\n        /* \"#utility.yul\":4142:4143   */\n      0x00\n        /* \"#utility.yul\":4139:4140   */\n      dup1\n        /* \"#utility.yul\":4132:4144   */\n      revert\n        /* \"#utility.yul\":4083:4146   */\n    tag_282:\n        /* \"#utility.yul\":4030:4152   */\n      pop\n      jump\t// out\n        /* \"#utility.yul\":4158:4297   */\n    tag_201:\n        /* \"#utility.yul\":4204:4209   */\n      0x00\n        /* \"#utility.yul\":4242:4248   */\n      dup2\n        /* \"#utility.yul\":4229:4249   */\n      calldataload\n        /* \"#utility.yul\":4220:4249   */\n      swap1\n      pop\n        /* \"#utility.yul\":4258:4291   */\n      tag_284\n        /* \"#utility.yul\":4285:4290   */\n      dup2\n        /* \"#utility.yul\":4258:4291   */\n      tag_200\n      jump\t// in\n    tag_284:\n        /* \"#utility.yul\":4158:4297   */\n      swap3\n      swap2\n      pop\n      pop\n      jump\t// out\n        /* \"#utility.yul\":4303:4777   */\n    tag_41:\n        /* \"#utility.yul\":4371:4377   */\n      0x00\n        /* \"#utility.yul\":4379:4385   */\n      dup1\n        /* \"#utility.yul\":4428:4430   */\n      0x40\n        /* \"#utility.yul\":4416:4425   */\n      dup4\n        /* \"#utility.yul\":4407:4414   */\n      dup6\n        /* \"#utility.yul\":4403:4426   */\n      sub\n        /* \"#utility.yul\":4399:4431   */\n      slt\n        /* \"#utility.yul\":4396:4515   */\n      iszero\n      tag_286\n      jumpi\n        /* \"#utility.yul\":4434:4513   */\n      tag_287\n      tag_182\n      jump\t// in\n    tag_287:\n        /* \"#utility.yul\":4396:4515   */\n    tag_286:\n        /* \"#utility.yul\":4554:4555   */\n      0x00\n        /* \"#utility.yul\":4579:4632   */\n      tag_288\n        /* \"#utility.yul\":4624:4631   */\n      dup6\n        /* \"#utility.yul\":4615:4621   */\n      dup3\n        /* \"#utility.yul\":4604:4613   */\n      dup7\n        /* \"#utility.yul\":4600:4622   */\n      add\n        /* \"#utility.yul\":4579:4632   */\n      tag_201\n      jump\t// in\n    tag_288:\n        /* \"#utility.yul\":4569:4632   */\n      swap3\n      pop\n        /* \"#utility.yul\":4525:4642   */\n      pop\n        /* \"#utility.yul\":4681:4683   */\n      0x20\n        /* \"#utility.yul\":4707:4760   */\n      tag_289\n        /* \"#utility.yul\":4752:4759   */\n      dup6\n        /* \"#utility.yul\":4743:4749   */\n      dup3\n        /* \"#utility.yul\":4732:4741   */\n      dup7\n        /* \"#utility.yul\":4728:4750   */\n      add\n        /* \"#utility.yul\":4707:4760   */\n      tag_196\n      jump\t// in\n    tag_289:\n        /* \"#utility.yul\":4697:4760   */\n      swap2\n      pop\n        /* \"#utility.yul\":4652:4770   */\n      pop\n        /* \"#utility.yul\":4303:4777   */\n      swap3\n      pop\n      swap3\n      swap1\n      pop\n      jump\t// out\n        /* \"#utility.yul\":4783:5402   */\n    tag_45:\n        /* \"#utility.yul\":4860:4866   */\n      0x00\n        /* \"#utility.yul\":4868:4874   */\n      dup1\n        /* \"#utility.yul\":4876:4882   */\n      0x00\n        /* \"#utility.yul\":4925:4927   */\n      0x60\n        /* \"#utility.yul\":4913:4922   */\n      dup5\n        /* \"#utility.yul\":4904:4911   */\n      dup7\n        /* \"#utility.yul\":4900:4923   */\n      sub\n        /* \"#utility.yul\":4896:4928   */\n      slt\n        /* \"#utility.yul\":4893:5012   */\n      iszero\n      tag_291\n      jumpi\n        /* \"#utility.yul\":4931:5010   */\n      tag_292\n      tag_182\n      jump\t// in\n    tag_292:\n        /* \"#utility.yul\":4893:5012   */\n    tag_291:\n        /* \"#utility.yul\":5051:5052   */\n      0x00\n        /* \"#utility.yul\":5076:5129   */\n      tag_293\n        /* \"#utility.yul\":5121:5128   */\n      dup7\n        /* \"#utility.yul\":5112:5118   */\n      dup3\n        /* \"#utility.yul\":5101:5110   */\n      dup8\n        /* \"#utility.yul\":5097:5119   */\n      add\n        /* \"#utility.yul\":5076:5129   */\n      tag_201\n      jump\t// in\n    tag_293:\n        /* \"#utility.yul\":5066:5129   */\n      swap4\n      pop\n        /* \"#utility.yul\":5022:5139   */\n      pop\n        /* \"#utility.yul\":5178:5180   */\n      0x20\n        /* \"#utility.yul\":5204:5257   */\n      tag_294\n        /* \"#utility.yul\":5249:5256   */\n      dup7\n        /* \"#utility.yul\":5240:5246   */\n      dup3\n        /* \"#utility.yul\":5229:5238   */\n      dup8\n        /* \"#utility.yul\":5225:5247   */\n      add\n        /* \"#utility.yul\":5204:5257   */\n      tag_201\n      jump\t// in\n    tag_294:\n        /* \"#utility.yul\":5194:5257   */\n      swap3\n      pop\n        /* \"#utility.yul\":5149:5267   */\n      pop\n        /* \"#utility.yul\":5306:5308   */\n      0x40\n        /* \"#utility.yul\":5332:5385   */\n      tag_295\n        /* \"#utility.yul\":5377:5384   */\n      dup7\n        /* \"#utility.yul\":5368:5374   */\n      dup3\n        /* \"#utility.yul\":5357:5366   */\n      dup8\n        /* \"#utility.yul\":5353:5375   */\n      add\n        /* \"#utility.yul\":5332:5385   */\n      tag_196\n      jump\t// in\n    tag_295:\n        /* \"#utility.yul\":5322:5385   */\n      swap2\n      pop\n        /* \"#utility.yul\":5277:5395   */\n      pop\n        /* \"#utility.yul\":4783:5402   */\n      swap3\n      pop\n      swap3\n      pop\n      swap3\n      jump\t// out\n        /* \"#utility.yul\":5408:5737   */\n    tag_66:\n        /* \"#utility.yul\":5467:5473   */\n      0x00\n        /* \"#utility.yul\":5516:5518   */\n      0x20\n        /* \"#utility.yul\":5504:5513   */\n      dup3\n        /* \"#utility.yul\":5495:5502   */\n      dup5\n        /* \"#utility.yul\":5491:5514   */\n      sub\n        /* \"#utility.yul\":5487:5519   */\n      slt\n        /* \"#utility.yul\":5484:5603   */\n      iszero\n      tag_297\n      jumpi\n        /* \"#utility.yul\":5522:5601   */\n      tag_298\n      tag_182\n      jump\t// in\n    tag_298:\n        /* \"#utility.yul\":5484:5603   */\n    tag_297:\n        /* \"#utility.yul\":5642:5643   */\n      0x00\n        /* \"#utility.yul\":5667:5720   */\n      tag_299\n        /* \"#utility.yul\":5712:5719   */\n      dup5\n        /* \"#utility.yul\":5703:5709   */\n      dup3\n        /* \"#utility.yul\":5692:5701   */\n      dup6\n        /* \"#utility.yul\":5688:5710   */\n      add\n        /* \"#utility.yul\":5667:5720   */\n      tag_201\n      jump\t// in\n    tag_299:\n        /* \"#utility.yul\":5657:5720   */\n      swap2\n      pop\n        /* \"#utility.yul\":5613:5730   */\n      pop\n        /* \"#utility.yul\":5408:5737   */\n      swap3\n      swap2\n      pop\n      pop\n      jump\t// out\n        /* \"#utility.yul\":5743:5861   */\n    tag_202:\n        /* \"#utility.yul\":5830:5854   */\n      tag_301\n        /* \"#utility.yul\":5848:5853   */\n      dup2\n        /* \"#utility.yul\":5830:5854   */\n      tag_194\n      jump\t// in\n    tag_301:\n        /* \"#utility.yul\":5825:5828   */\n      dup3\n        /* \"#utility.yul\":5818:5855   */\n      mstore\n        /* \"#utility.yul\":5743:5861   */\n      pop\n      pop\n      jump\t// out\n        /* \"#utility.yul\":5867:6089   */\n    tag_69:\n        /* \"#utility.yul\":5960:5964   */\n      0x00\n        /* \"#utility.yul\":5998:6000   */\n      0x20\n        /* \"#utility.yul\":5987:5996   */\n      dup3\n        /* \"#utility.yul\":5983:6001   */\n      add\n        /* \"#utility.yul\":5975:6001   */\n      swap1\n      pop\n        /* \"#utility.yul\":6011:6082   */\n      tag_303\n        /* \"#utility.yul\":6079:6080   */\n      0x00\n        /* \"#utility.yul\":6068:6077   */\n      dup4\n        /* \"#utility.yul\":6064:6081   */\n      add\n        /* \"#utility.yul\":6055:6061   */\n      dup5\n        /* \"#utility.yul\":6011:6082   */\n      tag_202\n      jump\t// in\n    tag_303:\n        /* \"#utility.yul\":5867:6089   */\n      swap3\n      swap2\n      pop\n      pop\n      jump\t// out\n        /* \"#utility.yul\":6095:6211   */\n    tag_203:\n        /* \"#utility.yul\":6165:6186   */\n      tag_305\n        /* \"#utility.yul\":6180:6185   */\n      dup2\n        /* \"#utility.yul\":6165:6186   */\n      tag_187\n      jump\t// in\n    tag_305:\n        /* \"#utility.yul\":6158:6163   */\n      dup2\n        /* \"#utility.yul\":6155:6187   */\n      eq\n        /* \"#utility.yul\":6145:6205   */\n      tag_306\n      jumpi\n        /* \"#utility.yul\":6201:6202   */\n      0x00\n        /* \"#utility.yul\":6198:6199   */\n      dup1\n        /* \"#utility.yul\":6191:6203   */\n      revert\n        /* \"#utility.yul\":6145:6205   */\n    tag_306:\n        /* \"#utility.yul\":6095:6211   */\n      pop\n      jump\t// out\n        /* \"#utility.yul\":6217:6350   */\n    tag_204:\n        /* \"#utility.yul\":6260:6265   */\n      0x00\n        /* \"#utility.yul\":6298:6304   */\n      dup2\n        /* \"#utility.yul\":6285:6305   */\n      calldataload\n        /* \"#utility.yul\":6276:6305   */\n      swap1\n      pop\n        /* \"#utility.yul\":6314:6344   */\n      tag_308\n        /* \"#utility.yul\":6338:6343   */\n      dup2\n        /* \"#utility.yul\":6314:6344   */\n      tag_203\n      jump\t// in\n    tag_308:\n        /* \"#utility.yul\":6217:6350   */\n      swap3\n      swap2\n      pop\n      pop\n      jump\t// out\n        /* \"#utility.yul\":6356:6824   */\n    tag_77:\n        /* \"#utility.yul\":6421:6427   */\n      0x00\n        /* \"#utility.yul\":6429:6435   */\n      dup1\n        /* \"#utility.yul\":6478:6480   */\n      0x40\n        /* \"#utility.yul\":6466:6475   */\n      dup4\n        /* \"#utility.yul\":6457:6464   */\n      dup6\n        /* \"#utility.yul\":6453:6476   */\n      sub\n        /* \"#utility.yul\":6449:6481   */\n      slt\n        /* \"#utility.yul\":6446:6565   */\n      iszero\n      tag_310\n      jumpi\n        /* \"#utility.yul\":6484:6563   */\n      tag_311\n      tag_182\n      jump\t// in\n    tag_311:\n        /* \"#utility.yul\":6446:6565   */\n    tag_310:\n        /* \"#utility.yul\":6604:6605   */\n      0x00\n        /* \"#utility.yul\":6629:6682   */\n      tag_312\n        /* \"#utility.yul\":6674:6681   */\n      dup6\n        /* \"#utility.yul\":6665:6671   */\n      dup3\n        /* \"#utility.yul\":6654:6663   */\n      dup7\n        /* \"#utility.yul\":6650:6672   */\n      add\n        /* \"#utility.yul\":6629:6682   */\n      tag_201\n      jump\t// in\n    tag_312:\n        /* \"#utility.yul\":6619:6682   */\n      swap3\n      pop\n        /* \"#utility.yul\":6575:6692   */\n      pop\n        /* \"#utility.yul\":6731:6733   */\n      0x20\n        /* \"#utility.yul\":6757:6807   */\n      tag_313\n        /* \"#utility.yul\":6799:6806   */\n      dup6\n        /* \"#utility.yul\":6790:6796   */\n      dup3\n        /* \"#utility.yul\":6779:6788   */\n      dup7\n        /* \"#utility.yul\":6775:6797   */\n      add\n        /* \"#utility.yul\":6757:6807   */\n      tag_204\n      jump\t// in\n    tag_313:\n        /* \"#utility.yul\":6747:6807   */\n      swap2\n      pop\n        /* \"#utility.yul\":6702:6817   */\n      pop\n        /* \"#utility.yul\":6356:6824   */\n      swap3\n      pop\n      swap3\n      swap1\n      pop\n      jump\t// out\n        /* \"#utility.yul\":6830:6947   */\n    tag_205:\n        /* \"#utility.yul\":6939:6940   */\n      0x00\n        /* \"#utility.yul\":6936:6937   */\n      dup1\n        /* \"#utility.yul\":6929:6941   */\n      revert\n        /* \"#utility.yul\":6953:7070   */\n    tag_206:\n        /* \"#utility.yul\":7062:7063   */\n      0x00\n        /* \"#utility.yul\":7059:7060   */\n      dup1\n        /* \"#utility.yul\":7052:7064   */\n      revert\n        /* \"#utility.yul\":7076:7193   */\n    tag_207:\n        /* \"#utility.yul\":7185:7186   */\n      0x00\n        /* \"#utility.yul\":7182:7183   */\n      dup1\n        /* \"#utility.yul\":7175:7187   */\n      revert\n        /* \"#utility.yul\":7212:7764   */\n    tag_208:\n        /* \"#utility.yul\":7269:7277   */\n      0x00\n        /* \"#utility.yul\":7279:7285   */\n      dup1\n        /* \"#utility.yul\":7329:7332   */\n      dup4\n        /* \"#utility.yul\":7322:7326   */\n      0x1f\n        /* \"#utility.yul\":7314:7320   */\n      dup5\n        /* \"#utility.yul\":7310:7327   */\n      add\n        /* \"#utility.yul\":7306:7333   */\n      slt\n        /* \"#utility.yul\":7296:7418   */\n      tag_318\n      jumpi\n        /* \"#utility.yul\":7337:7416   */\n      tag_319\n      tag_205\n      jump\t// in\n    tag_319:\n        /* \"#utility.yul\":7296:7418   */\n    tag_318:\n        /* \"#utility.yul\":7450:7456   */\n      dup3\n        /* \"#utility.yul\":7437:7457   */\n      calldataload\n        /* \"#utility.yul\":7427:7457   */\n      swap1\n      pop\n        /* \"#utility.yul\":7480:7498   */\n      0xffffffffffffffff\n        /* \"#utility.yul\":7472:7478   */\n      dup2\n        /* \"#utility.yul\":7469:7499   */\n      gt\n        /* \"#utility.yul\":7466:7583   */\n      iszero\n      tag_320\n      jumpi\n        /* \"#utility.yul\":7502:7581   */\n      tag_321\n      tag_206\n      jump\t// in\n    tag_321:\n        /* \"#utility.yul\":7466:7583   */\n    tag_320:\n        /* \"#utility.yul\":7616:7620   */\n      0x20\n        /* \"#utility.yul\":7608:7614   */\n      dup4\n        /* \"#utility.yul\":7604:7621   */\n      add\n        /* \"#utility.yul\":7592:7621   */\n      swap2\n      pop\n        /* \"#utility.yul\":7670:7673   */\n      dup4\n        /* \"#utility.yul\":7662:7666   */\n      0x01\n        /* \"#utility.yul\":7654:7660   */\n      dup3\n        /* \"#utility.yul\":7650:7667   */\n      mul\n        /* \"#utility.yul\":7640:7648   */\n      dup4\n        /* \"#utility.yul\":7636:7668   */\n      add\n        /* \"#utility.yul\":7633:7674   */\n      gt\n        /* \"#utility.yul\":7630:7758   */\n      iszero\n      tag_322\n      jumpi\n        /* \"#utility.yul\":7677:7756   */\n      tag_323\n      tag_207\n      jump\t// in\n    tag_323:\n        /* \"#utility.yul\":7630:7758   */\n    tag_322:\n        /* \"#utility.yul\":7212:7764   */\n      swap3\n      pop\n      swap3\n      swap1\n      pop\n      jump\t// out\n        /* \"#utility.yul\":7770:8733   */\n    tag_81:\n        /* \"#utility.yul\":7867:7873   */\n      0x00\n        /* \"#utility.yul\":7875:7881   */\n      dup1\n        /* \"#utility.yul\":7883:7889   */\n      0x00\n        /* \"#utility.yul\":7891:7897   */\n      dup1\n        /* \"#utility.yul\":7899:7905   */\n      0x00\n        /* \"#utility.yul\":7948:7951   */\n      0x80\n        /* \"#utility.yul\":7936:7945   */\n      dup7\n        /* \"#utility.yul\":7927:7934   */\n      dup9\n        /* \"#utility.yul\":7923:7946   */\n      sub\n        /* \"#utility.yul\":7919:7952   */\n      slt\n        /* \"#utility.yul\":7916:8036   */\n      iszero\n      tag_325\n      jumpi\n        /* \"#utility.yul\":7955:8034   */\n      tag_326\n      tag_182\n      jump\t// in\n    tag_326:\n        /* \"#utility.yul\":7916:8036   */\n    tag_325:\n        /* \"#utility.yul\":8075:8076   */\n      0x00\n        /* \"#utility.yul\":8100:8153   */\n      tag_327\n        /* \"#utility.yul\":8145:8152   */\n      dup9\n        /* \"#utility.yul\":8136:8142   */\n      dup3\n        /* \"#utility.yul\":8125:8134   */\n      dup10\n        /* \"#utility.yul\":8121:8143   */\n      add\n        /* \"#utility.yul\":8100:8153   */\n      tag_201\n      jump\t// in\n    tag_327:\n        /* \"#utility.yul\":8090:8153   */\n      swap6\n      pop\n        /* \"#utility.yul\":8046:8163   */\n      pop\n        /* \"#utility.yul\":8202:8204   */\n      0x20\n        /* \"#utility.yul\":8228:8281   */\n      tag_328\n        /* \"#utility.yul\":8273:8280   */\n      dup9\n        /* \"#utility.yul\":8264:8270   */\n      dup3\n        /* \"#utility.yul\":8253:8262   */\n      dup10\n        /* \"#utility.yul\":8249:8271   */\n      add\n        /* \"#utility.yul\":8228:8281   */\n      tag_201\n      jump\t// in\n    tag_328:\n        /* \"#utility.yul\":8218:8281   */\n      swap5\n      pop\n        /* \"#utility.yul\":8173:8291   */\n      pop\n        /* \"#utility.yul\":8330:8332   */\n      0x40\n        /* \"#utility.yul\":8356:8409   */\n      tag_329\n        /* \"#utility.yul\":8401:8408   */\n      dup9\n        /* \"#utility.yul\":8392:8398   */\n      dup3\n        /* \"#utility.yul\":8381:8390   */\n      dup10\n        /* \"#utility.yul\":8377:8399   */\n      add\n        /* \"#utility.yul\":8356:8409   */\n      tag_196\n      jump\t// in\n    tag_329:\n        /* \"#utility.yul\":8346:8409   */\n      swap4\n      pop\n        /* \"#utility.yul\":8301:8419   */\n      pop\n        /* \"#utility.yul\":8486:8488   */\n      0x60\n        /* \"#utility.yul\":8475:8484   */\n      dup7\n        /* \"#utility.yul\":8471:8489   */\n      add\n        /* \"#utility.yul\":8458:8490   */\n      calldataload\n        /* \"#utility.yul\":8517:8535   */\n      0xffffffffffffffff\n        /* \"#utility.yul\":8509:8515   */\n      dup2\n        /* \"#utility.yul\":8506:8536   */\n      gt\n        /* \"#utility.yul\":8503:8620   */\n      iszero\n      tag_330\n      jumpi\n        /* \"#utility.yul\":8539:8618   */\n      tag_331\n      tag_183\n      jump\t// in\n    tag_331:\n        /* \"#utility.yul\":8503:8620   */\n    tag_330:\n        /* \"#utility.yul\":8652:8716   */\n      tag_332\n        /* \"#utility.yul\":8708:8715   */\n      dup9\n        /* \"#utility.yul\":8699:8705   */\n      dup3\n        /* \"#utility.yul\":8688:8697   */\n      dup10\n        /* \"#utility.yul\":8684:8706   */\n      add\n        /* \"#utility.yul\":8652:8716   */\n      tag_208\n      jump\t// in\n    tag_332:\n        /* \"#utility.yul\":8634:8716   */\n      swap3\n      pop\n      swap3\n      pop\n        /* \"#utility.yul\":8429:8726   */\n      pop\n        /* \"#utility.yul\":7770:8733   */\n      swap3\n      swap6\n      pop\n      swap3\n      swap6\n      swap1\n      swap4\n      pop\n      jump\t// out\n        /* \"#utility.yul\":8739:9213   */\n    tag_86:\n        /* \"#utility.yul\":8807:8813   */\n      0x00\n        /* \"#utility.yul\":8815:8821   */\n      dup1\n        /* \"#utility.yul\":8864:8866   */\n      0x40\n        /* \"#utility.yul\":8852:8861   */\n      dup4\n        /* \"#utility.yul\":8843:8850   */\n      dup6\n        /* \"#utility.yul\":8839:8862   */\n      sub\n        /* \"#utility.yul\":8835:8867   */\n      slt\n        /* \"#utility.yul\":8832:8951   */\n      iszero\n      tag_334\n      jumpi\n        /* \"#utility.yul\":8870:8949   */\n      tag_335\n      tag_182\n      jump\t// in\n    tag_335:\n        /* \"#utility.yul\":8832:8951   */\n    tag_334:\n        /* \"#utility.yul\":8990:8991   */\n      0x00\n        /* \"#utility.yul\":9015:9068   */\n      tag_336\n        /* \"#utility.yul\":9060:9067   */\n      dup6\n        /* \"#utility.yul\":9051:9057   */\n      dup3\n        /* \"#utility.yul\":9040:9049   */\n      dup7\n        /* \"#utility.yul\":9036:9058   */\n      add\n        /* \"#utility.yul\":9015:9068   */\n      tag_201\n      jump\t// in\n    tag_336:\n        /* \"#utility.yul\":9005:9068   */\n      swap3\n      pop\n        /* \"#utility.yul\":8961:9078   */\n      pop\n        /* \"#utility.yul\":9117:9119   */\n      0x20\n        /* \"#utility.yul\":9143:9196   */\n      tag_337\n        /* \"#utility.yul\":9188:9195   */\n      dup6\n        /* \"#utility.yul\":9179:9185   */\n      dup3\n        /* \"#utility.yul\":9168:9177   */\n      dup7\n        /* \"#utility.yul\":9164:9186   */\n      add\n        /* \"#utility.yul\":9143:9196   */\n      tag_201\n      jump\t// in\n    tag_337:\n        /* \"#utility.yul\":9133:9196   */\n      swap2\n      pop\n        /* \"#utility.yul\":9088:9206   */\n      pop\n        /* \"#utility.yul\":8739:9213   */\n      swap3\n      pop\n      swap3\n      swap1\n      pop\n      jump\t// out\n        /* \"#utility.yul\":9219:9399   */\n    tag_209:\n        /* \"#utility.yul\":9267:9344   */\n      0x4e487b7100000000000000000000000000000000000000000000000000000000\n        /* \"#utility.yul\":9264:9265   */\n      0x00\n        /* \"#utility.yul\":9257:9345   */\n      mstore\n        /* \"#utility.yul\":9364:9368   */\n      0x22\n        /* \"#utility.yul\":9361:9362   */\n      0x04\n        /* \"#utility.yul\":9354:9369   */\n      mstore\n        /* \"#utility.yul\":9388:9392   */\n      0x24\n        /* \"#utility.yul\":9385:9386   */\n      0x00\n        /* \"#utility.yul\":9378:9393   */\n      revert\n        /* \"#utility.yul\":9405:9725   */\n    tag_97:\n        /* \"#utility.yul\":9449:9455   */\n      0x00\n        /* \"#utility.yul\":9486:9487   */\n      0x02\n        /* \"#utility.yul\":9480:9484   */\n      dup3\n        /* \"#utility.yul\":9476:9488   */\n      div\n        /* \"#utility.yul\":9466:9488   */\n      swap1\n      pop\n        /* \"#utility.yul\":9533:9534   */\n      0x01\n        /* \"#utility.yul\":9527:9531   */\n      dup3\n        /* \"#utility.yul\":9523:9535   */\n      and\n        /* \"#utility.yul\":9554:9572   */\n      dup1\n        /* \"#utility.yul\":9544:9625   */\n      tag_340\n      jumpi\n        /* \"#utility.yul\":9610:9614   */\n      0x7f\n        /* \"#utility.yul\":9602:9608   */\n      dup3\n        /* \"#utility.yul\":9598:9615   */\n      and\n        /* \"#utility.yul\":9588:9615   */\n      swap2\n      pop\n        /* \"#utility.yul\":9544:9625   */\n    tag_340:\n        /* \"#utility.yul\":9672:9674   */\n      0x20\n        /* \"#utility.yul\":9664:9670   */\n      dup3\n        /* \"#utility.yul\":9661:9675   */\n      lt\n        /* \"#utility.yul\":9641:9659   */\n      dup2\n        /* \"#utility.yul\":9638:9676   */\n      sub\n        /* \"#utility.yul\":9635:9719   */\n      tag_341\n      jumpi\n        /* \"#utility.yul\":9691:9709   */\n      tag_342\n      tag_209\n      jump\t// in\n    tag_342:\n        /* \"#utility.yul\":9635:9719   */\n    tag_341:\n        /* \"#utility.yul\":9456:9725   */\n      pop\n        /* \"#utility.yul\":9405:9725   */\n      swap2\n      swap1\n      pop\n      jump\t// out\n        /* \"#utility.yul\":9731:9900   */\n    tag_210:\n        /* \"#utility.yul\":9871:9892   */\n      0x746f6b656e20646f65736e277420657869737400000000000000000000000000\n        /* \"#utility.yul\":9867:9868   */\n      0x00\n        /* \"#utility.yul\":9859:9865   */\n      dup3\n        /* \"#utility.yul\":9855:9869   */\n      add\n        /* \"#utility.yul\":9848:9893   */\n      mstore\n        /* \"#utility.yul\":9731:9900   */\n      pop\n      jump\t// out\n        /* \"#utility.yul\":9906:10272   */\n    tag_211:\n        /* \"#utility.yul\":10048:10051   */\n      0x00\n        /* \"#utility.yul\":10069:10136   */\n      tag_345\n        /* \"#utility.yul\":10133:10135   */\n      0x13\n        /* \"#utility.yul\":10128:10131   */\n      dup4\n        /* \"#utility.yul\":10069:10136   */\n      tag_190\n      jump\t// in\n    tag_345:\n        /* \"#utility.yul\":10062:10136   */\n      swap2\n      pop\n        /* \"#utility.yul\":10145:10238   */\n      tag_346\n        /* \"#utility.yul\":10234:10237   */\n      dup3\n        /* \"#utility.yul\":10145:10238   */\n      tag_210\n      jump\t// in\n    tag_346:\n        /* \"#utility.yul\":10263:10265   */\n      0x20\n        /* \"#utility.yul\":10258:10261   */\n      dup3\n        /* \"#utility.yul\":10254:10266   */\n      add\n        /* \"#utility.yul\":10247:10266   */\n      swap1\n      pop\n        /* \"#utility.yul\":9906:10272   */\n      swap2\n      swap1\n      pop\n      jump\t// out\n        /* \"#utility.yul\":10278:10697   */\n    tag_105:\n        /* \"#utility.yul\":10444:10448   */\n      0x00\n        /* \"#utility.yul\":10482:10484   */\n      0x20\n        /* \"#utility.yul\":10471:10480   */\n      dup3\n        /* \"#utility.yul\":10467:10485   */\n      add\n        /* \"#utility.yul\":10459:10485   */\n      swap1\n      pop\n        /* \"#utility.yul\":10531:10540   */\n      dup2\n        /* \"#utility.yul\":10525:10529   */\n      dup2\n        /* \"#utility.yul\":10521:10541   */\n      sub\n        /* \"#utility.yul\":10517:10518   */\n      0x00\n        /* \"#utility.yul\":10506:10515   */\n      dup4\n        /* \"#utility.yul\":10502:10519   */\n      add\n        /* \"#utility.yul\":10495:10542   */\n      mstore\n        /* \"#utility.yul\":10559:10690   */\n      tag_348\n        /* \"#utility.yul\":10685:10689   */\n      dup2\n        /* \"#utility.yul\":10559:10690   */\n      tag_211\n      jump\t// in\n    tag_348:\n        /* \"#utility.yul\":10551:10690   */\n      swap1\n      pop\n        /* \"#utility.yul\":10278:10697   */\n      swap2\n      swap1\n      pop\n      jump\t// out\n        /* \"#utility.yul\":10703:10867   */\n    tag_212:\n        /* \"#utility.yul\":10843:10859   */\n      0x6e6f7420617574686f72697a6564000000000000000000000000000000000000\n        /* \"#utility.yul\":10839:10840   */\n      0x00\n        /* \"#utility.yul\":10831:10837   */\n      dup3\n        /* \"#utility.yul\":10827:10841   */\n      add\n        /* \"#utility.yul\":10820:10860   */\n      mstore\n        /* \"#utility.yul\":10703:10867   */\n      pop\n      jump\t// out\n        /* \"#utility.yul\":10873:11239   */\n    tag_213:\n        /* \"#utility.yul\":11015:11018   */\n      0x00\n        /* \"#utility.yul\":11036:11103   */\n      tag_351\n        /* \"#utility.yul\":11100:11102   */\n      0x0e\n        /* \"#utility.yul\":11095:11098   */\n      dup4\n        /* \"#utility.yul\":11036:11103   */\n      tag_190\n      jump\t// in\n    tag_351:\n        /* \"#utility.yul\":11029:11103   */\n      swap2\n      pop\n        /* \"#utility.yul\":11112:11205   */\n      tag_352\n        /* \"#utility.yul\":11201:11204   */\n      dup3\n        /* \"#utility.yul\":11112:11205   */\n      tag_212\n      jump\t// in\n    tag_352:\n        /* \"#utility.yul\":11230:11232   */\n      0x20\n        /* \"#utility.yul\":11225:11228   */\n      dup3\n        /* \"#utility.yul\":11221:11233   */\n      add\n        /* \"#utility.yul\":11214:11233   */\n      swap1\n      pop\n        /* \"#utility.yul\":10873:11239   */\n      swap2\n      swap1\n      pop\n      jump\t// out\n        /* \"#utility.yul\":11245:11664   */\n    tag_110:\n        /* \"#utility.yul\":11411:11415   */\n      0x00\n        /* \"#utility.yul\":11449:11451   */\n      0x20\n        /* \"#utility.yul\":11438:11447   */\n      dup3\n        /* \"#utility.yul\":11434:11452   */\n      add\n        /* \"#utility.yul\":11426:11452   */\n      swap1\n      pop\n        /* \"#utility.yul\":11498:11507   */\n      dup2\n        /* \"#utility.yul\":11492:11496   */\n      dup2\n        /* \"#utility.yul\":11488:11508   */\n      sub\n        /* \"#utility.yul\":11484:11485   */\n      0x00\n        /* \"#utility.yul\":11473:11482   */\n      dup4\n        /* \"#utility.yul\":11469:11486   */\n      add\n        /* \"#utility.yul\":11462:11509   */\n      mstore\n        /* \"#utility.yul\":11526:11657   */\n      tag_354\n        /* \"#utility.yul\":11652:11656   */\n      dup2\n        /* \"#utility.yul\":11526:11657   */\n      tag_213\n      jump\t// in\n    tag_354:\n        /* \"#utility.yul\":11518:11657   */\n      swap1\n      pop\n        /* \"#utility.yul\":11245:11664   */\n      swap2\n      swap1\n      pop\n      jump\t// out\n        /* \"#utility.yul\":11670:11844   */\n    tag_214:\n        /* \"#utility.yul\":11810:11836   */\n      0x6e6f7420616e20617574686f72697a6564206d696e7465720000000000000000\n        /* \"#utility.yul\":11806:11807   */\n      0x00\n        /* \"#utility.yul\":11798:11804   */\n      dup3\n        /* \"#utility.yul\":11794:11808   */\n      add\n        /* \"#utility.yul\":11787:11837   */\n      mstore\n        /* \"#utility.yul\":11670:11844   */\n      pop\n      jump\t// out\n        /* \"#utility.yul\":11850:12216   */\n    tag_215:\n        /* \"#utility.yul\":11992:11995   */\n      0x00\n        /* \"#utility.yul\":12013:12080   */\n      tag_357\n        /* \"#utility.yul\":12077:12079   */\n      0x18\n        /* \"#utility.yul\":12072:12075   */\n      dup4\n        /* \"#utility.yul\":12013:12080   */\n      tag_190\n      jump\t// in\n    tag_357:\n        /* \"#utility.yul\":12006:12080   */\n      swap2\n      pop\n        /* \"#utility.yul\":12089:12182   */\n      tag_358\n        /* \"#utility.yul\":12178:12181   */\n      dup3\n        /* \"#utility.yul\":12089:12182   */\n      tag_214\n      jump\t// in\n    tag_358:\n        /* \"#utility.yul\":12207:12209   */\n      0x20\n        /* \"#utility.yul\":12202:12205   */\n      dup3\n        /* \"#utility.yul\":12198:12210   */\n      add\n        /* \"#utility.yul\":12191:12210   */\n      swap1\n      pop\n        /* \"#utility.yul\":11850:12216   */\n      swap2\n      swap1\n      pop\n      jump\t// out\n        /* \"#utility.yul\":12222:12641   */\n    tag_122:\n        /* \"#utility.yul\":12388:12392   */\n      0x00\n        /* \"#utility.yul\":12426:12428   */\n      0x20\n        /* \"#utility.yul\":12415:12424   */\n      dup3\n        /* \"#utility.yul\":12411:12429   */\n      add\n        /* \"#utility.yul\":12403:12429   */\n      swap1\n      pop\n        /* \"#utility.yul\":12475:12484   */\n      dup2\n        /* \"#utility.yul\":12469:12473   */\n      dup2\n        /* \"#utility.yul\":12465:12485   */\n      sub\n        /* \"#utility.yul\":12461:12462   */\n      0x00\n        /* \"#utility.yul\":12450:12459   */\n      dup4\n        /* \"#utility.yul\":12446:12463   */\n      add\n        /* \"#utility.yul\":12439:12486   */\n      mstore\n        /* \"#utility.yul\":12503:12634   */\n      tag_360\n        /* \"#utility.yul\":12629:12633   */\n      dup2\n        /* \"#utility.yul\":12503:12634   */\n      tag_215\n      jump\t// in\n    tag_360:\n        /* \"#utility.yul\":12495:12634   */\n      swap1\n      pop\n        /* \"#utility.yul\":12222:12641   */\n      swap2\n      swap1\n      pop\n      jump\t// out\n        /* \"#utility.yul\":12647:12827   */\n    tag_216:\n        /* \"#utility.yul\":12787:12819   */\n      0x62616c616e636520717565727920666f72207a65726f20616464726573730000\n        /* \"#utility.yul\":12783:12784   */\n      0x00\n        /* \"#utility.yul\":12775:12781   */\n      dup3\n        /* \"#utility.yul\":12771:12785   */\n      add\n        /* \"#utility.yul\":12764:12820   */\n      mstore\n        /* \"#utility.yul\":12647:12827   */\n      pop\n      jump\t// out\n        /* \"#utility.yul\":12833:13199   */\n    tag_217:\n        /* \"#utility.yul\":12975:12978   */\n      0x00\n        /* \"#utility.yul\":12996:13063   */\n      tag_363\n        /* \"#utility.yul\":13060:13062   */\n      0x1e\n        /* \"#utility.yul\":13055:13058   */\n      dup4\n        /* \"#utility.yul\":12996:13063   */\n      tag_190\n      jump\t// in\n    tag_363:\n        /* \"#utility.yul\":12989:13063   */\n      swap2\n      pop\n        /* \"#utility.yul\":13072:13165   */\n      tag_364\n        /* \"#utility.yul\":13161:13164   */\n      dup3\n        /* \"#utility.yul\":13072:13165   */\n      tag_216\n      jump\t// in\n    tag_364:\n        /* \"#utility.yul\":13190:13192   */\n      0x20\n        /* \"#utility.yul\":13185:13188   */\n      dup3\n        /* \"#utility.yul\":13181:13193   */\n      add\n        /* \"#utility.yul\":13174:13193   */\n      swap1\n      pop\n        /* \"#utility.yul\":12833:13199   */\n      swap2\n      swap1\n      pop\n      jump\t// out\n        /* \"#utility.yul\":13205:13624   */\n    tag_134:\n        /* \"#utility.yul\":13371:13375   */\n      0x00\n        /* \"#utility.yul\":13409:13411   */\n      0x20\n        /* \"#utility.yul\":13398:13407   */\n      dup3\n        /* \"#utility.yul\":13394:13412   */\n      add\n        /* \"#utility.yul\":13386:13412   */\n      swap1\n      pop\n        /* \"#utility.yul\":13458:13467   */\n      dup2\n        /* \"#utility.yul\":13452:13456   */\n      dup2\n        /* \"#utility.yul\":13448:13468   */\n      sub\n        /* \"#utility.yul\":13444:13445   */\n      0x00\n        /* \"#utility.yul\":13433:13442   */\n      dup4\n        /* \"#utility.yul\":13429:13446   */\n      add\n        /* \"#utility.yul\":13422:13469   */\n      mstore\n        /* \"#utility.yul\":13486:13617   */\n      tag_366\n        /* \"#utility.yul\":13612:13616   */\n      dup2\n        /* \"#utility.yul\":13486:13617   */\n      tag_217\n      jump\t// in\n    tag_366:\n        /* \"#utility.yul\":13478:13617   */\n      swap1\n      pop\n        /* \"#utility.yul\":13205:13624   */\n      swap2\n      swap1\n      pop\n      jump\t// out\n        /* \"#utility.yul\":13630:13793   */\n    tag_218:\n        /* \"#utility.yul\":13770:13785   */\n      0x66726f6d20213d206f776e657200000000000000000000000000000000000000\n        /* \"#utility.yul\":13766:13767   */\n      0x00\n        /* \"#utility.yul\":13758:13764   */\n      dup3\n        /* \"#utility.yul\":13754:13768   */\n      add\n        /* \"#utility.yul\":13747:13786   */\n      mstore\n        /* \"#utility.yul\":13630:13793   */\n      pop\n      jump\t// out\n        /* \"#utility.yul\":13799:14165   */\n    tag_219:\n        /* \"#utility.yul\":13941:13944   */\n      0x00\n        /* \"#utility.yul\":13962:14029   */\n      tag_369\n        /* \"#utility.yul\":14026:14028   */\n      0x0d\n        /* \"#utility.yul\":14021:14024   */\n      dup4\n        /* \"#utility.yul\":13962:14029   */\n      tag_190\n      jump\t// in\n    tag_369:\n        /* \"#utility.yul\":13955:14029   */\n      swap2\n      pop\n        /* \"#utility.yul\":14038:14131   */\n      tag_370\n        /* \"#utility.yul\":14127:14130   */\n      dup3\n        /* \"#utility.yul\":14038:14131   */\n      tag_218\n      jump\t// in\n    tag_370:\n        /* \"#utility.yul\":14156:14158   */\n      0x20\n        /* \"#utility.yul\":14151:14154   */\n      dup3\n        /* \"#utility.yul\":14147:14159   */\n      add\n        /* \"#utility.yul\":14140:14159   */\n      swap1\n      pop\n        /* \"#utility.yul\":13799:14165   */\n      swap2\n      swap1\n      pop\n      jump\t// out\n        /* \"#utility.yul\":14171:14590   */\n    tag_148:\n        /* \"#utility.yul\":14337:14341   */\n      0x00\n        /* \"#utility.yul\":14375:14377   */\n      0x20\n        /* \"#utility.yul\":14364:14373   */\n      dup3\n        /* \"#utility.yul\":14360:14378   */\n      add\n        /* \"#utility.yul\":14352:14378   */\n      swap1\n      pop\n        /* \"#utility.yul\":14424:14433   */\n      dup2\n        /* \"#utility.yul\":14418:14422   */\n      dup2\n        /* \"#utility.yul\":14414:14434   */\n      sub\n        /* \"#utility.yul\":14410:14411   */\n      0x00\n        /* \"#utility.yul\":14399:14408   */\n      dup4\n        /* \"#utility.yul\":14395:14412   */\n      add\n        /* \"#utility.yul\":14388:14435   */\n      mstore\n        /* \"#utility.yul\":14452:14583   */\n      tag_372\n        /* \"#utility.yul\":14578:14582   */\n      dup2\n        /* \"#utility.yul\":14452:14583   */\n      tag_219\n      jump\t// in\n    tag_372:\n        /* \"#utility.yul\":14444:14583   */\n      swap1\n      pop\n        /* \"#utility.yul\":14171:14590   */\n      swap2\n      swap1\n      pop\n      jump\t// out\n        /* \"#utility.yul\":14596:14770   */\n    tag_220:\n        /* \"#utility.yul\":14736:14762   */\n      0x7472616e7366657220746f207a65726f20616464726573730000000000000000\n        /* \"#utility.yul\":14732:14733   */\n      0x00\n        /* \"#utility.yul\":14724:14730   */\n      dup3\n        /* \"#utility.yul\":14720:14734   */\n      add\n        /* \"#utility.yul\":14713:14763   */\n      mstore\n        /* \"#utility.yul\":14596:14770   */\n      pop\n      jump\t// out\n        /* \"#utility.yul\":14776:15142   */\n    tag_221:\n        /* \"#utility.yul\":14918:14921   */\n      0x00\n        /* \"#utility.yul\":14939:15006   */\n      tag_375\n        /* \"#utility.yul\":15003:15005   */\n      0x18\n        /* \"#utility.yul\":14998:15001   */\n      dup4\n        /* \"#utility.yul\":14939:15006   */\n      tag_190\n      jump\t// in\n    tag_375:\n        /* \"#utility.yul\":14932:15006   */\n      swap2\n      pop\n        /* \"#utility.yul\":15015:15108   */\n      tag_376\n        /* \"#utility.yul\":15104:15107   */\n      dup3\n        /* \"#utility.yul\":15015:15108   */\n      tag_220\n      jump\t// in\n    tag_376:\n        /* \"#utility.yul\":15133:15135   */\n      0x20\n        /* \"#utility.yul\":15128:15131   */\n      dup3\n        /* \"#utility.yul\":15124:15136   */\n      add\n        /* \"#utility.yul\":15117:15136   */\n      swap1\n      pop\n        /* \"#utility.yul\":14776:15142   */\n      swap2\n      swap1\n      pop\n      jump\t// out\n        /* \"#utility.yul\":15148:15567   */\n    tag_151:\n        /* \"#utility.yul\":15314:15318   */\n      0x00\n        /* \"#utility.yul\":15352:15354   */\n      0x20\n        /* \"#utility.yul\":15341:15350   */\n      dup3\n        /* \"#utility.yul\":15337:15355   */\n      add\n        /* \"#utility.yul\":15329:15355   */\n      swap1\n      pop\n        /* \"#utility.yul\":15401:15410   */\n      dup2\n        /* \"#utility.yul\":15395:15399   */\n      dup2\n        /* \"#utility.yul\":15391:15411   */\n      sub\n        /* \"#utility.yul\":15387:15388   */\n      0x00\n        /* \"#utility.yul\":15376:15385   */\n      dup4\n        /* \"#utility.yul\":15372:15389   */\n      add\n        /* \"#utility.yul\":15365:15412   */\n      mstore\n        /* \"#utility.yul\":15429:15560   */\n      tag_378\n        /* \"#utility.yul\":15555:15559   */\n      dup2\n        /* \"#utility.yul\":15429:15560   */\n      tag_221\n      jump\t// in\n    tag_378:\n        /* \"#utility.yul\":15421:15560   */\n      swap1\n      pop\n        /* \"#utility.yul\":15148:15567   */\n      swap2\n      swap1\n      pop\n      jump\t// out\n        /* \"#utility.yul\":15573:15753   */\n    tag_222:\n        /* \"#utility.yul\":15621:15698   */\n      0x4e487b7100000000000000000000000000000000000000000000000000000000\n        /* \"#utility.yul\":15618:15619   */\n      0x00\n        /* \"#utility.yul\":15611:15699   */\n      mstore\n        /* \"#utility.yul\":15718:15722   */\n      0x11\n        /* \"#utility.yul\":15715:15716   */\n      0x04\n        /* \"#utility.yul\":15708:15723   */\n      mstore\n        /* \"#utility.yul\":15742:15746   */\n      0x24\n        /* \"#utility.yul\":15739:15740   */\n      0x00\n        /* \"#utility.yul\":15732:15747   */\n      revert\n        /* \"#utility.yul\":15759:15930   */\n    tag_153:\n        /* \"#utility.yul\":15798:15801   */\n      0x00\n        /* \"#utility.yul\":15821:15845   */\n      tag_381\n        /* \"#utility.yul\":15839:15844   */\n      dup3\n        /* \"#utility.yul\":15821:15845   */\n      tag_194\n      jump\t// in\n    tag_381:\n        /* \"#utility.yul\":15812:15845   */\n      swap2\n      pop\n        /* \"#utility.yul\":15867:15871   */\n      0x00\n        /* \"#utility.yul\":15860:15865   */\n      dup3\n        /* \"#utility.yul\":15857:15872   */\n      sub\n        /* \"#utility.yul\":15854:15895   */\n      tag_382\n      jumpi\n        /* \"#utility.yul\":15875:15893   */\n      tag_383\n      tag_222\n      jump\t// in\n    tag_383:\n        /* \"#utility.yul\":15854:15895   */\n    tag_382:\n        /* \"#utility.yul\":15922:15923   */\n      0x01\n        /* \"#utility.yul\":15915:15920   */\n      dup3\n        /* \"#utility.yul\":15911:15924   */\n      sub\n        /* \"#utility.yul\":15904:15924   */\n      swap1\n      pop\n        /* \"#utility.yul\":15759:15930   */\n      swap2\n      swap1\n      pop\n      jump\t// out\n        /* \"#utility.yul\":15936:16169   */\n    tag_155:\n        /* \"#utility.yul\":15975:15978   */\n      0x00\n        /* \"#utility.yul\":15998:16022   */\n      tag_385\n        /* \"#utility.yul\":16016:16021   */\n      dup3\n        /* \"#utility.yul\":15998:16022   */\n      tag_194\n      jump\t// in\n    tag_385:\n        /* \"#utility.yul\":15989:16022   */\n      swap2\n      pop\n        /* \"#utility.yul\":16044:16110   */\n      0xffffffffffffffffffffffffffffffffffffffffffffffffffffffffffffffff\n        /* \"#utility.yul\":16037:16042   */\n      dup3\n        /* \"#utility.yul\":16034:16111   */\n      sub\n        /* \"#utility.yul\":16031:16134   */\n      tag_386\n      jumpi\n        /* \"#utility.yul\":16114:16132   */\n      tag_387\n      tag_222\n      jump\t// in\n    tag_387:\n        /* \"#utility.yul\":16031:16134   */\n    tag_386:\n        /* \"#utility.yul\":16161:16162   */\n      0x01\n        /* \"#utility.yul\":16154:16159   */\n      dup3\n        /* \"#utility.yul\":16150:16163   */\n      add\n        /* \"#utility.yul\":16143:16163   */\n      swap1\n      pop\n        /* \"#utility.yul\":15936:16169   */\n      swap2\n      swap1\n      pop\n      jump\t// out\n        /* \"#utility.yul\":16175:16345   */\n    tag_223:\n        /* \"#utility.yul\":16315:16337   */\n      0x6d696e7420746f207a65726f2061646472657373000000000000000000000000\n        /* \"#utility.yul\":16311:16312   */\n      0x00\n        /* \"#utility.yul\":16303:16309   */\n      dup3\n        /* \"#utility.yul\":16299:16313   */\n      add\n        /* \"#utility.yul\":16292:16338   */\n      mstore\n        /* \"#utility.yul\":16175:16345   */\n      pop\n      jump\t// out\n        /* \"#utility.yul\":16351:16717   */\n    tag_224:\n        /* \"#utility.yul\":16493:16496   */\n      0x00\n        /* \"#utility.yul\":16514:16581   */\n      tag_390\n        /* \"#utility.yul\":16578:16580   */\n      0x14\n        /* \"#utility.yul\":16573:16576   */\n      dup4\n        /* \"#utility.yul\":16514:16581   */\n      tag_190\n      jump\t// in\n    tag_390:\n        /* \"#utility.yul\":16507:16581   */\n      swap2\n      pop\n        /* \"#utility.yul\":16590:16683   */\n      tag_391\n        /* \"#utility.yul\":16679:16682   */\n      dup3\n        /* \"#utility.yul\":16590:16683   */\n      tag_223\n      jump\t// in\n    tag_391:\n        /* \"#utility.yul\":16708:16710   */\n      0x20\n        /* \"#utility.yul\":16703:16706   */\n      dup3\n        /* \"#utility.yul\":16699:16711   */\n      add\n        /* \"#utility.yul\":16692:16711   */\n      swap1\n      pop\n        /* \"#utility.yul\":16351:16717   */\n      swap2\n      swap1\n      pop\n      jump\t// out\n        /* \"#utility.yul\":16723:17142   */\n    tag_159:\n        /* \"#utility.yul\":16889:16893   */\n      0x00\n        /* \"#utility.yul\":16927:16929   */\n      0x20\n        /* \"#utility.yul\":16916:16925   */\n      dup3\n        /* \"#utility.yul\":16912:16930   */\n      add\n        /* \"#utility.yul\":16904:16930   */\n      swap1\n      pop\n        /* \"#utility.yul\":16976:16985   */\n      dup2\n        /* \"#utility.yul\":16970:16974   */\n      dup2\n        /* \"#utility.yul\":16966:16986   */\n      sub\n        /* \"#utility.yul\":16962:16963   */\n      0x00\n        /* \"#utility.yul\":16951:16960   */\n      dup4\n        /* \"#utility.yul\":16947:16964   */\n      add\n        /* \"#utility.yul\":16940:16987   */\n      mstore\n        /* \"#utility.yul\":17004:17135   */\n      tag_393\n        /* \"#utility.yul\":17130:17134   */\n      dup2\n        /* \"#utility.yul\":17004:17135   */\n      tag_224\n      jump\t// in\n    tag_393:\n        /* \"#utility.yul\":16996:17135   */\n      swap1\n      pop\n        /* \"#utility.yul\":16723:17142   */\n      swap2\n      swap1\n      pop\n      jump\t// out\n        /* \"#utility.yul\":17148:17312   */\n    tag_225:\n        /* \"#utility.yul\":17288:17304   */\n      0x616c7265616479206d696e746564000000000000000000000000000000000000\n        /* \"#utility.yul\":17284:17285   */\n      0x00\n        /* \"#utility.yul\":17276:17282   */\n      dup3\n        /* \"#utility.yul\":17272:17286   */\n      add\n        /* \"#utility.yul\":17265:17305   */\n      mstore\n        /* \"#utility.yul\":17148:17312   */\n      pop\n      jump\t// out\n        /* \"#utility.yul\":17318:17684   */\n    tag_226:\n        /* \"#utility.yul\":17460:17463   */\n      0x00\n        /* \"#utility.yul\":17481:17548   */\n      tag_396\n        /* \"#utility.yul\":17545:17547   */\n      0x0e\n        /* \"#utility.yul\":17540:17543   */\n      dup4\n        /* \"#utility.yul\":17481:17548   */\n      tag_190\n      jump\t// in\n    tag_396:\n        /* \"#utility.yul\":17474:17548   */\n      swap2\n      pop\n        /* \"#utility.yul\":17557:17650   */\n      tag_397\n        /* \"#utility.yul\":17646:17649   */\n      dup3\n        /* \"#utility.yul\":17557:17650   */\n      tag_225\n      jump\t// in\n    tag_397:\n        /* \"#utility.yul\":17675:17677   */\n      0x20\n        /* \"#utility.yul\":17670:17673   */\n      dup3\n        /* \"#utility.yul\":17666:17678   */\n      add\n        /* \"#utility.yul\":17659:17678   */\n      swap1\n      pop\n        /* \"#utility.yul\":17318:17684   */\n      swap2\n      swap1\n      pop\n      jump\t// out\n        /* \"#utility.yul\":17690:18109   */\n    tag_162:\n        /* \"#utility.yul\":17856:17860   */\n      0x00\n        /* \"#utility.yul\":17894:17896   */\n      0x20\n        /* \"#utility.yul\":17883:17892   */\n      dup3\n        /* \"#utility.yul\":17879:17897   */\n      add\n        /* \"#utility.yul\":17871:17897   */\n      swap1\n      pop\n        /* \"#utility.yul\":17943:17952   */\n      dup2\n        /* \"#utility.yul\":17937:17941   */\n      dup2\n        /* \"#utility.yul\":17933:17953   */\n      sub\n        /* \"#utility.yul\":17929:17930   */\n      0x00\n        /* \"#utility.yul\":17918:17927   */\n      dup4\n        /* \"#utility.yul\":17914:17931   */\n      add\n        /* \"#utility.yul\":17907:17954   */\n      mstore\n        /* \"#utility.yul\":17971:18102   */\n      tag_399\n        /* \"#utility.yul\":18097:18101   */\n      dup2\n        /* \"#utility.yul\":17971:18102   */\n      tag_226\n      jump\t// in\n    tag_399:\n        /* \"#utility.yul\":17963:18102   */\n      swap1\n      pop\n        /* \"#utility.yul\":17690:18109   */\n      swap2\n      swap1\n      pop\n      jump\t// out\n        /* \"#utility.yul\":18115:18213   */\n    tag_227:\n        /* \"#utility.yul\":18166:18172   */\n      0x00\n        /* \"#utility.yul\":18200:18205   */\n      dup2\n        /* \"#utility.yul\":18194:18206   */\n      mload\n        /* \"#utility.yul\":18184:18206   */\n      swap1\n      pop\n        /* \"#utility.yul\":18115:18213   */\n      swap2\n      swap1\n      pop\n      jump\t// out\n        /* \"#utility.yul\":18219:18387   */\n    tag_228:\n        /* \"#utility.yul\":18302:18313   */\n      0x00\n        /* \"#utility.yul\":18336:18342   */\n      dup3\n        /* \"#utility.yul\":18331:18334   */\n      dup3\n        /* \"#utility.yul\":18324:18343   */\n      mstore\n        /* \"#utility.yul\":18376:18380   */\n      0x20\n        /* \"#utility.yul\":18371:18374   */\n      dup3\n        /* \"#utility.yul\":18367:18381   */\n      add\n        /* \"#utility.yul\":18352:18381   */\n      swap1\n      pop\n        /* \"#utility.yul\":18219:18387   */\n      swap3\n      swap2\n      pop\n      pop\n      jump\t// out\n        /* \"#utility.yul\":18393:18766   */\n    tag_229:\n        /* \"#utility.yul\":18479:18482   */\n      0x00\n        /* \"#utility.yul\":18507:18545   */\n      tag_403\n        /* \"#utility.yul\":18539:18544   */\n      dup3\n        /* \"#utility.yul\":18507:18545   */\n      tag_227\n      jump\t// in\n    tag_403:\n        /* \"#utility.yul\":18561:18631   */\n      tag_404\n        /* \"#utility.yul\":18624:18630   */\n      dup2\n        /* \"#utility.yul\":18619:18622   */\n      dup6\n        /* \"#utility.yul\":18561:18631   */\n      tag_228\n      jump\t// in\n    tag_404:\n        /* \"#utility.yul\":18554:18631   */\n      swap4\n      pop\n        /* \"#utility.yul\":18640:18705   */\n      tag_405\n        /* \"#utility.yul\":18698:18704   */\n      dup2\n        /* \"#utility.yul\":18693:18696   */\n      dup6\n        /* \"#utility.yul\":18686:18690   */\n      0x20\n        /* \"#utility.yul\":18679:18684   */\n      dup7\n        /* \"#utility.yul\":18675:18691   */\n      add\n        /* \"#utility.yul\":18640:18705   */\n      tag_191\n      jump\t// in\n    tag_405:\n        /* \"#utility.yul\":18730:18759   */\n      tag_406\n        /* \"#utility.yul\":18752:18758   */\n      dup2\n        /* \"#utility.yul\":18730:18759   */\n      tag_192\n      jump\t// in\n    tag_406:\n        /* \"#utility.yul\":18725:18728   */\n      dup5\n        /* \"#utility.yul\":18721:18760   */\n      add\n        /* \"#utility.yul\":18714:18760   */\n      swap2\n      pop\n        /* \"#utility.yul\":18483:18766   */\n      pop\n        /* \"#utility.yul\":18393:18766   */\n      swap3\n      swap2\n      pop\n      pop\n      jump\t// out\n        /* \"#utility.yul\":18772:19412   */\n    tag_173:\n        /* \"#utility.yul\":18967:18971   */\n      0x00\n        /* \"#utility.yul\":19005:19008   */\n      0x80\n        /* \"#utility.yul\":18994:19003   */\n      dup3\n        /* \"#utility.yul\":18990:19009   */\n      add\n        /* \"#utility.yul\":18982:19009   */\n      swap1\n      pop\n        /* \"#utility.yul\":19019:19090   */\n      tag_408\n        /* \"#utility.yul\":19087:19088   */\n      0x00\n        /* \"#utility.yul\":19076:19085   */\n      dup4\n        /* \"#utility.yul\":19072:19089   */\n      add\n        /* \"#utility.yul\":19063:19069   */\n      dup8\n        /* \"#utility.yul\":19019:19090   */\n      tag_199\n      jump\t// in\n    tag_408:\n        /* \"#utility.yul\":19100:19172   */\n      tag_409\n        /* \"#utility.yul\":19168:19170   */\n      0x20\n        /* \"#utility.yul\":19157:19166   */\n      dup4\n        /* \"#utility.yul\":19153:19171   */\n      add\n        /* \"#utility.yul\":19144:19150   */\n      dup7\n        /* \"#utility.yul\":19100:19172   */\n      tag_199\n      jump\t// in\n    tag_409:\n        /* \"#utility.yul\":19182:19254   */\n      tag_410\n        /* \"#utility.yul\":19250:19252   */\n      0x40\n        /* \"#utility.yul\":19239:19248   */\n      dup4\n        /* \"#utility.yul\":19235:19253   */\n      add\n        /* \"#utility.yul\":19226:19232   */\n      dup6\n        /* \"#utility.yul\":19182:19254   */\n      tag_202\n      jump\t// in\n    tag_410:\n        /* \"#utility.yul\":19301:19310   */\n      dup2\n        /* \"#utility.yul\":19295:19299   */\n      dup2\n        /* \"#utility.yul\":19291:19311   */\n      sub\n        /* \"#utility.yul\":19286:19288   */\n      0x60\n        /* \"#utility.yul\":19275:19284   */\n      dup4\n        /* \"#utility.yul\":19271:19289   */\n      add\n        /* \"#utility.yul\":19264:19312   */\n      mstore\n        /* \"#utility.yul\":19329:19405   */\n      tag_411\n        /* \"#utility.yul\":19400:19404   */\n      dup2\n        /* \"#utility.yul\":19391:19397   */\n      dup5\n        /* \"#utility.yul\":19329:19405   */\n      tag_229\n      jump\t// in\n    tag_411:\n        /* \"#utility.yul\":19321:19405   */\n      swap1\n      pop\n        /* \"#utility.yul\":18772:19412   */\n      swap6\n      swap5\n      pop\n      pop\n      pop\n      pop\n      pop\n      jump\t// out\n        /* \"#utility.yul\":19418:19559   */\n    tag_230:\n        /* \"#utility.yul\":19474:19479   */\n      0x00\n        /* \"#utility.yul\":19505:19511   */\n      dup2\n        /* \"#utility.yul\":19499:19512   */\n      mload\n        /* \"#utility.yul\":19490:19512   */\n      swap1\n      pop\n        /* \"#utility.yul\":19521:19553   */\n      tag_413\n        /* \"#utility.yul\":19547:19552   */\n      dup2\n        /* \"#utility.yul\":19521:19553   */\n      tag_185\n      jump\t// in\n    tag_413:\n        /* \"#utility.yul\":19418:19559   */\n      swap3\n      swap2\n      pop\n      pop\n      jump\t// out\n        /* \"#utility.yul\":19565:19914   */\n    tag_177:\n        /* \"#utility.yul\":19634:19640   */\n      0x00\n        /* \"#utility.yul\":19683:19685   */\n      0x20\n        /* \"#utility.yul\":19671:19680   */\n      dup3\n        /* \"#utility.yul\":19662:19669   */\n      dup5\n        /* \"#utility.yul\":19658:19681   */\n      sub\n        /* \"#utility.yul\":19654:19686   */\n      slt\n        /* \"#utility.yul\":19651:19770   */\n      iszero\n      tag_415\n      jumpi\n        /* \"#utility.yul\":19689:19768   */\n      tag_416\n      tag_182\n      jump\t// in\n    tag_416:\n        /* \"#utility.yul\":19651:19770   */\n    tag_415:\n        /* \"#utility.yul\":19809:19810   */\n      0x00\n        /* \"#utility.yul\":19834:19897   */\n      tag_417\n        /* \"#utility.yul\":19889:19896   */\n      dup5\n        /* \"#utility.yul\":19880:19886   */\n      dup3\n        /* \"#utility.yul\":19869:19878   */\n      dup6\n        /* \"#utility.yul\":19865:19887   */\n      add\n        /* \"#utility.yul\":19834:19897   */\n      tag_230\n      jump\t// in\n    tag_417:\n        /* \"#utility.yul\":19824:19897   */\n      swap2\n      pop\n        /* \"#utility.yul\":19780:19907   */\n      pop\n        /* \"#utility.yul\":19565:19914   */\n      swap3\n      swap2\n      pop\n      pop\n      jump\t// out\n        /* \"#utility.yul\":19920:20086   */\n    tag_231:\n        /* \"#utility.yul\":20060:20078   */\n      0x756e7361666520726563697069656e7400000000000000000000000000000000\n        /* \"#utility.yul\":20056:20057   */\n      0x00\n        /* \"#utility.yul\":20048:20054   */\n      dup3\n        /* \"#utility.yul\":20044:20058   */\n      add\n        /* \"#utility.yul\":20037:20079   */\n      mstore\n        /* \"#utility.yul\":19920:20086   */\n      pop\n      jump\t// out\n        /* \"#utility.yul\":20092:20458   */\n    tag_232:\n        /* \"#utility.yul\":20234:20237   */\n      0x00\n        /* \"#utility.yul\":20255:20322   */\n      tag_420\n        /* \"#utility.yul\":20319:20321   */\n      0x10\n        /* \"#utility.yul\":20314:20317   */\n      dup4\n        /* \"#utility.yul\":20255:20322   */\n      tag_190\n      jump\t// in\n    tag_420:\n        /* \"#utility.yul\":20248:20322   */\n      swap2\n      pop\n        /* \"#utility.yul\":20331:20424   */\n      tag_421\n        /* \"#utility.yul\":20420:20423   */\n      dup3\n        /* \"#utility.yul\":20331:20424   */\n      tag_231\n      jump\t// in\n    tag_421:\n        /* \"#utility.yul\":20449:20451   */\n      0x20\n        /* \"#utility.yul\":20444:20447   */\n      dup3\n        /* \"#utility.yul\":20440:20452   */\n      add\n        /* \"#utility.yul\":20433:20452   */\n      swap1\n      pop\n        /* \"#utility.yul\":20092:20458   */\n      swap2\n      swap1\n      pop\n      jump\t// out\n        /* \"#utility.yul\":20464:20883   */\n    tag_180:\n        /* \"#utility.yul\":20630:20634   */\n      0x00\n        /* \"#utility.yul\":20668:20670   */\n      0x20\n        /* \"#utility.yul\":20657:20666   */\n      dup3\n        /* \"#utility.yul\":20653:20671   */\n      add\n        /* \"#utility.yul\":20645:20671   */\n      swap1\n      pop\n        /* \"#utility.yul\":20717:20726   */\n      dup2\n        /* \"#utility.yul\":20711:20715   */\n      dup2\n        /* \"#utility.yul\":20707:20727   */\n      sub\n        /* \"#utility.yul\":20703:20704   */\n      0x00\n        /* \"#utility.yul\":20692:20701   */\n      dup4\n        /* \"#utility.yul\":20688:20705   */\n      add\n        /* \"#utility.yul\":20681:20728   */\n      mstore\n        /* \"#utility.yul\":20745:20876   */\n      tag_423\n        /* \"#utility.yul\":20871:20875   */\n      dup2\n        /* \"#utility.yul\":20745:20876   */\n      tag_232\n      jump\t// in\n    tag_423:\n        /* \"#utility.yul\":20737:20876   */\n      swap1\n      pop\n        /* \"#utility.yul\":20464:20883   */\n      swap2\n      swap1\n      pop\n      jump\t// out\n\n    auxdata: 0xa26469706673582212208aa787333e60ab046e10d767d1c295be116aebe4a11a3f80472f1919440a249464736f6c634300081a0033\n}\n",
				"bytecode": {
					"linkReferences": {},
					"object": "608060405234801561000f575f80fd5b506040516129a23803806129a283398181016040528101906100319190610422565b335f806101000a81548173ffffffffffffffffffffffffffffffffffffffff021916908373ffffffffffffffffffffffffffffffffffffffff160217905550816005908161007f91906106a5565b50806006908161008f91906106a5565b505f600190505b600581116100c1576100ae33826100c960201b60201c565b80806100b9906107a1565b915050610096565b5050506108c8565b5f73ffffffffffffffffffffffffffffffffffffffff168273ffffffffffffffffffffffffffffffffffffffff1603610137576040517f08c379a000000000000000000000000000000000000000000000000000000000815260040161012e90610842565b60405180910390fd5b5f73ffffffffffffffffffffffffffffffffffffffff1660015f8381526020019081526020015f205f9054906101000a900473ffffffffffffffffffffffffffffffffffffffff1673ffffffffffffffffffffffffffffffffffffffff16146101d5576040517f08c379a00000000000000000000000000000000000000000000000000000000081526004016101cc906108aa565b60405180910390fd5b60025f8373ffffffffffffffffffffffffffffffffffffffff1673ffffffffffffffffffffffffffffffffffffffff1681526020019081526020015f205f815480929190610222906107a1565b91905055508160015f8381526020019081526020015f205f6101000a81548173ffffffffffffffffffffffffffffffffffffffff021916908373ffffffffffffffffffffffffffffffffffffffff160217905550808273ffffffffffffffffffffffffffffffffffffffff165f73ffffffffffffffffffffffffffffffffffffffff167fddf252ad1be2c89b69c2b068fc378daa952ba7f163c4a11628f55a4df523b3ef60405160405180910390a45050565b5f604051905090565b5f80fd5b5f80fd5b5f80fd5b5f80fd5b5f601f19601f8301169050919050565b7f4e487b71000000000000000000000000000000000000000000000000000000005f52604160045260245ffd5b610334826102ee565b810181811067ffffffffffffffff82111715610353576103526102fe565b5b80604052505050565b5f6103656102d5565b9050610371828261032b565b919050565b5f67ffffffffffffffff8211156103905761038f6102fe565b5b610399826102ee565b9050602081019050919050565b8281835e5f83830152505050565b5f6103c66103c184610376565b61035c565b9050828152602081018484840111156103e2576103e16102ea565b5b6103ed8482856103a6565b509392505050565b5f82601f830112610409576104086102e6565b5b81516104198482602086016103b4565b91505092915050565b5f8060408385031215610438576104376102de565b5b5f83015167ffffffffffffffff811115610455576104546102e2565b5b610461858286016103f5565b925050602083015167ffffffffffffffff811115610482576104816102e2565b5b61048e858286016103f5565b9150509250929050565b5f81519050919050565b7f4e487b71000000000000000000000000000000000000000000000000000000005f52602260045260245ffd5b5f60028204905060018216806104e657607f821691505b6020821081036104f9576104f86104a2565b5b50919050565b5f819050815f5260205f209050919050565b5f6020601f8301049050919050565b5f82821b905092915050565b5f6008830261055b7fffffffffffffffffffffffffffffffffffffffffffffffffffffffffffffffff82610520565b6105658683610520565b95508019841693508086168417925050509392505050565b5f819050919050565b5f819050919050565b5f6105a96105a461059f8461057d565b610586565b61057d565b9050919050565b5f819050919050565b6105c28361058f565b6105d66105ce826105b0565b84845461052c565b825550505050565b5f90565b6105ea6105de565b6105f58184846105b9565b505050565b5b818110156106185761060d5f826105e2565b6001810190506105fb565b5050565b601f82111561065d5761062e816104ff565b61063784610511565b81016020851015610646578190505b61065a61065285610511565b8301826105fa565b50505b505050565b5f82821c905092915050565b5f61067d5f1984600802610662565b1980831691505092915050565b5f610695838361066e565b9150826002028217905092915050565b6106ae82610498565b67ffffffffffffffff8111156106c7576106c66102fe565b5b6106d182546104cf565b6106dc82828561061c565b5f60209050601f83116001811461070d575f84156106fb578287015190505b610705858261068a565b86555061076c565b601f19841661071b866104ff565b5f5b828110156107425784890151825560018201915060208501945060208101905061071d565b8683101561075f578489015161075b601f89168261066e565b8355505b6001600288020188555050505b505050505050565b7f4e487b71000000000000000000000000000000000000000000000000000000005f52601160045260245ffd5b5f6107ab8261057d565b91507fffffffffffffffffffffffffffffffffffffffffffffffffffffffffffffffff82036107dd576107dc610774565b5b600182019050919050565b5f82825260208201905092915050565b7f6d696e7420746f207a65726f20616464726573730000000000000000000000005f82015250565b5f61082c6014836107e8565b9150610837826107f8565b602082019050919050565b5f6020820190508181035f83015261085981610820565b9050919050565b7f616c7265616479206d696e7465640000000000000000000000000000000000005f82015250565b5f610894600e836107e8565b915061089f82610860565b602082019050919050565b5f6020820190508181035f8301526108c181610888565b9050919050565b6120cd806108d55f395ff3fe6080604052600436106100e7575f3560e01c80634d853ee511610089578063a22cb46511610058578063a22cb465146102d5578063b88d4fde146102fd578063e985e9c514610319578063edc3bc3f14610355576100e7565b80634d853ee5146102095780636352211e1461023357806370a082311461026f57806395d89b41146102ab576100e7565b8063095ea7b3116100c5578063095ea7b31461018d57806323b872dd146101a95780633c168eab146101c557806342842e0e146101ed576100e7565b806301ffc9a7146100eb57806306fdde0314610127578063081812fc14610151575b5f80fd5b3480156100f6575f80fd5b50610111600480360381019061010c91906116e2565b610391565b60405161011e9190611727565b60405180910390f35b348015610132575f80fd5b5061013b610462565b60405161014891906117b0565b60405180910390f35b34801561015c575f80fd5b5061017760048036038101906101729190611803565b6104ee565b604051610184919061186d565b60405180910390f35b6101a760048036038101906101a291906118b0565b6105c5565b005b6101c360048036038101906101be91906118ee565b6107a2565b005b3480156101d0575f80fd5b506101eb60048036038101906101e691906118b0565b6109c7565b005b610207600480360381019061020291906118ee565b610a62565b005b348015610214575f80fd5b5061021d610a81565b60405161022a919061186d565b60405180910390f35b34801561023e575f80fd5b5061025960048036038101906102549190611803565b610aa4565b604051610266919061186d565b60405180910390f35b34801561027a575f80fd5b506102956004803603810190610290919061193e565b610b50565b6040516102a29190611978565b60405180910390f35b3480156102b6575f80fd5b506102bf610c04565b6040516102cc91906117b0565b60405180910390f35b3480156102e0575f80fd5b506102fb60048036038101906102f691906119bb565b610c90565b005b61031760048036038101906103129190611a5a565b610d88565b005b348015610324575f80fd5b5061033f600480360381019061033a9190611ade565b610dde565b60405161034c9190611727565b60405180910390f35b348015610360575f80fd5b5061037b60048036038101906103769190611ade565b610e6c565b6040516103889190611727565b60405180910390f35b5f7f80ac58cd000000000000000000000000000000000000000000000000000000007bffffffffffffffffffffffffffffffffffffffffffffffffffffffff1916827bffffffffffffffffffffffffffffffffffffffffffffffffffffffff1916148061045b57507f01ffc9a7000000000000000000000000000000000000000000000000000000007bffffffffffffffffffffffffffffffffffffffffffffffffffffffff1916827bffffffffffffffffffffffffffffffffffffffffffffffffffffffff1916145b9050919050565b6005805461046f90611b49565b80601f016020809104026020016040519081016040528092919081815260200182805461049b90611b49565b80156104e65780601f106104bd576101008083540402835291602001916104e6565b820191905f5260205f20905b8154815290600101906020018083116104c957829003601f168201915b505050505081565b5f8073ffffffffffffffffffffffffffffffffffffffff1660015f8481526020019081526020015f205f9054906101000a900473ffffffffffffffffffffffffffffffffffffffff1673ffffffffffffffffffffffffffffffffffffffff160361058d576040517f08c379a000000000000000000000000000000000000000000000000000000000815260040161058490611bc3565b60405180910390fd5b60035f8381526020019081526020015f205f9054906101000a900473ffffffffffffffffffffffffffffffffffffffff169050919050565b5f60015f8381526020019081526020015f205f9054906101000a900473ffffffffffffffffffffffffffffffffffffffff1690508073ffffffffffffffffffffffffffffffffffffffff163373ffffffffffffffffffffffffffffffffffffffff1614806106b4575060045f8273ffffffffffffffffffffffffffffffffffffffff1673ffffffffffffffffffffffffffffffffffffffff1681526020019081526020015f205f3373ffffffffffffffffffffffffffffffffffffffff1673ffffffffffffffffffffffffffffffffffffffff1681526020019081526020015f205f9054906101000a900460ff165b6106f3576040517f08c379a00000000000000000000000000000000000000000000000000000000081526004016106ea90611c2b565b60405180910390fd5b8260035f8481526020019081526020015f205f6101000a81548173ffffffffffffffffffffffffffffffffffffffff021916908373ffffffffffffffffffffffffffffffffffffffff160217905550818373ffffffffffffffffffffffffffffffffffffffff168273ffffffffffffffffffffffffffffffffffffffff167f8c5be1e5ebec7d5bd14f71427d1e84f3dd0314c0f7b2291e5b200ac8c7c3b92560405160405180910390a4505050565b5f8054906101000a900473ffffffffffffffffffffffffffffffffffffffff1673ffffffffffffffffffffffffffffffffffffffff163373ffffffffffffffffffffffffffffffffffffffff161480610856575060015f8281526020019081526020015f205f9054906101000a900473ffffffffffffffffffffffffffffffffffffffff1673ffffffffffffffffffffffffffffffffffffffff163373ffffffffffffffffffffffffffffffffffffffff16145b806108bc575060035f8281526020019081526020015f205f9054906101000a900473ffffffffffffffffffffffffffffffffffffffff1673ffffffffffffffffffffffffffffffffffffffff163373ffffffffffffffffffffffffffffffffffffffff16145b80610978575060045f60015f8481526020019081526020015f205f9054906101000a900473ffffffffffffffffffffffffffffffffffffffff1673ffffffffffffffffffffffffffffffffffffffff1673ffffffffffffffffffffffffffffffffffffffff1681526020019081526020015f205f3373ffffffffffffffffffffffffffffffffffffffff1673ffffffffffffffffffffffffffffffffffffffff1681526020019081526020015f205f9054906101000a900460ff165b6109b7576040517f08c379a00000000000000000000000000000000000000000000000000000000081526004016109ae90611c2b565b60405180910390fd5b6109c2838383610e96565b505050565b5f8054906101000a900473ffffffffffffffffffffffffffffffffffffffff1673ffffffffffffffffffffffffffffffffffffffff163373ffffffffffffffffffffffffffffffffffffffff1614610a54576040517f08c379a0000000000000000000000000000000000000000000000000000000008152600401610a4b90611c93565b60405180910390fd5b610a5e828261112d565b5050565b610a7c83838360405180602001604052805f815250611339565b505050565b5f8054906101000a900473ffffffffffffffffffffffffffffffffffffffff1681565b5f8060015f8481526020019081526020015f205f9054906101000a900473ffffffffffffffffffffffffffffffffffffffff1690505f73ffffffffffffffffffffffffffffffffffffffff168173ffffffffffffffffffffffffffffffffffffffff1603610b47576040517f08c379a0000000000000000000000000000000000000000000000000000000008152600401610b3e90611bc3565b60405180910390fd5b80915050919050565b5f8073ffffffffffffffffffffffffffffffffffffffff168273ffffffffffffffffffffffffffffffffffffffff1603610bbf576040517f08c379a0000000000000000000000000000000000000000000000000000000008152600401610bb690611cfb565b60405180910390fd5b60025f8373ffffffffffffffffffffffffffffffffffffffff1673ffffffffffffffffffffffffffffffffffffffff1681526020019081526020015f20549050919050565b60068054610c1190611b49565b80601f0160208091040260200160405190810160405280929190818152602001828054610c3d90611b49565b8015610c885780601f10610c5f57610100808354040283529160200191610c88565b820191905f5260205f20905b815481529060010190602001808311610c6b57829003601f168201915b505050505081565b8060045f3373ffffffffffffffffffffffffffffffffffffffff1673ffffffffffffffffffffffffffffffffffffffff1681526020019081526020015f205f8473ffffffffffffffffffffffffffffffffffffffff1673ffffffffffffffffffffffffffffffffffffffff1681526020019081526020015f205f6101000a81548160ff0219169083151502179055508173ffffffffffffffffffffffffffffffffffffffff163373ffffffffffffffffffffffffffffffffffffffff167f17307eab39ab6107e8899845ad3d59bd9653f200f220920489ca2b5937696c3183604051610d7c9190611727565b60405180910390a35050565b610dd785858585858080601f0160208091040260200160405190810160405280939291908181526020018383808284375f81840152601f19601f82011690508083019250505050505050611339565b5050505050565b5f60045f8473ffffffffffffffffffffffffffffffffffffffff1673ffffffffffffffffffffffffffffffffffffffff1681526020019081526020015f205f8373ffffffffffffffffffffffffffffffffffffffff1673ffffffffffffffffffffffffffffffffffffffff1681526020019081526020015f205f9054906101000a900460ff16905092915050565b6004602052815f5260405f20602052805f5260405f205f915091509054906101000a900460ff1681565b5f60015f8381526020019081526020015f205f9054906101000a900473ffffffffffffffffffffffffffffffffffffffff1690508073ffffffffffffffffffffffffffffffffffffffff168473ffffffffffffffffffffffffffffffffffffffff1614610f38576040517f08c379a0000000000000000000000000000000000000000000000000000000008152600401610f2f90611d63565b60405180910390fd5b5f73ffffffffffffffffffffffffffffffffffffffff168373ffffffffffffffffffffffffffffffffffffffff1603610fa6576040517f08c379a0000000000000000000000000000000000000000000000000000000008152600401610f9d90611dcb565b60405180910390fd5b60025f8573ffffffffffffffffffffffffffffffffffffffff1673ffffffffffffffffffffffffffffffffffffffff1681526020019081526020015f205f815480929190610ff390611e16565b919050555060025f8473ffffffffffffffffffffffffffffffffffffffff1673ffffffffffffffffffffffffffffffffffffffff1681526020019081526020015f205f81548092919061104590611e3d565b91905055508260015f8481526020019081526020015f205f6101000a81548173ffffffffffffffffffffffffffffffffffffffff021916908373ffffffffffffffffffffffffffffffffffffffff16021790555060035f8381526020019081526020015f205f6101000a81549073ffffffffffffffffffffffffffffffffffffffff0219169055818373ffffffffffffffffffffffffffffffffffffffff168573ffffffffffffffffffffffffffffffffffffffff167fddf252ad1be2c89b69c2b068fc378daa952ba7f163c4a11628f55a4df523b3ef60405160405180910390a450505050565b5f73ffffffffffffffffffffffffffffffffffffffff168273ffffffffffffffffffffffffffffffffffffffff160361119b576040517f08c379a000000000000000000000000000000000000000000000000000000000815260040161119290611ece565b60405180910390fd5b5f73ffffffffffffffffffffffffffffffffffffffff1660015f8381526020019081526020015f205f9054906101000a900473ffffffffffffffffffffffffffffffffffffffff1673ffffffffffffffffffffffffffffffffffffffff1614611239576040517f08c379a000000000000000000000000000000000000000000000000000000000815260040161123090611f36565b60405180910390fd5b60025f8373ffffffffffffffffffffffffffffffffffffffff1673ffffffffffffffffffffffffffffffffffffffff1681526020019081526020015f205f81548092919061128690611e3d565b91905055508160015f8381526020019081526020015f205f6101000a81548173ffffffffffffffffffffffffffffffffffffffff021916908373ffffffffffffffffffffffffffffffffffffffff160217905550808273ffffffffffffffffffffffffffffffffffffffff165f73ffffffffffffffffffffffffffffffffffffffff167fddf252ad1be2c89b69c2b068fc378daa952ba7f163c4a11628f55a4df523b3ef60405160405180910390a45050565b5f8054906101000a900473ffffffffffffffffffffffffffffffffffffffff1673ffffffffffffffffffffffffffffffffffffffff163373ffffffffffffffffffffffffffffffffffffffff1614806113ed575060015f8381526020019081526020015f205f9054906101000a900473ffffffffffffffffffffffffffffffffffffffff1673ffffffffffffffffffffffffffffffffffffffff163373ffffffffffffffffffffffffffffffffffffffff16145b80611453575060035f8381526020019081526020015f205f9054906101000a900473ffffffffffffffffffffffffffffffffffffffff1673ffffffffffffffffffffffffffffffffffffffff163373ffffffffffffffffffffffffffffffffffffffff16145b8061150f575060045f60015f8581526020019081526020015f205f9054906101000a900473ffffffffffffffffffffffffffffffffffffffff1673ffffffffffffffffffffffffffffffffffffffff1673ffffffffffffffffffffffffffffffffffffffff1681526020019081526020015f205f3373ffffffffffffffffffffffffffffffffffffffff1673ffffffffffffffffffffffffffffffffffffffff1681526020019081526020015f205f9054906101000a900460ff165b61154e576040517f08c379a000000000000000000000000000000000000000000000000000000000815260040161154590611c2b565b60405180910390fd5b611559848484610e96565b5f8373ffffffffffffffffffffffffffffffffffffffff163b1480611640575063150b7a0260e01b7bffffffffffffffffffffffffffffffffffffffffffffffffffffffff19168373ffffffffffffffffffffffffffffffffffffffff1663150b7a02338786866040518563ffffffff1660e01b81526004016115df9493929190611fa6565b6020604051808303815f875af11580156115fb573d5f803e3d5ffd5b505050506040513d601f19601f8201168201806040525081019061161f9190612004565b7bffffffffffffffffffffffffffffffffffffffffffffffffffffffff1916145b61167f576040517f08c379a000000000000000000000000000000000000000000000000000000000815260040161167690612079565b60405180910390fd5b50505050565b5f80fd5b5f80fd5b5f7fffffffff0000000000000000000000000000000000000000000000000000000082169050919050565b6116c18161168d565b81146116cb575f80fd5b50565b5f813590506116dc816116b8565b92915050565b5f602082840312156116f7576116f6611685565b5b5f611704848285016116ce565b91505092915050565b5f8115159050919050565b6117218161170d565b82525050565b5f60208201905061173a5f830184611718565b92915050565b5f81519050919050565b5f82825260208201905092915050565b8281835e5f83830152505050565b5f601f19601f8301169050919050565b5f61178282611740565b61178c818561174a565b935061179c81856020860161175a565b6117a581611768565b840191505092915050565b5f6020820190508181035f8301526117c88184611778565b905092915050565b5f819050919050565b6117e2816117d0565b81146117ec575f80fd5b50565b5f813590506117fd816117d9565b92915050565b5f6020828403121561181857611817611685565b5b5f611825848285016117ef565b91505092915050565b5f73ffffffffffffffffffffffffffffffffffffffff82169050919050565b5f6118578261182e565b9050919050565b6118678161184d565b82525050565b5f6020820190506118805f83018461185e565b92915050565b61188f8161184d565b8114611899575f80fd5b50565b5f813590506118aa81611886565b92915050565b5f80604083850312156118c6576118c5611685565b5b5f6118d38582860161189c565b92505060206118e4858286016117ef565b9150509250929050565b5f805f6060848603121561190557611904611685565b5b5f6119128682870161189c565b93505060206119238682870161189c565b9250506040611934868287016117ef565b9150509250925092565b5f6020828403121561195357611952611685565b5b5f6119608482850161189c565b91505092915050565b611972816117d0565b82525050565b5f60208201905061198b5f830184611969565b92915050565b61199a8161170d565b81146119a4575f80fd5b50565b5f813590506119b581611991565b92915050565b5f80604083850312156119d1576119d0611685565b5b5f6119de8582860161189c565b92505060206119ef858286016119a7565b9150509250929050565b5f80fd5b5f80fd5b5f80fd5b5f8083601f840112611a1a57611a196119f9565b5b8235905067ffffffffffffffff811115611a3757611a366119fd565b5b602083019150836001820283011115611a5357611a52611a01565b5b9250929050565b5f805f805f60808688031215611a7357611a72611685565b5b5f611a808882890161189c565b9550506020611a918882890161189c565b9450506040611aa2888289016117ef565b935050606086013567ffffffffffffffff811115611ac357611ac2611689565b5b611acf88828901611a05565b92509250509295509295909350565b5f8060408385031215611af457611af3611685565b5b5f611b018582860161189c565b9250506020611b128582860161189c565b9150509250929050565b7f4e487b71000000000000000000000000000000000000000000000000000000005f52602260045260245ffd5b5f6002820490506001821680611b6057607f821691505b602082108103611b7357611b72611b1c565b5b50919050565b7f746f6b656e20646f65736e2774206578697374000000000000000000000000005f82015250565b5f611bad60138361174a565b9150611bb882611b79565b602082019050919050565b5f6020820190508181035f830152611bda81611ba1565b9050919050565b7f6e6f7420617574686f72697a65640000000000000000000000000000000000005f82015250565b5f611c15600e8361174a565b9150611c2082611be1565b602082019050919050565b5f6020820190508181035f830152611c4281611c09565b9050919050565b7f6e6f7420616e20617574686f72697a6564206d696e74657200000000000000005f82015250565b5f611c7d60188361174a565b9150611c8882611c49565b602082019050919050565b5f6020820190508181035f830152611caa81611c71565b9050919050565b7f62616c616e636520717565727920666f72207a65726f206164647265737300005f82015250565b5f611ce5601e8361174a565b9150611cf082611cb1565b602082019050919050565b5f6020820190508181035f830152611d1281611cd9565b9050919050565b7f66726f6d20213d206f776e6572000000000000000000000000000000000000005f82015250565b5f611d4d600d8361174a565b9150611d5882611d19565b602082019050919050565b5f6020820190508181035f830152611d7a81611d41565b9050919050565b7f7472616e7366657220746f207a65726f206164647265737300000000000000005f82015250565b5f611db560188361174a565b9150611dc082611d81565b602082019050919050565b5f6020820190508181035f830152611de281611da9565b9050919050565b7f4e487b71000000000000000000000000000000000000000000000000000000005f52601160045260245ffd5b5f611e20826117d0565b91505f8203611e3257611e31611de9565b5b600182039050919050565b5f611e47826117d0565b91507fffffffffffffffffffffffffffffffffffffffffffffffffffffffffffffffff8203611e7957611e78611de9565b5b600182019050919050565b7f6d696e7420746f207a65726f20616464726573730000000000000000000000005f82015250565b5f611eb860148361174a565b9150611ec382611e84565b602082019050919050565b5f6020820190508181035f830152611ee581611eac565b9050919050565b7f616c7265616479206d696e7465640000000000000000000000000000000000005f82015250565b5f611f20600e8361174a565b9150611f2b82611eec565b602082019050919050565b5f6020820190508181035f830152611f4d81611f14565b9050919050565b5f81519050919050565b5f82825260208201905092915050565b5f611f7882611f54565b611f828185611f5e565b9350611f9281856020860161175a565b611f9b81611768565b840191505092915050565b5f608082019050611fb95f83018761185e565b611fc6602083018661185e565b611fd36040830185611969565b8181036060830152611fe58184611f6e565b905095945050505050565b5f81519050611ffe816116b8565b92915050565b5f6020828403121561201957612018611685565b5b5f61202684828501611ff0565b91505092915050565b7f756e7361666520726563697069656e74000000000000000000000000000000005f82015250565b5f61206360108361174a565b915061206e8261202f565b602082019050919050565b5f6020820190508181035f83015261209081612057565b905091905056fea26469706673582212208aa787333e60ab046e10d767d1c295be116aebe4a11a3f80472f1919440a249464736f6c634300081a0033",
					"opcodes": "PUSH1 0x80 PUSH1 0x40 MSTORE CALLVALUE DUP1 ISZERO PUSH2 0xF JUMPI PUSH0 DUP1 REVERT JUMPDEST POP PUSH1 0x40 MLOAD PUSH2 0x29A2 CODESIZE SUB DUP1 PUSH2 0x29A2 DUP4 CODECOPY DUP2 DUP2 ADD PUSH1 0x40 MSTORE DUP2 ADD SWAP1 PUSH2 0x31 SWAP2 SWAP1 PUSH2 0x422 JUMP JUMPDEST CALLER PUSH0 DUP1 PUSH2 0x100 EXP DUP2 SLOAD DUP2 PUSH20 0xFFFFFFFFFFFFFFFFFFFFFFFFFFFFFFFFFFFFFFFF MUL NOT AND SWAP1 DUP4 PUSH20 0xFFFFFFFFFFFFFFFFFFFFFFFFFFFFFFFFFFFFFFFF AND MUL OR SWAP1 SSTORE POP DUP2 PUSH1 0x5 SWAP1 DUP2 PUSH2 0x7F SWAP2 SWAP1 PUSH2 0x6A5 JUMP JUMPDEST POP DUP1 PUSH1 0x6 SWAP1 DUP2 PUSH2 0x8F SWAP2 SWAP1 PUSH2 0x6A5 JUMP JUMPDEST POP PUSH0 PUSH1 0x1 SWAP1 POP JUMPDEST PUSH1 0x5 DUP2 GT PUSH2 0xC1 JUMPI PUSH2 0xAE CALLER DUP3 PUSH2 0xC9 PUSH1 0x20 SHL PUSH1 0x20 SHR JUMP JUMPDEST DUP1 DUP1 PUSH2 0xB9 SWAP1 PUSH2 0x7A1 JUMP JUMPDEST SWAP2 POP POP PUSH2 0x96 JUMP JUMPDEST POP POP POP PUSH2 0x8C8 JUMP JUMPDEST PUSH0 PUSH20 0xFFFFFFFFFFFFFFFFFFFFFFFFFFFFFFFFFFFFFFFF AND DUP3 PUSH20 0xFFFFFFFFFFFFFFFFFFFFFFFFFFFFFFFFFFFFFFFF AND SUB PUSH2 0x137 JUMPI PUSH1 0x40 MLOAD PUSH32 0x8C379A000000000000000000000000000000000000000000000000000000000 DUP2 MSTORE PUSH1 0x4 ADD PUSH2 0x12E SWAP1 PUSH2 0x842 JUMP JUMPDEST PUSH1 0x40 MLOAD DUP1 SWAP2 SUB SWAP1 REVERT JUMPDEST PUSH0 PUSH20 0xFFFFFFFFFFFFFFFFFFFFFFFFFFFFFFFFFFFFFFFF AND PUSH1 0x1 PUSH0 DUP4 DUP2 MSTORE PUSH1 0x20 ADD SWAP1 DUP2 MSTORE PUSH1 0x20 ADD PUSH0 KECCAK256 PUSH0 SWAP1 SLOAD SWAP1 PUSH2 0x100 EXP SWAP1 DIV PUSH20 0xFFFFFFFFFFFFFFFFFFFFFFFFFFFFFFFFFFFFFFFF AND PUSH20 0xFFFFFFFFFFFFFFFFFFFFFFFFFFFFFFFFFFFFFFFF AND EQ PUSH2 0x1D5 JUMPI PUSH1 0x40 MLOAD PUSH32 0x8C379A000000000000000000000000000000000000000000000000000000000 DUP2 MSTORE PUSH1 0x4 ADD PUSH2 0x1CC SWAP1 PUSH2 0x8AA JUMP JUMPDEST PUSH1 0x40 MLOAD DUP1 SWAP2 SUB SWAP1 REVERT JUMPDEST PUSH1 0x2 PUSH0 DUP4 PUSH20 0xFFFFFFFFFFFFFFFFFFFFFFFFFFFFFFFFFFFFFFFF AND PUSH20 0xFFFFFFFFFFFFFFFFFFFFFFFFFFFFFFFFFFFFFFFF AND DUP2 MSTORE PUSH1 0x20 ADD SWAP1 DUP2 MSTORE PUSH1 0x20 ADD PUSH0 KECCAK256 PUSH0 DUP2 SLOAD DUP1 SWAP3 SWAP2 SWAP1 PUSH2 0x222 SWAP1 PUSH2 0x7A1 JUMP JUMPDEST SWAP2 SWAP1 POP SSTORE POP DUP2 PUSH1 0x1 PUSH0 DUP4 DUP2 MSTORE PUSH1 0x20 ADD SWAP1 DUP2 MSTORE PUSH1 0x20 ADD PUSH0 KECCAK256 PUSH0 PUSH2 0x100 EXP DUP2 SLOAD DUP2 PUSH20 0xFFFFFFFFFFFFFFFFFFFFFFFFFFFFFFFFFFFFFFFF MUL NOT AND SWAP1 DUP4 PUSH20 0xFFFFFFFFFFFFFFFFFFFFFFFFFFFFFFFFFFFFFFFF AND MUL OR SWAP1 SSTORE POP DUP1 DUP3 PUSH20 0xFFFFFFFFFFFFFFFFFFFFFFFFFFFFFFFFFFFFFFFF AND PUSH0 PUSH20 0xFFFFFFFFFFFFFFFFFFFFFFFFFFFFFFFFFFFFFFFF AND PUSH32 0xDDF252AD1BE2C89B69C2B068FC378DAA952BA7F163C4A11628F55A4DF523B3EF PUSH1 0x40 MLOAD PUSH1 0x40 MLOAD DUP1 SWAP2 SUB SWAP1 LOG4 POP POP JUMP JUMPDEST PUSH0 PUSH1 0x40 MLOAD SWAP1 POP SWAP1 JUMP JUMPDEST PUSH0 DUP1 REVERT JUMPDEST PUSH0 DUP1 REVERT JUMPDEST PUSH0 DUP1 REVERT JUMPDEST PUSH0 DUP1 REVERT JUMPDEST PUSH0 PUSH1 0x1F NOT PUSH1 0x1F DUP4 ADD AND SWAP1 POP SWAP2 SWAP1 POP JUMP JUMPDEST PUSH32 0x4E487B7100000000000000000000000000000000000000000000000000000000 PUSH0 MSTORE PUSH1 0x41 PUSH1 0x4 MSTORE PUSH1 0x24 PUSH0 REVERT JUMPDEST PUSH2 0x334 DUP3 PUSH2 0x2EE JUMP JUMPDEST DUP2 ADD DUP2 DUP2 LT PUSH8 0xFFFFFFFFFFFFFFFF DUP3 GT OR ISZERO PUSH2 0x353 JUMPI PUSH2 0x352 PUSH2 0x2FE JUMP JUMPDEST JUMPDEST DUP1 PUSH1 0x40 MSTORE POP POP POP JUMP JUMPDEST PUSH0 PUSH2 0x365 PUSH2 0x2D5 JUMP JUMPDEST SWAP1 POP PUSH2 0x371 DUP3 DUP3 PUSH2 0x32B JUMP JUMPDEST SWAP2 SWAP1 POP JUMP JUMPDEST PUSH0 PUSH8 0xFFFFFFFFFFFFFFFF DUP3 GT ISZERO PUSH2 0x390 JUMPI PUSH2 0x38F PUSH2 0x2FE JUMP JUMPDEST JUMPDEST PUSH2 0x399 DUP3 PUSH2 0x2EE JUMP JUMPDEST SWAP1 POP PUSH1 0x20 DUP2 ADD SWAP1 POP SWAP2 SWAP1 POP JUMP JUMPDEST DUP3 DUP2 DUP4 MCOPY PUSH0 DUP4 DUP4 ADD MSTORE POP POP POP JUMP JUMPDEST PUSH0 PUSH2 0x3C6 PUSH2 0x3C1 DUP5 PUSH2 0x376 JUMP JUMPDEST PUSH2 0x35C JUMP JUMPDEST SWAP1 POP DUP3 DUP2 MSTORE PUSH1 0x20 DUP2 ADD DUP5 DUP5 DUP5 ADD GT ISZERO PUSH2 0x3E2 JUMPI PUSH2 0x3E1 PUSH2 0x2EA JUMP JUMPDEST JUMPDEST PUSH2 0x3ED DUP5 DUP3 DUP6 PUSH2 0x3A6 JUMP JUMPDEST POP SWAP4 SWAP3 POP POP POP JUMP JUMPDEST PUSH0 DUP3 PUSH1 0x1F DUP4 ADD SLT PUSH2 0x409 JUMPI PUSH2 0x408 PUSH2 0x2E6 JUMP JUMPDEST JUMPDEST DUP2 MLOAD PUSH2 0x419 DUP5 DUP3 PUSH1 0x20 DUP7 ADD PUSH2 0x3B4 JUMP JUMPDEST SWAP2 POP POP SWAP3 SWAP2 POP POP JUMP JUMPDEST PUSH0 DUP1 PUSH1 0x40 DUP4 DUP6 SUB SLT ISZERO PUSH2 0x438 JUMPI PUSH2 0x437 PUSH2 0x2DE JUMP JUMPDEST JUMPDEST PUSH0 DUP4 ADD MLOAD PUSH8 0xFFFFFFFFFFFFFFFF DUP2 GT ISZERO PUSH2 0x455 JUMPI PUSH2 0x454 PUSH2 0x2E2 JUMP JUMPDEST JUMPDEST PUSH2 0x461 DUP6 DUP3 DUP7 ADD PUSH2 0x3F5 JUMP JUMPDEST SWAP3 POP POP PUSH1 0x20 DUP4 ADD MLOAD PUSH8 0xFFFFFFFFFFFFFFFF DUP2 GT ISZERO PUSH2 0x482 JUMPI PUSH2 0x481 PUSH2 0x2E2 JUMP JUMPDEST JUMPDEST PUSH2 0x48E DUP6 DUP3 DUP7 ADD PUSH2 0x3F5 JUMP JUMPDEST SWAP2 POP POP SWAP3 POP SWAP3 SWAP1 POP JUMP JUMPDEST PUSH0 DUP2 MLOAD SWAP1 POP SWAP2 SWAP1 POP JUMP JUMPDEST PUSH32 0x4E487B7100000000000000000000000000000000000000000000000000000000 PUSH0 MSTORE PUSH1 0x22 PUSH1 0x4 MSTORE PUSH1 0x24 PUSH0 REVERT JUMPDEST PUSH0 PUSH1 0x2 DUP3 DIV SWAP1 POP PUSH1 0x1 DUP3 AND DUP1 PUSH2 0x4E6 JUMPI PUSH1 0x7F DUP3 AND SWAP2 POP JUMPDEST PUSH1 0x20 DUP3 LT DUP2 SUB PUSH2 0x4F9 JUMPI PUSH2 0x4F8 PUSH2 0x4A2 JUMP JUMPDEST JUMPDEST POP SWAP2 SWAP1 POP JUMP JUMPDEST PUSH0 DUP2 SWAP1 POP DUP2 PUSH0 MSTORE PUSH1 0x20 PUSH0 KECCAK256 SWAP1 POP SWAP2 SWAP1 POP JUMP JUMPDEST PUSH0 PUSH1 0x20 PUSH1 0x1F DUP4 ADD DIV SWAP1 POP SWAP2 SWAP1 POP JUMP JUMPDEST PUSH0 DUP3 DUP3 SHL SWAP1 POP SWAP3 SWAP2 POP POP JUMP JUMPDEST PUSH0 PUSH1 0x8 DUP4 MUL PUSH2 0x55B PUSH32 0xFFFFFFFFFFFFFFFFFFFFFFFFFFFFFFFFFFFFFFFFFFFFFFFFFFFFFFFFFFFFFFFF DUP3 PUSH2 0x520 JUMP JUMPDEST PUSH2 0x565 DUP7 DUP4 PUSH2 0x520 JUMP JUMPDEST SWAP6 POP DUP1 NOT DUP5 AND SWAP4 POP DUP1 DUP7 AND DUP5 OR SWAP3 POP POP POP SWAP4 SWAP3 POP POP POP JUMP JUMPDEST PUSH0 DUP2 SWAP1 POP SWAP2 SWAP1 POP JUMP JUMPDEST PUSH0 DUP2 SWAP1 POP SWAP2 SWAP1 POP JUMP JUMPDEST PUSH0 PUSH2 0x5A9 PUSH2 0x5A4 PUSH2 0x59F DUP5 PUSH2 0x57D JUMP JUMPDEST PUSH2 0x586 JUMP JUMPDEST PUSH2 0x57D JUMP JUMPDEST SWAP1 POP SWAP2 SWAP1 POP JUMP JUMPDEST PUSH0 DUP2 SWAP1 POP SWAP2 SWAP1 POP JUMP JUMPDEST PUSH2 0x5C2 DUP4 PUSH2 0x58F JUMP JUMPDEST PUSH2 0x5D6 PUSH2 0x5CE DUP3 PUSH2 0x5B0 JUMP JUMPDEST DUP5 DUP5 SLOAD PUSH2 0x52C JUMP JUMPDEST DUP3 SSTORE POP POP POP POP JUMP JUMPDEST PUSH0 SWAP1 JUMP JUMPDEST PUSH2 0x5EA PUSH2 0x5DE JUMP JUMPDEST PUSH2 0x5F5 DUP2 DUP5 DUP5 PUSH2 0x5B9 JUMP JUMPDEST POP POP POP JUMP JUMPDEST JUMPDEST DUP2 DUP2 LT ISZERO PUSH2 0x618 JUMPI PUSH2 0x60D PUSH0 DUP3 PUSH2 0x5E2 JUMP JUMPDEST PUSH1 0x1 DUP2 ADD SWAP1 POP PUSH2 0x5FB JUMP JUMPDEST POP POP JUMP JUMPDEST PUSH1 0x1F DUP3 GT ISZERO PUSH2 0x65D JUMPI PUSH2 0x62E DUP2 PUSH2 0x4FF JUMP JUMPDEST PUSH2 0x637 DUP5 PUSH2 0x511 JUMP JUMPDEST DUP2 ADD PUSH1 0x20 DUP6 LT ISZERO PUSH2 0x646 JUMPI DUP2 SWAP1 POP JUMPDEST PUSH2 0x65A PUSH2 0x652 DUP6 PUSH2 0x511 JUMP JUMPDEST DUP4 ADD DUP3 PUSH2 0x5FA JUMP JUMPDEST POP POP JUMPDEST POP POP POP JUMP JUMPDEST PUSH0 DUP3 DUP3 SHR SWAP1 POP SWAP3 SWAP2 POP POP JUMP JUMPDEST PUSH0 PUSH2 0x67D PUSH0 NOT DUP5 PUSH1 0x8 MUL PUSH2 0x662 JUMP JUMPDEST NOT DUP1 DUP4 AND SWAP2 POP POP SWAP3 SWAP2 POP POP JUMP JUMPDEST PUSH0 PUSH2 0x695 DUP4 DUP4 PUSH2 0x66E JUMP JUMPDEST SWAP2 POP DUP3 PUSH1 0x2 MUL DUP3 OR SWAP1 POP SWAP3 SWAP2 POP POP JUMP JUMPDEST PUSH2 0x6AE DUP3 PUSH2 0x498 JUMP JUMPDEST PUSH8 0xFFFFFFFFFFFFFFFF DUP2 GT ISZERO PUSH2 0x6C7 JUMPI PUSH2 0x6C6 PUSH2 0x2FE JUMP JUMPDEST JUMPDEST PUSH2 0x6D1 DUP3 SLOAD PUSH2 0x4CF JUMP JUMPDEST PUSH2 0x6DC DUP3 DUP3 DUP6 PUSH2 0x61C JUMP JUMPDEST PUSH0 PUSH1 0x20 SWAP1 POP PUSH1 0x1F DUP4 GT PUSH1 0x1 DUP2 EQ PUSH2 0x70D JUMPI PUSH0 DUP5 ISZERO PUSH2 0x6FB JUMPI DUP3 DUP8 ADD MLOAD SWAP1 POP JUMPDEST PUSH2 0x705 DUP6 DUP3 PUSH2 0x68A JUMP JUMPDEST DUP7 SSTORE POP PUSH2 0x76C JUMP JUMPDEST PUSH1 0x1F NOT DUP5 AND PUSH2 0x71B DUP7 PUSH2 0x4FF JUMP JUMPDEST PUSH0 JUMPDEST DUP3 DUP2 LT ISZERO PUSH2 0x742 JUMPI DUP5 DUP10 ADD MLOAD DUP3 SSTORE PUSH1 0x1 DUP3 ADD SWAP2 POP PUSH1 0x20 DUP6 ADD SWAP5 POP PUSH1 0x20 DUP2 ADD SWAP1 POP PUSH2 0x71D JUMP JUMPDEST DUP7 DUP4 LT ISZERO PUSH2 0x75F JUMPI DUP5 DUP10 ADD MLOAD PUSH2 0x75B PUSH1 0x1F DUP10 AND DUP3 PUSH2 0x66E JUMP JUMPDEST DUP4 SSTORE POP JUMPDEST PUSH1 0x1 PUSH1 0x2 DUP9 MUL ADD DUP9 SSTORE POP POP POP JUMPDEST POP POP POP POP POP POP JUMP JUMPDEST PUSH32 0x4E487B7100000000000000000000000000000000000000000000000000000000 PUSH0 MSTORE PUSH1 0x11 PUSH1 0x4 MSTORE PUSH1 0x24 PUSH0 REVERT JUMPDEST PUSH0 PUSH2 0x7AB DUP3 PUSH2 0x57D JUMP JUMPDEST SWAP2 POP PUSH32 0xFFFFFFFFFFFFFFFFFFFFFFFFFFFFFFFFFFFFFFFFFFFFFFFFFFFFFFFFFFFFFFFF DUP3 SUB PUSH2 0x7DD JUMPI PUSH2 0x7DC PUSH2 0x774 JUMP JUMPDEST JUMPDEST PUSH1 0x1 DUP3 ADD SWAP1 POP SWAP2 SWAP1 POP JUMP JUMPDEST PUSH0 DUP3 DUP3 MSTORE PUSH1 0x20 DUP3 ADD SWAP1 POP SWAP3 SWAP2 POP POP JUMP JUMPDEST PUSH32 0x6D696E7420746F207A65726F2061646472657373000000000000000000000000 PUSH0 DUP3 ADD MSTORE POP JUMP JUMPDEST PUSH0 PUSH2 0x82C PUSH1 0x14 DUP4 PUSH2 0x7E8 JUMP JUMPDEST SWAP2 POP PUSH2 0x837 DUP3 PUSH2 0x7F8 JUMP JUMPDEST PUSH1 0x20 DUP3 ADD SWAP1 POP SWAP2 SWAP1 POP JUMP JUMPDEST PUSH0 PUSH1 0x20 DUP3 ADD SWAP1 POP DUP2 DUP2 SUB PUSH0 DUP4 ADD MSTORE PUSH2 0x859 DUP2 PUSH2 0x820 JUMP JUMPDEST SWAP1 POP SWAP2 SWAP1 POP JUMP JUMPDEST PUSH32 0x616C7265616479206D696E746564000000000000000000000000000000000000 PUSH0 DUP3 ADD MSTORE POP JUMP JUMPDEST PUSH0 PUSH2 0x894 PUSH1 0xE DUP4 PUSH2 0x7E8 JUMP JUMPDEST SWAP2 POP PUSH2 0x89F DUP3 PUSH2 0x860 JUMP JUMPDEST PUSH1 0x20 DUP3 ADD SWAP1 POP SWAP2 SWAP1 POP JUMP JUMPDEST PUSH0 PUSH1 0x20 DUP3 ADD SWAP1 POP DUP2 DUP2 SUB PUSH0 DUP4 ADD MSTORE PUSH2 0x8C1 DUP2 PUSH2 0x888 JUMP JUMPDEST SWAP1 POP SWAP2 SWAP1 POP JUMP JUMPDEST PUSH2 0x20CD DUP1 PUSH2 0x8D5 PUSH0 CODECOPY PUSH0 RETURN INVALID PUSH1 0x80 PUSH1 0x40 MSTORE PUSH1 0x4 CALLDATASIZE LT PUSH2 0xE7 JUMPI PUSH0 CALLDATALOAD PUSH1 0xE0 SHR DUP1 PUSH4 0x4D853EE5 GT PUSH2 0x89 JUMPI DUP1 PUSH4 0xA22CB465 GT PUSH2 0x58 JUMPI DUP1 PUSH4 0xA22CB465 EQ PUSH2 0x2D5 JUMPI DUP1 PUSH4 0xB88D4FDE EQ PUSH2 0x2FD JUMPI DUP1 PUSH4 0xE985E9C5 EQ PUSH2 0x319 JUMPI DUP1 PUSH4 0xEDC3BC3F EQ PUSH2 0x355 JUMPI PUSH2 0xE7 JUMP JUMPDEST DUP1 PUSH4 0x4D853EE5 EQ PUSH2 0x209 JUMPI DUP1 PUSH4 0x6352211E EQ PUSH2 0x233 JUMPI DUP1 PUSH4 0x70A08231 EQ PUSH2 0x26F JUMPI DUP1 PUSH4 0x95D89B41 EQ PUSH2 0x2AB JUMPI PUSH2 0xE7 JUMP JUMPDEST DUP1 PUSH4 0x95EA7B3 GT PUSH2 0xC5 JUMPI DUP1 PUSH4 0x95EA7B3 EQ PUSH2 0x18D JUMPI DUP1 PUSH4 0x23B872DD EQ PUSH2 0x1A9 JUMPI DUP1 PUSH4 0x3C168EAB EQ PUSH2 0x1C5 JUMPI DUP1 PUSH4 0x42842E0E EQ PUSH2 0x1ED JUMPI PUSH2 0xE7 JUMP JUMPDEST DUP1 PUSH4 0x1FFC9A7 EQ PUSH2 0xEB JUMPI DUP1 PUSH4 0x6FDDE03 EQ PUSH2 0x127 JUMPI DUP1 PUSH4 0x81812FC EQ PUSH2 0x151 JUMPI JUMPDEST PUSH0 DUP1 REVERT JUMPDEST CALLVALUE DUP1 ISZERO PUSH2 0xF6 JUMPI PUSH0 DUP1 REVERT JUMPDEST POP PUSH2 0x111 PUSH1 0x4 DUP1 CALLDATASIZE SUB DUP2 ADD SWAP1 PUSH2 0x10C SWAP2 SWAP1 PUSH2 0x16E2 JUMP JUMPDEST PUSH2 0x391 JUMP JUMPDEST PUSH1 0x40 MLOAD PUSH2 0x11E SWAP2 SWAP1 PUSH2 0x1727 JUMP JUMPDEST PUSH1 0x40 MLOAD DUP1 SWAP2 SUB SWAP1 RETURN JUMPDEST CALLVALUE DUP1 ISZERO PUSH2 0x132 JUMPI PUSH0 DUP1 REVERT JUMPDEST POP PUSH2 0x13B PUSH2 0x462 JUMP JUMPDEST PUSH1 0x40 MLOAD PUSH2 0x148 SWAP2 SWAP1 PUSH2 0x17B0 JUMP JUMPDEST PUSH1 0x40 MLOAD DUP1 SWAP2 SUB SWAP1 RETURN JUMPDEST CALLVALUE DUP1 ISZERO PUSH2 0x15C JUMPI PUSH0 DUP1 REVERT JUMPDEST POP PUSH2 0x177 PUSH1 0x4 DUP1 CALLDATASIZE SUB DUP2 ADD SWAP1 PUSH2 0x172 SWAP2 SWAP1 PUSH2 0x1803 JUMP JUMPDEST PUSH2 0x4EE JUMP JUMPDEST PUSH1 0x40 MLOAD PUSH2 0x184 SWAP2 SWAP1 PUSH2 0x186D JUMP JUMPDEST PUSH1 0x40 MLOAD DUP1 SWAP2 SUB SWAP1 RETURN JUMPDEST PUSH2 0x1A7 PUSH1 0x4 DUP1 CALLDATASIZE SUB DUP2 ADD SWAP1 PUSH2 0x1A2 SWAP2 SWAP1 PUSH2 0x18B0 JUMP JUMPDEST PUSH2 0x5C5 JUMP JUMPDEST STOP JUMPDEST PUSH2 0x1C3 PUSH1 0x4 DUP1 CALLDATASIZE SUB DUP2 ADD SWAP1 PUSH2 0x1BE SWAP2 SWAP1 PUSH2 0x18EE JUMP JUMPDEST PUSH2 0x7A2 JUMP JUMPDEST STOP JUMPDEST CALLVALUE DUP1 ISZERO PUSH2 0x1D0 JUMPI PUSH0 DUP1 REVERT JUMPDEST POP PUSH2 0x1EB PUSH1 0x4 DUP1 CALLDATASIZE SUB DUP2 ADD SWAP1 PUSH2 0x1E6 SWAP2 SWAP1 PUSH2 0x18B0 JUMP JUMPDEST PUSH2 0x9C7 JUMP JUMPDEST STOP JUMPDEST PUSH2 0x207 PUSH1 0x4 DUP1 CALLDATASIZE SUB DUP2 ADD SWAP1 PUSH2 0x202 SWAP2 SWAP1 PUSH2 0x18EE JUMP JUMPDEST PUSH2 0xA62 JUMP JUMPDEST STOP JUMPDEST CALLVALUE DUP1 ISZERO PUSH2 0x214 JUMPI PUSH0 DUP1 REVERT JUMPDEST POP PUSH2 0x21D PUSH2 0xA81 JUMP JUMPDEST PUSH1 0x40 MLOAD PUSH2 0x22A SWAP2 SWAP1 PUSH2 0x186D JUMP JUMPDEST PUSH1 0x40 MLOAD DUP1 SWAP2 SUB SWAP1 RETURN JUMPDEST CALLVALUE DUP1 ISZERO PUSH2 0x23E JUMPI PUSH0 DUP1 REVERT JUMPDEST POP PUSH2 0x259 PUSH1 0x4 DUP1 CALLDATASIZE SUB DUP2 ADD SWAP1 PUSH2 0x254 SWAP2 SWAP1 PUSH2 0x1803 JUMP JUMPDEST PUSH2 0xAA4 JUMP JUMPDEST PUSH1 0x40 MLOAD PUSH2 0x266 SWAP2 SWAP1 PUSH2 0x186D JUMP JUMPDEST PUSH1 0x40 MLOAD DUP1 SWAP2 SUB SWAP1 RETURN JUMPDEST CALLVALUE DUP1 ISZERO PUSH2 0x27A JUMPI PUSH0 DUP1 REVERT JUMPDEST POP PUSH2 0x295 PUSH1 0x4 DUP1 CALLDATASIZE SUB DUP2 ADD SWAP1 PUSH2 0x290 SWAP2 SWAP1 PUSH2 0x193E JUMP JUMPDEST PUSH2 0xB50 JUMP JUMPDEST PUSH1 0x40 MLOAD PUSH2 0x2A2 SWAP2 SWAP1 PUSH2 0x1978 JUMP JUMPDEST PUSH1 0x40 MLOAD DUP1 SWAP2 SUB SWAP1 RETURN JUMPDEST CALLVALUE DUP1 ISZERO PUSH2 0x2B6 JUMPI PUSH0 DUP1 REVERT JUMPDEST POP PUSH2 0x2BF PUSH2 0xC04 JUMP JUMPDEST PUSH1 0x40 MLOAD PUSH2 0x2CC SWAP2 SWAP1 PUSH2 0x17B0 JUMP JUMPDEST PUSH1 0x40 MLOAD DUP1 SWAP2 SUB SWAP1 RETURN JUMPDEST CALLVALUE DUP1 ISZERO PUSH2 0x2E0 JUMPI PUSH0 DUP1 REVERT JUMPDEST POP PUSH2 0x2FB PUSH1 0x4 DUP1 CALLDATASIZE SUB DUP2 ADD SWAP1 PUSH2 0x2F6 SWAP2 SWAP1 PUSH2 0x19BB JUMP JUMPDEST PUSH2 0xC90 JUMP JUMPDEST STOP JUMPDEST PUSH2 0x317 PUSH1 0x4 DUP1 CALLDATASIZE SUB DUP2 ADD SWAP1 PUSH2 0x312 SWAP2 SWAP1 PUSH2 0x1A5A JUMP JUMPDEST PUSH2 0xD88 JUMP JUMPDEST STOP JUMPDEST CALLVALUE DUP1 ISZERO PUSH2 0x324 JUMPI PUSH0 DUP1 REVERT JUMPDEST POP PUSH2 0x33F PUSH1 0x4 DUP1 CALLDATASIZE SUB DUP2 ADD SWAP1 PUSH2 0x33A SWAP2 SWAP1 PUSH2 0x1ADE JUMP JUMPDEST PUSH2 0xDDE JUMP JUMPDEST PUSH1 0x40 MLOAD PUSH2 0x34C SWAP2 SWAP1 PUSH2 0x1727 JUMP JUMPDEST PUSH1 0x40 MLOAD DUP1 SWAP2 SUB SWAP1 RETURN JUMPDEST CALLVALUE DUP1 ISZERO PUSH2 0x360 JUMPI PUSH0 DUP1 REVERT JUMPDEST POP PUSH2 0x37B PUSH1 0x4 DUP1 CALLDATASIZE SUB DUP2 ADD SWAP1 PUSH2 0x376 SWAP2 SWAP1 PUSH2 0x1ADE JUMP JUMPDEST PUSH2 0xE6C JUMP JUMPDEST PUSH1 0x40 MLOAD PUSH2 0x388 SWAP2 SWAP1 PUSH2 0x1727 JUMP JUMPDEST PUSH1 0x40 MLOAD DUP1 SWAP2 SUB SWAP1 RETURN JUMPDEST PUSH0 PUSH32 0x80AC58CD00000000000000000000000000000000000000000000000000000000 PUSH28 0xFFFFFFFFFFFFFFFFFFFFFFFFFFFFFFFFFFFFFFFFFFFFFFFFFFFFFFFF NOT AND DUP3 PUSH28 0xFFFFFFFFFFFFFFFFFFFFFFFFFFFFFFFFFFFFFFFFFFFFFFFFFFFFFFFF NOT AND EQ DUP1 PUSH2 0x45B JUMPI POP PUSH32 0x1FFC9A700000000000000000000000000000000000000000000000000000000 PUSH28 0xFFFFFFFFFFFFFFFFFFFFFFFFFFFFFFFFFFFFFFFFFFFFFFFFFFFFFFFF NOT AND DUP3 PUSH28 0xFFFFFFFFFFFFFFFFFFFFFFFFFFFFFFFFFFFFFFFFFFFFFFFFFFFFFFFF NOT AND EQ JUMPDEST SWAP1 POP SWAP2 SWAP1 POP JUMP JUMPDEST PUSH1 0x5 DUP1 SLOAD PUSH2 0x46F SWAP1 PUSH2 0x1B49 JUMP JUMPDEST DUP1 PUSH1 0x1F ADD PUSH1 0x20 DUP1 SWAP2 DIV MUL PUSH1 0x20 ADD PUSH1 0x40 MLOAD SWAP1 DUP2 ADD PUSH1 0x40 MSTORE DUP1 SWAP3 SWAP2 SWAP1 DUP2 DUP2 MSTORE PUSH1 0x20 ADD DUP3 DUP1 SLOAD PUSH2 0x49B SWAP1 PUSH2 0x1B49 JUMP JUMPDEST DUP1 ISZERO PUSH2 0x4E6 JUMPI DUP1 PUSH1 0x1F LT PUSH2 0x4BD JUMPI PUSH2 0x100 DUP1 DUP4 SLOAD DIV MUL DUP4 MSTORE SWAP2 PUSH1 0x20 ADD SWAP2 PUSH2 0x4E6 JUMP JUMPDEST DUP3 ADD SWAP2 SWAP1 PUSH0 MSTORE PUSH1 0x20 PUSH0 KECCAK256 SWAP1 JUMPDEST DUP2 SLOAD DUP2 MSTORE SWAP1 PUSH1 0x1 ADD SWAP1 PUSH1 0x20 ADD DUP1 DUP4 GT PUSH2 0x4C9 JUMPI DUP3 SWAP1 SUB PUSH1 0x1F AND DUP3 ADD SWAP2 JUMPDEST POP POP POP POP POP DUP2 JUMP JUMPDEST PUSH0 DUP1 PUSH20 0xFFFFFFFFFFFFFFFFFFFFFFFFFFFFFFFFFFFFFFFF AND PUSH1 0x1 PUSH0 DUP5 DUP2 MSTORE PUSH1 0x20 ADD SWAP1 DUP2 MSTORE PUSH1 0x20 ADD PUSH0 KECCAK256 PUSH0 SWAP1 SLOAD SWAP1 PUSH2 0x100 EXP SWAP1 DIV PUSH20 0xFFFFFFFFFFFFFFFFFFFFFFFFFFFFFFFFFFFFFFFF AND PUSH20 0xFFFFFFFFFFFFFFFFFFFFFFFFFFFFFFFFFFFFFFFF AND SUB PUSH2 0x58D JUMPI PUSH1 0x40 MLOAD PUSH32 0x8C379A000000000000000000000000000000000000000000000000000000000 DUP2 MSTORE PUSH1 0x4 ADD PUSH2 0x584 SWAP1 PUSH2 0x1BC3 JUMP JUMPDEST PUSH1 0x40 MLOAD DUP1 SWAP2 SUB SWAP1 REVERT JUMPDEST PUSH1 0x3 PUSH0 DUP4 DUP2 MSTORE PUSH1 0x20 ADD SWAP1 DUP2 MSTORE PUSH1 0x20 ADD PUSH0 KECCAK256 PUSH0 SWAP1 SLOAD SWAP1 PUSH2 0x100 EXP SWAP1 DIV PUSH20 0xFFFFFFFFFFFFFFFFFFFFFFFFFFFFFFFFFFFFFFFF AND SWAP1 POP SWAP2 SWAP1 POP JUMP JUMPDEST PUSH0 PUSH1 0x1 PUSH0 DUP4 DUP2 MSTORE PUSH1 0x20 ADD SWAP1 DUP2 MSTORE PUSH1 0x20 ADD PUSH0 KECCAK256 PUSH0 SWAP1 SLOAD SWAP1 PUSH2 0x100 EXP SWAP1 DIV PUSH20 0xFFFFFFFFFFFFFFFFFFFFFFFFFFFFFFFFFFFFFFFF AND SWAP1 POP DUP1 PUSH20 0xFFFFFFFFFFFFFFFFFFFFFFFFFFFFFFFFFFFFFFFF AND CALLER PUSH20 0xFFFFFFFFFFFFFFFFFFFFFFFFFFFFFFFFFFFFFFFF AND EQ DUP1 PUSH2 0x6B4 JUMPI POP PUSH1 0x4 PUSH0 DUP3 PUSH20 0xFFFFFFFFFFFFFFFFFFFFFFFFFFFFFFFFFFFFFFFF AND PUSH20 0xFFFFFFFFFFFFFFFFFFFFFFFFFFFFFFFFFFFFFFFF AND DUP2 MSTORE PUSH1 0x20 ADD SWAP1 DUP2 MSTORE PUSH1 0x20 ADD PUSH0 KECCAK256 PUSH0 CALLER PUSH20 0xFFFFFFFFFFFFFFFFFFFFFFFFFFFFFFFFFFFFFFFF AND PUSH20 0xFFFFFFFFFFFFFFFFFFFFFFFFFFFFFFFFFFFFFFFF AND DUP2 MSTORE PUSH1 0x20 ADD SWAP1 DUP2 MSTORE PUSH1 0x20 ADD PUSH0 KECCAK256 PUSH0 SWAP1 SLOAD SWAP1 PUSH2 0x100 EXP SWAP1 DIV PUSH1 0xFF AND JUMPDEST PUSH2 0x6F3 JUMPI PUSH1 0x40 MLOAD PUSH32 0x8C379A000000000000000000000000000000000000000000000000000000000 DUP2 MSTORE PUSH1 0x4 ADD PUSH2 0x6EA SWAP1 PUSH2 0x1C2B JUMP JUMPDEST PUSH1 0x40 MLOAD DUP1 SWAP2 SUB SWAP1 REVERT JUMPDEST DUP3 PUSH1 0x3 PUSH0 DUP5 DUP2 MSTORE PUSH1 0x20 ADD SWAP1 DUP2 MSTORE PUSH1 0x20 ADD PUSH0 KECCAK256 PUSH0 PUSH2 0x100 EXP DUP2 SLOAD DUP2 PUSH20 0xFFFFFFFFFFFFFFFFFFFFFFFFFFFFFFFFFFFFFFFF MUL NOT AND SWAP1 DUP4 PUSH20 0xFFFFFFFFFFFFFFFFFFFFFFFFFFFFFFFFFFFFFFFF AND MUL OR SWAP1 SSTORE POP DUP2 DUP4 PUSH20 0xFFFFFFFFFFFFFFFFFFFFFFFFFFFFFFFFFFFFFFFF AND DUP3 PUSH20 0xFFFFFFFFFFFFFFFFFFFFFFFFFFFFFFFFFFFFFFFF AND PUSH32 0x8C5BE1E5EBEC7D5BD14F71427D1E84F3DD0314C0F7B2291E5B200AC8C7C3B925 PUSH1 0x40 MLOAD PUSH1 0x40 MLOAD DUP1 SWAP2 SUB SWAP1 LOG4 POP POP POP JUMP JUMPDEST PUSH0 DUP1 SLOAD SWAP1 PUSH2 0x100 EXP SWAP1 DIV PUSH20 0xFFFFFFFFFFFFFFFFFFFFFFFFFFFFFFFFFFFFFFFF AND PUSH20 0xFFFFFFFFFFFFFFFFFFFFFFFFFFFFFFFFFFFFFFFF AND CALLER PUSH20 0xFFFFFFFFFFFFFFFFFFFFFFFFFFFFFFFFFFFFFFFF AND EQ DUP1 PUSH2 0x856 JUMPI POP PUSH1 0x1 PUSH0 DUP3 DUP2 MSTORE PUSH1 0x20 ADD SWAP1 DUP2 MSTORE PUSH1 0x20 ADD PUSH0 KECCAK256 PUSH0 SWAP1 SLOAD SWAP1 PUSH2 0x100 EXP SWAP1 DIV PUSH20 0xFFFFFFFFFFFFFFFFFFFFFFFFFFFFFFFFFFFFFFFF AND PUSH20 0xFFFFFFFFFFFFFFFFFFFFFFFFFFFFFFFFFFFFFFFF AND CALLER PUSH20 0xFFFFFFFFFFFFFFFFFFFFFFFFFFFFFFFFFFFFFFFF AND EQ JUMPDEST DUP1 PUSH2 0x8BC JUMPI POP PUSH1 0x3 PUSH0 DUP3 DUP2 MSTORE PUSH1 0x20 ADD SWAP1 DUP2 MSTORE PUSH1 0x20 ADD PUSH0 KECCAK256 PUSH0 SWAP1 SLOAD SWAP1 PUSH2 0x100 EXP SWAP1 DIV PUSH20 0xFFFFFFFFFFFFFFFFFFFFFFFFFFFFFFFFFFFFFFFF AND PUSH20 0xFFFFFFFFFFFFFFFFFFFFFFFFFFFFFFFFFFFFFFFF AND CALLER PUSH20 0xFFFFFFFFFFFFFFFFFFFFFFFFFFFFFFFFFFFFFFFF AND EQ JUMPDEST DUP1 PUSH2 0x978 JUMPI POP PUSH1 0x4 PUSH0 PUSH1 0x1 PUSH0 DUP5 DUP2 MSTORE PUSH1 0x20 ADD SWAP1 DUP2 MSTORE PUSH1 0x20 ADD PUSH0 KECCAK256 PUSH0 SWAP1 SLOAD SWAP1 PUSH2 0x100 EXP SWAP1 DIV PUSH20 0xFFFFFFFFFFFFFFFFFFFFFFFFFFFFFFFFFFFFFFFF AND PUSH20 0xFFFFFFFFFFFFFFFFFFFFFFFFFFFFFFFFFFFFFFFF AND PUSH20 0xFFFFFFFFFFFFFFFFFFFFFFFFFFFFFFFFFFFFFFFF AND DUP2 MSTORE PUSH1 0x20 ADD SWAP1 DUP2 MSTORE PUSH1 0x20 ADD PUSH0 KECCAK256 PUSH0 CALLER PUSH20 0xFFFFFFFFFFFFFFFFFFFFFFFFFFFFFFFFFFFFFFFF AND PUSH20 0xFFFFFFFFFFFFFFFFFFFFFFFFFFFFFFFFFFFFFFFF AND DUP2 MSTORE PUSH1 0x20 ADD SWAP1 DUP2 MSTORE PUSH1 0x20 ADD PUSH0 KECCAK256 PUSH0 SWAP1 SLOAD SWAP1 PUSH2 0x100 EXP SWAP1 DIV PUSH1 0xFF AND JUMPDEST PUSH2 0x9B7 JUMPI PUSH1 0x40 MLOAD PUSH32 0x8C379A000000000000000000000000000000000000000000000000000000000 DUP2 MSTORE PUSH1 0x4 ADD PUSH2 0x9AE SWAP1 PUSH2 0x1C2B JUMP JUMPDEST PUSH1 0x40 MLOAD DUP1 SWAP2 SUB SWAP1 REVERT JUMPDEST PUSH2 0x9C2 DUP4 DUP4 DUP4 PUSH2 0xE96 JUMP JUMPDEST POP POP POP JUMP JUMPDEST PUSH0 DUP1 SLOAD SWAP1 PUSH2 0x100 EXP SWAP1 DIV PUSH20 0xFFFFFFFFFFFFFFFFFFFFFFFFFFFFFFFFFFFFFFFF AND PUSH20 0xFFFFFFFFFFFFFFFFFFFFFFFFFFFFFFFFFFFFFFFF AND CALLER PUSH20 0xFFFFFFFFFFFFFFFFFFFFFFFFFFFFFFFFFFFFFFFF AND EQ PUSH2 0xA54 JUMPI PUSH1 0x40 MLOAD PUSH32 0x8C379A000000000000000000000000000000000000000000000000000000000 DUP2 MSTORE PUSH1 0x4 ADD PUSH2 0xA4B SWAP1 PUSH2 0x1C93 JUMP JUMPDEST PUSH1 0x40 MLOAD DUP1 SWAP2 SUB SWAP1 REVERT JUMPDEST PUSH2 0xA5E DUP3 DUP3 PUSH2 0x112D JUMP JUMPDEST POP POP JUMP JUMPDEST PUSH2 0xA7C DUP4 DUP4 DUP4 PUSH1 0x40 MLOAD DUP1 PUSH1 0x20 ADD PUSH1 0x40 MSTORE DUP1 PUSH0 DUP2 MSTORE POP PUSH2 0x1339 JUMP JUMPDEST POP POP POP JUMP JUMPDEST PUSH0 DUP1 SLOAD SWAP1 PUSH2 0x100 EXP SWAP1 DIV PUSH20 0xFFFFFFFFFFFFFFFFFFFFFFFFFFFFFFFFFFFFFFFF AND DUP2 JUMP JUMPDEST PUSH0 DUP1 PUSH1 0x1 PUSH0 DUP5 DUP2 MSTORE PUSH1 0x20 ADD SWAP1 DUP2 MSTORE PUSH1 0x20 ADD PUSH0 KECCAK256 PUSH0 SWAP1 SLOAD SWAP1 PUSH2 0x100 EXP SWAP1 DIV PUSH20 0xFFFFFFFFFFFFFFFFFFFFFFFFFFFFFFFFFFFFFFFF AND SWAP1 POP PUSH0 PUSH20 0xFFFFFFFFFFFFFFFFFFFFFFFFFFFFFFFFFFFFFFFF AND DUP2 PUSH20 0xFFFFFFFFFFFFFFFFFFFFFFFFFFFFFFFFFFFFFFFF AND SUB PUSH2 0xB47 JUMPI PUSH1 0x40 MLOAD PUSH32 0x8C379A000000000000000000000000000000000000000000000000000000000 DUP2 MSTORE PUSH1 0x4 ADD PUSH2 0xB3E SWAP1 PUSH2 0x1BC3 JUMP JUMPDEST PUSH1 0x40 MLOAD DUP1 SWAP2 SUB SWAP1 REVERT JUMPDEST DUP1 SWAP2 POP POP SWAP2 SWAP1 POP JUMP JUMPDEST PUSH0 DUP1 PUSH20 0xFFFFFFFFFFFFFFFFFFFFFFFFFFFFFFFFFFFFFFFF AND DUP3 PUSH20 0xFFFFFFFFFFFFFFFFFFFFFFFFFFFFFFFFFFFFFFFF AND SUB PUSH2 0xBBF JUMPI PUSH1 0x40 MLOAD PUSH32 0x8C379A000000000000000000000000000000000000000000000000000000000 DUP2 MSTORE PUSH1 0x4 ADD PUSH2 0xBB6 SWAP1 PUSH2 0x1CFB JUMP JUMPDEST PUSH1 0x40 MLOAD DUP1 SWAP2 SUB SWAP1 REVERT JUMPDEST PUSH1 0x2 PUSH0 DUP4 PUSH20 0xFFFFFFFFFFFFFFFFFFFFFFFFFFFFFFFFFFFFFFFF AND PUSH20 0xFFFFFFFFFFFFFFFFFFFFFFFFFFFFFFFFFFFFFFFF AND DUP2 MSTORE PUSH1 0x20 ADD SWAP1 DUP2 MSTORE PUSH1 0x20 ADD PUSH0 KECCAK256 SLOAD SWAP1 POP SWAP2 SWAP1 POP JUMP JUMPDEST PUSH1 0x6 DUP1 SLOAD PUSH2 0xC11 SWAP1 PUSH2 0x1B49 JUMP JUMPDEST DUP1 PUSH1 0x1F ADD PUSH1 0x20 DUP1 SWAP2 DIV MUL PUSH1 0x20 ADD PUSH1 0x40 MLOAD SWAP1 DUP2 ADD PUSH1 0x40 MSTORE DUP1 SWAP3 SWAP2 SWAP1 DUP2 DUP2 MSTORE PUSH1 0x20 ADD DUP3 DUP1 SLOAD PUSH2 0xC3D SWAP1 PUSH2 0x1B49 JUMP JUMPDEST DUP1 ISZERO PUSH2 0xC88 JUMPI DUP1 PUSH1 0x1F LT PUSH2 0xC5F JUMPI PUSH2 0x100 DUP1 DUP4 SLOAD DIV MUL DUP4 MSTORE SWAP2 PUSH1 0x20 ADD SWAP2 PUSH2 0xC88 JUMP JUMPDEST DUP3 ADD SWAP2 SWAP1 PUSH0 MSTORE PUSH1 0x20 PUSH0 KECCAK256 SWAP1 JUMPDEST DUP2 SLOAD DUP2 MSTORE SWAP1 PUSH1 0x1 ADD SWAP1 PUSH1 0x20 ADD DUP1 DUP4 GT PUSH2 0xC6B JUMPI DUP3 SWAP1 SUB PUSH1 0x1F AND DUP3 ADD SWAP2 JUMPDEST POP POP POP POP POP DUP2 JUMP JUMPDEST DUP1 PUSH1 0x4 PUSH0 CALLER PUSH20 0xFFFFFFFFFFFFFFFFFFFFFFFFFFFFFFFFFFFFFFFF AND PUSH20 0xFFFFFFFFFFFFFFFFFFFFFFFFFFFFFFFFFFFFFFFF AND DUP2 MSTORE PUSH1 0x20 ADD SWAP1 DUP2 MSTORE PUSH1 0x20 ADD PUSH0 KECCAK256 PUSH0 DUP5 PUSH20 0xFFFFFFFFFFFFFFFFFFFFFFFFFFFFFFFFFFFFFFFF AND PUSH20 0xFFFFFFFFFFFFFFFFFFFFFFFFFFFFFFFFFFFFFFFF AND DUP2 MSTORE PUSH1 0x20 ADD SWAP1 DUP2 MSTORE PUSH1 0x20 ADD PUSH0 KECCAK256 PUSH0 PUSH2 0x100 EXP DUP2 SLOAD DUP2 PUSH1 0xFF MUL NOT AND SWAP1 DUP4 ISZERO ISZERO MUL OR SWAP1 SSTORE POP DUP2 PUSH20 0xFFFFFFFFFFFFFFFFFFFFFFFFFFFFFFFFFFFFFFFF AND CALLER PUSH20 0xFFFFFFFFFFFFFFFFFFFFFFFFFFFFFFFFFFFFFFFF AND PUSH32 0x17307EAB39AB6107E8899845AD3D59BD9653F200F220920489CA2B5937696C31 DUP4 PUSH1 0x40 MLOAD PUSH2 0xD7C SWAP2 SWAP1 PUSH2 0x1727 JUMP JUMPDEST PUSH1 0x40 MLOAD DUP1 SWAP2 SUB SWAP1 LOG3 POP POP JUMP JUMPDEST PUSH2 0xDD7 DUP6 DUP6 DUP6 DUP6 DUP6 DUP1 DUP1 PUSH1 0x1F ADD PUSH1 0x20 DUP1 SWAP2 DIV MUL PUSH1 0x20 ADD PUSH1 0x40 MLOAD SWAP1 DUP2 ADD PUSH1 0x40 MSTORE DUP1 SWAP4 SWAP3 SWAP2 SWAP1 DUP2 DUP2 MSTORE PUSH1 0x20 ADD DUP4 DUP4 DUP1 DUP3 DUP5 CALLDATACOPY PUSH0 DUP2 DUP5 ADD MSTORE PUSH1 0x1F NOT PUSH1 0x1F DUP3 ADD AND SWAP1 POP DUP1 DUP4 ADD SWAP3 POP POP POP POP POP POP POP PUSH2 0x1339 JUMP JUMPDEST POP POP POP POP POP JUMP JUMPDEST PUSH0 PUSH1 0x4 PUSH0 DUP5 PUSH20 0xFFFFFFFFFFFFFFFFFFFFFFFFFFFFFFFFFFFFFFFF AND PUSH20 0xFFFFFFFFFFFFFFFFFFFFFFFFFFFFFFFFFFFFFFFF AND DUP2 MSTORE PUSH1 0x20 ADD SWAP1 DUP2 MSTORE PUSH1 0x20 ADD PUSH0 KECCAK256 PUSH0 DUP4 PUSH20 0xFFFFFFFFFFFFFFFFFFFFFFFFFFFFFFFFFFFFFFFF AND PUSH20 0xFFFFFFFFFFFFFFFFFFFFFFFFFFFFFFFFFFFFFFFF AND DUP2 MSTORE PUSH1 0x20 ADD SWAP1 DUP2 MSTORE PUSH1 0x20 ADD PUSH0 KECCAK256 PUSH0 SWAP1 SLOAD SWAP1 PUSH2 0x100 EXP SWAP1 DIV PUSH1 0xFF AND SWAP1 POP SWAP3 SWAP2 POP POP JUMP JUMPDEST PUSH1 0x4 PUSH1 0x20 MSTORE DUP2 PUSH0 MSTORE PUSH1 0x40 PUSH0 KECCAK256 PUSH1 0x20 MSTORE DUP1 PUSH0 MSTORE PUSH1 0x40 PUSH0 KECCAK256 PUSH0 SWAP2 POP SWAP2 POP SWAP1 SLOAD SWAP1 PUSH2 0x100 EXP SWAP1 DIV PUSH1 0xFF AND DUP2 JUMP JUMPDEST PUSH0 PUSH1 0x1 PUSH0 DUP4 DUP2 MSTORE PUSH1 0x20 ADD SWAP1 DUP2 MSTORE PUSH1 0x20 ADD PUSH0 KECCAK256 PUSH0 SWAP1 SLOAD SWAP1 PUSH2 0x100 EXP SWAP1 DIV PUSH20 0xFFFFFFFFFFFFFFFFFFFFFFFFFFFFFFFFFFFFFFFF AND SWAP1 POP DUP1 PUSH20 0xFFFFFFFFFFFFFFFFFFFFFFFFFFFFFFFFFFFFFFFF AND DUP5 PUSH20 0xFFFFFFFFFFFFFFFFFFFFFFFFFFFFFFFFFFFFFFFF AND EQ PUSH2 0xF38 JUMPI PUSH1 0x40 MLOAD PUSH32 0x8C379A000000000000000000000000000000000000000000000000000000000 DUP2 MSTORE PUSH1 0x4 ADD PUSH2 0xF2F SWAP1 PUSH2 0x1D63 JUMP JUMPDEST PUSH1 0x40 MLOAD DUP1 SWAP2 SUB SWAP1 REVERT JUMPDEST PUSH0 PUSH20 0xFFFFFFFFFFFFFFFFFFFFFFFFFFFFFFFFFFFFFFFF AND DUP4 PUSH20 0xFFFFFFFFFFFFFFFFFFFFFFFFFFFFFFFFFFFFFFFF AND SUB PUSH2 0xFA6 JUMPI PUSH1 0x40 MLOAD PUSH32 0x8C379A000000000000000000000000000000000000000000000000000000000 DUP2 MSTORE PUSH1 0x4 ADD PUSH2 0xF9D SWAP1 PUSH2 0x1DCB JUMP JUMPDEST PUSH1 0x40 MLOAD DUP1 SWAP2 SUB SWAP1 REVERT JUMPDEST PUSH1 0x2 PUSH0 DUP6 PUSH20 0xFFFFFFFFFFFFFFFFFFFFFFFFFFFFFFFFFFFFFFFF AND PUSH20 0xFFFFFFFFFFFFFFFFFFFFFFFFFFFFFFFFFFFFFFFF AND DUP2 MSTORE PUSH1 0x20 ADD SWAP1 DUP2 MSTORE PUSH1 0x20 ADD PUSH0 KECCAK256 PUSH0 DUP2 SLOAD DUP1 SWAP3 SWAP2 SWAP1 PUSH2 0xFF3 SWAP1 PUSH2 0x1E16 JUMP JUMPDEST SWAP2 SWAP1 POP SSTORE POP PUSH1 0x2 PUSH0 DUP5 PUSH20 0xFFFFFFFFFFFFFFFFFFFFFFFFFFFFFFFFFFFFFFFF AND PUSH20 0xFFFFFFFFFFFFFFFFFFFFFFFFFFFFFFFFFFFFFFFF AND DUP2 MSTORE PUSH1 0x20 ADD SWAP1 DUP2 MSTORE PUSH1 0x20 ADD PUSH0 KECCAK256 PUSH0 DUP2 SLOAD DUP1 SWAP3 SWAP2 SWAP1 PUSH2 0x1045 SWAP1 PUSH2 0x1E3D JUMP JUMPDEST SWAP2 SWAP1 POP SSTORE POP DUP3 PUSH1 0x1 PUSH0 DUP5 DUP2 MSTORE PUSH1 0x20 ADD SWAP1 DUP2 MSTORE PUSH1 0x20 ADD PUSH0 KECCAK256 PUSH0 PUSH2 0x100 EXP DUP2 SLOAD DUP2 PUSH20 0xFFFFFFFFFFFFFFFFFFFFFFFFFFFFFFFFFFFFFFFF MUL NOT AND SWAP1 DUP4 PUSH20 0xFFFFFFFFFFFFFFFFFFFFFFFFFFFFFFFFFFFFFFFF AND MUL OR SWAP1 SSTORE POP PUSH1 0x3 PUSH0 DUP4 DUP2 MSTORE PUSH1 0x20 ADD SWAP1 DUP2 MSTORE PUSH1 0x20 ADD PUSH0 KECCAK256 PUSH0 PUSH2 0x100 EXP DUP2 SLOAD SWAP1 PUSH20 0xFFFFFFFFFFFFFFFFFFFFFFFFFFFFFFFFFFFFFFFF MUL NOT AND SWAP1 SSTORE DUP2 DUP4 PUSH20 0xFFFFFFFFFFFFFFFFFFFFFFFFFFFFFFFFFFFFFFFF AND DUP6 PUSH20 0xFFFFFFFFFFFFFFFFFFFFFFFFFFFFFFFFFFFFFFFF AND PUSH32 0xDDF252AD1BE2C89B69C2B068FC378DAA952BA7F163C4A11628F55A4DF523B3EF PUSH1 0x40 MLOAD PUSH1 0x40 MLOAD DUP1 SWAP2 SUB SWAP1 LOG4 POP POP POP POP JUMP JUMPDEST PUSH0 PUSH20 0xFFFFFFFFFFFFFFFFFFFFFFFFFFFFFFFFFFFFFFFF AND DUP3 PUSH20 0xFFFFFFFFFFFFFFFFFFFFFFFFFFFFFFFFFFFFFFFF AND SUB PUSH2 0x119B JUMPI PUSH1 0x40 MLOAD PUSH32 0x8C379A000000000000000000000000000000000000000000000000000000000 DUP2 MSTORE PUSH1 0x4 ADD PUSH2 0x1192 SWAP1 PUSH2 0x1ECE JUMP JUMPDEST PUSH1 0x40 MLOAD DUP1 SWAP2 SUB SWAP1 REVERT JUMPDEST PUSH0 PUSH20 0xFFFFFFFFFFFFFFFFFFFFFFFFFFFFFFFFFFFFFFFF AND PUSH1 0x1 PUSH0 DUP4 DUP2 MSTORE PUSH1 0x20 ADD SWAP1 DUP2 MSTORE PUSH1 0x20 ADD PUSH0 KECCAK256 PUSH0 SWAP1 SLOAD SWAP1 PUSH2 0x100 EXP SWAP1 DIV PUSH20 0xFFFFFFFFFFFFFFFFFFFFFFFFFFFFFFFFFFFFFFFF AND PUSH20 0xFFFFFFFFFFFFFFFFFFFFFFFFFFFFFFFFFFFFFFFF AND EQ PUSH2 0x1239 JUMPI PUSH1 0x40 MLOAD PUSH32 0x8C379A000000000000000000000000000000000000000000000000000000000 DUP2 MSTORE PUSH1 0x4 ADD PUSH2 0x1230 SWAP1 PUSH2 0x1F36 JUMP JUMPDEST PUSH1 0x40 MLOAD DUP1 SWAP2 SUB SWAP1 REVERT JUMPDEST PUSH1 0x2 PUSH0 DUP4 PUSH20 0xFFFFFFFFFFFFFFFFFFFFFFFFFFFFFFFFFFFFFFFF AND PUSH20 0xFFFFFFFFFFFFFFFFFFFFFFFFFFFFFFFFFFFFFFFF AND DUP2 MSTORE PUSH1 0x20 ADD SWAP1 DUP2 MSTORE PUSH1 0x20 ADD PUSH0 KECCAK256 PUSH0 DUP2 SLOAD DUP1 SWAP3 SWAP2 SWAP1 PUSH2 0x1286 SWAP1 PUSH2 0x1E3D JUMP JUMPDEST SWAP2 SWAP1 POP SSTORE POP DUP2 PUSH1 0x1 PUSH0 DUP4 DUP2 MSTORE PUSH1 0x20 ADD SWAP1 DUP2 MSTORE PUSH1 0x20 ADD PUSH0 KECCAK256 PUSH0 PUSH2 0x100 EXP DUP2 SLOAD DUP2 PUSH20 0xFFFFFFFFFFFFFFFFFFFFFFFFFFFFFFFFFFFFFFFF MUL NOT AND SWAP1 DUP4 PUSH20 0xFFFFFFFFFFFFFFFFFFFFFFFFFFFFFFFFFFFFFFFF AND MUL OR SWAP1 SSTORE POP DUP1 DUP3 PUSH20 0xFFFFFFFFFFFFFFFFFFFFFFFFFFFFFFFFFFFFFFFF AND PUSH0 PUSH20 0xFFFFFFFFFFFFFFFFFFFFFFFFFFFFFFFFFFFFFFFF AND PUSH32 0xDDF252AD1BE2C89B69C2B068FC378DAA952BA7F163C4A11628F55A4DF523B3EF PUSH1 0x40 MLOAD PUSH1 0x40 MLOAD DUP1 SWAP2 SUB SWAP1 LOG4 POP POP JUMP JUMPDEST PUSH0 DUP1 SLOAD SWAP1 PUSH2 0x100 EXP SWAP1 DIV PUSH20 0xFFFFFFFFFFFFFFFFFFFFFFFFFFFFFFFFFFFFFFFF AND PUSH20 0xFFFFFFFFFFFFFFFFFFFFFFFFFFFFFFFFFFFFFFFF AND CALLER PUSH20 0xFFFFFFFFFFFFFFFFFFFFFFFFFFFFFFFFFFFFFFFF AND EQ DUP1 PUSH2 0x13ED JUMPI POP PUSH1 0x1 PUSH0 DUP4 DUP2 MSTORE PUSH1 0x20 ADD SWAP1 DUP2 MSTORE PUSH1 0x20 ADD PUSH0 KECCAK256 PUSH0 SWAP1 SLOAD SWAP1 PUSH2 0x100 EXP SWAP1 DIV PUSH20 0xFFFFFFFFFFFFFFFFFFFFFFFFFFFFFFFFFFFFFFFF AND PUSH20 0xFFFFFFFFFFFFFFFFFFFFFFFFFFFFFFFFFFFFFFFF AND CALLER PUSH20 0xFFFFFFFFFFFFFFFFFFFFFFFFFFFFFFFFFFFFFFFF AND EQ JUMPDEST DUP1 PUSH2 0x1453 JUMPI POP PUSH1 0x3 PUSH0 DUP4 DUP2 MSTORE PUSH1 0x20 ADD SWAP1 DUP2 MSTORE PUSH1 0x20 ADD PUSH0 KECCAK256 PUSH0 SWAP1 SLOAD SWAP1 PUSH2 0x100 EXP SWAP1 DIV PUSH20 0xFFFFFFFFFFFFFFFFFFFFFFFFFFFFFFFFFFFFFFFF AND PUSH20 0xFFFFFFFFFFFFFFFFFFFFFFFFFFFFFFFFFFFFFFFF AND CALLER PUSH20 0xFFFFFFFFFFFFFFFFFFFFFFFFFFFFFFFFFFFFFFFF AND EQ JUMPDEST DUP1 PUSH2 0x150F JUMPI POP PUSH1 0x4 PUSH0 PUSH1 0x1 PUSH0 DUP6 DUP2 MSTORE PUSH1 0x20 ADD SWAP1 DUP2 MSTORE PUSH1 0x20 ADD PUSH0 KECCAK256 PUSH0 SWAP1 SLOAD SWAP1 PUSH2 0x100 EXP SWAP1 DIV PUSH20 0xFFFFFFFFFFFFFFFFFFFFFFFFFFFFFFFFFFFFFFFF AND PUSH20 0xFFFFFFFFFFFFFFFFFFFFFFFFFFFFFFFFFFFFFFFF AND PUSH20 0xFFFFFFFFFFFFFFFFFFFFFFFFFFFFFFFFFFFFFFFF AND DUP2 MSTORE PUSH1 0x20 ADD SWAP1 DUP2 MSTORE PUSH1 0x20 ADD PUSH0 KECCAK256 PUSH0 CALLER PUSH20 0xFFFFFFFFFFFFFFFFFFFFFFFFFFFFFFFFFFFFFFFF AND PUSH20 0xFFFFFFFFFFFFFFFFFFFFFFFFFFFFFFFFFFFFFFFF AND DUP2 MSTORE PUSH1 0x20 ADD SWAP1 DUP2 MSTORE PUSH1 0x20 ADD PUSH0 KECCAK256 PUSH0 SWAP1 SLOAD SWAP1 PUSH2 0x100 EXP SWAP1 DIV PUSH1 0xFF AND JUMPDEST PUSH2 0x154E JUMPI PUSH1 0x40 MLOAD PUSH32 0x8C379A000000000000000000000000000000000000000000000000000000000 DUP2 MSTORE PUSH1 0x4 ADD PUSH2 0x1545 SWAP1 PUSH2 0x1C2B JUMP JUMPDEST PUSH1 0x40 MLOAD DUP1 SWAP2 SUB SWAP1 REVERT JUMPDEST PUSH2 0x1559 DUP5 DUP5 DUP5 PUSH2 0xE96 JUMP JUMPDEST PUSH0 DUP4 PUSH20 0xFFFFFFFFFFFFFFFFFFFFFFFFFFFFFFFFFFFFFFFF AND EXTCODESIZE EQ DUP1 PUSH2 0x1640 JUMPI POP PUSH4 0x150B7A02 PUSH1 0xE0 SHL PUSH28 0xFFFFFFFFFFFFFFFFFFFFFFFFFFFFFFFFFFFFFFFFFFFFFFFFFFFFFFFF NOT AND DUP4 PUSH20 0xFFFFFFFFFFFFFFFFFFFFFFFFFFFFFFFFFFFFFFFF AND PUSH4 0x150B7A02 CALLER DUP8 DUP7 DUP7 PUSH1 0x40 MLOAD DUP6 PUSH4 0xFFFFFFFF AND PUSH1 0xE0 SHL DUP2 MSTORE PUSH1 0x4 ADD PUSH2 0x15DF SWAP5 SWAP4 SWAP3 SWAP2 SWAP1 PUSH2 0x1FA6 JUMP JUMPDEST PUSH1 0x20 PUSH1 0x40 MLOAD DUP1 DUP4 SUB DUP2 PUSH0 DUP8 GAS CALL ISZERO DUP1 ISZERO PUSH2 0x15FB JUMPI RETURNDATASIZE PUSH0 DUP1 RETURNDATACOPY RETURNDATASIZE PUSH0 REVERT JUMPDEST POP POP POP POP PUSH1 0x40 MLOAD RETURNDATASIZE PUSH1 0x1F NOT PUSH1 0x1F DUP3 ADD AND DUP3 ADD DUP1 PUSH1 0x40 MSTORE POP DUP2 ADD SWAP1 PUSH2 0x161F SWAP2 SWAP1 PUSH2 0x2004 JUMP JUMPDEST PUSH28 0xFFFFFFFFFFFFFFFFFFFFFFFFFFFFFFFFFFFFFFFFFFFFFFFFFFFFFFFF NOT AND EQ JUMPDEST PUSH2 0x167F JUMPI PUSH1 0x40 MLOAD PUSH32 0x8C379A000000000000000000000000000000000000000000000000000000000 DUP2 MSTORE PUSH1 0x4 ADD PUSH2 0x1676 SWAP1 PUSH2 0x2079 JUMP JUMPDEST PUSH1 0x40 MLOAD DUP1 SWAP2 SUB SWAP1 REVERT JUMPDEST POP POP POP POP JUMP JUMPDEST PUSH0 DUP1 REVERT JUMPDEST PUSH0 DUP1 REVERT JUMPDEST PUSH0 PUSH32 0xFFFFFFFF00000000000000000000000000000000000000000000000000000000 DUP3 AND SWAP1 POP SWAP2 SWAP1 POP JUMP JUMPDEST PUSH2 0x16C1 DUP2 PUSH2 0x168D JUMP JUMPDEST DUP2 EQ PUSH2 0x16CB JUMPI PUSH0 DUP1 REVERT JUMPDEST POP JUMP JUMPDEST PUSH0 DUP2 CALLDATALOAD SWAP1 POP PUSH2 0x16DC DUP2 PUSH2 0x16B8 JUMP JUMPDEST SWAP3 SWAP2 POP POP JUMP JUMPDEST PUSH0 PUSH1 0x20 DUP3 DUP5 SUB SLT ISZERO PUSH2 0x16F7 JUMPI PUSH2 0x16F6 PUSH2 0x1685 JUMP JUMPDEST JUMPDEST PUSH0 PUSH2 0x1704 DUP5 DUP3 DUP6 ADD PUSH2 0x16CE JUMP JUMPDEST SWAP2 POP POP SWAP3 SWAP2 POP POP JUMP JUMPDEST PUSH0 DUP2 ISZERO ISZERO SWAP1 POP SWAP2 SWAP1 POP JUMP JUMPDEST PUSH2 0x1721 DUP2 PUSH2 0x170D JUMP JUMPDEST DUP3 MSTORE POP POP JUMP JUMPDEST PUSH0 PUSH1 0x20 DUP3 ADD SWAP1 POP PUSH2 0x173A PUSH0 DUP4 ADD DUP5 PUSH2 0x1718 JUMP JUMPDEST SWAP3 SWAP2 POP POP JUMP JUMPDEST PUSH0 DUP2 MLOAD SWAP1 POP SWAP2 SWAP1 POP JUMP JUMPDEST PUSH0 DUP3 DUP3 MSTORE PUSH1 0x20 DUP3 ADD SWAP1 POP SWAP3 SWAP2 POP POP JUMP JUMPDEST DUP3 DUP2 DUP4 MCOPY PUSH0 DUP4 DUP4 ADD MSTORE POP POP POP JUMP JUMPDEST PUSH0 PUSH1 0x1F NOT PUSH1 0x1F DUP4 ADD AND SWAP1 POP SWAP2 SWAP1 POP JUMP JUMPDEST PUSH0 PUSH2 0x1782 DUP3 PUSH2 0x1740 JUMP JUMPDEST PUSH2 0x178C DUP2 DUP6 PUSH2 0x174A JUMP JUMPDEST SWAP4 POP PUSH2 0x179C DUP2 DUP6 PUSH1 0x20 DUP7 ADD PUSH2 0x175A JUMP JUMPDEST PUSH2 0x17A5 DUP2 PUSH2 0x1768 JUMP JUMPDEST DUP5 ADD SWAP2 POP POP SWAP3 SWAP2 POP POP JUMP JUMPDEST PUSH0 PUSH1 0x20 DUP3 ADD SWAP1 POP DUP2 DUP2 SUB PUSH0 DUP4 ADD MSTORE PUSH2 0x17C8 DUP2 DUP5 PUSH2 0x1778 JUMP JUMPDEST SWAP1 POP SWAP3 SWAP2 POP POP JUMP JUMPDEST PUSH0 DUP2 SWAP1 POP SWAP2 SWAP1 POP JUMP JUMPDEST PUSH2 0x17E2 DUP2 PUSH2 0x17D0 JUMP JUMPDEST DUP2 EQ PUSH2 0x17EC JUMPI PUSH0 DUP1 REVERT JUMPDEST POP JUMP JUMPDEST PUSH0 DUP2 CALLDATALOAD SWAP1 POP PUSH2 0x17FD DUP2 PUSH2 0x17D9 JUMP JUMPDEST SWAP3 SWAP2 POP POP JUMP JUMPDEST PUSH0 PUSH1 0x20 DUP3 DUP5 SUB SLT ISZERO PUSH2 0x1818 JUMPI PUSH2 0x1817 PUSH2 0x1685 JUMP JUMPDEST JUMPDEST PUSH0 PUSH2 0x1825 DUP5 DUP3 DUP6 ADD PUSH2 0x17EF JUMP JUMPDEST SWAP2 POP POP SWAP3 SWAP2 POP POP JUMP JUMPDEST PUSH0 PUSH20 0xFFFFFFFFFFFFFFFFFFFFFFFFFFFFFFFFFFFFFFFF DUP3 AND SWAP1 POP SWAP2 SWAP1 POP JUMP JUMPDEST PUSH0 PUSH2 0x1857 DUP3 PUSH2 0x182E JUMP JUMPDEST SWAP1 POP SWAP2 SWAP1 POP JUMP JUMPDEST PUSH2 0x1867 DUP2 PUSH2 0x184D JUMP JUMPDEST DUP3 MSTORE POP POP JUMP JUMPDEST PUSH0 PUSH1 0x20 DUP3 ADD SWAP1 POP PUSH2 0x1880 PUSH0 DUP4 ADD DUP5 PUSH2 0x185E JUMP JUMPDEST SWAP3 SWAP2 POP POP JUMP JUMPDEST PUSH2 0x188F DUP2 PUSH2 0x184D JUMP JUMPDEST DUP2 EQ PUSH2 0x1899 JUMPI PUSH0 DUP1 REVERT JUMPDEST POP JUMP JUMPDEST PUSH0 DUP2 CALLDATALOAD SWAP1 POP PUSH2 0x18AA DUP2 PUSH2 0x1886 JUMP JUMPDEST SWAP3 SWAP2 POP POP JUMP JUMPDEST PUSH0 DUP1 PUSH1 0x40 DUP4 DUP6 SUB SLT ISZERO PUSH2 0x18C6 JUMPI PUSH2 0x18C5 PUSH2 0x1685 JUMP JUMPDEST JUMPDEST PUSH0 PUSH2 0x18D3 DUP6 DUP3 DUP7 ADD PUSH2 0x189C JUMP JUMPDEST SWAP3 POP POP PUSH1 0x20 PUSH2 0x18E4 DUP6 DUP3 DUP7 ADD PUSH2 0x17EF JUMP JUMPDEST SWAP2 POP POP SWAP3 POP SWAP3 SWAP1 POP JUMP JUMPDEST PUSH0 DUP1 PUSH0 PUSH1 0x60 DUP5 DUP7 SUB SLT ISZERO PUSH2 0x1905 JUMPI PUSH2 0x1904 PUSH2 0x1685 JUMP JUMPDEST JUMPDEST PUSH0 PUSH2 0x1912 DUP7 DUP3 DUP8 ADD PUSH2 0x189C JUMP JUMPDEST SWAP4 POP POP PUSH1 0x20 PUSH2 0x1923 DUP7 DUP3 DUP8 ADD PUSH2 0x189C JUMP JUMPDEST SWAP3 POP POP PUSH1 0x40 PUSH2 0x1934 DUP7 DUP3 DUP8 ADD PUSH2 0x17EF JUMP JUMPDEST SWAP2 POP POP SWAP3 POP SWAP3 POP SWAP3 JUMP JUMPDEST PUSH0 PUSH1 0x20 DUP3 DUP5 SUB SLT ISZERO PUSH2 0x1953 JUMPI PUSH2 0x1952 PUSH2 0x1685 JUMP JUMPDEST JUMPDEST PUSH0 PUSH2 0x1960 DUP5 DUP3 DUP6 ADD PUSH2 0x189C JUMP JUMPDEST SWAP2 POP POP SWAP3 SWAP2 POP POP JUMP JUMPDEST PUSH2 0x1972 DUP2 PUSH2 0x17D0 JUMP JUMPDEST DUP3 MSTORE POP POP JUMP JUMPDEST PUSH0 PUSH1 0x20 DUP3 ADD SWAP1 POP PUSH2 0x198B PUSH0 DUP4 ADD DUP5 PUSH2 0x1969 JUMP JUMPDEST SWAP3 SWAP2 POP POP JUMP JUMPDEST PUSH2 0x199A DUP2 PUSH2 0x170D JUMP JUMPDEST DUP2 EQ PUSH2 0x19A4 JUMPI PUSH0 DUP1 REVERT JUMPDEST POP JUMP JUMPDEST PUSH0 DUP2 CALLDATALOAD SWAP1 POP PUSH2 0x19B5 DUP2 PUSH2 0x1991 JUMP JUMPDEST SWAP3 SWAP2 POP POP JUMP JUMPDEST PUSH0 DUP1 PUSH1 0x40 DUP4 DUP6 SUB SLT ISZERO PUSH2 0x19D1 JUMPI PUSH2 0x19D0 PUSH2 0x1685 JUMP JUMPDEST JUMPDEST PUSH0 PUSH2 0x19DE DUP6 DUP3 DUP7 ADD PUSH2 0x189C JUMP JUMPDEST SWAP3 POP POP PUSH1 0x20 PUSH2 0x19EF DUP6 DUP3 DUP7 ADD PUSH2 0x19A7 JUMP JUMPDEST SWAP2 POP POP SWAP3 POP SWAP3 SWAP1 POP JUMP JUMPDEST PUSH0 DUP1 REVERT JUMPDEST PUSH0 DUP1 REVERT JUMPDEST PUSH0 DUP1 REVERT JUMPDEST PUSH0 DUP1 DUP4 PUSH1 0x1F DUP5 ADD SLT PUSH2 0x1A1A JUMPI PUSH2 0x1A19 PUSH2 0x19F9 JUMP JUMPDEST JUMPDEST DUP3 CALLDATALOAD SWAP1 POP PUSH8 0xFFFFFFFFFFFFFFFF DUP2 GT ISZERO PUSH2 0x1A37 JUMPI PUSH2 0x1A36 PUSH2 0x19FD JUMP JUMPDEST JUMPDEST PUSH1 0x20 DUP4 ADD SWAP2 POP DUP4 PUSH1 0x1 DUP3 MUL DUP4 ADD GT ISZERO PUSH2 0x1A53 JUMPI PUSH2 0x1A52 PUSH2 0x1A01 JUMP JUMPDEST JUMPDEST SWAP3 POP SWAP3 SWAP1 POP JUMP JUMPDEST PUSH0 DUP1 PUSH0 DUP1 PUSH0 PUSH1 0x80 DUP7 DUP9 SUB SLT ISZERO PUSH2 0x1A73 JUMPI PUSH2 0x1A72 PUSH2 0x1685 JUMP JUMPDEST JUMPDEST PUSH0 PUSH2 0x1A80 DUP9 DUP3 DUP10 ADD PUSH2 0x189C JUMP JUMPDEST SWAP6 POP POP PUSH1 0x20 PUSH2 0x1A91 DUP9 DUP3 DUP10 ADD PUSH2 0x189C JUMP JUMPDEST SWAP5 POP POP PUSH1 0x40 PUSH2 0x1AA2 DUP9 DUP3 DUP10 ADD PUSH2 0x17EF JUMP JUMPDEST SWAP4 POP POP PUSH1 0x60 DUP7 ADD CALLDATALOAD PUSH8 0xFFFFFFFFFFFFFFFF DUP2 GT ISZERO PUSH2 0x1AC3 JUMPI PUSH2 0x1AC2 PUSH2 0x1689 JUMP JUMPDEST JUMPDEST PUSH2 0x1ACF DUP9 DUP3 DUP10 ADD PUSH2 0x1A05 JUMP JUMPDEST SWAP3 POP SWAP3 POP POP SWAP3 SWAP6 POP SWAP3 SWAP6 SWAP1 SWAP4 POP JUMP JUMPDEST PUSH0 DUP1 PUSH1 0x40 DUP4 DUP6 SUB SLT ISZERO PUSH2 0x1AF4 JUMPI PUSH2 0x1AF3 PUSH2 0x1685 JUMP JUMPDEST JUMPDEST PUSH0 PUSH2 0x1B01 DUP6 DUP3 DUP7 ADD PUSH2 0x189C JUMP JUMPDEST SWAP3 POP POP PUSH1 0x20 PUSH2 0x1B12 DUP6 DUP3 DUP7 ADD PUSH2 0x189C JUMP JUMPDEST SWAP2 POP POP SWAP3 POP SWAP3 SWAP1 POP JUMP JUMPDEST PUSH32 0x4E487B7100000000000000000000000000000000000000000000000000000000 PUSH0 MSTORE PUSH1 0x22 PUSH1 0x4 MSTORE PUSH1 0x24 PUSH0 REVERT JUMPDEST PUSH0 PUSH1 0x2 DUP3 DIV SWAP1 POP PUSH1 0x1 DUP3 AND DUP1 PUSH2 0x1B60 JUMPI PUSH1 0x7F DUP3 AND SWAP2 POP JUMPDEST PUSH1 0x20 DUP3 LT DUP2 SUB PUSH2 0x1B73 JUMPI PUSH2 0x1B72 PUSH2 0x1B1C JUMP JUMPDEST JUMPDEST POP SWAP2 SWAP1 POP JUMP JUMPDEST PUSH32 0x746F6B656E20646F65736E277420657869737400000000000000000000000000 PUSH0 DUP3 ADD MSTORE POP JUMP JUMPDEST PUSH0 PUSH2 0x1BAD PUSH1 0x13 DUP4 PUSH2 0x174A JUMP JUMPDEST SWAP2 POP PUSH2 0x1BB8 DUP3 PUSH2 0x1B79 JUMP JUMPDEST PUSH1 0x20 DUP3 ADD SWAP1 POP SWAP2 SWAP1 POP JUMP JUMPDEST PUSH0 PUSH1 0x20 DUP3 ADD SWAP1 POP DUP2 DUP2 SUB PUSH0 DUP4 ADD MSTORE PUSH2 0x1BDA DUP2 PUSH2 0x1BA1 JUMP JUMPDEST SWAP1 POP SWAP2 SWAP1 POP JUMP JUMPDEST PUSH32 0x6E6F7420617574686F72697A6564000000000000000000000000000000000000 PUSH0 DUP3 ADD MSTORE POP JUMP JUMPDEST PUSH0 PUSH2 0x1C15 PUSH1 0xE DUP4 PUSH2 0x174A JUMP JUMPDEST SWAP2 POP PUSH2 0x1C20 DUP3 PUSH2 0x1BE1 JUMP JUMPDEST PUSH1 0x20 DUP3 ADD SWAP1 POP SWAP2 SWAP1 POP JUMP JUMPDEST PUSH0 PUSH1 0x20 DUP3 ADD SWAP1 POP DUP2 DUP2 SUB PUSH0 DUP4 ADD MSTORE PUSH2 0x1C42 DUP2 PUSH2 0x1C09 JUMP JUMPDEST SWAP1 POP SWAP2 SWAP1 POP JUMP JUMPDEST PUSH32 0x6E6F7420616E20617574686F72697A6564206D696E7465720000000000000000 PUSH0 DUP3 ADD MSTORE POP JUMP JUMPDEST PUSH0 PUSH2 0x1C7D PUSH1 0x18 DUP4 PUSH2 0x174A JUMP JUMPDEST SWAP2 POP PUSH2 0x1C88 DUP3 PUSH2 0x1C49 JUMP JUMPDEST PUSH1 0x20 DUP3 ADD SWAP1 POP SWAP2 SWAP1 POP JUMP JUMPDEST PUSH0 PUSH1 0x20 DUP3 ADD SWAP1 POP DUP2 DUP2 SUB PUSH0 DUP4 ADD MSTORE PUSH2 0x1CAA DUP2 PUSH2 0x1C71 JUMP JUMPDEST SWAP1 POP SWAP2 SWAP1 POP JUMP JUMPDEST PUSH32 0x62616C616E636520717565727920666F72207A65726F20616464726573730000 PUSH0 DUP3 ADD MSTORE POP JUMP JUMPDEST PUSH0 PUSH2 0x1CE5 PUSH1 0x1E DUP4 PUSH2 0x174A JUMP JUMPDEST SWAP2 POP PUSH2 0x1CF0 DUP3 PUSH2 0x1CB1 JUMP JUMPDEST PUSH1 0x20 DUP3 ADD SWAP1 POP SWAP2 SWAP1 POP JUMP JUMPDEST PUSH0 PUSH1 0x20 DUP3 ADD SWAP1 POP DUP2 DUP2 SUB PUSH0 DUP4 ADD MSTORE PUSH2 0x1D12 DUP2 PUSH2 0x1CD9 JUMP JUMPDEST SWAP1 POP SWAP2 SWAP1 POP JUMP JUMPDEST PUSH32 0x66726F6D20213D206F776E657200000000000000000000000000000000000000 PUSH0 DUP3 ADD MSTORE POP JUMP JUMPDEST PUSH0 PUSH2 0x1D4D PUSH1 0xD DUP4 PUSH2 0x174A JUMP JUMPDEST SWAP2 POP PUSH2 0x1D58 DUP3 PUSH2 0x1D19 JUMP JUMPDEST PUSH1 0x20 DUP3 ADD SWAP1 POP SWAP2 SWAP1 POP JUMP JUMPDEST PUSH0 PUSH1 0x20 DUP3 ADD SWAP1 POP DUP2 DUP2 SUB PUSH0 DUP4 ADD MSTORE PUSH2 0x1D7A DUP2 PUSH2 0x1D41 JUMP JUMPDEST SWAP1 POP SWAP2 SWAP1 POP JUMP JUMPDEST PUSH32 0x7472616E7366657220746F207A65726F20616464726573730000000000000000 PUSH0 DUP3 ADD MSTORE POP JUMP JUMPDEST PUSH0 PUSH2 0x1DB5 PUSH1 0x18 DUP4 PUSH2 0x174A JUMP JUMPDEST SWAP2 POP PUSH2 0x1DC0 DUP3 PUSH2 0x1D81 JUMP JUMPDEST PUSH1 0x20 DUP3 ADD SWAP1 POP SWAP2 SWAP1 POP JUMP JUMPDEST PUSH0 PUSH1 0x20 DUP3 ADD SWAP1 POP DUP2 DUP2 SUB PUSH0 DUP4 ADD MSTORE PUSH2 0x1DE2 DUP2 PUSH2 0x1DA9 JUMP JUMPDEST SWAP1 POP SWAP2 SWAP1 POP JUMP JUMPDEST PUSH32 0x4E487B7100000000000000000000000000000000000000000000000000000000 PUSH0 MSTORE PUSH1 0x11 PUSH1 0x4 MSTORE PUSH1 0x24 PUSH0 REVERT JUMPDEST PUSH0 PUSH2 0x1E20 DUP3 PUSH2 0x17D0 JUMP JUMPDEST SWAP2 POP PUSH0 DUP3 SUB PUSH2 0x1E32 JUMPI PUSH2 0x1E31 PUSH2 0x1DE9 JUMP JUMPDEST JUMPDEST PUSH1 0x1 DUP3 SUB SWAP1 POP SWAP2 SWAP1 POP JUMP JUMPDEST PUSH0 PUSH2 0x1E47 DUP3 PUSH2 0x17D0 JUMP JUMPDEST SWAP2 POP PUSH32 0xFFFFFFFFFFFFFFFFFFFFFFFFFFFFFFFFFFFFFFFFFFFFFFFFFFFFFFFFFFFFFFFF DUP3 SUB PUSH2 0x1E79 JUMPI PUSH2 0x1E78 PUSH2 0x1DE9 JUMP JUMPDEST JUMPDEST PUSH1 0x1 DUP3 ADD SWAP1 POP SWAP2 SWAP1 POP JUMP JUMPDEST PUSH32 0x6D696E7420746F207A65726F2061646472657373000000000000000000000000 PUSH0 DUP3 ADD MSTORE POP JUMP JUMPDEST PUSH0 PUSH2 0x1EB8 PUSH1 0x14 DUP4 PUSH2 0x174A JUMP JUMPDEST SWAP2 POP PUSH2 0x1EC3 DUP3 PUSH2 0x1E84 JUMP JUMPDEST PUSH1 0x20 DUP3 ADD SWAP1 POP SWAP2 SWAP1 POP JUMP JUMPDEST PUSH0 PUSH1 0x20 DUP3 ADD SWAP1 POP DUP2 DUP2 SUB PUSH0 DUP4 ADD MSTORE PUSH2 0x1EE5 DUP2 PUSH2 0x1EAC JUMP JUMPDEST SWAP1 POP SWAP2 SWAP1 POP JUMP JUMPDEST PUSH32 0x616C7265616479206D696E746564000000000000000000000000000000000000 PUSH0 DUP3 ADD MSTORE POP JUMP JUMPDEST PUSH0 PUSH2 0x1F20 PUSH1 0xE DUP4 PUSH2 0x174A JUMP JUMPDEST SWAP2 POP PUSH2 0x1F2B DUP3 PUSH2 0x1EEC JUMP JUMPDEST PUSH1 0x20 DUP3 ADD SWAP1 POP SWAP2 SWAP1 POP JUMP JUMPDEST PUSH0 PUSH1 0x20 DUP3 ADD SWAP1 POP DUP2 DUP2 SUB PUSH0 DUP4 ADD MSTORE PUSH2 0x1F4D DUP2 PUSH2 0x1F14 JUMP JUMPDEST SWAP1 POP SWAP2 SWAP1 POP JUMP JUMPDEST PUSH0 DUP2 MLOAD SWAP1 POP SWAP2 SWAP1 POP JUMP JUMPDEST PUSH0 DUP3 DUP3 MSTORE PUSH1 0x20 DUP3 ADD SWAP1 POP SWAP3 SWAP2 POP POP JUMP JUMPDEST PUSH0 PUSH2 0x1F78 DUP3 PUSH2 0x1F54 JUMP JUMPDEST PUSH2 0x1F82 DUP2 DUP6 PUSH2 0x1F5E JUMP JUMPDEST SWAP4 POP PUSH2 0x1F92 DUP2 DUP6 PUSH1 0x20 DUP7 ADD PUSH2 0x175A JUMP JUMPDEST PUSH2 0x1F9B DUP2 PUSH2 0x1768 JUMP JUMPDEST DUP5 ADD SWAP2 POP POP SWAP3 SWAP2 POP POP JUMP JUMPDEST PUSH0 PUSH1 0x80 DUP3 ADD SWAP1 POP PUSH2 0x1FB9 PUSH0 DUP4 ADD DUP8 PUSH2 0x185E JUMP JUMPDEST PUSH2 0x1FC6 PUSH1 0x20 DUP4 ADD DUP7 PUSH2 0x185E JUMP JUMPDEST PUSH2 0x1FD3 PUSH1 0x40 DUP4 ADD DUP6 PUSH2 0x1969 JUMP JUMPDEST DUP2 DUP2 SUB PUSH1 0x60 DUP4 ADD MSTORE PUSH2 0x1FE5 DUP2 DUP5 PUSH2 0x1F6E JUMP JUMPDEST SWAP1 POP SWAP6 SWAP5 POP POP POP POP POP JUMP JUMPDEST PUSH0 DUP2 MLOAD SWAP1 POP PUSH2 0x1FFE DUP2 PUSH2 0x16B8 JUMP JUMPDEST SWAP3 SWAP2 POP POP JUMP JUMPDEST PUSH0 PUSH1 0x20 DUP3 DUP5 SUB SLT ISZERO PUSH2 0x2019 JUMPI PUSH2 0x2018 PUSH2 0x1685 JUMP JUMPDEST JUMPDEST PUSH0 PUSH2 0x2026 DUP5 DUP3 DUP6 ADD PUSH2 0x1FF0 JUMP JUMPDEST SWAP2 POP POP SWAP3 SWAP2 POP POP JUMP JUMPDEST PUSH32 0x756E7361666520726563697069656E7400000000000000000000000000000000 PUSH0 DUP3 ADD MSTORE POP JUMP JUMPDEST PUSH0 PUSH2 0x2063 PUSH1 0x10 DUP4 PUSH2 0x174A JUMP JUMPDEST SWAP2 POP PUSH2 0x206E DUP3 PUSH2 0x202F JUMP JUMPDEST PUSH1 0x20 DUP3 ADD SWAP1 POP SWAP2 SWAP1 POP JUMP JUMPDEST PUSH0 PUSH1 0x20 DUP3 ADD SWAP1 POP DUP2 DUP2 SUB PUSH0 DUP4 ADD MSTORE PUSH2 0x2090 DUP2 PUSH2 0x2057 JUMP JUMPDEST SWAP1 POP SWAP2 SWAP1 POP JUMP INVALID LOG2 PUSH5 0x6970667358 0x22 SLT KECCAK256 DUP11 0xA7 DUP8 CALLER RETURNDATACOPY PUSH1 0xAB DIV PUSH15 0x10D767D1C295BE116AEBE4A11A3F80 SELFBALANCE 0x2F NOT NOT PREVRANDAO EXP 0x24 SWAP5 PUSH5 0x736F6C6343 STOP ADDMOD BYTE STOP CALLER "
				},
				"gasEstimates": {
					"creation": {
						"codeDepositCost": "1679400",
						"executionCost": "infinite",
						"totalCost": "infinite"
					},
					"external": {
						"_operatorApprovals(address,address)": "infinite",
						"approve(address,uint256)": "31473",
						"balanceOf(address)": "2931",
						"founder()": "2528",
						"getApproved(uint256)": "5166",
						"isApprovedForAll(address,address)": "infinite",
						"mintNFT(address,uint256)": "infinite",
						"name()": "infinite",
						"ownerOf(uint256)": "2986",
						"safeTransferFrom(address,address,uint256)": "infinite",
						"safeTransferFrom(address,address,uint256,bytes)": "infinite",
						"setApprovalForAll(address,bool)": "infinite",
						"supportsInterface(bytes4)": "699",
						"symbol()": "infinite",
						"transferFrom(address,address,uint256)": "infinite"
					},
					"internal": {
						"_mint(address,uint256)": "infinite",
						"_safeTransferFrom(address,address,uint256,bytes memory)": "infinite",
						"_transferFrom(address,address,uint256)": "infinite"
					}
				},
				"methodIdentifiers": {
					"_operatorApprovals(address,address)": "edc3bc3f",
					"approve(address,uint256)": "095ea7b3",
					"balanceOf(address)": "70a08231",
					"founder()": "4d853ee5",
					"getApproved(uint256)": "081812fc",
					"isApprovedForAll(address,address)": "e985e9c5",
					"mintNFT(address,uint256)": "3c168eab",
					"name()": "06fdde03",
					"ownerOf(uint256)": "6352211e",
					"safeTransferFrom(address,address,uint256)": "42842e0e",
					"safeTransferFrom(address,address,uint256,bytes)": "b88d4fde",
					"setApprovalForAll(address,bool)": "a22cb465",
					"supportsInterface(bytes4)": "01ffc9a7",
					"symbol()": "95d89b41",
					"transferFrom(address,address,uint256)": "23b872dd"
				}
			},
			"storageLayout": {
				"storage": [
					{
						"astId": 127,
						"contract": "scripts/ERC721StdNFT.sol:ERC721StdNFT",
						"label": "founder",
						"offset": 0,
						"slot": "0",
						"type": "t_address"
					},
					{
						"astId": 131,
						"contract": "scripts/ERC721StdNFT.sol:ERC721StdNFT",
						"label": "_ownerOf",
						"offset": 0,
						"slot": "1",
						"type": "t_mapping(t_uint256,t_address)"
					},
					{
						"astId": 135,
						"contract": "scripts/ERC721StdNFT.sol:ERC721StdNFT",
						"label": "_balanceOf",
						"offset": 0,
						"slot": "2",
						"type": "t_mapping(t_address,t_uint256)"
					},
					{
						"astId": 139,
						"contract": "scripts/ERC721StdNFT.sol:ERC721StdNFT",
						"label": "_approvals",
						"offset": 0,
						"slot": "3",
						"type": "t_mapping(t_uint256,t_address)"
					},
					{
						"astId": 145,
						"contract": "scripts/ERC721StdNFT.sol:ERC721StdNFT",
						"label": "_operatorApprovals",
						"offset": 0,
						"slot": "4",
						"type": "t_mapping(t_address,t_mapping(t_address,t_bool))"
					},
					{
						"astId": 147,
						"contract": "scripts/ERC721StdNFT.sol:ERC721StdNFT",
						"label": "name",
						"offset": 0,
						"slot": "5",
						"type": "t_string_storage"
					},
					{
						"astId": 149,
						"contract": "scripts/ERC721StdNFT.sol:ERC721StdNFT",
						"label": "symbol",
						"offset": 0,
						"slot": "6",
						"type": "t_string_storage"
					}
				],
				"types": {
					"t_address": {
						"encoding": "inplace",
						"label": "address",
						"numberOfBytes": "20"
					},
					"t_bool": {
						"encoding": "inplace",
						"label": "bool",
						"numberOfBytes": "1"
					},
					"t_mapping(t_address,t_bool)": {
						"encoding": "mapping",
						"key": "t_address",
						"label": "mapping(address => bool)",
						"numberOfBytes": "32",
						"value": "t_bool"
					},
					"t_mapping(t_address,t_mapping(t_address,t_bool))": {
						"encoding": "mapping",
						"key": "t_address",
						"label": "mapping(address => mapping(address => bool))",
						"numberOfBytes": "32",
						"value": "t_mapping(t_address,t_bool)"
					},
					"t_mapping(t_address,t_uint256)": {
						"encoding": "mapping",
						"key": "t_address",
						"label": "mapping(address => uint256)",
						"numberOfBytes": "32",
						"value": "t_uint256"
					},
					"t_mapping(t_uint256,t_address)": {
						"encoding": "mapping",
						"key": "t_uint256",
						"label": "mapping(uint256 => address)",
						"numberOfBytes": "32",
						"value": "t_address"
					},
					"t_string_storage": {
						"encoding": "bytes",
						"label": "string",
						"numberOfBytes": "32"
					},
					"t_uint256": {
						"encoding": "inplace",
						"label": "uint256",
						"numberOfBytes": "32"
					}
				}
			},
			"userdoc": {
				"kind": "user",
				"methods": {},
				"version": 1
			}
		}
	}
}