{
	"scripts/Lottery.sol": {
		"Lottery": {
			"abi": [
				{
					"inputs": [],
					"stateMutability": "nonpayable",
					"type": "constructor"
				},
				{
					"anonymous": false,
					"inputs": [
						{
							"indexed": false,
							"internalType": "bool",
							"name": "isOpen",
							"type": "bool"
						}
					],
					"name": "BettingPhaseChanged",
					"type": "event"
				},
				{
					"anonymous": false,
					"inputs": [
						{
							"indexed": true,
							"internalType": "address",
							"name": "player",
							"type": "address"
						}
					],
					"name": "PlayerEntered",
					"type": "event"
				},
				{
					"anonymous": false,
					"inputs": [
						{
							"indexed": true,
							"internalType": "address",
							"name": "winner",
							"type": "address"
						},
						{
							"indexed": false,
							"internalType": "uint256",
							"name": "amount",
							"type": "uint256"
						}
					],
					"name": "WinnerPicked",
					"type": "event"
				},
				{
					"inputs": [],
					"name": "enter",
					"outputs": [],
					"stateMutability": "payable",
					"type": "function"
				},
				{
					"inputs": [],
					"name": "getPlayers",
					"outputs": [
						{
							"internalType": "address[]",
							"name": "",
							"type": "address[]"
						}
					],
					"stateMutability": "view",
					"type": "function"
				},
				{
					"inputs": [],
					"name": "isBettingOpen",
					"outputs": [
						{
							"internalType": "bool",
							"name": "",
							"type": "bool"
						}
					],
					"stateMutability": "view",
					"type": "function"
				},
				{
					"inputs": [],
					"name": "manager",
					"outputs": [
						{
							"internalType": "address",
							"name": "",
							"type": "address"
						}
					],
					"stateMutability": "view",
					"type": "function"
				},
				{
					"inputs": [],
					"name": "pickWinner",
					"outputs": [],
					"stateMutability": "nonpayable",
					"type": "function"
				},
				{
					"inputs": [
						{
							"internalType": "uint256",
							"name": "",
							"type": "uint256"
						}
					],
					"name": "players",
					"outputs": [
						{
							"internalType": "address",
							"name": "",
							"type": "address"
						}
					],
					"stateMutability": "view",
					"type": "function"
				},
				{
					"inputs": [
						{
							"internalType": "bool",
							"name": "_isOpen",
							"type": "bool"
						}
					],
					"name": "setBettingPhase",
					"outputs": [],
					"stateMutability": "nonpayable",
					"type": "function"
				}
			],
			"devdoc": {
				"kind": "dev",
				"methods": {},
				"version": 1
			},
			"evm": {
				"assembly": "    /* \"scripts/Lottery.sol\":57:3256  contract Lottery {... */\n  mstore(0x40, 0x80)\n    /* \"scripts/Lottery.sol\":761:873  constructor() {... */\n  callvalue\n  dup1\n  iszero\n  tag_1\n  jumpi\n  0x00\n  dup1\n  revert\ntag_1:\n  pop\n    /* \"scripts/Lottery.sol\":795:805  msg.sender */\n  caller\n    /* \"scripts/Lottery.sol\":785:792  manager */\n  0x00\n  dup1\n    /* \"scripts/Lottery.sol\":785:805  manager = msg.sender */\n  0x0100\n  exp\n  dup2\n  sload\n  dup2\n  0xffffffffffffffffffffffffffffffffffffffff\n  mul\n  not\n  and\n  swap1\n  dup4\n  0xffffffffffffffffffffffffffffffffffffffff\n  and\n  mul\n  or\n  swap1\n  sstore\n  pop\n    /* \"scripts/Lottery.sol\":831:835  true */\n  0x01\n    /* \"scripts/Lottery.sol\":815:828  isBettingOpen */\n  0x02\n  0x00\n    /* \"scripts/Lottery.sol\":815:835  isBettingOpen = true */\n  0x0100\n  exp\n  dup2\n  sload\n  dup2\n  0xff\n  mul\n  not\n  and\n  swap1\n  dup4\n  iszero\n  iszero\n  mul\n  or\n  swap1\n  sstore\n  pop\n    /* \"scripts/Lottery.sol\":57:3256  contract Lottery {... */\n  dataSize(sub_0)\n  dup1\n  dataOffset(sub_0)\n  0x00\n  codecopy\n  0x00\n  return\nstop\n\nsub_0: assembly {\n        /* \"scripts/Lottery.sol\":57:3256  contract Lottery {... */\n      mstore(0x40, 0x80)\n      jumpi(tag_1, lt(calldatasize, 0x04))\n      shr(0xe0, calldataload(0x00))\n      dup1\n      0xe97dcb62\n      gt\n      tag_9\n      jumpi\n      dup1\n      0xe97dcb62\n      eq\n      tag_5\n      jumpi\n      dup1\n      0xee4eb586\n      eq\n      tag_6\n      jumpi\n      dup1\n      0xf71d96cb\n      eq\n      tag_7\n      jumpi\n      dup1\n      0xff22717e\n      eq\n      tag_8\n      jumpi\n      jump(tag_1)\n    tag_9:\n      dup1\n      0x481c6a75\n      eq\n      tag_2\n      jumpi\n      dup1\n      0x5d495aea\n      eq\n      tag_3\n      jumpi\n      dup1\n      0x8b5b9ccc\n      eq\n      tag_4\n      jumpi\n    tag_1:\n      0x00\n      dup1\n      revert\n        /* \"scripts/Lottery.sol\":80:102  address public manager */\n    tag_2:\n      callvalue\n      dup1\n      iszero\n      tag_10\n      jumpi\n      0x00\n      dup1\n      revert\n    tag_10:\n      pop\n      tag_11\n      tag_12\n      jump\t// in\n    tag_11:\n      mload(0x40)\n      tag_13\n      swap2\n      swap1\n      tag_14\n      jump\t// in\n    tag_13:\n      mload(0x40)\n      dup1\n      swap2\n      sub\n      swap1\n      return\n        /* \"scripts/Lottery.sol\":1685:2359  function pickWinner() public restricted {... */\n    tag_3:\n      callvalue\n      dup1\n      iszero\n      tag_15\n      jumpi\n      0x00\n      dup1\n      revert\n    tag_15:\n      pop\n      tag_16\n      tag_17\n      jump\t// in\n    tag_16:\n      stop\n        /* \"scripts/Lottery.sol\":917:1009  function getPlayers() public view returns (address[] memory) {... */\n    tag_4:\n      callvalue\n      dup1\n      iszero\n      tag_18\n      jumpi\n      0x00\n      dup1\n      revert\n    tag_18:\n      pop\n      tag_19\n      tag_20\n      jump\t// in\n    tag_19:\n      mload(0x40)\n      tag_21\n      swap2\n      swap1\n      tag_22\n      jump\t// in\n    tag_21:\n      mload(0x40)\n      dup1\n      swap2\n      sub\n      swap1\n      return\n        /* \"scripts/Lottery.sol\":1065:1624  function enter() public payable {... */\n    tag_5:\n      tag_23\n      tag_24\n      jump\t// in\n    tag_23:\n      stop\n        /* \"scripts/Lottery.sol\":181:206  bool public isBettingOpen */\n    tag_6:\n      callvalue\n      dup1\n      iszero\n      tag_25\n      jumpi\n      0x00\n      dup1\n      revert\n    tag_25:\n      pop\n      tag_26\n      tag_27\n      jump\t// in\n    tag_26:\n      mload(0x40)\n      tag_28\n      swap2\n      swap1\n      tag_29\n      jump\t// in\n    tag_28:\n      mload(0x40)\n      dup1\n      swap2\n      sub\n      swap1\n      return\n        /* \"scripts/Lottery.sol\":128:152  address[] public players */\n    tag_7:\n      callvalue\n      dup1\n      iszero\n      tag_30\n      jumpi\n      0x00\n      dup1\n      revert\n    tag_30:\n      pop\n      tag_31\n      0x04\n      dup1\n      calldatasize\n      sub\n      dup2\n      add\n      swap1\n      tag_32\n      swap2\n      swap1\n      tag_33\n      jump\t// in\n    tag_32:\n      tag_34\n      jump\t// in\n    tag_31:\n      mload(0x40)\n      tag_35\n      swap2\n      swap1\n      tag_14\n      jump\t// in\n    tag_35:\n      mload(0x40)\n      dup1\n      swap2\n      sub\n      swap1\n      return\n        /* \"scripts/Lottery.sol\":2987:3254  function setBettingPhase(bool _isOpen) public restricted {... */\n    tag_8:\n      callvalue\n      dup1\n      iszero\n      tag_36\n      jumpi\n      0x00\n      dup1\n      revert\n    tag_36:\n      pop\n      tag_37\n      0x04\n      dup1\n      calldatasize\n      sub\n      dup2\n      add\n      swap1\n      tag_38\n      swap2\n      swap1\n      tag_39\n      jump\t// in\n    tag_38:\n      tag_40\n      jump\t// in\n    tag_37:\n      stop\n        /* \"scripts/Lottery.sol\":80:102  address public manager */\n    tag_12:\n      0x00\n      dup1\n      sload\n      swap1\n      0x0100\n      exp\n      swap1\n      div\n      0xffffffffffffffffffffffffffffffffffffffff\n      and\n      dup2\n      jump\t// out\n        /* \"scripts/Lottery.sol\":1685:2359  function pickWinner() public restricted {... */\n    tag_17:\n        /* \"scripts/Lottery.sol\":623:630  manager */\n      0x00\n      dup1\n      sload\n      swap1\n      0x0100\n      exp\n      swap1\n      div\n      0xffffffffffffffffffffffffffffffffffffffff\n      and\n        /* \"scripts/Lottery.sol\":609:630  msg.sender == manager */\n      0xffffffffffffffffffffffffffffffffffffffff\n      and\n        /* \"scripts/Lottery.sol\":609:619  msg.sender */\n      caller\n        /* \"scripts/Lottery.sol\":609:630  msg.sender == manager */\n      0xffffffffffffffffffffffffffffffffffffffff\n      and\n      eq\n        /* \"scripts/Lottery.sol\":601:670  require(msg.sender == manager, \"Only manager can call this function\") */\n      tag_42\n      jumpi\n      mload(0x40)\n      0x08c379a000000000000000000000000000000000000000000000000000000000\n      dup2\n      mstore\n      0x04\n      add\n      tag_43\n      swap1\n      tag_44\n      jump\t// in\n    tag_43:\n      mload(0x40)\n      dup1\n      swap2\n      sub\n      swap1\n      revert\n    tag_42:\n        /* \"scripts/Lottery.sol\":1760:1761  0 */\n      0x00\n        /* \"scripts/Lottery.sol\":1743:1750  players */\n      0x01\n        /* \"scripts/Lottery.sol\":1743:1757  players.length */\n      dup1\n      sload\n      swap1\n      pop\n        /* \"scripts/Lottery.sol\":1743:1761  players.length > 0 */\n      gt\n        /* \"scripts/Lottery.sol\":1735:1791  require(players.length > 0, \"No players in the lottery\") */\n      tag_46\n      jumpi\n      mload(0x40)\n      0x08c379a000000000000000000000000000000000000000000000000000000000\n      dup2\n      mstore\n      0x04\n      add\n      tag_47\n      swap1\n      tag_48\n      jump\t// in\n    tag_47:\n      mload(0x40)\n      dup1\n      swap2\n      sub\n      swap1\n      revert\n    tag_46:\n        /* \"scripts/Lottery.sol\":1858:1871  isBettingOpen */\n      0x02\n      0x00\n      swap1\n      sload\n      swap1\n      0x0100\n      exp\n      swap1\n      div\n      0xff\n      and\n        /* \"scripts/Lottery.sol\":1854:1920  if (isBettingOpen) {... */\n      iszero\n      tag_49\n      jumpi\n        /* \"scripts/Lottery.sol\":1887:1909  setBettingPhase(false) */\n      tag_50\n        /* \"scripts/Lottery.sol\":1903:1908  false */\n      0x00\n        /* \"scripts/Lottery.sol\":1887:1902  setBettingPhase */\n      tag_40\n        /* \"scripts/Lottery.sol\":1887:1909  setBettingPhase(false) */\n      jump\t// in\n    tag_50:\n        /* \"scripts/Lottery.sol\":1854:1920  if (isBettingOpen) {... */\n    tag_49:\n        /* \"scripts/Lottery.sol\":1968:1984  uint winnerIndex */\n      0x00\n        /* \"scripts/Lottery.sol\":1999:2006  players */\n      0x01\n        /* \"scripts/Lottery.sol\":1999:2013  players.length */\n      dup1\n      sload\n      swap1\n      pop\n        /* \"scripts/Lottery.sol\":1987:1996  _random() */\n      tag_51\n        /* \"scripts/Lottery.sol\":1987:1994  _random */\n      tag_52\n        /* \"scripts/Lottery.sol\":1987:1996  _random() */\n      jump\t// in\n    tag_51:\n        /* \"scripts/Lottery.sol\":1987:2013  _random() % players.length */\n      tag_53\n      swap2\n      swap1\n      tag_54\n      jump\t// in\n    tag_53:\n        /* \"scripts/Lottery.sol\":1968:2013  uint winnerIndex = _random() % players.length */\n      swap1\n      pop\n        /* \"scripts/Lottery.sol\":2023:2037  address winner */\n      0x00\n        /* \"scripts/Lottery.sol\":2040:2047  players */\n      0x01\n        /* \"scripts/Lottery.sol\":2048:2059  winnerIndex */\n      dup3\n        /* \"scripts/Lottery.sol\":2040:2060  players[winnerIndex] */\n      dup2\n      sload\n      dup2\n      lt\n      tag_55\n      jumpi\n      tag_56\n      tag_57\n      jump\t// in\n    tag_56:\n    tag_55:\n      swap1\n      0x00\n      mstore\n      keccak256(0x00, 0x20)\n      add\n      0x00\n      swap1\n      sload\n      swap1\n      0x0100\n      exp\n      swap1\n      div\n      0xffffffffffffffffffffffffffffffffffffffff\n      and\n        /* \"scripts/Lottery.sol\":2023:2060  address winner = players[winnerIndex] */\n      swap1\n      pop\n        /* \"scripts/Lottery.sol\":2070:2086  uint prizeAmount */\n      0x00\n        /* \"scripts/Lottery.sol\":2089:2110  address(this).balance */\n      selfbalance\n        /* \"scripts/Lottery.sol\":2070:2110  uint prizeAmount = address(this).balance */\n      swap1\n      pop\n        /* \"scripts/Lottery.sol\":2183:2189  winner */\n      dup2\n        /* \"scripts/Lottery.sol\":2175:2199  payable(winner).transfer */\n      0xffffffffffffffffffffffffffffffffffffffff\n      and\n        /* \"scripts/Lottery.sol\":2175:2212  payable(winner).transfer(prizeAmount) */\n      0x08fc\n        /* \"scripts/Lottery.sol\":2200:2211  prizeAmount */\n      dup3\n        /* \"scripts/Lottery.sol\":2175:2212  payable(winner).transfer(prizeAmount) */\n      swap1\n      dup2\n      iszero\n      mul\n      swap1\n      mload(0x40)\n      0x00\n      mload(0x40)\n      dup1\n      dup4\n      sub\n      dup2\n      dup6\n      dup9\n      dup9\n      call\n      swap4\n      pop\n      pop\n      pop\n      pop\n      iszero\n      dup1\n      iszero\n      tag_60\n      jumpi\n      returndatasize\n      0x00\n      dup1\n      returndatacopy\n      revert(0x00, returndatasize)\n    tag_60:\n      pop\n        /* \"scripts/Lottery.sol\":2241:2247  winner */\n      dup2\n        /* \"scripts/Lottery.sol\":2228:2261  WinnerPicked(winner, prizeAmount) */\n      0xffffffffffffffffffffffffffffffffffffffff\n      and\n      0x64791dbae5677392ba76761a5273633cec8f1d9d8cfe808da7bac6ef16a880be\n        /* \"scripts/Lottery.sol\":2249:2260  prizeAmount */\n      dup3\n        /* \"scripts/Lottery.sol\":2228:2261  WinnerPicked(winner, prizeAmount) */\n      mload(0x40)\n      tag_61\n      swap2\n      swap1\n      tag_62\n      jump\t// in\n    tag_61:\n      mload(0x40)\n      dup1\n      swap2\n      sub\n      swap1\n      log2\n        /* \"scripts/Lottery.sol\":2337:2352  _resetLottery() */\n      tag_63\n        /* \"scripts/Lottery.sol\":2337:2350  _resetLottery */\n      tag_64\n        /* \"scripts/Lottery.sol\":2337:2352  _resetLottery() */\n      jump\t// in\n    tag_63:\n        /* \"scripts/Lottery.sol\":1725:2359  {... */\n      pop\n      pop\n      pop\n        /* \"scripts/Lottery.sol\":1685:2359  function pickWinner() public restricted {... */\n      jump\t// out\n        /* \"scripts/Lottery.sol\":917:1009  function getPlayers() public view returns (address[] memory) {... */\n    tag_20:\n        /* \"scripts/Lottery.sol\":960:976  address[] memory */\n      0x60\n        /* \"scripts/Lottery.sol\":995:1002  players */\n      0x01\n        /* \"scripts/Lottery.sol\":988:1002  return players */\n      dup1\n      sload\n      dup1\n      0x20\n      mul\n      0x20\n      add\n      mload(0x40)\n      swap1\n      dup2\n      add\n      0x40\n      mstore\n      dup1\n      swap3\n      swap2\n      swap1\n      dup2\n      dup2\n      mstore\n      0x20\n      add\n      dup3\n      dup1\n      sload\n      dup1\n      iszero\n      tag_66\n      jumpi\n      0x20\n      mul\n      dup3\n      add\n      swap2\n      swap1\n      0x00\n      mstore\n      keccak256(0x00, 0x20)\n      swap1\n    tag_67:\n      dup2\n      0x00\n      swap1\n      sload\n      swap1\n      0x0100\n      exp\n      swap1\n      div\n      0xffffffffffffffffffffffffffffffffffffffff\n      and\n      0xffffffffffffffffffffffffffffffffffffffff\n      and\n      dup2\n      mstore\n      0x20\n      add\n      swap1\n      0x01\n      add\n      swap1\n      dup1\n      dup4\n      gt\n      tag_67\n      jumpi\n    tag_66:\n      pop\n      pop\n      pop\n      pop\n      pop\n      swap1\n      pop\n        /* \"scripts/Lottery.sol\":917:1009  function getPlayers() public view returns (address[] memory) {... */\n      swap1\n      jump\t// out\n        /* \"scripts/Lottery.sol\":1065:1624  function enter() public payable {... */\n    tag_24:\n        /* \"scripts/Lottery.sol\":1115:1128  isBettingOpen */\n      0x02\n      0x00\n      swap1\n      sload\n      swap1\n      0x0100\n      exp\n      swap1\n      div\n      0xff\n      and\n        /* \"scripts/Lottery.sol\":1107:1156  require(isBettingOpen, \"Betting phase is closed\") */\n      tag_69\n      jumpi\n      mload(0x40)\n      0x08c379a000000000000000000000000000000000000000000000000000000000\n      dup2\n      mstore\n      0x04\n      add\n      tag_70\n      swap1\n      tag_71\n      jump\t// in\n    tag_70:\n      mload(0x40)\n      dup1\n      swap2\n      sub\n      swap1\n      revert\n    tag_69:\n        /* \"scripts/Lottery.sol\":1218:1225  1 ether */\n      0x0de0b6b3a7640000\n        /* \"scripts/Lottery.sol\":1205:1214  msg.value */\n      callvalue\n        /* \"scripts/Lottery.sol\":1205:1225  msg.value == 1 ether */\n      eq\n        /* \"scripts/Lottery.sol\":1197:1268  require(msg.value == 1 ether, \"Betting amount must be exactly 1 Ether\") */\n      tag_72\n      jumpi\n      mload(0x40)\n      0x08c379a000000000000000000000000000000000000000000000000000000000\n      dup2\n      mstore\n      0x04\n      add\n      tag_73\n      swap1\n      tag_74\n      jump\t// in\n    tag_73:\n      mload(0x40)\n      dup1\n      swap2\n      sub\n      swap1\n      revert\n    tag_72:\n        /* \"scripts/Lottery.sol\":1287:1299  playerExists */\n      0x03\n        /* \"scripts/Lottery.sol\":1287:1311  playerExists[msg.sender] */\n      0x00\n        /* \"scripts/Lottery.sol\":1300:1310  msg.sender */\n      caller\n        /* \"scripts/Lottery.sol\":1287:1311  playerExists[msg.sender] */\n      0xffffffffffffffffffffffffffffffffffffffff\n      and\n      0xffffffffffffffffffffffffffffffffffffffff\n      and\n      dup2\n      mstore\n      0x20\n      add\n      swap1\n      dup2\n      mstore\n      0x20\n      add\n      0x00\n      keccak256\n      0x00\n      swap1\n      sload\n      swap1\n      0x0100\n      exp\n      swap1\n      div\n      0xff\n      and\n        /* \"scripts/Lottery.sol\":1286:1311  !playerExists[msg.sender] */\n      iszero\n        /* \"scripts/Lottery.sol\":1278:1342  require(!playerExists[msg.sender], \"Player has already entered\") */\n      tag_75\n      jumpi\n      mload(0x40)\n      0x08c379a000000000000000000000000000000000000000000000000000000000\n      dup2\n      mstore\n      0x04\n      add\n      tag_76\n      swap1\n      tag_77\n      jump\t// in\n    tag_76:\n      mload(0x40)\n      dup1\n      swap2\n      sub\n      swap1\n      revert\n    tag_75:\n        /* \"scripts/Lottery.sol\":1374:1381  manager */\n      0x00\n      dup1\n      sload\n      swap1\n      0x0100\n      exp\n      swap1\n      div\n      0xffffffffffffffffffffffffffffffffffffffff\n      and\n        /* \"scripts/Lottery.sol\":1360:1381  msg.sender != manager */\n      0xffffffffffffffffffffffffffffffffffffffff\n      and\n        /* \"scripts/Lottery.sol\":1360:1370  msg.sender */\n      caller\n        /* \"scripts/Lottery.sol\":1360:1381  msg.sender != manager */\n      0xffffffffffffffffffffffffffffffffffffffff\n      and\n      sub\n        /* \"scripts/Lottery.sol\":1352:1412  require(msg.sender != manager, \"Manager cannot participate\") */\n      tag_78\n      jumpi\n      mload(0x40)\n      0x08c379a000000000000000000000000000000000000000000000000000000000\n      dup2\n      mstore\n      0x04\n      add\n      tag_79\n      swap1\n      tag_80\n      jump\t// in\n    tag_79:\n      mload(0x40)\n      dup1\n      swap2\n      sub\n      swap1\n      revert\n    tag_78:\n        /* \"scripts/Lottery.sol\":1450:1457  players */\n      0x01\n        /* \"scripts/Lottery.sol\":1463:1473  msg.sender */\n      caller\n        /* \"scripts/Lottery.sol\":1450:1474  players.push(msg.sender) */\n      swap1\n      dup1\n      0x01\n      dup2\n      sload\n      add\n      dup1\n      dup3\n      sstore\n      dup1\n      swap2\n      pop\n      pop\n      0x01\n      swap1\n      sub\n      swap1\n      0x00\n      mstore\n      keccak256(0x00, 0x20)\n      add\n      0x00\n      swap1\n      swap2\n      swap1\n      swap2\n      swap1\n      swap2\n      0x0100\n      exp\n      dup2\n      sload\n      dup2\n      0xffffffffffffffffffffffffffffffffffffffff\n      mul\n      not\n      and\n      swap1\n      dup4\n      0xffffffffffffffffffffffffffffffffffffffff\n      and\n      mul\n      or\n      swap1\n      sstore\n      pop\n        /* \"scripts/Lottery.sol\":1511:1515  true */\n      0x01\n        /* \"scripts/Lottery.sol\":1484:1496  playerExists */\n      0x03\n        /* \"scripts/Lottery.sol\":1484:1508  playerExists[msg.sender] */\n      0x00\n        /* \"scripts/Lottery.sol\":1497:1507  msg.sender */\n      caller\n        /* \"scripts/Lottery.sol\":1484:1508  playerExists[msg.sender] */\n      0xffffffffffffffffffffffffffffffffffffffff\n      and\n      0xffffffffffffffffffffffffffffffffffffffff\n      and\n      dup2\n      mstore\n      0x20\n      add\n      swap1\n      dup2\n      mstore\n      0x20\n      add\n      0x00\n      keccak256\n      0x00\n        /* \"scripts/Lottery.sol\":1484:1515  playerExists[msg.sender] = true */\n      0x0100\n      exp\n      dup2\n      sload\n      dup2\n      0xff\n      mul\n      not\n      and\n      swap1\n      dup4\n      iszero\n      iszero\n      mul\n      or\n      swap1\n      sstore\n      pop\n        /* \"scripts/Lottery.sol\":1569:1579  msg.sender */\n      caller\n        /* \"scripts/Lottery.sol\":1555:1580  PlayerEntered(msg.sender) */\n      0xffffffffffffffffffffffffffffffffffffffff\n      and\n      0x4d999952f9aa655a216ee2df5968ca0e670e9582ddc96cfe7d8168114b8ca37f\n      mload(0x40)\n      mload(0x40)\n      dup1\n      swap2\n      sub\n      swap1\n      log2\n        /* \"scripts/Lottery.sol\":1065:1624  function enter() public payable {... */\n      jump\t// out\n        /* \"scripts/Lottery.sol\":181:206  bool public isBettingOpen */\n    tag_27:\n      0x02\n      0x00\n      swap1\n      sload\n      swap1\n      0x0100\n      exp\n      swap1\n      div\n      0xff\n      and\n      dup2\n      jump\t// out\n        /* \"scripts/Lottery.sol\":128:152  address[] public players */\n    tag_34:\n      0x01\n      dup2\n      dup2\n      sload\n      dup2\n      lt\n      tag_82\n      jumpi\n      0x00\n      dup1\n      revert\n    tag_82:\n      swap1\n      0x00\n      mstore\n      keccak256(0x00, 0x20)\n      add\n      0x00\n      swap2\n      pop\n      sload\n      swap1\n      0x0100\n      exp\n      swap1\n      div\n      0xffffffffffffffffffffffffffffffffffffffff\n      and\n      dup2\n      jump\t// out\n        /* \"scripts/Lottery.sol\":2987:3254  function setBettingPhase(bool _isOpen) public restricted {... */\n    tag_40:\n        /* \"scripts/Lottery.sol\":623:630  manager */\n      0x00\n      dup1\n      sload\n      swap1\n      0x0100\n      exp\n      swap1\n      div\n      0xffffffffffffffffffffffffffffffffffffffff\n      and\n        /* \"scripts/Lottery.sol\":609:630  msg.sender == manager */\n      0xffffffffffffffffffffffffffffffffffffffff\n      and\n        /* \"scripts/Lottery.sol\":609:619  msg.sender */\n      caller\n        /* \"scripts/Lottery.sol\":609:630  msg.sender == manager */\n      0xffffffffffffffffffffffffffffffffffffffff\n      and\n      eq\n        /* \"scripts/Lottery.sol\":601:670  require(msg.sender == manager, \"Only manager can call this function\") */\n      tag_85\n      jumpi\n      mload(0x40)\n      0x08c379a000000000000000000000000000000000000000000000000000000000\n      dup2\n      mstore\n      0x04\n      add\n      tag_86\n      swap1\n      tag_44\n      jump\t// in\n    tag_86:\n      mload(0x40)\n      dup1\n      swap2\n      sub\n      swap1\n      revert\n    tag_85:\n        /* \"scripts/Lottery.sol\":3079:3086  _isOpen */\n      dup1\n        /* \"scripts/Lottery.sol\":3062:3086  isBettingOpen != _isOpen */\n      iszero\n      iszero\n        /* \"scripts/Lottery.sol\":3062:3075  isBettingOpen */\n      0x02\n      0x00\n      swap1\n      sload\n      swap1\n      0x0100\n      exp\n      swap1\n      div\n      0xff\n      and\n        /* \"scripts/Lottery.sol\":3062:3086  isBettingOpen != _isOpen */\n      iszero\n      iszero\n      sub\n        /* \"scripts/Lottery.sol\":3054:3129  require(isBettingOpen != _isOpen, \"Betting phase is already in this state\") */\n      tag_88\n      jumpi\n      mload(0x40)\n      0x08c379a000000000000000000000000000000000000000000000000000000000\n      dup2\n      mstore\n      0x04\n      add\n      tag_89\n      swap1\n      tag_90\n      jump\t// in\n    tag_89:\n      mload(0x40)\n      dup1\n      swap2\n      sub\n      swap1\n      revert\n    tag_88:\n        /* \"scripts/Lottery.sol\":3155:3162  _isOpen */\n      dup1\n        /* \"scripts/Lottery.sol\":3139:3152  isBettingOpen */\n      0x02\n      0x00\n        /* \"scripts/Lottery.sol\":3139:3162  isBettingOpen = _isOpen */\n      0x0100\n      exp\n      dup2\n      sload\n      dup2\n      0xff\n      mul\n      not\n      and\n      swap1\n      dup4\n      iszero\n      iszero\n      mul\n      or\n      swap1\n      sstore\n      pop\n        /* \"scripts/Lottery.sol\":3178:3206  BettingPhaseChanged(_isOpen) */\n      0xf2db13ce33a99b98ece45277e546d638f5e364924f2fb1fcd832413b366318a2\n        /* \"scripts/Lottery.sol\":3198:3205  _isOpen */\n      dup2\n        /* \"scripts/Lottery.sol\":3178:3206  BettingPhaseChanged(_isOpen) */\n      mload(0x40)\n      tag_91\n      swap2\n      swap1\n      tag_29\n      jump\t// in\n    tag_91:\n      mload(0x40)\n      dup1\n      swap2\n      sub\n      swap1\n      log1\n        /* \"scripts/Lottery.sol\":2987:3254  function setBettingPhase(bool _isOpen) public restricted {... */\n      pop\n      jump\t// out\n        /* \"scripts/Lottery.sol\":2429:2580  function _random() private view returns (uint) {... */\n    tag_52:\n        /* \"scripts/Lottery.sol\":2470:2474  uint */\n      0x00\n        /* \"scripts/Lottery.sol\":2525:2537  block.number */\n      number\n        /* \"scripts/Lottery.sol\":2539:2554  block.timestamp */\n      timestamp\n        /* \"scripts/Lottery.sol\":2556:2563  players */\n      0x01\n        /* \"scripts/Lottery.sol\":2556:2570  players.length */\n      dup1\n      sload\n      swap1\n      pop\n        /* \"scripts/Lottery.sol\":2508:2571  abi.encodePacked(block.number, block.timestamp, players.length) */\n      add(0x20, mload(0x40))\n      tag_93\n      swap4\n      swap3\n      swap2\n      swap1\n      tag_94\n      jump\t// in\n    tag_93:\n      mload(0x40)\n      0x20\n      dup2\n      dup4\n      sub\n      sub\n      dup2\n      mstore\n      swap1\n      0x40\n      mstore\n        /* \"scripts/Lottery.sol\":2498:2572  keccak256(abi.encodePacked(block.number, block.timestamp, players.length)) */\n      dup1\n      mload\n      swap1\n      0x20\n      add\n      keccak256\n        /* \"scripts/Lottery.sol\":2493:2573  uint(keccak256(abi.encodePacked(block.number, block.timestamp, players.length))) */\n      0x00\n      shr\n        /* \"scripts/Lottery.sol\":2486:2573  return uint(keccak256(abi.encodePacked(block.number, block.timestamp, players.length))) */\n      swap1\n      pop\n        /* \"scripts/Lottery.sol\":2429:2580  function _random() private view returns (uint) {... */\n      swap1\n      jump\t// out\n        /* \"scripts/Lottery.sol\":2617:2917  function _resetLottery() private {... */\n    tag_64:\n        /* \"scripts/Lottery.sol\":2665:2671  uint i */\n      0x00\n        /* \"scripts/Lottery.sol\":2660:2786  for (uint i = 0; i < players.length; i++) {... */\n    tag_96:\n        /* \"scripts/Lottery.sol\":2681:2688  players */\n      0x01\n        /* \"scripts/Lottery.sol\":2681:2695  players.length */\n      dup1\n      sload\n      swap1\n      pop\n        /* \"scripts/Lottery.sol\":2677:2678  i */\n      dup2\n        /* \"scripts/Lottery.sol\":2677:2695  i < players.length */\n      lt\n        /* \"scripts/Lottery.sol\":2660:2786  for (uint i = 0; i < players.length; i++) {... */\n      iszero\n      tag_97\n      jumpi\n        /* \"scripts/Lottery.sol\":2743:2748  false */\n      0x00\n        /* \"scripts/Lottery.sol\":2716:2728  playerExists */\n      0x03\n        /* \"scripts/Lottery.sol\":2716:2740  playerExists[players[i]] */\n      0x00\n        /* \"scripts/Lottery.sol\":2729:2736  players */\n      0x01\n        /* \"scripts/Lottery.sol\":2737:2738  i */\n      dup5\n        /* \"scripts/Lottery.sol\":2729:2739  players[i] */\n      dup2\n      sload\n      dup2\n      lt\n      tag_99\n      jumpi\n      tag_100\n      tag_57\n      jump\t// in\n    tag_100:\n    tag_99:\n      swap1\n      0x00\n      mstore\n      keccak256(0x00, 0x20)\n      add\n      0x00\n      swap1\n      sload\n      swap1\n      0x0100\n      exp\n      swap1\n      div\n      0xffffffffffffffffffffffffffffffffffffffff\n      and\n        /* \"scripts/Lottery.sol\":2716:2740  playerExists[players[i]] */\n      0xffffffffffffffffffffffffffffffffffffffff\n      and\n      0xffffffffffffffffffffffffffffffffffffffff\n      and\n      dup2\n      mstore\n      0x20\n      add\n      swap1\n      dup2\n      mstore\n      0x20\n      add\n      0x00\n      keccak256\n      0x00\n        /* \"scripts/Lottery.sol\":2716:2748  playerExists[players[i]] = false */\n      0x0100\n      exp\n      dup2\n      sload\n      dup2\n      0xff\n      mul\n      not\n      and\n      swap1\n      dup4\n      iszero\n      iszero\n      mul\n      or\n      swap1\n      sstore\n      pop\n        /* \"scripts/Lottery.sol\":2697:2700  i++ */\n      dup1\n      dup1\n      0x01\n      add\n      swap2\n      pop\n      pop\n        /* \"scripts/Lottery.sol\":2660:2786  for (uint i = 0; i < players.length; i++) {... */\n      jump(tag_96)\n    tag_97:\n      pop\n        /* \"scripts/Lottery.sol\":2802:2809  players */\n      0x01\n      0x00\n        /* \"scripts/Lottery.sol\":2795:2809  delete players */\n      tag_102\n      swap2\n      swap1\n      tag_103\n      jump\t// in\n    tag_102:\n        /* \"scripts/Lottery.sol\":2835:2839  true */\n      0x01\n        /* \"scripts/Lottery.sol\":2819:2832  isBettingOpen */\n      0x02\n      0x00\n        /* \"scripts/Lottery.sol\":2819:2839  isBettingOpen = true */\n      0x0100\n      exp\n      dup2\n      sload\n      dup2\n      0xff\n      mul\n      not\n      and\n      swap1\n      dup4\n      iszero\n      iszero\n      mul\n      or\n      swap1\n      sstore\n      pop\n        /* \"scripts/Lottery.sol\":2855:2880  BettingPhaseChanged(true) */\n      0xf2db13ce33a99b98ece45277e546d638f5e364924f2fb1fcd832413b366318a2\n        /* \"scripts/Lottery.sol\":2875:2879  true */\n      0x01\n        /* \"scripts/Lottery.sol\":2855:2880  BettingPhaseChanged(true) */\n      mload(0x40)\n      tag_104\n      swap2\n      swap1\n      tag_29\n      jump\t// in\n    tag_104:\n      mload(0x40)\n      dup1\n      swap2\n      sub\n      swap1\n      log1\n        /* \"scripts/Lottery.sol\":2617:2917  function _resetLottery() private {... */\n      jump\t// out\n    tag_103:\n      pop\n      dup1\n      sload\n      0x00\n      dup3\n      sstore\n      swap1\n      0x00\n      mstore\n      keccak256(0x00, 0x20)\n      swap1\n      dup2\n      add\n      swap1\n      tag_106\n      swap2\n      swap1\n      tag_107\n      jump\t// in\n    tag_106:\n      pop\n      jump\t// out\n    tag_107:\n    tag_108:\n      dup1\n      dup3\n      gt\n      iszero\n      tag_109\n      jumpi\n      0x00\n      dup2\n      0x00\n      swap1\n      sstore\n      pop\n      0x01\n      add\n      jump(tag_108)\n    tag_109:\n      pop\n      swap1\n      jump\t// out\n        /* \"#utility.yul\":7:133   */\n    tag_110:\n        /* \"#utility.yul\":44:51   */\n      0x00\n        /* \"#utility.yul\":84:126   */\n      0xffffffffffffffffffffffffffffffffffffffff\n        /* \"#utility.yul\":77:82   */\n      dup3\n        /* \"#utility.yul\":73:127   */\n      and\n        /* \"#utility.yul\":62:127   */\n      swap1\n      pop\n        /* \"#utility.yul\":7:133   */\n      swap2\n      swap1\n      pop\n      jump\t// out\n        /* \"#utility.yul\":139:235   */\n    tag_111:\n        /* \"#utility.yul\":176:183   */\n      0x00\n        /* \"#utility.yul\":205:229   */\n      tag_152\n        /* \"#utility.yul\":223:228   */\n      dup3\n        /* \"#utility.yul\":205:229   */\n      tag_110\n      jump\t// in\n    tag_152:\n        /* \"#utility.yul\":194:229   */\n      swap1\n      pop\n        /* \"#utility.yul\":139:235   */\n      swap2\n      swap1\n      pop\n      jump\t// out\n        /* \"#utility.yul\":241:359   */\n    tag_112:\n        /* \"#utility.yul\":328:352   */\n      tag_154\n        /* \"#utility.yul\":346:351   */\n      dup2\n        /* \"#utility.yul\":328:352   */\n      tag_111\n      jump\t// in\n    tag_154:\n        /* \"#utility.yul\":323:326   */\n      dup3\n        /* \"#utility.yul\":316:353   */\n      mstore\n        /* \"#utility.yul\":241:359   */\n      pop\n      pop\n      jump\t// out\n        /* \"#utility.yul\":365:587   */\n    tag_14:\n        /* \"#utility.yul\":458:462   */\n      0x00\n        /* \"#utility.yul\":496:498   */\n      0x20\n        /* \"#utility.yul\":485:494   */\n      dup3\n        /* \"#utility.yul\":481:499   */\n      add\n        /* \"#utility.yul\":473:499   */\n      swap1\n      pop\n        /* \"#utility.yul\":509:580   */\n      tag_156\n        /* \"#utility.yul\":577:578   */\n      0x00\n        /* \"#utility.yul\":566:575   */\n      dup4\n        /* \"#utility.yul\":562:579   */\n      add\n        /* \"#utility.yul\":553:559   */\n      dup5\n        /* \"#utility.yul\":509:580   */\n      tag_112\n      jump\t// in\n    tag_156:\n        /* \"#utility.yul\":365:587   */\n      swap3\n      swap2\n      pop\n      pop\n      jump\t// out\n        /* \"#utility.yul\":593:707   */\n    tag_113:\n        /* \"#utility.yul\":660:666   */\n      0x00\n        /* \"#utility.yul\":694:699   */\n      dup2\n        /* \"#utility.yul\":688:700   */\n      mload\n        /* \"#utility.yul\":678:700   */\n      swap1\n      pop\n        /* \"#utility.yul\":593:707   */\n      swap2\n      swap1\n      pop\n      jump\t// out\n        /* \"#utility.yul\":713:897   */\n    tag_114:\n        /* \"#utility.yul\":812:823   */\n      0x00\n        /* \"#utility.yul\":846:852   */\n      dup3\n        /* \"#utility.yul\":841:844   */\n      dup3\n        /* \"#utility.yul\":834:853   */\n      mstore\n        /* \"#utility.yul\":886:890   */\n      0x20\n        /* \"#utility.yul\":881:884   */\n      dup3\n        /* \"#utility.yul\":877:891   */\n      add\n        /* \"#utility.yul\":862:891   */\n      swap1\n      pop\n        /* \"#utility.yul\":713:897   */\n      swap3\n      swap2\n      pop\n      pop\n      jump\t// out\n        /* \"#utility.yul\":903:1035   */\n    tag_115:\n        /* \"#utility.yul\":970:974   */\n      0x00\n        /* \"#utility.yul\":993:996   */\n      dup2\n        /* \"#utility.yul\":985:996   */\n      swap1\n      pop\n        /* \"#utility.yul\":1023:1027   */\n      0x20\n        /* \"#utility.yul\":1018:1021   */\n      dup3\n        /* \"#utility.yul\":1014:1028   */\n      add\n        /* \"#utility.yul\":1006:1028   */\n      swap1\n      pop\n        /* \"#utility.yul\":903:1035   */\n      swap2\n      swap1\n      pop\n      jump\t// out\n        /* \"#utility.yul\":1041:1149   */\n    tag_116:\n        /* \"#utility.yul\":1118:1142   */\n      tag_161\n        /* \"#utility.yul\":1136:1141   */\n      dup2\n        /* \"#utility.yul\":1118:1142   */\n      tag_111\n      jump\t// in\n    tag_161:\n        /* \"#utility.yul\":1113:1116   */\n      dup3\n        /* \"#utility.yul\":1106:1143   */\n      mstore\n        /* \"#utility.yul\":1041:1149   */\n      pop\n      pop\n      jump\t// out\n        /* \"#utility.yul\":1155:1334   */\n    tag_117:\n        /* \"#utility.yul\":1224:1234   */\n      0x00\n        /* \"#utility.yul\":1245:1291   */\n      tag_163\n        /* \"#utility.yul\":1287:1290   */\n      dup4\n        /* \"#utility.yul\":1279:1285   */\n      dup4\n        /* \"#utility.yul\":1245:1291   */\n      tag_116\n      jump\t// in\n    tag_163:\n        /* \"#utility.yul\":1323:1327   */\n      0x20\n        /* \"#utility.yul\":1318:1321   */\n      dup4\n        /* \"#utility.yul\":1314:1328   */\n      add\n        /* \"#utility.yul\":1300:1328   */\n      swap1\n      pop\n        /* \"#utility.yul\":1155:1334   */\n      swap3\n      swap2\n      pop\n      pop\n      jump\t// out\n        /* \"#utility.yul\":1340:1453   */\n    tag_118:\n        /* \"#utility.yul\":1410:1414   */\n      0x00\n        /* \"#utility.yul\":1442:1446   */\n      0x20\n        /* \"#utility.yul\":1437:1440   */\n      dup3\n        /* \"#utility.yul\":1433:1447   */\n      add\n        /* \"#utility.yul\":1425:1447   */\n      swap1\n      pop\n        /* \"#utility.yul\":1340:1453   */\n      swap2\n      swap1\n      pop\n      jump\t// out\n        /* \"#utility.yul\":1489:2221   */\n    tag_119:\n        /* \"#utility.yul\":1608:1611   */\n      0x00\n        /* \"#utility.yul\":1637:1691   */\n      tag_166\n        /* \"#utility.yul\":1685:1690   */\n      dup3\n        /* \"#utility.yul\":1637:1691   */\n      tag_113\n      jump\t// in\n    tag_166:\n        /* \"#utility.yul\":1707:1793   */\n      tag_167\n        /* \"#utility.yul\":1786:1792   */\n      dup2\n        /* \"#utility.yul\":1781:1784   */\n      dup6\n        /* \"#utility.yul\":1707:1793   */\n      tag_114\n      jump\t// in\n    tag_167:\n        /* \"#utility.yul\":1700:1793   */\n      swap4\n      pop\n        /* \"#utility.yul\":1817:1873   */\n      tag_168\n        /* \"#utility.yul\":1867:1872   */\n      dup4\n        /* \"#utility.yul\":1817:1873   */\n      tag_115\n      jump\t// in\n    tag_168:\n        /* \"#utility.yul\":1896:1903   */\n      dup1\n        /* \"#utility.yul\":1927:1928   */\n      0x00\n        /* \"#utility.yul\":1912:2196   */\n    tag_169:\n        /* \"#utility.yul\":1937:1943   */\n      dup4\n        /* \"#utility.yul\":1934:1935   */\n      dup2\n        /* \"#utility.yul\":1931:1944   */\n      lt\n        /* \"#utility.yul\":1912:2196   */\n      iszero\n      tag_171\n      jumpi\n        /* \"#utility.yul\":2013:2019   */\n      dup2\n        /* \"#utility.yul\":2007:2020   */\n      mload\n        /* \"#utility.yul\":2040:2103   */\n      tag_172\n        /* \"#utility.yul\":2099:2102   */\n      dup9\n        /* \"#utility.yul\":2084:2097   */\n      dup3\n        /* \"#utility.yul\":2040:2103   */\n      tag_117\n      jump\t// in\n    tag_172:\n        /* \"#utility.yul\":2033:2103   */\n      swap8\n      pop\n        /* \"#utility.yul\":2126:2186   */\n      tag_173\n        /* \"#utility.yul\":2179:2185   */\n      dup4\n        /* \"#utility.yul\":2126:2186   */\n      tag_118\n      jump\t// in\n    tag_173:\n        /* \"#utility.yul\":2116:2186   */\n      swap3\n      pop\n        /* \"#utility.yul\":1972:2196   */\n      pop\n        /* \"#utility.yul\":1959:1960   */\n      0x01\n        /* \"#utility.yul\":1956:1957   */\n      dup2\n        /* \"#utility.yul\":1952:1961   */\n      add\n        /* \"#utility.yul\":1947:1961   */\n      swap1\n      pop\n        /* \"#utility.yul\":1912:2196   */\n      jump(tag_169)\n    tag_171:\n        /* \"#utility.yul\":1916:1930   */\n      pop\n        /* \"#utility.yul\":2212:2215   */\n      dup6\n        /* \"#utility.yul\":2205:2215   */\n      swap4\n      pop\n        /* \"#utility.yul\":1613:2221   */\n      pop\n      pop\n      pop\n        /* \"#utility.yul\":1489:2221   */\n      swap3\n      swap2\n      pop\n      pop\n      jump\t// out\n        /* \"#utility.yul\":2227:2600   */\n    tag_22:\n        /* \"#utility.yul\":2370:2374   */\n      0x00\n        /* \"#utility.yul\":2408:2410   */\n      0x20\n        /* \"#utility.yul\":2397:2406   */\n      dup3\n        /* \"#utility.yul\":2393:2411   */\n      add\n        /* \"#utility.yul\":2385:2411   */\n      swap1\n      pop\n        /* \"#utility.yul\":2457:2466   */\n      dup2\n        /* \"#utility.yul\":2451:2455   */\n      dup2\n        /* \"#utility.yul\":2447:2467   */\n      sub\n        /* \"#utility.yul\":2443:2444   */\n      0x00\n        /* \"#utility.yul\":2432:2441   */\n      dup4\n        /* \"#utility.yul\":2428:2445   */\n      add\n        /* \"#utility.yul\":2421:2468   */\n      mstore\n        /* \"#utility.yul\":2485:2593   */\n      tag_175\n        /* \"#utility.yul\":2588:2592   */\n      dup2\n        /* \"#utility.yul\":2579:2585   */\n      dup5\n        /* \"#utility.yul\":2485:2593   */\n      tag_119\n      jump\t// in\n    tag_175:\n        /* \"#utility.yul\":2477:2593   */\n      swap1\n      pop\n        /* \"#utility.yul\":2227:2600   */\n      swap3\n      swap2\n      pop\n      pop\n      jump\t// out\n        /* \"#utility.yul\":2606:2696   */\n    tag_120:\n        /* \"#utility.yul\":2640:2647   */\n      0x00\n        /* \"#utility.yul\":2683:2688   */\n      dup2\n        /* \"#utility.yul\":2676:2689   */\n      iszero\n        /* \"#utility.yul\":2669:2690   */\n      iszero\n        /* \"#utility.yul\":2658:2690   */\n      swap1\n      pop\n        /* \"#utility.yul\":2606:2696   */\n      swap2\n      swap1\n      pop\n      jump\t// out\n        /* \"#utility.yul\":2702:2811   */\n    tag_121:\n        /* \"#utility.yul\":2783:2804   */\n      tag_178\n        /* \"#utility.yul\":2798:2803   */\n      dup2\n        /* \"#utility.yul\":2783:2804   */\n      tag_120\n      jump\t// in\n    tag_178:\n        /* \"#utility.yul\":2778:2781   */\n      dup3\n        /* \"#utility.yul\":2771:2805   */\n      mstore\n        /* \"#utility.yul\":2702:2811   */\n      pop\n      pop\n      jump\t// out\n        /* \"#utility.yul\":2817:3027   */\n    tag_29:\n        /* \"#utility.yul\":2904:2908   */\n      0x00\n        /* \"#utility.yul\":2942:2944   */\n      0x20\n        /* \"#utility.yul\":2931:2940   */\n      dup3\n        /* \"#utility.yul\":2927:2945   */\n      add\n        /* \"#utility.yul\":2919:2945   */\n      swap1\n      pop\n        /* \"#utility.yul\":2955:3020   */\n      tag_180\n        /* \"#utility.yul\":3017:3018   */\n      0x00\n        /* \"#utility.yul\":3006:3015   */\n      dup4\n        /* \"#utility.yul\":3002:3019   */\n      add\n        /* \"#utility.yul\":2993:2999   */\n      dup5\n        /* \"#utility.yul\":2955:3020   */\n      tag_121\n      jump\t// in\n    tag_180:\n        /* \"#utility.yul\":2817:3027   */\n      swap3\n      swap2\n      pop\n      pop\n      jump\t// out\n        /* \"#utility.yul\":3114:3231   */\n    tag_123:\n        /* \"#utility.yul\":3223:3224   */\n      0x00\n        /* \"#utility.yul\":3220:3221   */\n      dup1\n        /* \"#utility.yul\":3213:3225   */\n      revert\n        /* \"#utility.yul\":3360:3437   */\n    tag_125:\n        /* \"#utility.yul\":3397:3404   */\n      0x00\n        /* \"#utility.yul\":3426:3431   */\n      dup2\n        /* \"#utility.yul\":3415:3431   */\n      swap1\n      pop\n        /* \"#utility.yul\":3360:3437   */\n      swap2\n      swap1\n      pop\n      jump\t// out\n        /* \"#utility.yul\":3443:3565   */\n    tag_126:\n        /* \"#utility.yul\":3516:3540   */\n      tag_186\n        /* \"#utility.yul\":3534:3539   */\n      dup2\n        /* \"#utility.yul\":3516:3540   */\n      tag_125\n      jump\t// in\n    tag_186:\n        /* \"#utility.yul\":3509:3514   */\n      dup2\n        /* \"#utility.yul\":3506:3541   */\n      eq\n        /* \"#utility.yul\":3496:3559   */\n      tag_187\n      jumpi\n        /* \"#utility.yul\":3555:3556   */\n      0x00\n        /* \"#utility.yul\":3552:3553   */\n      dup1\n        /* \"#utility.yul\":3545:3557   */\n      revert\n        /* \"#utility.yul\":3496:3559   */\n    tag_187:\n        /* \"#utility.yul\":3443:3565   */\n      pop\n      jump\t// out\n        /* \"#utility.yul\":3571:3710   */\n    tag_127:\n        /* \"#utility.yul\":3617:3622   */\n      0x00\n        /* \"#utility.yul\":3655:3661   */\n      dup2\n        /* \"#utility.yul\":3642:3662   */\n      calldataload\n        /* \"#utility.yul\":3633:3662   */\n      swap1\n      pop\n        /* \"#utility.yul\":3671:3704   */\n      tag_189\n        /* \"#utility.yul\":3698:3703   */\n      dup2\n        /* \"#utility.yul\":3671:3704   */\n      tag_126\n      jump\t// in\n    tag_189:\n        /* \"#utility.yul\":3571:3710   */\n      swap3\n      swap2\n      pop\n      pop\n      jump\t// out\n        /* \"#utility.yul\":3716:4045   */\n    tag_33:\n        /* \"#utility.yul\":3775:3781   */\n      0x00\n        /* \"#utility.yul\":3824:3826   */\n      0x20\n        /* \"#utility.yul\":3812:3821   */\n      dup3\n        /* \"#utility.yul\":3803:3810   */\n      dup5\n        /* \"#utility.yul\":3799:3822   */\n      sub\n        /* \"#utility.yul\":3795:3827   */\n      slt\n        /* \"#utility.yul\":3792:3911   */\n      iszero\n      tag_191\n      jumpi\n        /* \"#utility.yul\":3830:3909   */\n      tag_192\n      tag_123\n      jump\t// in\n    tag_192:\n        /* \"#utility.yul\":3792:3911   */\n    tag_191:\n        /* \"#utility.yul\":3950:3951   */\n      0x00\n        /* \"#utility.yul\":3975:4028   */\n      tag_193\n        /* \"#utility.yul\":4020:4027   */\n      dup5\n        /* \"#utility.yul\":4011:4017   */\n      dup3\n        /* \"#utility.yul\":4000:4009   */\n      dup6\n        /* \"#utility.yul\":3996:4018   */\n      add\n        /* \"#utility.yul\":3975:4028   */\n      tag_127\n      jump\t// in\n    tag_193:\n        /* \"#utility.yul\":3965:4028   */\n      swap2\n      pop\n        /* \"#utility.yul\":3921:4038   */\n      pop\n        /* \"#utility.yul\":3716:4045   */\n      swap3\n      swap2\n      pop\n      pop\n      jump\t// out\n        /* \"#utility.yul\":4051:4167   */\n    tag_128:\n        /* \"#utility.yul\":4121:4142   */\n      tag_195\n        /* \"#utility.yul\":4136:4141   */\n      dup2\n        /* \"#utility.yul\":4121:4142   */\n      tag_120\n      jump\t// in\n    tag_195:\n        /* \"#utility.yul\":4114:4119   */\n      dup2\n        /* \"#utility.yul\":4111:4143   */\n      eq\n        /* \"#utility.yul\":4101:4161   */\n      tag_196\n      jumpi\n        /* \"#utility.yul\":4157:4158   */\n      0x00\n        /* \"#utility.yul\":4154:4155   */\n      dup1\n        /* \"#utility.yul\":4147:4159   */\n      revert\n        /* \"#utility.yul\":4101:4161   */\n    tag_196:\n        /* \"#utility.yul\":4051:4167   */\n      pop\n      jump\t// out\n        /* \"#utility.yul\":4173:4306   */\n    tag_129:\n        /* \"#utility.yul\":4216:4221   */\n      0x00\n        /* \"#utility.yul\":4254:4260   */\n      dup2\n        /* \"#utility.yul\":4241:4261   */\n      calldataload\n        /* \"#utility.yul\":4232:4261   */\n      swap1\n      pop\n        /* \"#utility.yul\":4270:4300   */\n      tag_198\n        /* \"#utility.yul\":4294:4299   */\n      dup2\n        /* \"#utility.yul\":4270:4300   */\n      tag_128\n      jump\t// in\n    tag_198:\n        /* \"#utility.yul\":4173:4306   */\n      swap3\n      swap2\n      pop\n      pop\n      jump\t// out\n        /* \"#utility.yul\":4312:4635   */\n    tag_39:\n        /* \"#utility.yul\":4368:4374   */\n      0x00\n        /* \"#utility.yul\":4417:4419   */\n      0x20\n        /* \"#utility.yul\":4405:4414   */\n      dup3\n        /* \"#utility.yul\":4396:4403   */\n      dup5\n        /* \"#utility.yul\":4392:4415   */\n      sub\n        /* \"#utility.yul\":4388:4420   */\n      slt\n        /* \"#utility.yul\":4385:4504   */\n      iszero\n      tag_200\n      jumpi\n        /* \"#utility.yul\":4423:4502   */\n      tag_201\n      tag_123\n      jump\t// in\n    tag_201:\n        /* \"#utility.yul\":4385:4504   */\n    tag_200:\n        /* \"#utility.yul\":4543:4544   */\n      0x00\n        /* \"#utility.yul\":4568:4618   */\n      tag_202\n        /* \"#utility.yul\":4610:4617   */\n      dup5\n        /* \"#utility.yul\":4601:4607   */\n      dup3\n        /* \"#utility.yul\":4590:4599   */\n      dup6\n        /* \"#utility.yul\":4586:4608   */\n      add\n        /* \"#utility.yul\":4568:4618   */\n      tag_129\n      jump\t// in\n    tag_202:\n        /* \"#utility.yul\":4558:4618   */\n      swap2\n      pop\n        /* \"#utility.yul\":4514:4628   */\n      pop\n        /* \"#utility.yul\":4312:4635   */\n      swap3\n      swap2\n      pop\n      pop\n      jump\t// out\n        /* \"#utility.yul\":4641:4810   */\n    tag_130:\n        /* \"#utility.yul\":4725:4736   */\n      0x00\n        /* \"#utility.yul\":4759:4765   */\n      dup3\n        /* \"#utility.yul\":4754:4757   */\n      dup3\n        /* \"#utility.yul\":4747:4766   */\n      mstore\n        /* \"#utility.yul\":4799:4803   */\n      0x20\n        /* \"#utility.yul\":4794:4797   */\n      dup3\n        /* \"#utility.yul\":4790:4804   */\n      add\n        /* \"#utility.yul\":4775:4804   */\n      swap1\n      pop\n        /* \"#utility.yul\":4641:4810   */\n      swap3\n      swap2\n      pop\n      pop\n      jump\t// out\n        /* \"#utility.yul\":4816:5038   */\n    tag_131:\n        /* \"#utility.yul\":4956:4990   */\n      0x4f6e6c79206d616e616765722063616e2063616c6c20746869732066756e6374\n        /* \"#utility.yul\":4952:4953   */\n      0x00\n        /* \"#utility.yul\":4944:4950   */\n      dup3\n        /* \"#utility.yul\":4940:4954   */\n      add\n        /* \"#utility.yul\":4933:4991   */\n      mstore\n        /* \"#utility.yul\":5025:5030   */\n      0x696f6e0000000000000000000000000000000000000000000000000000000000\n        /* \"#utility.yul\":5020:5022   */\n      0x20\n        /* \"#utility.yul\":5012:5018   */\n      dup3\n        /* \"#utility.yul\":5008:5023   */\n      add\n        /* \"#utility.yul\":5001:5031   */\n      mstore\n        /* \"#utility.yul\":4816:5038   */\n      pop\n      jump\t// out\n        /* \"#utility.yul\":5044:5410   */\n    tag_132:\n        /* \"#utility.yul\":5186:5189   */\n      0x00\n        /* \"#utility.yul\":5207:5274   */\n      tag_206\n        /* \"#utility.yul\":5271:5273   */\n      0x23\n        /* \"#utility.yul\":5266:5269   */\n      dup4\n        /* \"#utility.yul\":5207:5274   */\n      tag_130\n      jump\t// in\n    tag_206:\n        /* \"#utility.yul\":5200:5274   */\n      swap2\n      pop\n        /* \"#utility.yul\":5283:5376   */\n      tag_207\n        /* \"#utility.yul\":5372:5375   */\n      dup3\n        /* \"#utility.yul\":5283:5376   */\n      tag_131\n      jump\t// in\n    tag_207:\n        /* \"#utility.yul\":5401:5403   */\n      0x40\n        /* \"#utility.yul\":5396:5399   */\n      dup3\n        /* \"#utility.yul\":5392:5404   */\n      add\n        /* \"#utility.yul\":5385:5404   */\n      swap1\n      pop\n        /* \"#utility.yul\":5044:5410   */\n      swap2\n      swap1\n      pop\n      jump\t// out\n        /* \"#utility.yul\":5416:5835   */\n    tag_44:\n        /* \"#utility.yul\":5582:5586   */\n      0x00\n        /* \"#utility.yul\":5620:5622   */\n      0x20\n        /* \"#utility.yul\":5609:5618   */\n      dup3\n        /* \"#utility.yul\":5605:5623   */\n      add\n        /* \"#utility.yul\":5597:5623   */\n      swap1\n      pop\n        /* \"#utility.yul\":5669:5678   */\n      dup2\n        /* \"#utility.yul\":5663:5667   */\n      dup2\n        /* \"#utility.yul\":5659:5679   */\n      sub\n        /* \"#utility.yul\":5655:5656   */\n      0x00\n        /* \"#utility.yul\":5644:5653   */\n      dup4\n        /* \"#utility.yul\":5640:5657   */\n      add\n        /* \"#utility.yul\":5633:5680   */\n      mstore\n        /* \"#utility.yul\":5697:5828   */\n      tag_209\n        /* \"#utility.yul\":5823:5827   */\n      dup2\n        /* \"#utility.yul\":5697:5828   */\n      tag_132\n      jump\t// in\n    tag_209:\n        /* \"#utility.yul\":5689:5828   */\n      swap1\n      pop\n        /* \"#utility.yul\":5416:5835   */\n      swap2\n      swap1\n      pop\n      jump\t// out\n        /* \"#utility.yul\":5841:6016   */\n    tag_133:\n        /* \"#utility.yul\":5981:6008   */\n      0x4e6f20706c617965727320696e20746865206c6f747465727900000000000000\n        /* \"#utility.yul\":5977:5978   */\n      0x00\n        /* \"#utility.yul\":5969:5975   */\n      dup3\n        /* \"#utility.yul\":5965:5979   */\n      add\n        /* \"#utility.yul\":5958:6009   */\n      mstore\n        /* \"#utility.yul\":5841:6016   */\n      pop\n      jump\t// out\n        /* \"#utility.yul\":6022:6388   */\n    tag_134:\n        /* \"#utility.yul\":6164:6167   */\n      0x00\n        /* \"#utility.yul\":6185:6252   */\n      tag_212\n        /* \"#utility.yul\":6249:6251   */\n      0x19\n        /* \"#utility.yul\":6244:6247   */\n      dup4\n        /* \"#utility.yul\":6185:6252   */\n      tag_130\n      jump\t// in\n    tag_212:\n        /* \"#utility.yul\":6178:6252   */\n      swap2\n      pop\n        /* \"#utility.yul\":6261:6354   */\n      tag_213\n        /* \"#utility.yul\":6350:6353   */\n      dup3\n        /* \"#utility.yul\":6261:6354   */\n      tag_133\n      jump\t// in\n    tag_213:\n        /* \"#utility.yul\":6379:6381   */\n      0x20\n        /* \"#utility.yul\":6374:6377   */\n      dup3\n        /* \"#utility.yul\":6370:6382   */\n      add\n        /* \"#utility.yul\":6363:6382   */\n      swap1\n      pop\n        /* \"#utility.yul\":6022:6388   */\n      swap2\n      swap1\n      pop\n      jump\t// out\n        /* \"#utility.yul\":6394:6813   */\n    tag_48:\n        /* \"#utility.yul\":6560:6564   */\n      0x00\n        /* \"#utility.yul\":6598:6600   */\n      0x20\n        /* \"#utility.yul\":6587:6596   */\n      dup3\n        /* \"#utility.yul\":6583:6601   */\n      add\n        /* \"#utility.yul\":6575:6601   */\n      swap1\n      pop\n        /* \"#utility.yul\":6647:6656   */\n      dup2\n        /* \"#utility.yul\":6641:6645   */\n      dup2\n        /* \"#utility.yul\":6637:6657   */\n      sub\n        /* \"#utility.yul\":6633:6634   */\n      0x00\n        /* \"#utility.yul\":6622:6631   */\n      dup4\n        /* \"#utility.yul\":6618:6635   */\n      add\n        /* \"#utility.yul\":6611:6658   */\n      mstore\n        /* \"#utility.yul\":6675:6806   */\n      tag_215\n        /* \"#utility.yul\":6801:6805   */\n      dup2\n        /* \"#utility.yul\":6675:6806   */\n      tag_134\n      jump\t// in\n    tag_215:\n        /* \"#utility.yul\":6667:6806   */\n      swap1\n      pop\n        /* \"#utility.yul\":6394:6813   */\n      swap2\n      swap1\n      pop\n      jump\t// out\n        /* \"#utility.yul\":6819:6999   */\n    tag_135:\n        /* \"#utility.yul\":6867:6944   */\n      0x4e487b7100000000000000000000000000000000000000000000000000000000\n        /* \"#utility.yul\":6864:6865   */\n      0x00\n        /* \"#utility.yul\":6857:6945   */\n      mstore\n        /* \"#utility.yul\":6964:6968   */\n      0x12\n        /* \"#utility.yul\":6961:6962   */\n      0x04\n        /* \"#utility.yul\":6954:6969   */\n      mstore\n        /* \"#utility.yul\":6988:6992   */\n      0x24\n        /* \"#utility.yul\":6985:6986   */\n      0x00\n        /* \"#utility.yul\":6978:6993   */\n      revert\n        /* \"#utility.yul\":7005:7181   */\n    tag_54:\n        /* \"#utility.yul\":7037:7038   */\n      0x00\n        /* \"#utility.yul\":7054:7074   */\n      tag_218\n        /* \"#utility.yul\":7072:7073   */\n      dup3\n        /* \"#utility.yul\":7054:7074   */\n      tag_125\n      jump\t// in\n    tag_218:\n        /* \"#utility.yul\":7049:7074   */\n      swap2\n      pop\n        /* \"#utility.yul\":7088:7108   */\n      tag_219\n        /* \"#utility.yul\":7106:7107   */\n      dup4\n        /* \"#utility.yul\":7088:7108   */\n      tag_125\n      jump\t// in\n    tag_219:\n        /* \"#utility.yul\":7083:7108   */\n      swap3\n      pop\n        /* \"#utility.yul\":7127:7128   */\n      dup3\n        /* \"#utility.yul\":7117:7152   */\n      tag_220\n      jumpi\n        /* \"#utility.yul\":7132:7150   */\n      tag_221\n      tag_135\n      jump\t// in\n    tag_221:\n        /* \"#utility.yul\":7117:7152   */\n    tag_220:\n        /* \"#utility.yul\":7173:7174   */\n      dup3\n        /* \"#utility.yul\":7170:7171   */\n      dup3\n        /* \"#utility.yul\":7166:7175   */\n      mod\n        /* \"#utility.yul\":7161:7175   */\n      swap1\n      pop\n        /* \"#utility.yul\":7005:7181   */\n      swap3\n      swap2\n      pop\n      pop\n      jump\t// out\n        /* \"#utility.yul\":7187:7367   */\n    tag_57:\n        /* \"#utility.yul\":7235:7312   */\n      0x4e487b7100000000000000000000000000000000000000000000000000000000\n        /* \"#utility.yul\":7232:7233   */\n      0x00\n        /* \"#utility.yul\":7225:7313   */\n      mstore\n        /* \"#utility.yul\":7332:7336   */\n      0x32\n        /* \"#utility.yul\":7329:7330   */\n      0x04\n        /* \"#utility.yul\":7322:7337   */\n      mstore\n        /* \"#utility.yul\":7356:7360   */\n      0x24\n        /* \"#utility.yul\":7353:7354   */\n      0x00\n        /* \"#utility.yul\":7346:7361   */\n      revert\n        /* \"#utility.yul\":7373:7491   */\n    tag_136:\n        /* \"#utility.yul\":7460:7484   */\n      tag_224\n        /* \"#utility.yul\":7478:7483   */\n      dup2\n        /* \"#utility.yul\":7460:7484   */\n      tag_125\n      jump\t// in\n    tag_224:\n        /* \"#utility.yul\":7455:7458   */\n      dup3\n        /* \"#utility.yul\":7448:7485   */\n      mstore\n        /* \"#utility.yul\":7373:7491   */\n      pop\n      pop\n      jump\t// out\n        /* \"#utility.yul\":7497:7719   */\n    tag_62:\n        /* \"#utility.yul\":7590:7594   */\n      0x00\n        /* \"#utility.yul\":7628:7630   */\n      0x20\n        /* \"#utility.yul\":7617:7626   */\n      dup3\n        /* \"#utility.yul\":7613:7631   */\n      add\n        /* \"#utility.yul\":7605:7631   */\n      swap1\n      pop\n        /* \"#utility.yul\":7641:7712   */\n      tag_226\n        /* \"#utility.yul\":7709:7710   */\n      0x00\n        /* \"#utility.yul\":7698:7707   */\n      dup4\n        /* \"#utility.yul\":7694:7711   */\n      add\n        /* \"#utility.yul\":7685:7691   */\n      dup5\n        /* \"#utility.yul\":7641:7712   */\n      tag_136\n      jump\t// in\n    tag_226:\n        /* \"#utility.yul\":7497:7719   */\n      swap3\n      swap2\n      pop\n      pop\n      jump\t// out\n        /* \"#utility.yul\":7725:7898   */\n    tag_137:\n        /* \"#utility.yul\":7865:7890   */\n      0x42657474696e6720706861736520697320636c6f736564000000000000000000\n        /* \"#utility.yul\":7861:7862   */\n      0x00\n        /* \"#utility.yul\":7853:7859   */\n      dup3\n        /* \"#utility.yul\":7849:7863   */\n      add\n        /* \"#utility.yul\":7842:7891   */\n      mstore\n        /* \"#utility.yul\":7725:7898   */\n      pop\n      jump\t// out\n        /* \"#utility.yul\":7904:8270   */\n    tag_138:\n        /* \"#utility.yul\":8046:8049   */\n      0x00\n        /* \"#utility.yul\":8067:8134   */\n      tag_229\n        /* \"#utility.yul\":8131:8133   */\n      0x17\n        /* \"#utility.yul\":8126:8129   */\n      dup4\n        /* \"#utility.yul\":8067:8134   */\n      tag_130\n      jump\t// in\n    tag_229:\n        /* \"#utility.yul\":8060:8134   */\n      swap2\n      pop\n        /* \"#utility.yul\":8143:8236   */\n      tag_230\n        /* \"#utility.yul\":8232:8235   */\n      dup3\n        /* \"#utility.yul\":8143:8236   */\n      tag_137\n      jump\t// in\n    tag_230:\n        /* \"#utility.yul\":8261:8263   */\n      0x20\n        /* \"#utility.yul\":8256:8259   */\n      dup3\n        /* \"#utility.yul\":8252:8264   */\n      add\n        /* \"#utility.yul\":8245:8264   */\n      swap1\n      pop\n        /* \"#utility.yul\":7904:8270   */\n      swap2\n      swap1\n      pop\n      jump\t// out\n        /* \"#utility.yul\":8276:8695   */\n    tag_71:\n        /* \"#utility.yul\":8442:8446   */\n      0x00\n        /* \"#utility.yul\":8480:8482   */\n      0x20\n        /* \"#utility.yul\":8469:8478   */\n      dup3\n        /* \"#utility.yul\":8465:8483   */\n      add\n        /* \"#utility.yul\":8457:8483   */\n      swap1\n      pop\n        /* \"#utility.yul\":8529:8538   */\n      dup2\n        /* \"#utility.yul\":8523:8527   */\n      dup2\n        /* \"#utility.yul\":8519:8539   */\n      sub\n        /* \"#utility.yul\":8515:8516   */\n      0x00\n        /* \"#utility.yul\":8504:8513   */\n      dup4\n        /* \"#utility.yul\":8500:8517   */\n      add\n        /* \"#utility.yul\":8493:8540   */\n      mstore\n        /* \"#utility.yul\":8557:8688   */\n      tag_232\n        /* \"#utility.yul\":8683:8687   */\n      dup2\n        /* \"#utility.yul\":8557:8688   */\n      tag_138\n      jump\t// in\n    tag_232:\n        /* \"#utility.yul\":8549:8688   */\n      swap1\n      pop\n        /* \"#utility.yul\":8276:8695   */\n      swap2\n      swap1\n      pop\n      jump\t// out\n        /* \"#utility.yul\":8701:8926   */\n    tag_139:\n        /* \"#utility.yul\":8841:8875   */\n      0x42657474696e6720616d6f756e74206d7573742062652065786163746c792031\n        /* \"#utility.yul\":8837:8838   */\n      0x00\n        /* \"#utility.yul\":8829:8835   */\n      dup3\n        /* \"#utility.yul\":8825:8839   */\n      add\n        /* \"#utility.yul\":8818:8876   */\n      mstore\n        /* \"#utility.yul\":8910:8918   */\n      0x2045746865720000000000000000000000000000000000000000000000000000\n        /* \"#utility.yul\":8905:8907   */\n      0x20\n        /* \"#utility.yul\":8897:8903   */\n      dup3\n        /* \"#utility.yul\":8893:8908   */\n      add\n        /* \"#utility.yul\":8886:8919   */\n      mstore\n        /* \"#utility.yul\":8701:8926   */\n      pop\n      jump\t// out\n        /* \"#utility.yul\":8932:9298   */\n    tag_140:\n        /* \"#utility.yul\":9074:9077   */\n      0x00\n        /* \"#utility.yul\":9095:9162   */\n      tag_235\n        /* \"#utility.yul\":9159:9161   */\n      0x26\n        /* \"#utility.yul\":9154:9157   */\n      dup4\n        /* \"#utility.yul\":9095:9162   */\n      tag_130\n      jump\t// in\n    tag_235:\n        /* \"#utility.yul\":9088:9162   */\n      swap2\n      pop\n        /* \"#utility.yul\":9171:9264   */\n      tag_236\n        /* \"#utility.yul\":9260:9263   */\n      dup3\n        /* \"#utility.yul\":9171:9264   */\n      tag_139\n      jump\t// in\n    tag_236:\n        /* \"#utility.yul\":9289:9291   */\n      0x40\n        /* \"#utility.yul\":9284:9287   */\n      dup3\n        /* \"#utility.yul\":9280:9292   */\n      add\n        /* \"#utility.yul\":9273:9292   */\n      swap1\n      pop\n        /* \"#utility.yul\":8932:9298   */\n      swap2\n      swap1\n      pop\n      jump\t// out\n        /* \"#utility.yul\":9304:9723   */\n    tag_74:\n        /* \"#utility.yul\":9470:9474   */\n      0x00\n        /* \"#utility.yul\":9508:9510   */\n      0x20\n        /* \"#utility.yul\":9497:9506   */\n      dup3\n        /* \"#utility.yul\":9493:9511   */\n      add\n        /* \"#utility.yul\":9485:9511   */\n      swap1\n      pop\n        /* \"#utility.yul\":9557:9566   */\n      dup2\n        /* \"#utility.yul\":9551:9555   */\n      dup2\n        /* \"#utility.yul\":9547:9567   */\n      sub\n        /* \"#utility.yul\":9543:9544   */\n      0x00\n        /* \"#utility.yul\":9532:9541   */\n      dup4\n        /* \"#utility.yul\":9528:9545   */\n      add\n        /* \"#utility.yul\":9521:9568   */\n      mstore\n        /* \"#utility.yul\":9585:9716   */\n      tag_238\n        /* \"#utility.yul\":9711:9715   */\n      dup2\n        /* \"#utility.yul\":9585:9716   */\n      tag_140\n      jump\t// in\n    tag_238:\n        /* \"#utility.yul\":9577:9716   */\n      swap1\n      pop\n        /* \"#utility.yul\":9304:9723   */\n      swap2\n      swap1\n      pop\n      jump\t// out\n        /* \"#utility.yul\":9729:9905   */\n    tag_141:\n        /* \"#utility.yul\":9869:9897   */\n      0x506c617965722068617320616c726561647920656e7465726564000000000000\n        /* \"#utility.yul\":9865:9866   */\n      0x00\n        /* \"#utility.yul\":9857:9863   */\n      dup3\n        /* \"#utility.yul\":9853:9867   */\n      add\n        /* \"#utility.yul\":9846:9898   */\n      mstore\n        /* \"#utility.yul\":9729:9905   */\n      pop\n      jump\t// out\n        /* \"#utility.yul\":9911:10277   */\n    tag_142:\n        /* \"#utility.yul\":10053:10056   */\n      0x00\n        /* \"#utility.yul\":10074:10141   */\n      tag_241\n        /* \"#utility.yul\":10138:10140   */\n      0x1a\n        /* \"#utility.yul\":10133:10136   */\n      dup4\n        /* \"#utility.yul\":10074:10141   */\n      tag_130\n      jump\t// in\n    tag_241:\n        /* \"#utility.yul\":10067:10141   */\n      swap2\n      pop\n        /* \"#utility.yul\":10150:10243   */\n      tag_242\n        /* \"#utility.yul\":10239:10242   */\n      dup3\n        /* \"#utility.yul\":10150:10243   */\n      tag_141\n      jump\t// in\n    tag_242:\n        /* \"#utility.yul\":10268:10270   */\n      0x20\n        /* \"#utility.yul\":10263:10266   */\n      dup3\n        /* \"#utility.yul\":10259:10271   */\n      add\n        /* \"#utility.yul\":10252:10271   */\n      swap1\n      pop\n        /* \"#utility.yul\":9911:10277   */\n      swap2\n      swap1\n      pop\n      jump\t// out\n        /* \"#utility.yul\":10283:10702   */\n    tag_77:\n        /* \"#utility.yul\":10449:10453   */\n      0x00\n        /* \"#utility.yul\":10487:10489   */\n      0x20\n        /* \"#utility.yul\":10476:10485   */\n      dup3\n        /* \"#utility.yul\":10472:10490   */\n      add\n        /* \"#utility.yul\":10464:10490   */\n      swap1\n      pop\n        /* \"#utility.yul\":10536:10545   */\n      dup2\n        /* \"#utility.yul\":10530:10534   */\n      dup2\n        /* \"#utility.yul\":10526:10546   */\n      sub\n        /* \"#utility.yul\":10522:10523   */\n      0x00\n        /* \"#utility.yul\":10511:10520   */\n      dup4\n        /* \"#utility.yul\":10507:10524   */\n      add\n        /* \"#utility.yul\":10500:10547   */\n      mstore\n        /* \"#utility.yul\":10564:10695   */\n      tag_244\n        /* \"#utility.yul\":10690:10694   */\n      dup2\n        /* \"#utility.yul\":10564:10695   */\n      tag_142\n      jump\t// in\n    tag_244:\n        /* \"#utility.yul\":10556:10695   */\n      swap1\n      pop\n        /* \"#utility.yul\":10283:10702   */\n      swap2\n      swap1\n      pop\n      jump\t// out\n        /* \"#utility.yul\":10708:10884   */\n    tag_143:\n        /* \"#utility.yul\":10848:10876   */\n      0x4d616e616765722063616e6e6f74207061727469636970617465000000000000\n        /* \"#utility.yul\":10844:10845   */\n      0x00\n        /* \"#utility.yul\":10836:10842   */\n      dup3\n        /* \"#utility.yul\":10832:10846   */\n      add\n        /* \"#utility.yul\":10825:10877   */\n      mstore\n        /* \"#utility.yul\":10708:10884   */\n      pop\n      jump\t// out\n        /* \"#utility.yul\":10890:11256   */\n    tag_144:\n        /* \"#utility.yul\":11032:11035   */\n      0x00\n        /* \"#utility.yul\":11053:11120   */\n      tag_247\n        /* \"#utility.yul\":11117:11119   */\n      0x1a\n        /* \"#utility.yul\":11112:11115   */\n      dup4\n        /* \"#utility.yul\":11053:11120   */\n      tag_130\n      jump\t// in\n    tag_247:\n        /* \"#utility.yul\":11046:11120   */\n      swap2\n      pop\n        /* \"#utility.yul\":11129:11222   */\n      tag_248\n        /* \"#utility.yul\":11218:11221   */\n      dup3\n        /* \"#utility.yul\":11129:11222   */\n      tag_143\n      jump\t// in\n    tag_248:\n        /* \"#utility.yul\":11247:11249   */\n      0x20\n        /* \"#utility.yul\":11242:11245   */\n      dup3\n        /* \"#utility.yul\":11238:11250   */\n      add\n        /* \"#utility.yul\":11231:11250   */\n      swap1\n      pop\n        /* \"#utility.yul\":10890:11256   */\n      swap2\n      swap1\n      pop\n      jump\t// out\n        /* \"#utility.yul\":11262:11681   */\n    tag_80:\n        /* \"#utility.yul\":11428:11432   */\n      0x00\n        /* \"#utility.yul\":11466:11468   */\n      0x20\n        /* \"#utility.yul\":11455:11464   */\n      dup3\n        /* \"#utility.yul\":11451:11469   */\n      add\n        /* \"#utility.yul\":11443:11469   */\n      swap1\n      pop\n        /* \"#utility.yul\":11515:11524   */\n      dup2\n        /* \"#utility.yul\":11509:11513   */\n      dup2\n        /* \"#utility.yul\":11505:11525   */\n      sub\n        /* \"#utility.yul\":11501:11502   */\n      0x00\n        /* \"#utility.yul\":11490:11499   */\n      dup4\n        /* \"#utility.yul\":11486:11503   */\n      add\n        /* \"#utility.yul\":11479:11526   */\n      mstore\n        /* \"#utility.yul\":11543:11674   */\n      tag_250\n        /* \"#utility.yul\":11669:11673   */\n      dup2\n        /* \"#utility.yul\":11543:11674   */\n      tag_144\n      jump\t// in\n    tag_250:\n        /* \"#utility.yul\":11535:11674   */\n      swap1\n      pop\n        /* \"#utility.yul\":11262:11681   */\n      swap2\n      swap1\n      pop\n      jump\t// out\n        /* \"#utility.yul\":11687:11912   */\n    tag_145:\n        /* \"#utility.yul\":11827:11861   */\n      0x42657474696e6720706861736520697320616c726561647920696e2074686973\n        /* \"#utility.yul\":11823:11824   */\n      0x00\n        /* \"#utility.yul\":11815:11821   */\n      dup3\n        /* \"#utility.yul\":11811:11825   */\n      add\n        /* \"#utility.yul\":11804:11862   */\n      mstore\n        /* \"#utility.yul\":11896:11904   */\n      0x2073746174650000000000000000000000000000000000000000000000000000\n        /* \"#utility.yul\":11891:11893   */\n      0x20\n        /* \"#utility.yul\":11883:11889   */\n      dup3\n        /* \"#utility.yul\":11879:11894   */\n      add\n        /* \"#utility.yul\":11872:11905   */\n      mstore\n        /* \"#utility.yul\":11687:11912   */\n      pop\n      jump\t// out\n        /* \"#utility.yul\":11918:12284   */\n    tag_146:\n        /* \"#utility.yul\":12060:12063   */\n      0x00\n        /* \"#utility.yul\":12081:12148   */\n      tag_253\n        /* \"#utility.yul\":12145:12147   */\n      0x26\n        /* \"#utility.yul\":12140:12143   */\n      dup4\n        /* \"#utility.yul\":12081:12148   */\n      tag_130\n      jump\t// in\n    tag_253:\n        /* \"#utility.yul\":12074:12148   */\n      swap2\n      pop\n        /* \"#utility.yul\":12157:12250   */\n      tag_254\n        /* \"#utility.yul\":12246:12249   */\n      dup3\n        /* \"#utility.yul\":12157:12250   */\n      tag_145\n      jump\t// in\n    tag_254:\n        /* \"#utility.yul\":12275:12277   */\n      0x40\n        /* \"#utility.yul\":12270:12273   */\n      dup3\n        /* \"#utility.yul\":12266:12278   */\n      add\n        /* \"#utility.yul\":12259:12278   */\n      swap1\n      pop\n        /* \"#utility.yul\":11918:12284   */\n      swap2\n      swap1\n      pop\n      jump\t// out\n        /* \"#utility.yul\":12290:12709   */\n    tag_90:\n        /* \"#utility.yul\":12456:12460   */\n      0x00\n        /* \"#utility.yul\":12494:12496   */\n      0x20\n        /* \"#utility.yul\":12483:12492   */\n      dup3\n        /* \"#utility.yul\":12479:12497   */\n      add\n        /* \"#utility.yul\":12471:12497   */\n      swap1\n      pop\n        /* \"#utility.yul\":12543:12552   */\n      dup2\n        /* \"#utility.yul\":12537:12541   */\n      dup2\n        /* \"#utility.yul\":12533:12553   */\n      sub\n        /* \"#utility.yul\":12529:12530   */\n      0x00\n        /* \"#utility.yul\":12518:12527   */\n      dup4\n        /* \"#utility.yul\":12514:12531   */\n      add\n        /* \"#utility.yul\":12507:12554   */\n      mstore\n        /* \"#utility.yul\":12571:12702   */\n      tag_256\n        /* \"#utility.yul\":12697:12701   */\n      dup2\n        /* \"#utility.yul\":12571:12702   */\n      tag_146\n      jump\t// in\n    tag_256:\n        /* \"#utility.yul\":12563:12702   */\n      swap1\n      pop\n        /* \"#utility.yul\":12290:12709   */\n      swap2\n      swap1\n      pop\n      jump\t// out\n        /* \"#utility.yul\":12715:12794   */\n    tag_147:\n        /* \"#utility.yul\":12754:12761   */\n      0x00\n        /* \"#utility.yul\":12783:12788   */\n      dup2\n        /* \"#utility.yul\":12772:12788   */\n      swap1\n      pop\n        /* \"#utility.yul\":12715:12794   */\n      swap2\n      swap1\n      pop\n      jump\t// out\n        /* \"#utility.yul\":12800:12957   */\n    tag_148:\n        /* \"#utility.yul\":12905:12950   */\n      tag_259\n        /* \"#utility.yul\":12925:12949   */\n      tag_260\n        /* \"#utility.yul\":12943:12948   */\n      dup3\n        /* \"#utility.yul\":12925:12949   */\n      tag_125\n      jump\t// in\n    tag_260:\n        /* \"#utility.yul\":12905:12950   */\n      tag_147\n      jump\t// in\n    tag_259:\n        /* \"#utility.yul\":12900:12903   */\n      dup3\n        /* \"#utility.yul\":12893:12951   */\n      mstore\n        /* \"#utility.yul\":12800:12957   */\n      pop\n      pop\n      jump\t// out\n        /* \"#utility.yul\":12963:13501   */\n    tag_94:\n        /* \"#utility.yul\":13131:13134   */\n      0x00\n        /* \"#utility.yul\":13146:13221   */\n      tag_262\n        /* \"#utility.yul\":13217:13220   */\n      dup3\n        /* \"#utility.yul\":13208:13214   */\n      dup7\n        /* \"#utility.yul\":13146:13221   */\n      tag_148\n      jump\t// in\n    tag_262:\n        /* \"#utility.yul\":13246:13248   */\n      0x20\n        /* \"#utility.yul\":13241:13244   */\n      dup3\n        /* \"#utility.yul\":13237:13249   */\n      add\n        /* \"#utility.yul\":13230:13249   */\n      swap2\n      pop\n        /* \"#utility.yul\":13259:13334   */\n      tag_263\n        /* \"#utility.yul\":13330:13333   */\n      dup3\n        /* \"#utility.yul\":13321:13327   */\n      dup6\n        /* \"#utility.yul\":13259:13334   */\n      tag_148\n      jump\t// in\n    tag_263:\n        /* \"#utility.yul\":13359:13361   */\n      0x20\n        /* \"#utility.yul\":13354:13357   */\n      dup3\n        /* \"#utility.yul\":13350:13362   */\n      add\n        /* \"#utility.yul\":13343:13362   */\n      swap2\n      pop\n        /* \"#utility.yul\":13372:13447   */\n      tag_264\n        /* \"#utility.yul\":13443:13446   */\n      dup3\n        /* \"#utility.yul\":13434:13440   */\n      dup5\n        /* \"#utility.yul\":13372:13447   */\n      tag_148\n      jump\t// in\n    tag_264:\n        /* \"#utility.yul\":13472:13474   */\n      0x20\n        /* \"#utility.yul\":13467:13470   */\n      dup3\n        /* \"#utility.yul\":13463:13475   */\n      add\n        /* \"#utility.yul\":13456:13475   */\n      swap2\n      pop\n        /* \"#utility.yul\":13492:13495   */\n      dup2\n        /* \"#utility.yul\":13485:13495   */\n      swap1\n      pop\n        /* \"#utility.yul\":12963:13501   */\n      swap5\n      swap4\n      pop\n      pop\n      pop\n      pop\n      jump\t// out\n\n    auxdata: 0xa2646970667358221220ca6a964ef7d096b9bb96e7039f47c54b415fa11770fcb7a08386eafa89e8015664736f6c634300081a0033\n}\n",
				"bytecode": {
					"linkReferences": {},
					"object": "6080604052348015600e575f80fd5b50335f806101000a81548173ffffffffffffffffffffffffffffffffffffffff021916908373ffffffffffffffffffffffffffffffffffffffff160217905550600160025f6101000a81548160ff021916908315150217905550611071806100755f395ff3fe60806040526004361061006f575f3560e01c8063e97dcb621161004d578063e97dcb62146100dd578063ee4eb586146100e7578063f71d96cb14610111578063ff22717e1461014d5761006f565b8063481c6a75146100735780635d495aea1461009d5780638b5b9ccc146100b3575b5f80fd5b34801561007e575f80fd5b50610087610175565b60405161009491906109f9565b60405180910390f35b3480156100a8575f80fd5b506100b1610198565b005b3480156100be575f80fd5b506100c7610387565b6040516100d49190610ac9565b60405180910390f35b6100e5610412565b005b3480156100f2575f80fd5b506100fb6106bb565b6040516101089190610b03565b60405180910390f35b34801561011c575f80fd5b5061013760048036038101906101329190610b53565b6106cd565b60405161014491906109f9565b60405180910390f35b348015610158575f80fd5b50610173600480360381019061016e9190610ba8565b610708565b005b5f8054906101000a900473ffffffffffffffffffffffffffffffffffffffff1681565b5f8054906101000a900473ffffffffffffffffffffffffffffffffffffffff1673ffffffffffffffffffffffffffffffffffffffff163373ffffffffffffffffffffffffffffffffffffffff1614610225576040517f08c379a000000000000000000000000000000000000000000000000000000000815260040161021c90610c53565b60405180910390fd5b5f6001805490501161026c576040517f08c379a000000000000000000000000000000000000000000000000000000000815260040161026390610cbb565b60405180910390fd5b60025f9054906101000a900460ff161561028a576102895f610708565b5b5f60018054905061029961083c565b6102a39190610d06565b90505f600182815481106102ba576102b9610d36565b5b905f5260205f20015f9054906101000a900473ffffffffffffffffffffffffffffffffffffffff1690505f4790508173ffffffffffffffffffffffffffffffffffffffff166108fc8290811502906040515f60405180830381858888f1935050505015801561032b573d5f803e3d5ffd5b508173ffffffffffffffffffffffffffffffffffffffff167f64791dbae5677392ba76761a5273633cec8f1d9d8cfe808da7bac6ef16a880be826040516103729190610d72565b60405180910390a2610382610874565b505050565b6060600180548060200260200160405190810160405280929190818152602001828054801561040857602002820191905f5260205f20905b815f9054906101000a900473ffffffffffffffffffffffffffffffffffffffff1673ffffffffffffffffffffffffffffffffffffffff16815260200190600101908083116103bf575b5050505050905090565b60025f9054906101000a900460ff16610460576040517f08c379a000000000000000000000000000000000000000000000000000000000815260040161045790610dd5565b60405180910390fd5b670de0b6b3a764000034146104aa576040517f08c379a00000000000000000000000000000000000000000000000000000000081526004016104a190610e63565b60405180910390fd5b60035f3373ffffffffffffffffffffffffffffffffffffffff1673ffffffffffffffffffffffffffffffffffffffff1681526020019081526020015f205f9054906101000a900460ff1615610534576040517f08c379a000000000000000000000000000000000000000000000000000000000815260040161052b90610ecb565b60405180910390fd5b5f8054906101000a900473ffffffffffffffffffffffffffffffffffffffff1673ffffffffffffffffffffffffffffffffffffffff163373ffffffffffffffffffffffffffffffffffffffff16036105c1576040517f08c379a00000000000000000000000000000000000000000000000000000000081526004016105b890610f33565b60405180910390fd5b600133908060018154018082558091505060019003905f5260205f20015f9091909190916101000a81548173ffffffffffffffffffffffffffffffffffffffff021916908373ffffffffffffffffffffffffffffffffffffffff160217905550600160035f3373ffffffffffffffffffffffffffffffffffffffff1673ffffffffffffffffffffffffffffffffffffffff1681526020019081526020015f205f6101000a81548160ff0219169083151502179055503373ffffffffffffffffffffffffffffffffffffffff167f4d999952f9aa655a216ee2df5968ca0e670e9582ddc96cfe7d8168114b8ca37f60405160405180910390a2565b60025f9054906101000a900460ff1681565b600181815481106106dc575f80fd5b905f5260205f20015f915054906101000a900473ffffffffffffffffffffffffffffffffffffffff1681565b5f8054906101000a900473ffffffffffffffffffffffffffffffffffffffff1673ffffffffffffffffffffffffffffffffffffffff163373ffffffffffffffffffffffffffffffffffffffff1614610795576040517f08c379a000000000000000000000000000000000000000000000000000000000815260040161078c90610c53565b60405180910390fd5b80151560025f9054906101000a900460ff161515036107e9576040517f08c379a00000000000000000000000000000000000000000000000000000000081526004016107e090610fc1565b60405180910390fd5b8060025f6101000a81548160ff0219169083151502179055507ff2db13ce33a99b98ece45277e546d638f5e364924f2fb1fcd832413b366318a2816040516108319190610b03565b60405180910390a150565b5f434260018054905060405160200161085793929190610fff565b604051602081830303815290604052805190602001205f1c905090565b5f5b60018054905081101561091f575f60035f6001848154811061089b5761089a610d36565b5b905f5260205f20015f9054906101000a900473ffffffffffffffffffffffffffffffffffffffff1673ffffffffffffffffffffffffffffffffffffffff1673ffffffffffffffffffffffffffffffffffffffff1681526020019081526020015f205f6101000a81548160ff0219169083151502179055508080600101915050610876565b5060015f61092d9190610981565b600160025f6101000a81548160ff0219169083151502179055507ff2db13ce33a99b98ece45277e546d638f5e364924f2fb1fcd832413b366318a260016040516109779190610b03565b60405180910390a1565b5080545f8255905f5260205f209081019061099c919061099f565b50565b5b808211156109b6575f815f9055506001016109a0565b5090565b5f73ffffffffffffffffffffffffffffffffffffffff82169050919050565b5f6109e3826109ba565b9050919050565b6109f3816109d9565b82525050565b5f602082019050610a0c5f8301846109ea565b92915050565b5f81519050919050565b5f82825260208201905092915050565b5f819050602082019050919050565b610a44816109d9565b82525050565b5f610a558383610a3b565b60208301905092915050565b5f602082019050919050565b5f610a7782610a12565b610a818185610a1c565b9350610a8c83610a2c565b805f5b83811015610abc578151610aa38882610a4a565b9750610aae83610a61565b925050600181019050610a8f565b5085935050505092915050565b5f6020820190508181035f830152610ae18184610a6d565b905092915050565b5f8115159050919050565b610afd81610ae9565b82525050565b5f602082019050610b165f830184610af4565b92915050565b5f80fd5b5f819050919050565b610b3281610b20565b8114610b3c575f80fd5b50565b5f81359050610b4d81610b29565b92915050565b5f60208284031215610b6857610b67610b1c565b5b5f610b7584828501610b3f565b91505092915050565b610b8781610ae9565b8114610b91575f80fd5b50565b5f81359050610ba281610b7e565b92915050565b5f60208284031215610bbd57610bbc610b1c565b5b5f610bca84828501610b94565b91505092915050565b5f82825260208201905092915050565b7f4f6e6c79206d616e616765722063616e2063616c6c20746869732066756e63745f8201527f696f6e0000000000000000000000000000000000000000000000000000000000602082015250565b5f610c3d602383610bd3565b9150610c4882610be3565b604082019050919050565b5f6020820190508181035f830152610c6a81610c31565b9050919050565b7f4e6f20706c617965727320696e20746865206c6f7474657279000000000000005f82015250565b5f610ca5601983610bd3565b9150610cb082610c71565b602082019050919050565b5f6020820190508181035f830152610cd281610c99565b9050919050565b7f4e487b71000000000000000000000000000000000000000000000000000000005f52601260045260245ffd5b5f610d1082610b20565b9150610d1b83610b20565b925082610d2b57610d2a610cd9565b5b828206905092915050565b7f4e487b71000000000000000000000000000000000000000000000000000000005f52603260045260245ffd5b610d6c81610b20565b82525050565b5f602082019050610d855f830184610d63565b92915050565b7f42657474696e6720706861736520697320636c6f7365640000000000000000005f82015250565b5f610dbf601783610bd3565b9150610dca82610d8b565b602082019050919050565b5f6020820190508181035f830152610dec81610db3565b9050919050565b7f42657474696e6720616d6f756e74206d7573742062652065786163746c7920315f8201527f2045746865720000000000000000000000000000000000000000000000000000602082015250565b5f610e4d602683610bd3565b9150610e5882610df3565b604082019050919050565b5f6020820190508181035f830152610e7a81610e41565b9050919050565b7f506c617965722068617320616c726561647920656e74657265640000000000005f82015250565b5f610eb5601a83610bd3565b9150610ec082610e81565b602082019050919050565b5f6020820190508181035f830152610ee281610ea9565b9050919050565b7f4d616e616765722063616e6e6f742070617274696369706174650000000000005f82015250565b5f610f1d601a83610bd3565b9150610f2882610ee9565b602082019050919050565b5f6020820190508181035f830152610f4a81610f11565b9050919050565b7f42657474696e6720706861736520697320616c726561647920696e20746869735f8201527f2073746174650000000000000000000000000000000000000000000000000000602082015250565b5f610fab602683610bd3565b9150610fb682610f51565b604082019050919050565b5f6020820190508181035f830152610fd881610f9f565b9050919050565b5f819050919050565b610ff9610ff482610b20565b610fdf565b82525050565b5f61100a8286610fe8565b60208201915061101a8285610fe8565b60208201915061102a8284610fe8565b60208201915081905094935050505056fea2646970667358221220ca6a964ef7d096b9bb96e7039f47c54b415fa11770fcb7a08386eafa89e8015664736f6c634300081a0033",
					"opcodes": "PUSH1 0x80 PUSH1 0x40 MSTORE CALLVALUE DUP1 ISZERO PUSH1 0xE JUMPI PUSH0 DUP1 REVERT JUMPDEST POP CALLER PUSH0 DUP1 PUSH2 0x100 EXP DUP2 SLOAD DUP2 PUSH20 0xFFFFFFFFFFFFFFFFFFFFFFFFFFFFFFFFFFFFFFFF MUL NOT AND SWAP1 DUP4 PUSH20 0xFFFFFFFFFFFFFFFFFFFFFFFFFFFFFFFFFFFFFFFF AND MUL OR SWAP1 SSTORE POP PUSH1 0x1 PUSH1 0x2 PUSH0 PUSH2 0x100 EXP DUP2 SLOAD DUP2 PUSH1 0xFF MUL NOT AND SWAP1 DUP4 ISZERO ISZERO MUL OR SWAP1 SSTORE POP PUSH2 0x1071 DUP1 PUSH2 0x75 PUSH0 CODECOPY PUSH0 RETURN INVALID PUSH1 0x80 PUSH1 0x40 MSTORE PUSH1 0x4 CALLDATASIZE LT PUSH2 0x6F JUMPI PUSH0 CALLDATALOAD PUSH1 0xE0 SHR DUP1 PUSH4 0xE97DCB62 GT PUSH2 0x4D JUMPI DUP1 PUSH4 0xE97DCB62 EQ PUSH2 0xDD JUMPI DUP1 PUSH4 0xEE4EB586 EQ PUSH2 0xE7 JUMPI DUP1 PUSH4 0xF71D96CB EQ PUSH2 0x111 JUMPI DUP1 PUSH4 0xFF22717E EQ PUSH2 0x14D JUMPI PUSH2 0x6F JUMP JUMPDEST DUP1 PUSH4 0x481C6A75 EQ PUSH2 0x73 JUMPI DUP1 PUSH4 0x5D495AEA EQ PUSH2 0x9D JUMPI DUP1 PUSH4 0x8B5B9CCC EQ PUSH2 0xB3 JUMPI JUMPDEST PUSH0 DUP1 REVERT JUMPDEST CALLVALUE DUP1 ISZERO PUSH2 0x7E JUMPI PUSH0 DUP1 REVERT JUMPDEST POP PUSH2 0x87 PUSH2 0x175 JUMP JUMPDEST PUSH1 0x40 MLOAD PUSH2 0x94 SWAP2 SWAP1 PUSH2 0x9F9 JUMP JUMPDEST PUSH1 0x40 MLOAD DUP1 SWAP2 SUB SWAP1 RETURN JUMPDEST CALLVALUE DUP1 ISZERO PUSH2 0xA8 JUMPI PUSH0 DUP1 REVERT JUMPDEST POP PUSH2 0xB1 PUSH2 0x198 JUMP JUMPDEST STOP JUMPDEST CALLVALUE DUP1 ISZERO PUSH2 0xBE JUMPI PUSH0 DUP1 REVERT JUMPDEST POP PUSH2 0xC7 PUSH2 0x387 JUMP JUMPDEST PUSH1 0x40 MLOAD PUSH2 0xD4 SWAP2 SWAP1 PUSH2 0xAC9 JUMP JUMPDEST PUSH1 0x40 MLOAD DUP1 SWAP2 SUB SWAP1 RETURN JUMPDEST PUSH2 0xE5 PUSH2 0x412 JUMP JUMPDEST STOP JUMPDEST CALLVALUE DUP1 ISZERO PUSH2 0xF2 JUMPI PUSH0 DUP1 REVERT JUMPDEST POP PUSH2 0xFB PUSH2 0x6BB JUMP JUMPDEST PUSH1 0x40 MLOAD PUSH2 0x108 SWAP2 SWAP1 PUSH2 0xB03 JUMP JUMPDEST PUSH1 0x40 MLOAD DUP1 SWAP2 SUB SWAP1 RETURN JUMPDEST CALLVALUE DUP1 ISZERO PUSH2 0x11C JUMPI PUSH0 DUP1 REVERT JUMPDEST POP PUSH2 0x137 PUSH1 0x4 DUP1 CALLDATASIZE SUB DUP2 ADD SWAP1 PUSH2 0x132 SWAP2 SWAP1 PUSH2 0xB53 JUMP JUMPDEST PUSH2 0x6CD JUMP JUMPDEST PUSH1 0x40 MLOAD PUSH2 0x144 SWAP2 SWAP1 PUSH2 0x9F9 JUMP JUMPDEST PUSH1 0x40 MLOAD DUP1 SWAP2 SUB SWAP1 RETURN JUMPDEST CALLVALUE DUP1 ISZERO PUSH2 0x158 JUMPI PUSH0 DUP1 REVERT JUMPDEST POP PUSH2 0x173 PUSH1 0x4 DUP1 CALLDATASIZE SUB DUP2 ADD SWAP1 PUSH2 0x16E SWAP2 SWAP1 PUSH2 0xBA8 JUMP JUMPDEST PUSH2 0x708 JUMP JUMPDEST STOP JUMPDEST PUSH0 DUP1 SLOAD SWAP1 PUSH2 0x100 EXP SWAP1 DIV PUSH20 0xFFFFFFFFFFFFFFFFFFFFFFFFFFFFFFFFFFFFFFFF AND DUP2 JUMP JUMPDEST PUSH0 DUP1 SLOAD SWAP1 PUSH2 0x100 EXP SWAP1 DIV PUSH20 0xFFFFFFFFFFFFFFFFFFFFFFFFFFFFFFFFFFFFFFFF AND PUSH20 0xFFFFFFFFFFFFFFFFFFFFFFFFFFFFFFFFFFFFFFFF AND CALLER PUSH20 0xFFFFFFFFFFFFFFFFFFFFFFFFFFFFFFFFFFFFFFFF AND EQ PUSH2 0x225 JUMPI PUSH1 0x40 MLOAD PUSH32 0x8C379A000000000000000000000000000000000000000000000000000000000 DUP2 MSTORE PUSH1 0x4 ADD PUSH2 0x21C SWAP1 PUSH2 0xC53 JUMP JUMPDEST PUSH1 0x40 MLOAD DUP1 SWAP2 SUB SWAP1 REVERT JUMPDEST PUSH0 PUSH1 0x1 DUP1 SLOAD SWAP1 POP GT PUSH2 0x26C JUMPI PUSH1 0x40 MLOAD PUSH32 0x8C379A000000000000000000000000000000000000000000000000000000000 DUP2 MSTORE PUSH1 0x4 ADD PUSH2 0x263 SWAP1 PUSH2 0xCBB JUMP JUMPDEST PUSH1 0x40 MLOAD DUP1 SWAP2 SUB SWAP1 REVERT JUMPDEST PUSH1 0x2 PUSH0 SWAP1 SLOAD SWAP1 PUSH2 0x100 EXP SWAP1 DIV PUSH1 0xFF AND ISZERO PUSH2 0x28A JUMPI PUSH2 0x289 PUSH0 PUSH2 0x708 JUMP JUMPDEST JUMPDEST PUSH0 PUSH1 0x1 DUP1 SLOAD SWAP1 POP PUSH2 0x299 PUSH2 0x83C JUMP JUMPDEST PUSH2 0x2A3 SWAP2 SWAP1 PUSH2 0xD06 JUMP JUMPDEST SWAP1 POP PUSH0 PUSH1 0x1 DUP3 DUP2 SLOAD DUP2 LT PUSH2 0x2BA JUMPI PUSH2 0x2B9 PUSH2 0xD36 JUMP JUMPDEST JUMPDEST SWAP1 PUSH0 MSTORE PUSH1 0x20 PUSH0 KECCAK256 ADD PUSH0 SWAP1 SLOAD SWAP1 PUSH2 0x100 EXP SWAP1 DIV PUSH20 0xFFFFFFFFFFFFFFFFFFFFFFFFFFFFFFFFFFFFFFFF AND SWAP1 POP PUSH0 SELFBALANCE SWAP1 POP DUP2 PUSH20 0xFFFFFFFFFFFFFFFFFFFFFFFFFFFFFFFFFFFFFFFF AND PUSH2 0x8FC DUP3 SWAP1 DUP2 ISZERO MUL SWAP1 PUSH1 0x40 MLOAD PUSH0 PUSH1 0x40 MLOAD DUP1 DUP4 SUB DUP2 DUP6 DUP9 DUP9 CALL SWAP4 POP POP POP POP ISZERO DUP1 ISZERO PUSH2 0x32B JUMPI RETURNDATASIZE PUSH0 DUP1 RETURNDATACOPY RETURNDATASIZE PUSH0 REVERT JUMPDEST POP DUP2 PUSH20 0xFFFFFFFFFFFFFFFFFFFFFFFFFFFFFFFFFFFFFFFF AND PUSH32 0x64791DBAE5677392BA76761A5273633CEC8F1D9D8CFE808DA7BAC6EF16A880BE DUP3 PUSH1 0x40 MLOAD PUSH2 0x372 SWAP2 SWAP1 PUSH2 0xD72 JUMP JUMPDEST PUSH1 0x40 MLOAD DUP1 SWAP2 SUB SWAP1 LOG2 PUSH2 0x382 PUSH2 0x874 JUMP JUMPDEST POP POP POP JUMP JUMPDEST PUSH1 0x60 PUSH1 0x1 DUP1 SLOAD DUP1 PUSH1 0x20 MUL PUSH1 0x20 ADD PUSH1 0x40 MLOAD SWAP1 DUP2 ADD PUSH1 0x40 MSTORE DUP1 SWAP3 SWAP2 SWAP1 DUP2 DUP2 MSTORE PUSH1 0x20 ADD DUP3 DUP1 SLOAD DUP1 ISZERO PUSH2 0x408 JUMPI PUSH1 0x20 MUL DUP3 ADD SWAP2 SWAP1 PUSH0 MSTORE PUSH1 0x20 PUSH0 KECCAK256 SWAP1 JUMPDEST DUP2 PUSH0 SWAP1 SLOAD SWAP1 PUSH2 0x100 EXP SWAP1 DIV PUSH20 0xFFFFFFFFFFFFFFFFFFFFFFFFFFFFFFFFFFFFFFFF AND PUSH20 0xFFFFFFFFFFFFFFFFFFFFFFFFFFFFFFFFFFFFFFFF AND DUP2 MSTORE PUSH1 0x20 ADD SWAP1 PUSH1 0x1 ADD SWAP1 DUP1 DUP4 GT PUSH2 0x3BF JUMPI JUMPDEST POP POP POP POP POP SWAP1 POP SWAP1 JUMP JUMPDEST PUSH1 0x2 PUSH0 SWAP1 SLOAD SWAP1 PUSH2 0x100 EXP SWAP1 DIV PUSH1 0xFF AND PUSH2 0x460 JUMPI PUSH1 0x40 MLOAD PUSH32 0x8C379A000000000000000000000000000000000000000000000000000000000 DUP2 MSTORE PUSH1 0x4 ADD PUSH2 0x457 SWAP1 PUSH2 0xDD5 JUMP JUMPDEST PUSH1 0x40 MLOAD DUP1 SWAP2 SUB SWAP1 REVERT JUMPDEST PUSH8 0xDE0B6B3A7640000 CALLVALUE EQ PUSH2 0x4AA JUMPI PUSH1 0x40 MLOAD PUSH32 0x8C379A000000000000000000000000000000000000000000000000000000000 DUP2 MSTORE PUSH1 0x4 ADD PUSH2 0x4A1 SWAP1 PUSH2 0xE63 JUMP JUMPDEST PUSH1 0x40 MLOAD DUP1 SWAP2 SUB SWAP1 REVERT JUMPDEST PUSH1 0x3 PUSH0 CALLER PUSH20 0xFFFFFFFFFFFFFFFFFFFFFFFFFFFFFFFFFFFFFFFF AND PUSH20 0xFFFFFFFFFFFFFFFFFFFFFFFFFFFFFFFFFFFFFFFF AND DUP2 MSTORE PUSH1 0x20 ADD SWAP1 DUP2 MSTORE PUSH1 0x20 ADD PUSH0 KECCAK256 PUSH0 SWAP1 SLOAD SWAP1 PUSH2 0x100 EXP SWAP1 DIV PUSH1 0xFF AND ISZERO PUSH2 0x534 JUMPI PUSH1 0x40 MLOAD PUSH32 0x8C379A000000000000000000000000000000000000000000000000000000000 DUP2 MSTORE PUSH1 0x4 ADD PUSH2 0x52B SWAP1 PUSH2 0xECB JUMP JUMPDEST PUSH1 0x40 MLOAD DUP1 SWAP2 SUB SWAP1 REVERT JUMPDEST PUSH0 DUP1 SLOAD SWAP1 PUSH2 0x100 EXP SWAP1 DIV PUSH20 0xFFFFFFFFFFFFFFFFFFFFFFFFFFFFFFFFFFFFFFFF AND PUSH20 0xFFFFFFFFFFFFFFFFFFFFFFFFFFFFFFFFFFFFFFFF AND CALLER PUSH20 0xFFFFFFFFFFFFFFFFFFFFFFFFFFFFFFFFFFFFFFFF AND SUB PUSH2 0x5C1 JUMPI PUSH1 0x40 MLOAD PUSH32 0x8C379A000000000000000000000000000000000000000000000000000000000 DUP2 MSTORE PUSH1 0x4 ADD PUSH2 0x5B8 SWAP1 PUSH2 0xF33 JUMP JUMPDEST PUSH1 0x40 MLOAD DUP1 SWAP2 SUB SWAP1 REVERT JUMPDEST PUSH1 0x1 CALLER SWAP1 DUP1 PUSH1 0x1 DUP2 SLOAD ADD DUP1 DUP3 SSTORE DUP1 SWAP2 POP POP PUSH1 0x1 SWAP1 SUB SWAP1 PUSH0 MSTORE PUSH1 0x20 PUSH0 KECCAK256 ADD PUSH0 SWAP1 SWAP2 SWAP1 SWAP2 SWAP1 SWAP2 PUSH2 0x100 EXP DUP2 SLOAD DUP2 PUSH20 0xFFFFFFFFFFFFFFFFFFFFFFFFFFFFFFFFFFFFFFFF MUL NOT AND SWAP1 DUP4 PUSH20 0xFFFFFFFFFFFFFFFFFFFFFFFFFFFFFFFFFFFFFFFF AND MUL OR SWAP1 SSTORE POP PUSH1 0x1 PUSH1 0x3 PUSH0 CALLER PUSH20 0xFFFFFFFFFFFFFFFFFFFFFFFFFFFFFFFFFFFFFFFF AND PUSH20 0xFFFFFFFFFFFFFFFFFFFFFFFFFFFFFFFFFFFFFFFF AND DUP2 MSTORE PUSH1 0x20 ADD SWAP1 DUP2 MSTORE PUSH1 0x20 ADD PUSH0 KECCAK256 PUSH0 PUSH2 0x100 EXP DUP2 SLOAD DUP2 PUSH1 0xFF MUL NOT AND SWAP1 DUP4 ISZERO ISZERO MUL OR SWAP1 SSTORE POP CALLER PUSH20 0xFFFFFFFFFFFFFFFFFFFFFFFFFFFFFFFFFFFFFFFF AND PUSH32 0x4D999952F9AA655A216EE2DF5968CA0E670E9582DDC96CFE7D8168114B8CA37F PUSH1 0x40 MLOAD PUSH1 0x40 MLOAD DUP1 SWAP2 SUB SWAP1 LOG2 JUMP JUMPDEST PUSH1 0x2 PUSH0 SWAP1 SLOAD SWAP1 PUSH2 0x100 EXP SWAP1 DIV PUSH1 0xFF AND DUP2 JUMP JUMPDEST PUSH1 0x1 DUP2 DUP2 SLOAD DUP2 LT PUSH2 0x6DC JUMPI PUSH0 DUP1 REVERT JUMPDEST SWAP1 PUSH0 MSTORE PUSH1 0x20 PUSH0 KECCAK256 ADD PUSH0 SWAP2 POP SLOAD SWAP1 PUSH2 0x100 EXP SWAP1 DIV PUSH20 0xFFFFFFFFFFFFFFFFFFFFFFFFFFFFFFFFFFFFFFFF AND DUP2 JUMP JUMPDEST PUSH0 DUP1 SLOAD SWAP1 PUSH2 0x100 EXP SWAP1 DIV PUSH20 0xFFFFFFFFFFFFFFFFFFFFFFFFFFFFFFFFFFFFFFFF AND PUSH20 0xFFFFFFFFFFFFFFFFFFFFFFFFFFFFFFFFFFFFFFFF AND CALLER PUSH20 0xFFFFFFFFFFFFFFFFFFFFFFFFFFFFFFFFFFFFFFFF AND EQ PUSH2 0x795 JUMPI PUSH1 0x40 MLOAD PUSH32 0x8C379A000000000000000000000000000000000000000000000000000000000 DUP2 MSTORE PUSH1 0x4 ADD PUSH2 0x78C SWAP1 PUSH2 0xC53 JUMP JUMPDEST PUSH1 0x40 MLOAD DUP1 SWAP2 SUB SWAP1 REVERT JUMPDEST DUP1 ISZERO ISZERO PUSH1 0x2 PUSH0 SWAP1 SLOAD SWAP1 PUSH2 0x100 EXP SWAP1 DIV PUSH1 0xFF AND ISZERO ISZERO SUB PUSH2 0x7E9 JUMPI PUSH1 0x40 MLOAD PUSH32 0x8C379A000000000000000000000000000000000000000000000000000000000 DUP2 MSTORE PUSH1 0x4 ADD PUSH2 0x7E0 SWAP1 PUSH2 0xFC1 JUMP JUMPDEST PUSH1 0x40 MLOAD DUP1 SWAP2 SUB SWAP1 REVERT JUMPDEST DUP1 PUSH1 0x2 PUSH0 PUSH2 0x100 EXP DUP2 SLOAD DUP2 PUSH1 0xFF MUL NOT AND SWAP1 DUP4 ISZERO ISZERO MUL OR SWAP1 SSTORE POP PUSH32 0xF2DB13CE33A99B98ECE45277E546D638F5E364924F2FB1FCD832413B366318A2 DUP2 PUSH1 0x40 MLOAD PUSH2 0x831 SWAP2 SWAP1 PUSH2 0xB03 JUMP JUMPDEST PUSH1 0x40 MLOAD DUP1 SWAP2 SUB SWAP1 LOG1 POP JUMP JUMPDEST PUSH0 NUMBER TIMESTAMP PUSH1 0x1 DUP1 SLOAD SWAP1 POP PUSH1 0x40 MLOAD PUSH1 0x20 ADD PUSH2 0x857 SWAP4 SWAP3 SWAP2 SWAP1 PUSH2 0xFFF JUMP JUMPDEST PUSH1 0x40 MLOAD PUSH1 0x20 DUP2 DUP4 SUB SUB DUP2 MSTORE SWAP1 PUSH1 0x40 MSTORE DUP1 MLOAD SWAP1 PUSH1 0x20 ADD KECCAK256 PUSH0 SHR SWAP1 POP SWAP1 JUMP JUMPDEST PUSH0 JUMPDEST PUSH1 0x1 DUP1 SLOAD SWAP1 POP DUP2 LT ISZERO PUSH2 0x91F JUMPI PUSH0 PUSH1 0x3 PUSH0 PUSH1 0x1 DUP5 DUP2 SLOAD DUP2 LT PUSH2 0x89B JUMPI PUSH2 0x89A PUSH2 0xD36 JUMP JUMPDEST JUMPDEST SWAP1 PUSH0 MSTORE PUSH1 0x20 PUSH0 KECCAK256 ADD PUSH0 SWAP1 SLOAD SWAP1 PUSH2 0x100 EXP SWAP1 DIV PUSH20 0xFFFFFFFFFFFFFFFFFFFFFFFFFFFFFFFFFFFFFFFF AND PUSH20 0xFFFFFFFFFFFFFFFFFFFFFFFFFFFFFFFFFFFFFFFF AND PUSH20 0xFFFFFFFFFFFFFFFFFFFFFFFFFFFFFFFFFFFFFFFF AND DUP2 MSTORE PUSH1 0x20 ADD SWAP1 DUP2 MSTORE PUSH1 0x20 ADD PUSH0 KECCAK256 PUSH0 PUSH2 0x100 EXP DUP2 SLOAD DUP2 PUSH1 0xFF MUL NOT AND SWAP1 DUP4 ISZERO ISZERO MUL OR SWAP1 SSTORE POP DUP1 DUP1 PUSH1 0x1 ADD SWAP2 POP POP PUSH2 0x876 JUMP JUMPDEST POP PUSH1 0x1 PUSH0 PUSH2 0x92D SWAP2 SWAP1 PUSH2 0x981 JUMP JUMPDEST PUSH1 0x1 PUSH1 0x2 PUSH0 PUSH2 0x100 EXP DUP2 SLOAD DUP2 PUSH1 0xFF MUL NOT AND SWAP1 DUP4 ISZERO ISZERO MUL OR SWAP1 SSTORE POP PUSH32 0xF2DB13CE33A99B98ECE45277E546D638F5E364924F2FB1FCD832413B366318A2 PUSH1 0x1 PUSH1 0x40 MLOAD PUSH2 0x977 SWAP2 SWAP1 PUSH2 0xB03 JUMP JUMPDEST PUSH1 0x40 MLOAD DUP1 SWAP2 SUB SWAP1 LOG1 JUMP JUMPDEST POP DUP1 SLOAD PUSH0 DUP3 SSTORE SWAP1 PUSH0 MSTORE PUSH1 0x20 PUSH0 KECCAK256 SWAP1 DUP2 ADD SWAP1 PUSH2 0x99C SWAP2 SWAP1 PUSH2 0x99F JUMP JUMPDEST POP JUMP JUMPDEST JUMPDEST DUP1 DUP3 GT ISZERO PUSH2 0x9B6 JUMPI PUSH0 DUP2 PUSH0 SWAP1 SSTORE POP PUSH1 0x1 ADD PUSH2 0x9A0 JUMP JUMPDEST POP SWAP1 JUMP JUMPDEST PUSH0 PUSH20 0xFFFFFFFFFFFFFFFFFFFFFFFFFFFFFFFFFFFFFFFF DUP3 AND SWAP1 POP SWAP2 SWAP1 POP JUMP JUMPDEST PUSH0 PUSH2 0x9E3 DUP3 PUSH2 0x9BA JUMP JUMPDEST SWAP1 POP SWAP2 SWAP1 POP JUMP JUMPDEST PUSH2 0x9F3 DUP2 PUSH2 0x9D9 JUMP JUMPDEST DUP3 MSTORE POP POP JUMP JUMPDEST PUSH0 PUSH1 0x20 DUP3 ADD SWAP1 POP PUSH2 0xA0C PUSH0 DUP4 ADD DUP5 PUSH2 0x9EA JUMP JUMPDEST SWAP3 SWAP2 POP POP JUMP JUMPDEST PUSH0 DUP2 MLOAD SWAP1 POP SWAP2 SWAP1 POP JUMP JUMPDEST PUSH0 DUP3 DUP3 MSTORE PUSH1 0x20 DUP3 ADD SWAP1 POP SWAP3 SWAP2 POP POP JUMP JUMPDEST PUSH0 DUP2 SWAP1 POP PUSH1 0x20 DUP3 ADD SWAP1 POP SWAP2 SWAP1 POP JUMP JUMPDEST PUSH2 0xA44 DUP2 PUSH2 0x9D9 JUMP JUMPDEST DUP3 MSTORE POP POP JUMP JUMPDEST PUSH0 PUSH2 0xA55 DUP4 DUP4 PUSH2 0xA3B JUMP JUMPDEST PUSH1 0x20 DUP4 ADD SWAP1 POP SWAP3 SWAP2 POP POP JUMP JUMPDEST PUSH0 PUSH1 0x20 DUP3 ADD SWAP1 POP SWAP2 SWAP1 POP JUMP JUMPDEST PUSH0 PUSH2 0xA77 DUP3 PUSH2 0xA12 JUMP JUMPDEST PUSH2 0xA81 DUP2 DUP6 PUSH2 0xA1C JUMP JUMPDEST SWAP4 POP PUSH2 0xA8C DUP4 PUSH2 0xA2C JUMP JUMPDEST DUP1 PUSH0 JUMPDEST DUP4 DUP2 LT ISZERO PUSH2 0xABC JUMPI DUP2 MLOAD PUSH2 0xAA3 DUP9 DUP3 PUSH2 0xA4A JUMP JUMPDEST SWAP8 POP PUSH2 0xAAE DUP4 PUSH2 0xA61 JUMP JUMPDEST SWAP3 POP POP PUSH1 0x1 DUP2 ADD SWAP1 POP PUSH2 0xA8F JUMP JUMPDEST POP DUP6 SWAP4 POP POP POP POP SWAP3 SWAP2 POP POP JUMP JUMPDEST PUSH0 PUSH1 0x20 DUP3 ADD SWAP1 POP DUP2 DUP2 SUB PUSH0 DUP4 ADD MSTORE PUSH2 0xAE1 DUP2 DUP5 PUSH2 0xA6D JUMP JUMPDEST SWAP1 POP SWAP3 SWAP2 POP POP JUMP JUMPDEST PUSH0 DUP2 ISZERO ISZERO SWAP1 POP SWAP2 SWAP1 POP JUMP JUMPDEST PUSH2 0xAFD DUP2 PUSH2 0xAE9 JUMP JUMPDEST DUP3 MSTORE POP POP JUMP JUMPDEST PUSH0 PUSH1 0x20 DUP3 ADD SWAP1 POP PUSH2 0xB16 PUSH0 DUP4 ADD DUP5 PUSH2 0xAF4 JUMP JUMPDEST SWAP3 SWAP2 POP POP JUMP JUMPDEST PUSH0 DUP1 REVERT JUMPDEST PUSH0 DUP2 SWAP1 POP SWAP2 SWAP1 POP JUMP JUMPDEST PUSH2 0xB32 DUP2 PUSH2 0xB20 JUMP JUMPDEST DUP2 EQ PUSH2 0xB3C JUMPI PUSH0 DUP1 REVERT JUMPDEST POP JUMP JUMPDEST PUSH0 DUP2 CALLDATALOAD SWAP1 POP PUSH2 0xB4D DUP2 PUSH2 0xB29 JUMP JUMPDEST SWAP3 SWAP2 POP POP JUMP JUMPDEST PUSH0 PUSH1 0x20 DUP3 DUP5 SUB SLT ISZERO PUSH2 0xB68 JUMPI PUSH2 0xB67 PUSH2 0xB1C JUMP JUMPDEST JUMPDEST PUSH0 PUSH2 0xB75 DUP5 DUP3 DUP6 ADD PUSH2 0xB3F JUMP JUMPDEST SWAP2 POP POP SWAP3 SWAP2 POP POP JUMP JUMPDEST PUSH2 0xB87 DUP2 PUSH2 0xAE9 JUMP JUMPDEST DUP2 EQ PUSH2 0xB91 JUMPI PUSH0 DUP1 REVERT JUMPDEST POP JUMP JUMPDEST PUSH0 DUP2 CALLDATALOAD SWAP1 POP PUSH2 0xBA2 DUP2 PUSH2 0xB7E JUMP JUMPDEST SWAP3 SWAP2 POP POP JUMP JUMPDEST PUSH0 PUSH1 0x20 DUP3 DUP5 SUB SLT ISZERO PUSH2 0xBBD JUMPI PUSH2 0xBBC PUSH2 0xB1C JUMP JUMPDEST JUMPDEST PUSH0 PUSH2 0xBCA DUP5 DUP3 DUP6 ADD PUSH2 0xB94 JUMP JUMPDEST SWAP2 POP POP SWAP3 SWAP2 POP POP JUMP JUMPDEST PUSH0 DUP3 DUP3 MSTORE PUSH1 0x20 DUP3 ADD SWAP1 POP SWAP3 SWAP2 POP POP JUMP JUMPDEST PUSH32 0x4F6E6C79206D616E616765722063616E2063616C6C20746869732066756E6374 PUSH0 DUP3 ADD MSTORE PUSH32 0x696F6E0000000000000000000000000000000000000000000000000000000000 PUSH1 0x20 DUP3 ADD MSTORE POP JUMP JUMPDEST PUSH0 PUSH2 0xC3D PUSH1 0x23 DUP4 PUSH2 0xBD3 JUMP JUMPDEST SWAP2 POP PUSH2 0xC48 DUP3 PUSH2 0xBE3 JUMP JUMPDEST PUSH1 0x40 DUP3 ADD SWAP1 POP SWAP2 SWAP1 POP JUMP JUMPDEST PUSH0 PUSH1 0x20 DUP3 ADD SWAP1 POP DUP2 DUP2 SUB PUSH0 DUP4 ADD MSTORE PUSH2 0xC6A DUP2 PUSH2 0xC31 JUMP JUMPDEST SWAP1 POP SWAP2 SWAP1 POP JUMP JUMPDEST PUSH32 0x4E6F20706C617965727320696E20746865206C6F747465727900000000000000 PUSH0 DUP3 ADD MSTORE POP JUMP JUMPDEST PUSH0 PUSH2 0xCA5 PUSH1 0x19 DUP4 PUSH2 0xBD3 JUMP JUMPDEST SWAP2 POP PUSH2 0xCB0 DUP3 PUSH2 0xC71 JUMP JUMPDEST PUSH1 0x20 DUP3 ADD SWAP1 POP SWAP2 SWAP1 POP JUMP JUMPDEST PUSH0 PUSH1 0x20 DUP3 ADD SWAP1 POP DUP2 DUP2 SUB PUSH0 DUP4 ADD MSTORE PUSH2 0xCD2 DUP2 PUSH2 0xC99 JUMP JUMPDEST SWAP1 POP SWAP2 SWAP1 POP JUMP JUMPDEST PUSH32 0x4E487B7100000000000000000000000000000000000000000000000000000000 PUSH0 MSTORE PUSH1 0x12 PUSH1 0x4 MSTORE PUSH1 0x24 PUSH0 REVERT JUMPDEST PUSH0 PUSH2 0xD10 DUP3 PUSH2 0xB20 JUMP JUMPDEST SWAP2 POP PUSH2 0xD1B DUP4 PUSH2 0xB20 JUMP JUMPDEST SWAP3 POP DUP3 PUSH2 0xD2B JUMPI PUSH2 0xD2A PUSH2 0xCD9 JUMP JUMPDEST JUMPDEST DUP3 DUP3 MOD SWAP1 POP SWAP3 SWAP2 POP POP JUMP JUMPDEST PUSH32 0x4E487B7100000000000000000000000000000000000000000000000000000000 PUSH0 MSTORE PUSH1 0x32 PUSH1 0x4 MSTORE PUSH1 0x24 PUSH0 REVERT JUMPDEST PUSH2 0xD6C DUP2 PUSH2 0xB20 JUMP JUMPDEST DUP3 MSTORE POP POP JUMP JUMPDEST PUSH0 PUSH1 0x20 DUP3 ADD SWAP1 POP PUSH2 0xD85 PUSH0 DUP4 ADD DUP5 PUSH2 0xD63 JUMP JUMPDEST SWAP3 SWAP2 POP POP JUMP JUMPDEST PUSH32 0x42657474696E6720706861736520697320636C6F736564000000000000000000 PUSH0 DUP3 ADD MSTORE POP JUMP JUMPDEST PUSH0 PUSH2 0xDBF PUSH1 0x17 DUP4 PUSH2 0xBD3 JUMP JUMPDEST SWAP2 POP PUSH2 0xDCA DUP3 PUSH2 0xD8B JUMP JUMPDEST PUSH1 0x20 DUP3 ADD SWAP1 POP SWAP2 SWAP1 POP JUMP JUMPDEST PUSH0 PUSH1 0x20 DUP3 ADD SWAP1 POP DUP2 DUP2 SUB PUSH0 DUP4 ADD MSTORE PUSH2 0xDEC DUP2 PUSH2 0xDB3 JUMP JUMPDEST SWAP1 POP SWAP2 SWAP1 POP JUMP JUMPDEST PUSH32 0x42657474696E6720616D6F756E74206D7573742062652065786163746C792031 PUSH0 DUP3 ADD MSTORE PUSH32 0x2045746865720000000000000000000000000000000000000000000000000000 PUSH1 0x20 DUP3 ADD MSTORE POP JUMP JUMPDEST PUSH0 PUSH2 0xE4D PUSH1 0x26 DUP4 PUSH2 0xBD3 JUMP JUMPDEST SWAP2 POP PUSH2 0xE58 DUP3 PUSH2 0xDF3 JUMP JUMPDEST PUSH1 0x40 DUP3 ADD SWAP1 POP SWAP2 SWAP1 POP JUMP JUMPDEST PUSH0 PUSH1 0x20 DUP3 ADD SWAP1 POP DUP2 DUP2 SUB PUSH0 DUP4 ADD MSTORE PUSH2 0xE7A DUP2 PUSH2 0xE41 JUMP JUMPDEST SWAP1 POP SWAP2 SWAP1 POP JUMP JUMPDEST PUSH32 0x506C617965722068617320616C726561647920656E7465726564000000000000 PUSH0 DUP3 ADD MSTORE POP JUMP JUMPDEST PUSH0 PUSH2 0xEB5 PUSH1 0x1A DUP4 PUSH2 0xBD3 JUMP JUMPDEST SWAP2 POP PUSH2 0xEC0 DUP3 PUSH2 0xE81 JUMP JUMPDEST PUSH1 0x20 DUP3 ADD SWAP1 POP SWAP2 SWAP1 POP JUMP JUMPDEST PUSH0 PUSH1 0x20 DUP3 ADD SWAP1 POP DUP2 DUP2 SUB PUSH0 DUP4 ADD MSTORE PUSH2 0xEE2 DUP2 PUSH2 0xEA9 JUMP JUMPDEST SWAP1 POP SWAP2 SWAP1 POP JUMP JUMPDEST PUSH32 0x4D616E616765722063616E6E6F74207061727469636970617465000000000000 PUSH0 DUP3 ADD MSTORE POP JUMP JUMPDEST PUSH0 PUSH2 0xF1D PUSH1 0x1A DUP4 PUSH2 0xBD3 JUMP JUMPDEST SWAP2 POP PUSH2 0xF28 DUP3 PUSH2 0xEE9 JUMP JUMPDEST PUSH1 0x20 DUP3 ADD SWAP1 POP SWAP2 SWAP1 POP JUMP JUMPDEST PUSH0 PUSH1 0x20 DUP3 ADD SWAP1 POP DUP2 DUP2 SUB PUSH0 DUP4 ADD MSTORE PUSH2 0xF4A DUP2 PUSH2 0xF11 JUMP JUMPDEST SWAP1 POP SWAP2 SWAP1 POP JUMP JUMPDEST PUSH32 0x42657474696E6720706861736520697320616C726561647920696E2074686973 PUSH0 DUP3 ADD MSTORE PUSH32 0x2073746174650000000000000000000000000000000000000000000000000000 PUSH1 0x20 DUP3 ADD MSTORE POP JUMP JUMPDEST PUSH0 PUSH2 0xFAB PUSH1 0x26 DUP4 PUSH2 0xBD3 JUMP JUMPDEST SWAP2 POP PUSH2 0xFB6 DUP3 PUSH2 0xF51 JUMP JUMPDEST PUSH1 0x40 DUP3 ADD SWAP1 POP SWAP2 SWAP1 POP JUMP JUMPDEST PUSH0 PUSH1 0x20 DUP3 ADD SWAP1 POP DUP2 DUP2 SUB PUSH0 DUP4 ADD MSTORE PUSH2 0xFD8 DUP2 PUSH2 0xF9F JUMP JUMPDEST SWAP1 POP SWAP2 SWAP1 POP JUMP JUMPDEST PUSH0 DUP2 SWAP1 POP SWAP2 SWAP1 POP JUMP JUMPDEST PUSH2 0xFF9 PUSH2 0xFF4 DUP3 PUSH2 0xB20 JUMP JUMPDEST PUSH2 0xFDF JUMP JUMPDEST DUP3 MSTORE POP POP JUMP JUMPDEST PUSH0 PUSH2 0x100A DUP3 DUP7 PUSH2 0xFE8 JUMP JUMPDEST PUSH1 0x20 DUP3 ADD SWAP2 POP PUSH2 0x101A DUP3 DUP6 PUSH2 0xFE8 JUMP JUMPDEST PUSH1 0x20 DUP3 ADD SWAP2 POP PUSH2 0x102A DUP3 DUP5 PUSH2 0xFE8 JUMP JUMPDEST PUSH1 0x20 DUP3 ADD SWAP2 POP DUP2 SWAP1 POP SWAP5 SWAP4 POP POP POP POP JUMP INVALID LOG2 PUSH5 0x6970667358 0x22 SLT KECCAK256 0xCA PUSH11 0x964EF7D096B9BB96E7039F SELFBALANCE 0xC5 0x4B COINBASE PUSH0 LOG1 OR PUSH17 0xFCB7A08386EAFA89E8015664736F6C6343 STOP ADDMOD BYTE STOP CALLER "
				},
				"gasEstimates": {
					"creation": {
						"codeDepositCost": "841800",
						"executionCost": "49406",
						"totalCost": "891206"
					},
					"external": {
						"enter()": "80789",
						"getPlayers()": "infinite",
						"isBettingOpen()": "2488",
						"manager()": "2506",
						"pickWinner()": "infinite",
						"players(uint256)": "4988",
						"setBettingPhase(bool)": "infinite"
					},
					"internal": {
						"_random()": "infinite",
						"_resetLottery()": "infinite"
					}
				},
				"methodIdentifiers": {
					"enter()": "e97dcb62",
					"getPlayers()": "8b5b9ccc",
					"isBettingOpen()": "ee4eb586",
					"manager()": "481c6a75",
					"pickWinner()": "5d495aea",
					"players(uint256)": "f71d96cb",
					"setBettingPhase(bool)": "ff22717e"
				}
			},
			"storageLayout": {
				"storage": [
					{
						"astId": 3,
						"contract": "scripts/Lottery.sol:Lottery",
						"label": "manager",
						"offset": 0,
						"slot": "0",
						"type": "t_address"
					},
					{
						"astId": 6,
						"contract": "scripts/Lottery.sol:Lottery",
						"label": "players",
						"offset": 0,
						"slot": "1",
						"type": "t_array(t_address)dyn_storage"
					},
					{
						"astId": 8,
						"contract": "scripts/Lottery.sol:Lottery",
						"label": "isBettingOpen",
						"offset": 0,
						"slot": "2",
						"type": "t_bool"
					},
					{
						"astId": 12,
						"contract": "scripts/Lottery.sol:Lottery",
						"label": "playerExists",
						"offset": 0,
						"slot": "3",
						"type": "t_mapping(t_address,t_bool)"
					}
				],
				"types": {
					"t_address": {
						"encoding": "inplace",
						"label": "address",
						"numberOfBytes": "20"
					},
					"t_array(t_address)dyn_storage": {
						"base": "t_address",
						"encoding": "dynamic_array",
						"label": "address[]",
						"numberOfBytes": "32"
					},
					"t_bool": {
						"encoding": "inplace",
						"label": "bool",
						"numberOfBytes": "1"
					},
					"t_mapping(t_address,t_bool)": {
						"encoding": "mapping",
						"key": "t_address",
						"label": "mapping(address => bool)",
						"numberOfBytes": "32",
						"value": "t_bool"
					}
				}
			},
			"userdoc": {
				"kind": "user",
				"methods": {},
				"version": 1
			}
		}
	}
}